:100000005DC1000079C1000077C1000075C100002A
:1000100073C1000071C100006FC100006DC100001C
:100020006BC1000069C1000049C6000065C1000045
:1000300063C1000061C100005FC100005DC100003C
:100040005BC1000059C1000057C1000055C100004C
:1000500053C1000066C200004FC100004DC1000046
:100060004BC1000049C1000047C1000045C100006C
:1000700043C1000041C100003FC100003DC100007C
:100080003BC1000039C1000037C1000035C100008C
:1000900033C1000031C100007304640591049B0466
:1000A000C604EE04F9040A0526054D051B5B333131
:1000B0006D44657620456E756D204572726F720DC8
:1000C0000A202D2D204572726F7220436F646520C7
:1000D00025640D0A202D2D20537562204572726F04
:1000E0007220436F64652025640D0A202D2D204960
:1000F0006E2053746174652025640D0A1B5B3337D1
:100100006D001B5B33316D486F7374204D6F6465F8
:10011000204572726F720D0A202D2D204572726F6C
:100120007220436F64652025640D0A1B5B33376DB5
:1001300000537065616B657220456E756D65726107
:100140007465642E0D0A001B5B33316D436F756C53
:1001500064206E6F742073657420616C7465726EB8
:1001600061746976652073747265616D696E67206C
:10017000696E746572666163652073657474696E17
:10018000672E0D0A202D2D204572726F7220436F4D
:1001900064653A2025640D0A1B5B33376D001B5BD9
:1001A00033316D436F6E74726F6C204572726F7273
:1001B000202853657420436F6E6669677572617499
:1001C000696F6E292E0D0A202D2D204572726F72D7
:1001D00020436F64653A2025640D0A1B5B33376D3D
:1001E00000202D2D204572726F7220436F64653A96
:1001F0002025640D0A1B5B33376D001B5B33316DAB
:10020000496E76616C6964204465766963652E0D7C
:100210000A001B5B33316D436F6E74726F6C204547
:1002200072726F72202847657420436F6E6669672B
:1002300075726174696F6E292E0D0A0047657474BA
:10024000696E6720436F6E66696720446174612E32
:100250000D0A001B5B33326D44657669636520557A
:100260006E61747461636865642E0D0A1B5B3337BD
:100270006D001B5B33326D446576696365204174A4
:100280007461636865642E0D0A1B5B33376D001B58
:100290005B33366D417564696F204F75747075748A
:1002A00020486F73742044656D6F2072756E6E699F
:1002B0006E672E0D0A1B5B33376D000011241FBEC5
:1002C000CFEFD0E2DEBFCDBF11E0A0E0B1E0E4E5CA
:1002D000F8E100E00BBF02C007900D92A431B10716
:1002E000D9F721E0A4E1B1E001C01D92AC33B2071F
:1002F000E1F75CD00C94280C83CE9BB19F70892BC6
:100300008BB9089584B7877F84BF0FB6F894A895FA
:1003100080916000886180936000109260000FBE41
:1003200090E080E80FB6F8948093610090936100AC
:100330000FBE83E390E09093CD008093CC0086E0E5
:100340008093CA001092C80088E18093C900539A34
:100350005A9A6A98729A85EA80937A008298EEE7B0
:10036000F0E08081846080838AB1806F8AB98BB12C
:100370008F708BB98DD4A6E3B1E0E8E2F1E011967D
:10038000FC93EE931396FC93EE9312978EE0DF01AD
:100390001D928A95E9F783E083838FEF98E0918738
:1003A000808788E099E0938782870895ABDF8FE8A4
:1003B00092E070D780E1A1DF789413D7FECF82E777
:1003C00092E068D780EA99CF83E592E063D780E135
:1003D00094CF1F93CF93DF9300D01F92CDB7DEB79A
:1003E0008CE392E057D721D1182F882391F08130E8
:1003F00019F482E192E002C08BEF91E04BD71F929B
:100400001F9381EE91E09F938F931DD780E975DF55
:100410001BC081E0ACD6882329F01F928F938EE910
:1004200091E0F1CF6091180180911901C7D688231E
:1004300081F01F928F9387E491E09F938F9303D76E
:1004400080E95BDF80E093D60F900F900F900F90C4
:100450003AC08091170190E022E220931F0121E031
:100460002093200120E031E03093220120932101EC
:10047000909324018093230183E090E090932601E0
:10048000809325018091010190910201A0910301C7
:1004900089839A83AB831092A700CE01019671D510
:1004A000882329F080E929DF80E061D60CC082E052
:1004B00080936E0093E197BD84BD85BD81E391E09B
:1004C000E9D680E61ADF0F900F900F90DF91CF9161
:1004D0001F910895C82F74D31F92CF9382E091E0AB
:1004E0009F938F93B0D680E908DF0F900F900F9005
:1004F0000F90FFCF909127011F929F931F926F93B0
:100500001F928F938CEA90E09F938F939CD68DB728
:100510009EB708960FB6F8949EBF0FBE8DBF80E9B8
:10052000ECCE1F920F920FB60F9211242F933F9390
:100530008F939F938091A700877091E09093A7007D
:100540009091A9009F7B9093A9009091A60092FFA3
:100550002BC09091160121E0290F209316019F3F97
:1005600049F4209114013091150130583093150150
:1005700020931401629905C02091140190911501F6
:1005800002C020E090E02093AF009093AF00209352
:10059000AF009093AF009091A60095FD05C090919B
:1005A000A6009B779093A6009091A90090649093E9
:1005B000A9008093A7009F918F913F912F910F9059
:1005C0000FBE0F901F901895FC018181843051F46B
:1005D0008581813039F48681813021F487818111D0
:1005E00001C0089582E00895FC018181843059F4AE
:1005F0008581813041F48681823029F4978191117F
:1006000003C080E0089582E00895FC019181953057
:1006100031F483818370813031F480E00895943027
:1006200011F481E0089582E00895CF92DF92EF9275
:10063000FF920F931F93CF93DF93CDB7DEB7C450D4
:10064000D2400FB6F894DEBF0FBECDBFAE014F5FF4
:100650005F4FCD5FDD4F59834883C350D24020E0C8
:1006600032E0BE016F5F7D4F81E0D9D3853009F460
:1006700070C0863039F0811108C000E010E0C12C54
:10068000D12C3FC033E0F32E66C0FF24F39463C047
:1006900045E053E0BE016D5F7D4FCE018F5F9D4F02
:1006A00017D4F82E8823A9F144EF52E0BE016D5F04
:1006B0007D4FCE018F5F9D4F0BD48823E1F044EE38
:1006C00052E0BE016D5F7D4FCE018F5F9D4F00D424
:1006D00081111CC0CD5FDD4FC880D980C350D2408E
:1006E00044EF52E0BE016D5F7D4FCE018F5F9D4FA5
:1006F000EFD381110BC0CD5FDD4F08811981C3504D
:10070000D240C114D10409F0C3CFD9CF24E0F22ED6
:1007100022C0CD5FDD4FE881F981C350D2402281F4
:1007200027FDEFCF309769F3D80112968C9112977D
:100730008093190113968C918093180120931701CF
:100740000481158194E0E92E40E261E081E0C8D1A6
:1007500002C082E0F82E8F2DCC5FDD4F0FB6F894EB
:10076000DEBF0FBECDBFDF91CF911F910F91FF90E4
:10077000EF90DF90CF90089580919E0081709091CE
:10078000A0009D7F9093A00090919E009260909316
:100790009E0090919E0091FDFCCF90919E009160F3
:1007A00090939E0010921D019091A0009072209154
:1007B000A0002F7D2093A00020919F002F7D2093EB
:1007C0009F002AE030919F0035FF0BC020919F00D1
:1007D0002F7D20939F0020919F002D7F20939F00CD
:1007E00008C0EFECF7E03197F1F700C000002150AE
:1007F00049F7992329F09091A00090629093A0006E
:10080000811105C080919E008E7F80939E00809113
:10081000A00082608093A000089520919E00217026
:100820009091A00090723091A0003F7D3093A00085
:1008300030919F003F7D30939F0030919E0031604A
:1008400030939E00882339F130919F0035FF06C018
:1008500030919F003F7D30939F0081503091270160
:100860003130C1F03091A60034FF09C01092F5007C
:100870008091A6008F7E8093A60082E00CC030910C
:10088000A60031FFDFCF8091A6008D7F8093A60068
:1008900083E001C081E0211105C020919E002E7FE0
:1008A00020939E00992329F09091A000906290934C
:1008B000A0000895EF920F931F93CF93DF93CDB7CE
:1008C000DEB728970FB6F894DEBF0FBECDBFE0911C
:1008D00027018E2F90E08A30910508F0F5C0FC01C9
:1008E000E45BFF4FA7C400911B0110911C0101158F
:1008F000110509F4E9C081E090DF882331F090917F
:100900001A019093270191E0D1C001501109109371
:100910001C0100931B01012B09F0D6C080911A0124
:1009200007C088EE93E090931C0180931B0183E045
:1009300080932701C9C080911B0190911C019C01EB
:100940002150310930931C0120931B01892B39F070
:100950008FEC97E00197F1F700C00000B5C07798E1
:100960008091D80080618093D8008091DD008B7FDA
:100970008093DD008091D70080618093D7008091C3
:10098000DD0082608093DD0084E0D2CF80919F0003
:1009900080FF9AC080919F008E7F80939F008091FE
:1009A0009F008D7F80939F008091DF008D7F8093DB
:1009B000DF008091DE0082608093DE0080919E00E7
:1009C000816080939E00E8D01092270184E690E039
:1009D00090931C0180931B0185E05CC0CDDE1092DA
:1009E000270188EC90E090931C0180931B0186E026
:1009F00051C0E12C00E410E020E040E060E080E045
:100A00006FD08091AC0087FD03C080E094E04EC0C1
:100A100087E08ECF88E0E4E0F1E0AFE1B1E0019063
:100A20000D928A95E1F7CE010196ABD281113DC0BE
:100A3000888580930001A0DE1092270188EC90E069
:100A400090931C0180931B0188E024C00091000159
:100A500010E0E12C20E040E060E080E041D08091B7
:100A6000AC0087FFD2CF88E0ECE0F1E0AFE1B1E08D
:100A700001900D928A95E1F780E090E082D2811199
:100A800014C01092270184E690E090931C0180939B
:100A90001B0189E080931A0117C081E08093A100B7
:100AA0008AE08093270195DC0FC093E02091270115
:100AB000213051F0682F892F1DDD8091DD0081608C
:100AC0008093DD0081DC94D028960FB6F894DEBFC9
:100AD0000FBECDBFDF91CF911F910F91EF90089581
:100AE000EF920F931F932F70422B90E4699FB001F8
:100AF0001124642B382F2E2D2260373008F045C08A
:100B00003093A700381313C048E050E090E040173E
:100B1000510738F09295907F922BE62F50E070E0CD
:100B20000EC09530B9F39F5F440F551FF0CFE09191
:100B3000AA009091AB007091AD005091AE0091FD74
:100B400002C03F5FDACF4091A9004E7F4093A900D9
:100B50004091AB004D7F4093AB004091A9004160B4
:100B60004093A900E093AA009093AB007093AD006E
:100B70005093AE009091A90090629093A90090913B
:100B8000AC0097FDDECF80E003C08093A70081E03A
:100B90001F910F91EF9008951092F80080E08093DC
:100BA000A7001092AE001092A6001092AB00909198
:100BB000A9009E7F9093A9008F5F873081F70895E9
:100BC00070D077D0E0EEF0E0808181608083E8ED46
:100BD000F0E080818F77808319BCA7EDB0E08C9125
:100BE0008E7F8C9380818F7E808310921E0108956A
:100BF00058D05FD08091D8008F778093D8008091B3
:100C0000D80080688093D8008091D8008F7D809331
:100C1000D8008091D7008F778093D7008CE089BD72
:100C20008EE089BD09B400FEFDCF81E080932701ED
:100C300010921D0180E4809300018091D8008064AF
:100C40008093D8008091DD0081608093DD008091E9
:100C5000DD0084608093DD008091D7008F7E8093DB
:100C6000D7006F9A779A8091DE0081608093DE00D2
:100C70008091DE0084608093DE008091E0008E7FB2
:100C80008093E0008091D80080618093D80008951F
:100C9000E7EDF0E080818160808381E080931E0138
:100CA000A7CFE8EDF0E080818C7F80831092A000D8
:100CB00008951092DA0010929F0008951F920F92EB
:100CC0000FB60F9211240BB60F922F933F934F93B1
:100CD0005F936F937F938F939F93AF93BF93EF93A4
:100CE000FF9380919F0085FF0AC08091A00085FF3F
:100CF00006C080919F008F7D80939F001BD18091C3
:100D00009F0081FF15C08091A00081FF11C08091DC
:100D10009F008D7F80939F0080919F008E7F8093A6
:100D20009F008091A0008D7F8093A0004DDB60DF4D
:100D30008091DF0081FF15C08091DE0081FF11C02E
:100D40008091DF008D7F8093DF0077988091DD00B8
:100D500081608093DD0080E0BDDB36DB81E0809345
:100D600027018091DF0080FF17C08091DE0080FFA7
:100D700013C08091DF008E7F8093DF008091DE00C2
:100D80008E7F8093DE001BDB8091A00082608093C9
:100D9000A00082E0809327018091DF0082FF0EC0D7
:100DA0008091DE0082FF0AC08091DF008B7F8093FC
:100DB000DF0060E082E09EDB07DB1ADFFF91EF914E
:100DC000BF91AF919F918F917F916F915F914F9163
:100DD0003F912F910F900BBE0F900FBE0F901F9061
:100DE0001895CF93DF93DC01EB01E881F981208135
:100DF0008D919C91119730E08217930708F49C0124
:100E0000E20FF31FEB01F983E8838D919C91119719
:100E1000821B930B8D939C93DF91CF910895CF927A
:100E2000DF92EF92FF920F931F93CF93DF93CDB793
:100E3000DEB729970FB6F894DEBF0FBECDBF6B01AA
:100E40008A01790190E890931F0196E09093200128
:100E500090E001979260909322018093210110927B
:100E600024011092230189E090E090932601809361
:100E700025011092A700CE01019683D0811119C0DF
:100E80008B819C81F60191838083E816F90670F0CE
:100E90009093260180932501C80173D0811109C068
:100EA000F8018181823021F480E003C085E001C037
:100EB00086E029960FB6F894DEBF0FBECDBFDF9156
:100EC000CF911F910F91FF90EF90DF90CF900895F9
:100ED000AF92BF92CF92DF92EF92FF920F931F9348
:100EE000CF93DF938C01EB016A01F801E080F18080
:100EF000E114F10499F0A880B980BE01C80171DF46
:100F000088819981F6010995823079F3813039F42D
:100F1000B982A882F801F182E08201C082E0DF910B
:100F2000CF911F910F91FF90EF90DF90CF90BF90E6
:100F3000AF90089508951F93CF93DF93182FC9EEB4
:100F4000D3E011110CC08091A60083FD15C081E093
:100F500064DC811112C02197A1F784E00EC011302A
:100F600029F48091A60080FFF2CF06C0123079F7F5
:100F70008091A60082FFEBCF80E0DF91CF911F919F
:100F80000895FF920F931F93CF93DF938C0180916D
:100F90009E008170F82EC0912501D091260180918C
:100FA0009E00816080939E0081E037DC8111C8C083
:100FB0008091AA008F7C8093AA001092F500809106
:100FC000A6008F7E8093A6008091A9008F7B8093DE
:100FD000A900EFE1F1E087E291E021912093AF00D9
:100FE0008E179F07D1F78091A60087778093A60080
:100FF00080E0A1DF8111A4C08091A900806480936A
:10100000A90081E00ADC81119BC080911F0187FF4C
:101010004EC08091AA008F7C80618093AA00011548
:10102000110509F03AC08091AA008F7C80628093FC
:10103000AA008091A9008F7B8093A90082E07BDFCA
:1010400081117EC08091A6008B778093A60082E0FC
:1010500072DF76C08091A9008F7B8093A90081E028
:101060006ADF81116DC08091F6009091F700892BA5
:1010700011F4C0E0D0E0F8018F018091F60090916A
:10108000F700892B69F48091A90080648093A900FE
:101090008091A6008E778093A6002097D9F6C3CFC3
:1010A000209789F38091AF0081932197E5CF0115B7
:1010B000110591F18091AA008F7C80628093AA0033
:1010C0008091A9008F7B8093A90082E02097E1F0B6
:1010D00032DF811135C02091F6003091F700809108
:1010E000000190E02817390748F40F5F1F4FF801FF
:1010F000319780818093AF00219769F78091A60096
:101100008B778093A600E1CF16DF811119C0809103
:10111000A90080648093A9008091AA008F7C8061DF
:101120008093AA008091A9008F7B8093A90081E021
:1011300002DF811105C09091A6009E779093A600D2
:101140009091A90090649093A900F11005C090912E
:101150009E009E7F90939E0091E09093A800109235
:10116000A800DF91CF911F910F91FF900895CF9329
:10117000C82F10921F0189E0809320018C2F90E0EE
:101180009093220180932101109224011092230157
:1011900010922601109225011092A70080E090E0A5
:1011A000F0DE811109C0C0931D01C11102C09AE097
:1011B00001C09BE090932701CF910895EFE1F1E00A
:1011C00091E090839BE0918370E07383628390E071
:1011D00095838483178216821092A70080E090E0A6
:1011E000D0CE1F93CF93DF93C7EAD0E0188117705A
:1011F000188260DB1883DF91CF911F910895909141
:10120000C80095FFFCCF8093CE0080E090E0089569
:101210008091C80087FF08C08091C80087FF07C081
:101220008091CE0090E008958EEF9FEF08958FEFAC
:101230009FEF0895EE0FFF1F0024001C0BBE0790C8
:10124000F691E02D09940F931F93CF93DF93CDB7C1
:10125000DEB7AE01495F5F4FDA016D917D91AD015F
:1012600006E311E0F80182819381DC0113962C9151
:101270001397286013962C933ED0D8011296ED91C7
:10128000FC9113972381277F2383DF91CF911F91B7
:101290000F9108950F931F93CF93DF938C01E091EB
:1012A0003801F0913901838181FF1BC0D0E0C0E09B
:1012B000F80184916091380170913901DB01189631
:1012C000ED91FC911997882341F00995892B11F034
:1012D000DFEFCFEF0F5F1F4FEBCF8AE00995892B30
:1012E00019F08FEF9FEF02C08D2F9C2FDF91CF91D0
:1012F0001F910F9108952F923F924F925F926F929C
:101300007F928F929F92AF92BF92CF92DF92EF9295
:10131000FF920F931F93CF93DF93CDB7DEB72B9739
:101320000FB6F894DEBF0FBECDBF6C017B018A0102
:10133000FC0117821682838181FFBFC1CE01019615
:101340003C01F6019381F70193FD859193FF819113
:101350007F01882309F4ADC1853239F493FD85916D
:1013600093FF81917F01853221F4B60190E0D6D1BF
:10137000E8CF912C212C312CFFE1F315D8F08B32E2
:1013800079F038F4803279F08332A1F4232D206192
:101390001DC08D3261F0803369F4232D216016C0A9
:1013A000832D8260382EE32DE4603E2E2AC0F32D7B
:1013B000F8601DC037FC2DC020ED280F2A3040F00A
:1013C0008E32B9F436FC75C1232D2064322E19C03B
:1013D00036FE06C08AE0989E200D1124922E11C080
:1013E000EAE02E9E200D1124222EF32DF0623F2ED6
:1013F00008C08C3621F4832D8068382E02C08836D0
:1014000041F4F70193FD859193FF81917F01811153
:10141000B3CF982F9F7D9554933028F40C5F1F4FC6
:101420009FE399830DC0833631F0833771F08335A4
:1014300009F055C020C0F801808189830E5F1F4FDD
:1014400088248394912C530112C02801F2E04F0E9E
:10145000511CF801A080B18036FE03C0692D70E0F8
:1014600002C06FEF7FEFC5014ED14C018201F32D19
:10147000FF773F2E15C0280122E0420E511CF801D3
:10148000A080B18036FE03C0692D70E002C06FEF0E
:101490007FEFC5012DD14C01F32DF0683F2E820165
:1014A00033FC19C0822D90E088169906A0F4B6018D
:1014B00080E290E033D12A94F5CFF50137FC859195
:1014C00037FE81915F01B60190E028D121102A9466
:1014D00021E0821A91088114910479F7E1C08436E1
:1014E00011F0893639F5F80137FE07C06081718146
:1014F000828193810C5F1F4F08C060817181072E2C
:10150000000C880B990B0E5F1F4FF32DFF763F2EBB
:1015100097FF09C090958095709561957F4F8F4F8B
:101520009F4FF0683F2E2AE030E0A30133D1882E90
:10153000861844C0853731F4232D2F7EB22E2AE041
:1015400030E025C0932D997FB92E8F36C1F018F465
:10155000883579F0AEC0803719F0883721F0A9C0FE
:10156000E92FE061BE2EB4FE0DC0FB2DF460BF2E4E
:1015700009C034FE0AC0292F2660B22E06C028E01A
:1015800030E005C020E130E002C020E132E0F801A7
:10159000B7FE07C060817181828193810C5F1F4F0C
:1015A00006C06081718180E090E00E5F1F4FA30153
:1015B000F1D0882E8618FB2DFF773F2E36FE0DC00A
:1015C000232D2E7FA22E891458F434FE0BC032FC3A
:1015D00009C0832D8E7EA82E05C0B82CA32C03C075
:1015E000B82C01C0B92CA4FE0FC0FE01E80DF11DFE
:1015F0008081803321F49A2D997EA92E09C0A2FE04
:1016000006C0B394B39404C08A2D867809F0B394CD
:10161000A3FC10C0A0FE06C0B21480F4280C922CCB
:101620009B180DC0B21458F4B60180E290E076D059
:10163000B394F8CFB21418F42B1802C0982C212CB4
:10164000A4FE0FC0B60180E390E068D0A2FE16C0F1
:10165000A1FC03C088E790E002C088E590E0B601F5
:101660000CC08A2D867851F0A1FE02C08BE201C029
:1016700080E2A7FC8DE2B60190E050D0891430F4EE
:10168000B60180E390E04AD09A94F8CF8A94F301AF
:10169000E80DF11D8081B60190E040D08110F6CFB9
:1016A000222009F44ECEB60180E290E037D02A9491
:1016B000F7CFF6018681978102C08FEF9FEF2B96BF
:1016C0000FB6F894DEBF0FBECDBFDF91CF911F9153
:1016D0000F91FF90EF90DF90CF90BF90AF909F90D1
:1016E0008F907F906F905F904F903F902F900895D4
:1016F000FC010590615070400110D8F780959095DD
:101700008E0F9F1F0895FC016150704001900110E1
:10171000D8F7809590958E0F9F1F08950F931F9374
:10172000CF93DF93FB01238121FD03C08FEF9FEF58
:101730002CC022FF16C04681578124813581421773
:10174000530744F4A081B1819D012F5F3F4F318346
:1017500020838C93268137812F5F3F4F37832683E9
:1017600014C08B01EC01FB010084F185E02D09958B
:10177000892BE1F6D80116968D919C9117970196C9
:1017800017969C938E931697CE01DF91CF911F9160
:101790000F910895FA01AA27283051F1203181F1E3
:1017A000E8946F936E7F6E5F7F4F8F4F9F4FAF4F69
:1017B000B1E03ED0B4E03CD0670F781F891F9A1F7C
:1017C000A11D680F791F8A1F911DA11D6A0F711D30
:1017D000811D911DA11D20D009F468943F912AE03C
:1017E000269F11243019305D3193DEF6CF01089524
:1017F000462F4770405D4193B3E00FD0C9F7F6CF55
:10180000462F4F70405D4A3318F0495D31FD40521C
:10181000419302D0A9F7EACFB4E0A69597958795B2
:1018200077956795BA95C9F7009761057105089591
:101830009B01AC010A2E069457954795379527953D
:10184000BA95C9F7620F731F841F951FA01D0895D5
:04185000F894FFCF3A
:101854004080BB0080060001000008000005010074
:041864000000000080
:00000001FF
