:1000000051C100006DC100006BC1000069C100005A
:1000100067C1000065C1000063C1000061C100004C
:100020005FC100005DC1000002C6000059C10000B0
:1000300057C1000055C1000053C1000051C100006C
:100040004FC100004DC100004BC1000049C100007C
:1000500047C1000045C1000043C1000041C100008C
:100060003FC100003DC100003BC1000039C100009C
:1000700037C1000035C1000033C1000031C10000AC
:100080002FC100002DC100002BC1000029C10000BC
:1000900027C1000025C10000FE03EF041C04260454
:1000A0005104790484049504B104D8041B5B3331F2
:1000B0006D44657620456E756D204572726F720DC8
:1000C0000A202D2D204572726F7220436F646520C7
:1000D00025640D0A202D2D20537562204572726F04
:1000E0007220436F64652025640D0A202D2D204960
:1000F0006E2053746174652025640D0A1B5B3337D1
:100100006D001B5B33316D486F7374204D6F6465F8
:10011000204572726F720D0A202D2D204572726F6C
:100120007220436F64652025640D0A1B5B33376DB5
:10013000004B6579626F61726420456E756D657202
:10014000617465642E0D0A001B5B33316D436F6E65
:1001500074726F6C204572726F7220285365742020
:1001600050726F746F636F6C292E0D0A202D2D2035
:100170004572726F7220436F64653A2025640D0AE0
:100180001B5B33376D001B5B33316D436F6E7472D5
:100190006F6C204572726F72202853657420436F14
:1001A0006E66696775726174696F6E292E0D0A201B
:1001B0002D2D204572726F7220436F64653A2025A1
:1001C000640D0A1B5B33376D00202D2D20457272A4
:1001D0006F7220436F64653A2025640D0A1B5B3300
:1001E000376D001B5B33316D496E76616C6964203D
:1001F0004465766963652E0D0A001B5B33316D43E0
:100200006F6E74726F6C204572726F722028476532
:100210007420436F6E66696775726174696F6E29C9
:100220002E0D0A0047657474696E6720436F6E6611
:10023000696720446174612E0D0A001B5B33326DC7
:1002400044657669636520556E61747461636865A1
:10025000642E0D0A1B5B33376D001B5B33326D441C
:1002600065766963652041747461636865642E0D09
:100270000A1B5B33376D001B5B33366D4B65796250
:100280006F6172642048494420486F73742044654C
:100290006D6F2072756E6E696E672E0D0A1B5B3373
:1002A000376D000011241FBECFEFD0E2DEBFCDBFFF
:1002B00011E0A0E0B1E0EEE3F8E100E00BBF02C026
:1002C00007900D92AA31B107D9F721E0AAE1B1E078
:1002D00001C01D92AC33B207E1F734D10C941D0C70
:1002E0008FCE9BB19F70892B8BB9089584B7877F80
:1002F00084BF0FB6F894A8958091600088618093C0
:100300006000109260000FBE90E080E80FB6F89495
:1003100080936100909361000FBE83E390E090931F
:10032000CD008093CC0086E08093CA001092C80074
:1003300088E18093C900539A5A9A8AB1806F8AB92A
:100340008BB18F708BB95DD4A6E3B1E0E8E2F1E048
:100350001196FC93EE931396FC93EE9312978EE016
:10036000DF011D928A95E9F783E0838384EF98E0AB
:10037000918780878DEF98E09387828708958AE53B
:1003800092E0B9D780EAADCF8BE392E0B4D780E1B9
:10039000A8CFCF9384E292E0AED7F8D0C82F8823BD
:1003A000A9F0813019F48AEF91E002C083EE91E068
:1003B000A2D71F92CF9389EC91E09F938F9374D72C
:1003C0000F900F900F900F9080E92DC081E0D7D64D
:1003D000882329F01F928F9386E891E0EECF88E082
:1003E000E1E0F1E0AFE1B1E001900D928A95E1F733
:1003F0001092A70080E090E0CCD5882381F01F9276
:100400008F9388E491E09F938F934ED780E969DFC3
:100410000F900F900F900F9080E0CF91B0C681E3C6
:1004200091E069D780E6CF915CCFC82F82D31F922D
:10043000CF9382E091E09F938F9336D780E951DF8D
:100440000F900F900F900F90FFCF909127011F9268
:100450009F931F926F931F928F938CEA90E09F93CC
:100460008F9322D78DB79EB708960FB6F8949EBF8C
:100470000FBE8DBF80E935CFCF93DF93CDB7DEB709
:1004800028970FB6F894DEBF0FBECDBF809127012D
:100490008B3009F04EC081E08093A7008091A900C5
:1004A0008F7B8093A9008091A60080FF30C080914F
:1004B000A60085FF27C040E050E068E070E0CE0174
:1004C000019648D48981811180E19BB19F7E892B5F
:1004D0008BB98B818823B1F02BB190E292279BB925
:1004E0009CEF980F9A3110F4835C1CC092EE980F29
:1004F000993010F48D5E16C0873279F08C3279F025
:10050000883279F08091A6008E778093A600809142
:10051000A90080648093A9000CC080E303C080E23E
:1005200001C08AE0609138017091390190E080D675
:10053000E9CF28960FB6F894DEBF0FBECDBFDF918E
:10054000CF910895D3DE87E792E0D5D680E1C9DE6A
:10055000789492DF3BD6FDCFFC018181843041F459
:100560008581833029F48781813011F480E00895FA
:1005700082E00895FC018181853021F0843021F0F2
:1005800082E0089580E0089581E00895CF92DF929F
:10059000EF92FF920F931F93CF93DF93CDB7DEB708
:1005A000C450D2400FB6F894DEBF0FBECDBFAE012F
:1005B0004F5F5F4FCD5FDD4F59834883C350D240BB
:1005C00020E032E0BE016F5F7D4F81E030D48530A6
:1005D00009F447C0863029F0811106C000E010E020
:1005E00023C023E0F22E42C0FF24F3943FC04AEB25
:1005F00052E0BE016D5F7D4FCE018F5F9D4F70D485
:10060000F82E8823A9F04CEA52E0BE016D5F7D4FC1
:10061000CE018F5F9D4F64D4811126C0CD5FDD4F29
:1006200008811981C350D2400115110501F7EBCFA4
:10063000CD5FDD4FC880D980C350D240F601228102
:1006400027FFF2CFC114D10479F304811581E12C85
:1006500040E163E081E0CFD1F60186818093AD0077
:1006600005C092E0F92E02C084E0F82E8F2DCC5FF9
:10067000DD4F0FB6F894DEBF0FBECDBFDF91CF9137
:100680001F910F91FF90EF90DF90CF900895809190
:100690009E0081709091A0009D7F9093A00090910A
:1006A0009E00926090939E0090919E0091FDFCCFE1
:1006B00090919E00916090939E0010921D019091E8
:1006C000A00090722091A0002F7D2093A000209187
:1006D0009F002F7D20939F002AE030919F0035FFDF
:1006E0000BC020919F002F7D20939F0020919F00A1
:1006F0002D7F20939F0008C0EFECF7E03197F1F7D2
:1007000000C00000215049F7992329F09091A000E2
:1007100090629093A000811105C080919E008E7F11
:1007200080939E008091A00082608093A000089535
:1007300020919E0021709091A00090723091A000B5
:100740003F7D3093A00030919F003F7D30939F000C
:1007500030919E00316030939E00882339F13091B2
:100760009F0035FF06C030919F003F7D30939F0072
:100770008150309127013130C1F03091A60034FF13
:1007800009C01092F5008091A6008F7E8093A6008C
:1007900082E00CC03091A60031FFDFCF8091A6002F
:1007A0008D7F8093A60083E001C081E0211105C008
:1007B00020919E002E7F20939E00992329F09091F6
:1007C000A00090629093A0000895EF920F931F9362
:1007D000CF93DF93CDB7DEB728970FB6F894DEBF7F
:1007E0000FBECDBFE09127018E2F90E08A3091059A
:1007F00008F0F5C0FC01E45BFF4F11C500911B013F
:1008000010911C010115110509F4E9C081E090DF88
:10081000882331F090911A019093270191E0D1C083
:100820000150110910931C0100931B01012B09F0C9
:10083000D6C080911A0107C088EE93E090931C0106
:1008400080931B0183E080932701C9C080911B0125
:1008500090911C019C012150310930931C0120937F
:100860001B01892B39F08FEC97E00197F1F700C05D
:100870000000B5C077988091D80080618093D8003F
:100880008091DD008B7F8093DD008091D7008061B7
:100890008093D7008091DD0082608093DD0084E04A
:1008A000D2CF80919F0080FF9AC080919F008E7F61
:1008B00080939F0080919F008D7F80939F00809107
:1008C000DF008D7F8093DF008091DE008260809367
:1008D000DE0080919E00816080939E00E8D010929F
:1008E000270184E690E090931C0180931B0185E032
:1008F0005CC0CDDE1092270188EC90E090931C0143
:1009000080931B0186E051C0E12C00E410E020E060
:1009100040E060E080E06FD08091AC0087FD03C0D4
:1009200080E094E04EC087E08ECF88E0E9E0F1E01F
:10093000AFE1B1E001900D928A95E1F7CE01019609
:1009400028D381113DC0888580930001A0DE1092DC
:10095000270188EC90E090931C0180931B0188E0B4
:1009600024C00091000110E0E12C20E040E060E0B4
:1009700080E041D08091AC0087FFD2CF88E0E1E1F8
:10098000F1E0AFE1B1E001900D928A95E1F780E0EE
:1009900090E0FFD2811114C01092270184E690E00C
:1009A00090931C0180931B0189E080931A0117C06A
:1009B00081E08093A1008AE080932701EADC0FC0E8
:1009C00093E020912701213051F0682F892F3DDDE0
:1009D0008091DD0081608093DD00D6DCC2D0289656
:1009E0000FB6F894DEBF0FBECDBFDF91CF911F9140
:1009F0000F91EF900895EF920F931F932F70422B5A
:100A000090E4699FB0011124642B382F2E2D2260B1
:100A1000373008F045C03093A700381313C048E0C2
:100A200050E090E04017510738F09295907F922B5C
:100A3000E62F50E070E00EC09530B9F39F5F440F91
:100A4000551FF0CFE091AA009091AB007091AD00DE
:100A50005091AE0091FD02C03F5FDACF4091A900F6
:100A60004E7F4093A9004091AB004D7F4093AB0077
:100A70004091A90041604093A900E093AA0090939F
:100A8000AB007093AD005093AE009091A9009062BE
:100A90009093A9009091AC0097FDDECF80E003C059
:100AA0008093A70081E01F910F91EF90089510921D
:100AB000F80080E08093A7001092AE001092A6008C
:100AC0001092AB009091A9009E7F9093A9008F5F38
:100AD000873081F708954091A2005091A30085E6E8
:100AE0009091AA009073903129F49091A60090FF04
:100AF00005C019C09091A60092FD15C09091A60066
:100B000091FD13C090912701913089F02091A200AE
:100B10003091A3004217530719F3815011F0A90136
:100B2000DFCF83E0089580E0089581E0089582E0BA
:100B3000089570D077D0E0EEF0E08081816080830E
:100B4000E8EDF0E080818F77808319BCA7EDB0E0FD
:100B50008C918E7F8C9380818F7E808310921E017A
:100B6000089558D05FD08091D8008F778093D800B7
:100B70008091D80080688093D8008091D8008F7DC4
:100B80008093D8008091D7008F778093D7008CE036
:100B900089BD8EE089BD09B400FEFDCF81E0809360
:100BA000270110921D0180E4809300018091D800FC
:100BB00080648093D8008091DD0081608093DD00A7
:100BC0008091DD0084608093DD008091D7008F7E6E
:100BD0008093D7006F9A779A8091DE00816080932E
:100BE000DE008091DE0084608093DE008091E00072
:100BF0008E7F8093E0008091D80080618093D80040
:100C00000895E7EDF0E080818160808381E080934A
:100C10001E01A7CFE8EDF0E080818C7F80831092E9
:100C2000A00008951092DA0010929F0008951F927C
:100C30000F920FB60F9211240BB60F922F933F9382
:100C40004F935F936F937F938F939F93AF93BF93D4
:100C5000EF93FF9380919F0085FF0AC08091A000D1
:100C600085FF06C080919F008F7D80939F006AD191
:100C700080919F0081FF15C08091A00081FF11C06D
:100C800080919F008D7F80939F0080919F008E7F39
:100C900080939F008091A0008D7F8093A00074DBE3
:100CA00060DF8091DF0081FF15C08091DE0081FF51
:100CB00011C08091DF008D7F8093DF007798809155
:100CC000DD0081608093DD0080E0AFDB5DDB81E0F3
:100CD000809327018091DF0080FF17C08091DE00A4
:100CE00080FF13C08091DF008E7F8093DF008091B2
:100CF000DE008E7F8093DE0042DB8091A000826068
:100D00008093A00082E0809327018091DF0082FF22
:100D10000EC08091DE0082FF0AC08091DF008B7FD1
:100D20008093DF0060E082E090DB2EDB1ADFFF9132
:100D3000EF91BF91AF919F918F917F916F915F9153
:100D40004F913F912F910F900BBE0F900FBE0F90C0
:100D50001F901895CF92DF92EF92FF920F931F93FF
:100D6000CF93DF93EC018B017A018091AA008F7CF5
:100D700080618093AA00AFDE811132C0E114F104DA
:100D800039F0F70180819181081B190BC80FD91F19
:100D9000C12CD12C0115110511F18091A60085FD02
:100DA00015C08091A6008E778093A600E114F1040F
:100DB00049F0F70180819181C80ED91ED182C0828D
:100DC00084E00EC088DE882329F30AC08091AF003A
:100DD000899301501109FFEFCF1ADF0ADBCF80E0C2
:100DE000DF91CF911F910F91FF90EF90DF90CF9007
:100DF0000895CF93DF93DC01EB01E881F981208135
:100E00008D919C91119730E08217930708F49C0113
:100E1000E20FF31FEB01F983E8838D919C91119709
:100E2000821B930B8D939C93DF91CF910895CF926A
:100E3000DF92EF92FF920F931F93CF93DF93CDB783
:100E4000DEB729970FB6F894DEBF0FBECDBF6B019A
:100E50008A01790190E890931F0196E09093200118
:100E600090E001979260909322018093210110926B
:100E700024011092230189E090E090932601809351
:100E800025011092A700CE01019683D0811119C0CF
:100E90008B819C81F60191838083E816F90670F0BE
:100EA0009093260180932501C80173D0811109C058
:100EB000F8018181823021F480E003C085E001C027
:100EC00086E029960FB6F894DEBF0FBECDBFDF9146
:100ED000CF911F910F91FF90EF90DF90CF900895E9
:100EE000AF92BF92CF92DF92EF92FF920F931F9338
:100EF000CF93DF938C01EB016A01F801E080F18070
:100F0000E114F10499F0A880B980BE01C80171DF35
:100F100088819981F6010995823079F3813039F41D
:100F2000B982A882F801F182E08201C082E0DF91FB
:100F3000CF911F910F91FF90EF90DF90CF90BF90D6
:100F4000AF90089508951F93CF93DF93182FC9EEA4
:100F5000D3E011110CC08091A60083FD15C081E083
:100F6000E7DB811112C02197A1F784E00EC0113098
:100F700029F48091A60080FFF2CF06C0123079F7E5
:100F80008091A60082FFEBCF80E0DF91CF911F918F
:100F90000895FF920F931F93CF93DF938C0180915D
:100FA0009E008170F82EC0912501D091260180917C
:100FB0009E00816080939E0081E0BADB8111C8C0F1
:100FC0008091AA008F7C8093AA001092F5008091F6
:100FD000A6008F7E8093A6008091A9008F7B8093CE
:100FE000A900EFE1F1E087E291E021912093AF00C9
:100FF0008E179F07D1F78091A60087778093A60070
:1010000080E0A1DF8111A4C08091A9008064809359
:10101000A90081E08DDB81119BC080911F0187FFBA
:101020004EC08091AA008F7C80618093AA00011538
:10103000110509F03AC08091AA008F7C80628093EC
:10104000AA008091A9008F7B8093A90082E07BDFBA
:1010500081117EC08091A6008B778093A60082E0EC
:1010600072DF76C08091A9008F7B8093A90081E018
:101070006ADF81116DC08091F6009091F700892B95
:1010800011F4C0E0D0E0F8018F018091F60090915A
:10109000F700892B69F48091A90080648093A900EE
:1010A0008091A6008E778093A6002097D9F6C3CFB3
:1010B000209789F38091AF0081932197E5CF0115A7
:1010C000110591F18091AA008F7C80628093AA0023
:1010D0008091A9008F7B8093A90082E02097E1F0A6
:1010E00032DF811135C02091F6003091F7008091F8
:1010F000000190E02817390748F40F5F1F4FF801EF
:10110000319780818093AF00219769F78091A60085
:101110008B778093A600E1CF16DF811119C08091F3
:10112000A90080648093A9008091AA008F7C8061CF
:101130008093AA008091A9008F7B8093A90081E011
:1011400002DF811105C09091A6009E779093A600C2
:101150009091A90090649093A900F11005C090911E
:101160009E009E7F90939E0091E09093A800109225
:10117000A800DF91CF911F910F91FF900895CF9319
:10118000C82F10921F0189E0809320018C2F90E0DE
:101190009093220180932101109224011092230147
:1011A00010922601109225011092A70080E090E095
:1011B000F0DE811109C0C0931D01C11102C09AE087
:1011C00001C09BE090932701CF9108951F93CF9387
:1011D000DF93C7EAD0E0188117701882F6DA188317
:1011E000DF91CF911F9108959091C80095FFFCCF9A
:1011F0008093CE0080E090E008958091C80087FF42
:1012000008C08091C80087FF07C08091CE0090E0A1
:1012100008958EEF9FEF08958FEF9FEF0895EE0FE3
:10122000FF1F0024001C0BBE0790F691E02D0994CF
:101230000F931F93CF93DF93FB01238121FD03C005
:101240008FEF9FEF2CC022FF16C04681578124816B
:1012500035814217530744F4A081B1819D012F5F6E
:101260003F4F318320838C93268137812F5F3F4FFF
:101270003783268314C08B01EC01FB010084F185C8
:10128000E02D0995892BE1F6D80116968D919C9158
:101290001797019617969C938E931697CE01DF9120
:1012A000CF911F910F9108950F931F93CF93DF93C9
:1012B000CDB7DEB7AE01495F5F4FDA016D917D9129
:1012C000AD0106E311E0F80182819381DC01139600
:1012D0002C911397286013962C933ED0D801129628
:1012E000ED91FC9113972381277F2383DF91CF9189
:1012F0001F910F9108950F931F93CF93DF938C014C
:10130000E0913801F0913901838181FF1BC0D0E069
:10131000C0E0F80184916091380170913901DB01DE
:101320001896ED91FC911997882341F00995892B26
:1013300011F0DFEFCFEF0F5F1F4FEBCF8AE0099582
:10134000892B19F08FEF9FEF02C08D2F9C2FDF911B
:10135000CF911F910F9108952F923F924F925F92DC
:101360006F927F928F929F92AF92BF92CF92DF92B5
:10137000EF92FF920F931F93CF93DF93CDB7DEB71A
:101380002B970FB6F894DEBF0FBECDBF6C017B016B
:101390008A01FC0117821682838181FFBFC1CE01C1
:1013A00001963C01F6019381F70193FD859193FF2E
:1013B00081917F01882309F4ADC1853239F493FD11
:1013C000859193FF81917F01853221F4B60190E0F0
:1013D0002FDFE8CF912C212C312CFFE1F315D8F031
:1013E0008B3279F038F4803279F08332A1F4232DF6
:1013F00020611DC08D3261F0803369F4232D21609E
:1014000016C0832D8260382EE32DE4603E2E2AC064
:10141000F32DF8601DC037FC2DC020ED280F2A30B9
:1014200040F08E32B9F436FC75C1232D2064322E83
:1014300019C036FE06C08AE0989E200D1124922E17
:1014400011C0EAE02E9E200D1124222EF32DF06211
:101450003F2E08C08C3621F4832D8068382E02C0C0
:10146000883641F4F70193FD859193FF81917F01C7
:101470008111B3CF982F9F7D9554933028F40C5F42
:101480001F4F9FE399830DC0833631F0833771F08E
:10149000833509F055C020C0F801808189830E5F33
:1014A0001F4F88248394912C530112C02801F2E02D
:1014B0004F0E511CF801A080B18036FE03C0692D8B
:1014C00070E002C06FEF7FEFC5014ED14C01820189
:1014D000F32DFF773F2E15C0280122E0420E511C4C
:1014E000F801A080B18036FE03C0692D70E002C013
:1014F0006FEF7FEFC5012DD14C01F32DF0683F2E2A
:10150000820133FC19C0822D90E088169906A0F460
:10151000B60180E290E08CDE2A94F5CFF50137FC2D
:10152000859137FE81915F01B60190E081DE211047
:101530002A9421E0821A91088114910479F7E1C07C
:10154000843611F0893639F5F80137FE07C060811D
:101550007181828193810C5F1F4F08C0608171810E
:10156000072E000C880B990B0E5F1F4FF32DFF7693
:101570003F2E97FF09C090958095709561957F4F9C
:101580008F4F9F4FF0683F2E2AE030E0A301F7D045
:10159000882E861844C0853731F4232D2F7EB22E35
:1015A0002AE030E025C0932D997FB92E8F36C1F007
:1015B00018F4883579F0AEC0803719F0883721F0FB
:1015C000A9C0E92FE061BE2EB4FE0DC0FB2DF46072
:1015D000BF2E09C034FE0AC0292F2660B22E06C0D5
:1015E00028E030E005C020E130E002C020E132E038
:1015F000F801B7FE07C060817181828193810C5F21
:101600001F4F06C06081718180E090E00E5F1F4F28
:10161000A301B5D0882E8618FB2DFF773F2E36FE0E
:101620000DC0232D2E7FA22E891458F434FE0BC03A
:1016300032FC09C0832D8E7EA82E05C0B82CA32CA9
:1016400003C0B82C01C0B92CA4FE0FC0FE01E80DE8
:10165000F11D8081803321F49A2D997EA92E09C035
:10166000A2FE06C0B394B39404C08A2D867809F014
:10167000B394A3FC10C0A0FE06C0B21480F4280CE2
:10168000922C9B180DC0B21458F4B60180E290E081
:10169000CFDDB394F8CFB21418F42B1802C0982CF5
:1016A000212CA4FE0FC0B60180E390E0C1DDA2FEB4
:1016B00016C0A1FC03C088E790E002C088E590E076
:1016C000B6010CC08A2D867851F0A1FE02C08BE2D3
:1016D00001C080E2A7FC8DE2B60190E0A9DD89148B
:1016E00030F4B60180E390E0A3DD9A94F8CF8A94B9
:1016F000F301E80DF11D8081B60190E099DD8110C4
:10170000F6CF222009F44ECEB60180E290E090DDC3
:101710002A94F7CFF6018681978102C08FEF9FEF61
:101720002B960FB6F894DEBF0FBECDBFDF91CF91E1
:101730001F910F91FF90EF90DF90CF90BF90AF90EF
:101740009F908F907F906F905F904F903F902F90E1
:101750000895FC010590615070400110D8F7809504
:1017600090958E0F9F1F0895FC016150704001906D
:101770000110D8F7809590958E0F9F1F0895FA015C
:10178000AA27283051F1203181F1E8946F936E7FC0
:101790006E5F7F4F8F4F9F4FAF4FB1E03ED0B4E0B1
:1017A0003CD0670F781F891F9A1FA11D680F791FF2
:1017B0008A1F911DA11D6A0F711D811D911DA11D03
:1017C00020D009F468943F912AE0269F1124301913
:1017D000305D3193DEF6CF010895462F4770405DAE
:1017E0004193B3E00FD0C9F7F6CF462F4F70405D5D
:1017F0004A3318F0495D31FD4052419302D0A9F7B8
:10180000EACFB4E0A6959795879577956795BA95B1
:10181000C9F700976105710508959B01AC010A2E77
:1018200006945795479537952795BA95C9F7620F4E
:0E183000731F841F951FA01D0895F894FFCF0D
:10183E0040210B000000000000800600010000089F
:0A184E00000005010000000000008A
:00000001FF
