:1000000072C100008EC100008CC100008AC10000D6
:1000100088C1000086C1000084C1000082C10000C8
:1000200080C100007EC1000034C700007AC100001A
:1000300078C1000076C1000074C1000072C10000E8
:1000400070C100006EC100006CC100006AC10000F8
:1000500068C1000066C1000064C1000062C1000008
:1000600060C100005EC100005CC100005AC1000018
:1000700058C1000056C1000054C1000052C1000028
:1000800050C100004EC100004CC100004AC1000038
:1000900048C1000046C10000300521064E05580544
:1000A0008305AB05B605C705E3050A061B5B3331BF
:1000B0006D44657620456E756D204572726F720DC8
:1000C0000A202D2D204572726F7220436F646520C7
:1000D00025640D0A202D2D20537562204572726F04
:1000E0007220436F64652025640D0A202D2D204960
:1000F0006E2053746174652025640D0A1B5B3337D1
:100100006D001B5B33316D486F7374204D6F6465F8
:10011000204572726F720D0A202D2D204572726F6C
:100120007220436F64652025640D0A1B5B33376DB5
:10013000004A6F79737469636B20456E756D6572E3
:10014000617465642E0D0A00202D2D204572726F9A
:100150007220436F64653A2025640D0A1B5B3337B8
:100160006D004E6F7420612076616C6964204A6F67
:1001700079737469636B2E1B5B33376D001B5B33C4
:10018000316D5265706F72742050617273652045D5
:1001900072726F722E0D0A0050726F63657373690D
:1001A0006E6720484944205265706F72742028534E
:1001B000697A65202564204279746573292E0D0AB9
:1001C000001B5B33316D436F6E74726F6C20457230
:1001D000726F72202853657420436F6E666967756D
:1001E000726174696F6E292E0D0A202D2D204572C3
:1001F000726F7220436F64653A2025640D0A1B5BA1
:1002000033376D00202D2D204572726F7220436FA1
:1002100064653A2025640D0A1B5B33376D001B5B58
:1002200033316D496E76616C69642044657669632B
:10023000652E0D0A001B5B33316D436F6E74726F58
:100240006C204572726F72202847657420436F6E70
:1002500066696775726174696F6E292E0D0A0047B1
:10026000657474696E6720436F6E666967204461C8
:1002700074612E0D0A001B5B33326D446576696331
:100280006520556E61747461636865642E0D0A1B88
:100290005B33376D001B5B33326D44657669636594
:1002A0002041747461636865642E0D0A1B5B3337EB
:1002B0006D001B5B33366D4A6F79737469636B2015
:1002C0004849442050617273657220486F737420EE
:1002D00044656D6F2072756E6E696E672E0D0A1B18
:1002E0005B33376D000011241FBECFEFD0E2DEBFBD
:1002F000CDBF11E0A0E0B1E0E0E2F2E200E00BBF30
:1003000002C007900D92A231B107D9F725E0A2E112
:10031000B1E001C01D92AF30B207E1F7B1D10C944A
:100320000E116ECE9BB19F70892B8BB9089584B747
:10033000877F84BF0FB6F894A8958091600088618C
:1003400080936000109260000FBE90E080E80FB6CE
:10035000F89480936100909361000FBE83E390E076
:100360009093CD008093CC0086E08093CA001092D9
:10037000C80088E18093C900539A5A9A8AB1806F65
:100380008AB98BB18F708BB96ED5A9E0B5E0EBEF70
:10039000F4E01196FC93EE931396FC93EE93129770
:1003A0008EE0DF011D928A95E9F783E0838385EE75
:1003B0009DE0918780878EEE9DE0938782870895E8
:1003C00085E992E00E94300E80EAACCF86E792E0A9
:1003D0000E94300E80E1A6CFCF938FE592E00E947D
:1003E000300E78D1C82F8823B9F0813019F485E315
:1003F00092E002C08EE192E00E94300E1F92CF93F5
:1004000084E092E09F938F930E94090E0F900F90CB
:100410000F900F9080E940C081E0E3D7882329F056
:100420001F928F9381EC91E0EDCF8091EF048F9339
:100430008091EE048F9388E991E09F938F930E94BF
:10044000090EE7D1C82F0F900F900F900F908823BF
:10045000F1F08DE791E00E94300E8091150181113D
:1004600005C082E691E00E94300E0CC01F92CF932F
:1004700088E491E09F938F930E94090E0F900F9054
:100480000F900F9080E94EDF80E0CF91AAC781E303
:1004900091E00E94300E80E6CF9144CFC82F7BD4EC
:1004A0001F92CF9382E091E09F938F930E94090E59
:1004B00080E938DF0F900F900F900F90FFCF909151
:1004C000FA041F929F931F926F931F928F938CEA4F
:1004D00090E09F938F930E94090E8DB79EB7089668
:1004E0000FB6F8949EBF0FBE8DBF80E91BCFBF92A1
:1004F000CF92DF92EF92FF920F931F93CF93DF93F0
:100500008C01C12CD12C9AE2B92E20E1E22EF12CE3
:1005100080911501C81608F055C0BC9CE00111245B
:10052000BE016A5E7E4FCB5EDE4F8A859B85893039
:10053000910599F48B81811143C0C8010E94870DF8
:100540008823F1F18BA19CA1ADA1BEA1892B8A2B9F
:100550008B2BB1F180EFD82E33C0019789F58C85B4
:100560009D85C097029760F58B81811129C0C801D4
:100570000E94870D882321F189859701281B310965
:100580008BA19CA1ADA1BEA104C0880F991FAA1F79
:10059000BB1F2A95D2F7009799F02C853D85203313
:1005A000310539F41816190614F080E208C080E10C
:1005B00006C01816190614F080E401C080E8D82A95
:1005C000C394A6CF8D2DDF91CF911F910F91FF90F6
:1005D000EF90DF90CF90BF90A5CEEF92FF920F9358
:1005E0001F93CF93DF93CDB7DEB70DB71EB78091C2
:1005F000FA048B30C9F581E08093A7008091A900AF
:100600008F7B8093A9008091A60080FF28C08091F5
:10061000A60085FF1FC08091F6009091F7002DB7CE
:100620003EB7281B390B0FB6F8943EBF0FBE2DBF47
:100630008DB79EB701967C016091F6007091F7002E
:1006400040E050E0B9D4C70152DF0FB6F8941EBFA6
:100650000FBE0DBF8091A6008E778093A60080917B
:10066000A90080648093A9000FB6F8941EBF0FBE46
:100670000DBFDF91CF911F910F91FF90EF900895E3
:1006800056DE82EB92E00E94300E80E14BDE7894E1
:10069000A4DFCED6FDCFFC012181243029F4858151
:1006A000833011F480E0089582E00895FC01818197
:1006B000853021F0843021F082E0089580E00895B3
:1006C00081E00895FC018181813211F082E008957A
:1006D00080E00895AF92BF92CF92DF92EF92FF92A7
:1006E0000F931F93CF93DF93CDB7DEB7C450D240A3
:1006F0000FB6F894DEBF0FBECDBFAE014F5F5F4FA8
:10070000CD5FDD4F59834883C350D24020E032E0B3
:10071000BE016F5F7D4F81E0BCD4853009F464C0B9
:10072000863039F0811108C0A12CB12C00E010E016
:1007300034C023E0F22E5AC0FF24F39457C046E59C
:1007400053E0BE016D5F7D4FCE018F5F9D4FFAD4A8
:10075000F82E882349F14BE453E0BE016D5F7D4FD5
:10076000CE018F5F9D4FEED481111BC0CD5FDD4F59
:1007700008811981C350D24042E653E0BE016D5F4B
:100780007D4FCE018F5F9D4FDDD481110AC0CD5FBB
:10079000DD4FA880B980C350D2400115110579F60C
:1007A000DACF94E0F92E22C0CD5FDD4FC880D9802A
:1007B000C350D240F601228127FFEFCFC114D104EC
:1007C00061F304811581E12C40E163E081E045D2D1
:1007D000F60186818093AD00F50187819085909325
:1007E000EF048093EE0402C082E0F82E8F2DCC5FE0
:1007F000DD4F0FB6F894DEBF0FBECDBFDF91CF91B6
:100800001F910F91FF90EF90DF90CF90BF90AF902E
:100810000895EF92FF920F931F93CF93DF93CDB77D
:10082000DEB7EDB6FEB68091EE049091EF042DB7E1
:100830003EB7281B390B0FB6F8943EBF0FBE2DBF35
:100840000DB71EB70F5F1F4F21E82093F20426E07B
:100850002093F30420E032E23093F5042093F40473
:100860001092F7041092F6049093F9048093F80420
:100870001092A700C801BFD481110DC06091EE0491
:100880007091EF0445E151E0C801E0D591E081119C
:1008900003C090E001C092E0892F0FB6F894FEBE2D
:1008A0000FBEEDBEDF91CF911F910F91FF90EF90A2
:1008B0000895DC011696ED91FC9117973097B1F0F1
:1008C000218132812130310529F423813481243082
:1008D000310521F00580F681E02DF0CFFC01218566
:1008E0003285277F81E02130310509F080E00895CD
:1008F00080919E0081709091A0009D7F9093A000B8
:1009000090919E00926090939E0090919E0091FD28
:10091000FCCF90919E00916090939E001092F00405
:100920009091A00090722091A0002F7D2093A000B4
:1009300020919F002F7D20939F002AE030919F00FF
:1009400035FF0BC020919F002F7D20939F002091A9
:100950009F002D7F20939F0008C0EFECF7E03197B8
:10096000F1F700C00000215049F7992329F0909138
:10097000A00090629093A000811105C080919E001C
:100980008E7F80939E008091A00082608093A00063
:10099000089520919E0021709091A0009072309156
:1009A000A0003F7D3093A00030919F003F7D3093A9
:1009B0009F0030919E00316030939E00882339F172
:1009C00030919F0035FF06C030919F003F7D3093EE
:1009D0009F0081503091FA043130C1F03091A6006F
:1009E00034FF09C01092F5008091A6008F7E80939D
:1009F000A60082E00CC03091A60031FFDFCF8091CD
:100A0000A6008D7F8093A60083E001C081E02111C4
:100A100005C020919E002E7F20939E00992329F0EF
:100A20009091A00090629093A0000895EF920F9390
:100A30001F93CF93DF93CDB7DEB728970FB6F89407
:100A4000DEBF0FBECDBFE091FA048E2F90E08A305A
:100A5000910508F0F6C0FC01E45BFF4F0C94000E1A
:100A600000911301109114010115110509F4E9C059
:100A700081E08FDF882331F0909112019093FA0486
:100A800091E0D1C00150110910931401009313019A
:100A9000012B09F0D6C08091120107C088EE93E0C7
:100AA000909314018093130183E08093FA04C9C0EA
:100AB00080911301909114019C01215031093093D0
:100AC000140120931301892B39F08FEC97E00197E3
:100AD000F1F700C00000B5C077988091D800806120
:100AE0008093D8008091DD008B7F8093DD00809122
:100AF000D70080618093D7008091DD008260809371
:100B0000DD0084E0D2CF80919F0080FF9AC0809169
:100B10009F008E7F80939F0080919F008D7F8093A8
:100B20009F008091DF008D7F8093DF008091DE0049
:100B300082608093DE0080919E00816080939E00A1
:100B4000E8D01092FA0484E690E090931401809328
:100B5000130185E05CC0CCDE1092FA0488EC90E0D2
:100B6000909314018093130186E051C0E12C00E4BE
:100B700010E020E040E060E080E06FD08091AC00C9
:100B800087FD03C080E094E04EC087E08ECF88E010
:100B9000E1E0F1E0A2EFB4E001900D928A95E1F777
:100BA000CE01019628D381113DC088858093000134
:100BB0009FDE1092FA0488EC90E0909314018093E9
:100BC000130188E024C00091000110E0E12C20E036
:100BD00040E060E080E041D08091AC0087FFD2CF60
:100BE00088E0E9E0F1E0A2EFB4E001900D928A958F
:100BF000E1F780E090E0FFD2811114C01092FA0476
:100C000084E690E0909314018093130189E080932F
:100C1000120117C081E08093A1008AE08093FA045A
:100C2000DBDB0FC093E02091FA04213051F0682FF4
:100C3000892F45DC8091DD0081608093DD00C6DB7B
:100C4000C2D028960FB6F894DEBF0FBECDBFDF919D
:100C5000CF911F910F91EF900895EF920F931F93F3
:100C60002F70422B90E4699FB0011124642B382F20
:100C70002E2D2260373008F045C03093A70038137E
:100C800013C048E050E090E04017510738F09295CB
:100C9000907F922BE62F50E070E00EC09530B9F3B4
:100CA0009F5F440F551FF0CFE091AA009091AB00D9
:100CB0007091AD005091AE0091FD02C03F5FDACF60
:100CC0004091A9004E7F4093A9004091AB004D7F19
:100CD0004093AB004091A90041604093A900E0938C
:100CE000AA009093AB007093AD005093AE0090912A
:100CF000A90090629093A9009091AC0097FDDECF7F
:100D000080E003C08093A70081E01F910F91EF90D6
:100D100008951092F80080E08093A7001092AE0032
:100D20001092A6001092AB009091A9009E7F909324
:100D3000A9008F5F873081F708954091A2005091FC
:100D4000A30085E69091AA009073903129F49091C8
:100D5000A60090FF05C019C09091A60092FD15C095
:100D60009091A60091FD13C09091FA04913089F002
:100D70002091A2003091A3004217530719F381502C
:100D800011F0A901DFCF83E0089580E0089581E0AC
:100D9000089582E0089570D077D0E0EEF0E0808191
:100DA00081608083E8EDF0E080818F77808319BCDB
:100DB000A7EDB0E08C918E7F8C9380818F7E8083B5
:100DC0001092F104089558D05FD08091D8008F77A9
:100DD0008093D8008091D80080688093D80080915B
:100DE000D8008F7D8093D8008091D7008F77809333
:100DF000D7008CE089BD8EE089BD09B400FEFDCF2F
:100E000081E08093FA041092F00480E48093000162
:100E10008091D80080648093D8008091DD0081604B
:100E20008093DD008091DD0084608093DD008091FF
:100E3000D7008F7E8093D7006F9A779A8091DE00DB
:100E400081608093DE008091DE0084608093DE000C
:100E50008091E0008E7F8093E0008091D8008061D7
:100E60008093D8000895E7EDF0E080818160808371
:100E700081E08093F104A7CFE8EDF0E080818C7FE2
:100E800080831092A00008951092DA0010929F00C3
:100E900008951F920F920FB60F9211240BB60F9266
:100EA0002F933F934F935F936F937F938F939F9372
:100EB000AF93BF93EF93FF9380919F0085FF0AC08C
:100EC0008091A00085FF06C080919F008F7D809358
:100ED0009F006AD180919F0081FF15C08091A00082
:100EE00081FF11C080919F008D7F80939F00809132
:100EF0009F008E7F80939F008091A0008D7F8093C4
:100F0000A00064DA60DF8091DF0081FF15C080916E
:100F1000DE0081FF11C08091DF008D7F8093DF00B4
:100F200077988091DD0081608093DD0080E0B6DA03
:100F30004DDA81E08093FA048091DF0080FF17C0D2
:100F40008091DE0080FF13C08091DF008E7F809350
:100F5000DF008091DE008E7F8093DE0031DA8091A9
:100F6000A00082608093A00082E08093FA048091C8
:100F7000DF0082FF0EC08091DE0082FF0AC08091F8
:100F8000DF008B7F8093DF0060E082E098DA1EDA7A
:100F90001ADFFF91EF91BF91AF919F918F917F9158
:100FA0006F915F914F913F912F910F900BBE0F90DA
:100FB0000FBE0F901F901895CF92DF92EF92FF9285
:100FC0000F931F93CF93DF93EC018B017A018091F4
:100FD000AA008F7C80618093AA00AFDE811132C0AD
:100FE000E114F10439F0F70180819181081B190B9C
:100FF000C80FD91FC12CD12C0115110511F18091F9
:10100000A60085FD15C08091A6008E778093A6006E
:10101000E114F10449F0F70180819181C80ED91ED5
:10102000D182C08284E00EC088DE882329F30AC002
:101030008091AF00899301501109FFEFCF1ADF0AA9
:10104000DBCF80E0DF91CF911F910F91FF90EF9068
:10105000DF90CF900895CF93DF93DC01EB01E8811F
:10106000F98120818D919C91119730E0821793072F
:1010700008F49C01E20FF31FEB01F983E8838D91E3
:101080009C911197821B930B8D939C93DF91CF9131
:101090000895CF92DF92EF92FF920F931F93CF9319
:1010A000DF93CDB7DEB729970FB6F894DEBF0FBE3A
:1010B000CDBF6B018A01790190E89093F20496E02C
:1010C0009093F30490E0019792609093F5048093DD
:1010D000F4041092F7041092F60489E090E09093E3
:1010E000F9048093F8041092A700CE01019683D0F2
:1010F000811119C08B819C81F60191838083E81650
:10110000F90670F09093F9048093F804C80173D045
:10111000811109C0F8018181823021F480E003C08F
:1011200085E001C086E029960FB6F894DEBF0FBEB9
:10113000CDBFDF91CF911F910F91FF90EF90DF9086
:10114000CF900895AF92BF92CF92DF92EF92FF922D
:101150000F931F93CF93DF938C01EB016A01F8018A
:10116000E080F180E114F10499F0A880B980BE011B
:10117000C80171DF88819981F6010995823079F380
:10118000813039F4B982A882F801F182E08201C08D
:1011900082E0DF91CF911F910F91FF90EF90DF9050
:1011A000CF90BF90AF90089508951F93CF93DF9392
:1011B000182FC9EED3E011110CC08091A60083FD59
:1011C00015C081E0E6DB811112C02197A1F784E010
:1011D0000EC0113029F48091A60080FFF2CF06C026
:1011E000123079F78091A60082FFEBCF80E0DF918B
:1011F000CF911F910895FF920F931F93CF93DF9389
:101200008C0180919E008170F82EC091F804D091DD
:10121000F90480919E00816080939E0081E0B9DB9B
:101220008111C8C08091AA008F7C8093AA0010927F
:10123000F5008091A6008F7E8093A6008091A90082
:101240008F7B8093A900E2EFF4E08AEF94E0219194
:101250002093AF008E179F07D1F78091A600877764
:101260008093A60080E0A1DF8111A4C08091A90035
:1012700080648093A90081E08CDB81119BC0809108
:10128000F20487FF4EC08091AA008F7C806180931A
:10129000AA000115110509F03AC08091AA008F7CBF
:1012A00080628093AA008091A9008F7B8093A9001F
:1012B00082E07BDF81117EC08091A6008B778093D6
:1012C000A60082E072DF76C08091A9008F7B8093B8
:1012D000A90081E06ADF81116DC08091F6009091D4
:1012E000F700892B11F4C0E0D0E0F8018F01809164
:1012F000F6009091F700892B69F48091A900806431
:101300008093A9008091A6008E778093A6002097F5
:10131000D9F6C3CF209789F38091AF0081932197AD
:10132000E5CF0115110591F18091AA008F7C8062B3
:101330008093AA008091A9008F7B8093A90082E00E
:101340002097E1F032DF811135C02091F600309115
:10135000F7008091000190E02817390748F40F5FEB
:101360001F4FF801319780818093AF00219769F773
:101370008091A6008B778093A600E1CF16DF8111C4
:1013800019C08091A90080648093A9008091AA006F
:101390008F7C80618093AA008091A9008F7B8093CD
:1013A000A90081E002DF811105C09091A6009E771F
:1013B0009093A6009091A90090649093A900F110D9
:1013C00005C090919E009E7F90939E0091E0909327
:1013D000A8001092A800DF91CF911F910F91FF906C
:1013E0000895CF93C82F1092F20489E08093F304FC
:1013F0008C2F90E09093F5048093F4041092F704FE
:101400001092F6041092F9041092F8041092A700BA
:1014100080E090E0F0DE811109C0C093F004C111BA
:1014200002C09AE001C09BE09093FA04CF91089526
:101430001F93CF93DF93C7EAD0E01881177018820B
:10144000F5DA1883DF91CF911F9108952F923F9283
:101450004F925F926F927F928F929F92AF92BF92C4
:10146000CF92DF92EF92FF920F931F93CF93DF9370
:10147000CDB7DEB7CC58D1090FB6F894DEBF0FBE9A
:10148000CDBF6C01E7967FAF6EAFE7971A019A0167
:1014900020573C4FE9963FAF2EAFE99789ED93E097
:1014A000DA01FC011D923197E9F7FE0131968CE1DA
:1014B000DF011D928A95E9F787E0D9011D928A958F
:1014C000E9F721503109C158DF4F39832883CF57BD
:1014D000D04081E0D9018C93ED961CAE1DAE1EAEBE
:1014E0001FAEED97412C512C320100E0E5961FAE66
:1014F0001EAEE5977F01FA01EA52FC4FCF57DF4F4E
:10150000F983E883C158D04027503109C757DF4FCE
:1015100039832883C958D04048525C4FCD57DF4F9C
:1015200059834883C358D040C557DF4FB983A88338
:10153000CB58D040E7962EAD3FADE797232B09F46B
:10154000B9C2D601BC91EF96BFAFEF978B2F8370D6
:10155000823049F1833099F08130C9F1EFEFCE1A32
:10156000DE0AE7962EAD3FADE79721503109E796A9
:101570003FAF2EAFE797812C912C54013AC0D60192
:1015800011968D909D90AD90BC901497E796EEAD1E
:10159000FFADE7973597E796FFAFEEAFE797F5E03A
:1015A000CF0ED11C26C0D60111968D909C9012971B
:1015B000A12CB12CE796EEADFFADE7973397E796F8
:1015C000FFAFEEAFE797F3E0CF0ED11C12C0D6010C
:1015D00011968C90912CA12CB12CE796EEADFFAD1D
:1015E000E7973297E796FFAFEEAFE797F2E0CF0EBF
:1015F000D11CEF961FADEF971C7F143609F49DC0E8
:1016000088F5143209F483C0B0F4183009F4FFC02F
:1016100048F4143009F03DC2D70112969C928E9284
:10162000119737C2143109F46CC0183109F031C276
:10163000240135012EC2143309F471C050F418325C
:1016400009F027C2ED968CAE9DAEAEAEBFAEED9763
:1016500020C2143409F469C0143509F01AC2F70124
:10166000818617C2143909F470C078F41038E1F09B
:1016700030F4143709F00DC2F70180820AC2143821
:1016800009F467C0103981F004C2103B69F030F4EE
:10169000103A09F4CAC0143AC9F0FBC1143B39F13D
:1016A000103C09F42AC1F5C1EE961FAEEE97A501D4
:1016B00094012170332744275527CB57DF4F2883C8
:1016C00039834A835B83C558D04047C1CE014D96CC
:1016D000E816F90609F4F4C1C7014C962AE2F701AD
:1016E000DC0101900D922A95E1F77C01D2C1CE0177
:1016F00001968E159F0509F4E5C13CE1E31AF10856
:10170000C8C1F70182869386A486B586C2C1D70177
:101710001E968D929D92AD92BC925197BAC1F701DF
:10172000828A938AA48AB58AB4C1D70156968D92CB
:101730009D92AD92BC925997ACC1D70115968D92EE
:101740009D92AD92BC921897A4C1D7015A968C92E3
:10175000A0C1982DF701838ECD57DF4FA881B981A5
:10176000C358D0408C91882309F441C0C557DF4F3E
:10177000E881F981CB58D0408081F101E057FC4FDE
:1017800020E030E02817B8F4A90160812F5F3F4FB7
:1017900037969613F7CF27E0249FC001259F900D21
:1017A000112480579C4F9101280F391FE9963FAFB4
:1017B0002EAFE9971CC08A3009F48EC191E0980FD2
:1017C000C158DF4FA881B981CF57D0409C9397E093
:1017D0009101989F200D311D1124F901E057FC4F14
:1017E000E996FFAFEEAFE99711929A95E9F781E09C
:1017F000CD57DF4FA881B981C358D0408C93F701F2
:10180000838DE996AEADBFADE9978C9342C10830A8
:1018100009F45AC1FE01ED59FF4FE00FF11DE00F31
:10182000F11D918280820F5F34C1E596EEADFFAD70
:10183000E597EF2B41F49101275B3C4FE5963FAFD5
:101840002EAFE5971DC0F101E05BFC4F85819681CD
:10185000892B61F0C757DF4F48815981C958D04063
:10186000E417F50709F432C13796F0CFE5968EAD4F
:101870009FADE59796838583E596FFAFEEAFE5973D
:10188000E596AEADBFADE5978C92F701818192816F
:1018900012969C938E9311970023A9F0A5968EAD76
:1018A0009FADA59714969C938E931397FE01ED59C7
:1018B000FF4F80E022813381219331938F5F0813A2
:1018C000F9CF0150E6C0ED962CAD3DAD4EAD5FAD0C
:1018D000ED97241535054605570508F4DAC0E59659
:1018E000AEADBFADE59714965C924E921397BFEFE5
:1018F0004B1A5B0A6B0A7B0ACCC0E596EEADFFADD6
:10190000E597309709F4E4C025813681E5963FAF2D
:101910002EAFE597BEC0D101EAE2E89FA00DB11D50
:1019200011241196FE01F9968AE201900D928A9592
:10193000E1F7CB57DF4F288139814A815B81C55858
:10194000D040232B242B252B09F497C0EE96BFAD56
:10195000EE97BF5FEE96BFAFEE97F701828DEE96E2
:10196000FFADEE97F81708F094C08AE1F701DE01A9
:10197000AF5BBF4F01900D928A95E1F79DAE8CAEA3
:10198000E5964EAD5FADE59721965FAF4EAF2197DF
:10199000D7015B968C918EAF0023A9F0A5968EADF2
:1019A0009FADA59726969FAF8EAF2697FE01ED5966
:1019B000FF4F80E022813381219331938F5F0813A1
:1019C000F9CF015014C0ED962CAD3DAD4EAD5FADDD
:1019D000ED97241535054605570548F026965FAE68
:1019E0004EAE26973FEF431A530A630A730A103824
:1019F00011F41BAE07C0103919F441E04BAF02C01F
:101A000052E05BAF8BADE996EEADFFADE997E80F25
:101A1000F11DE80FF11D818192819AAF89AFD70145
:101A20002C9181819281820F911D928381838BAD54
:101A3000E996EEADFFADE997E80FF11DE80FF11D56
:101A4000CF57DF4FA881B981C158D0402D913C912B
:101A5000818192818217930708F4C901CF57DF4F24
:101A6000E881F981C158D04091838083D1018C9164
:101A7000843109F050CF83E030C0CE01C9960E9476
:101A80005904882309F462CFD1018C918F5F8C9324
:101A90005DCFEF968FADEF978C7009F04BCDED9643
:101AA0001CAE1DAE1EAE1FAEED97412C512C320167
:101AB00000E040CDD1018C91882361F080E00DC021
:101AC00081E00BC082E009C086E007C085E005C068
:101AD00084E003C088E001C087E0C457DF4F0FB641
:101AE000F894DEBF0FBECDBFDF91CF911F910F9154
:101AF000FF90EF90DF90CF90BF90AF909F908F902E
:101B00007F906F905F904F903F902F9008958F92AD
:101B10009F92AF92BF92CF92DF92EF92FF92FB0122
:101B2000309709F448C02581222329F0DC013C913B
:101B3000231341C00196208530E060817181C2A0ED
:101B4000D3A0E4A0F5A0C6A2D7A2E0A6F1A612A257
:101B500013A214A215A2C12CD12C7601C39421503A
:101B6000310938F1DB0153E0B695A7955A95E1F7B5
:101B7000A80FB91F4C9150E0DB01A770BB2702C032
:101B800055954795AA95E2F740FF0CC082A093A017
:101B9000A4A0B5A08C289D28AE28BF2882A293A21D
:101BA000A4A2B5A26F5F7F4FCC0CDD1CEE1CFF1C06
:101BB000D6CF81E001C080E0FF90EF90DF90CF9022
:101BC000BF90AF909F908F9008959091C80095FF1F
:101BD000FCCF8093CE0080E090E008958091C80013
:101BE00087FF08C08091C80087FF07C08091CE00A2
:101BF00090E008958EEF9FEF08958FEF9FEF089587
:101C0000EE0FFF1F0024001C0BBE0790F691E02D85
:101C100009940F931F93CF93DF93CDB7DEB7AE0137
:101C2000495F5F4FDA016D917D91AD0109E015E0EB
:101C3000F80182819381DC0113962C91139728601F
:101C400013962C933ED0D8011296ED91FC911397E8
:101C50002381277F2383DF91CF911F910F910895D7
:101C60000F931F93CF93DF938C01E0910B05F091BD
:101C70000C05838181FF1BC0D0E0C0E0F801849196
:101C800060910B0570910C05DB011896ED91FC91AC
:101C90001997882341F00995892B11F0DFEFCFEFD9
:101CA0000F5F1F4FEBCF8AE00995892B19F08FEF5B
:101CB0009FEF02C08D2F9C2FDF91CF911F910F912D
:101CC00008952F923F924F925F926F927F928F92E0
:101CD0009F92AF92BF92CF92DF92EF92FF920F93BB
:101CE0001F93CF93DF93CDB7DEB72B970FB6F89442
:101CF000DEBF0FBECDBF6C017B018A01FC011782E4
:101D00001682838181FFBFC1CE0101963C01F6019D
:101D10009381F70193FD859193FF81917F01882342
:101D200009F4ADC1853239F493FD859193FF81911A
:101D30007F01853221F4B60190E0D6D1E8CF912C15
:101D4000212C312CFFE1F315D8F08B3279F038F4E7
:101D5000803279F08332A1F4232D20611DC08D32B1
:101D600061F0803369F4232D216016C0832D8260D9
:101D7000382EE32DE4603E2E2AC0F32DF8601DC0FE
:101D800037FC2DC020ED280F2A3040F08E32B9F4F8
:101D900036FC75C1232D2064322E19C036FE06C0D4
:101DA0008AE0989E200D1124922E11C0EAE02E9E0A
:101DB000200D1124222EF32DF0623F2E08C08C3608
:101DC00021F4832D8068382E02C0883641F4F70153
:101DD00093FD859193FF81917F018111B3CF982F5E
:101DE0009F7D9554933028F40C5F1F4F9FE3998398
:101DF0000DC0833631F0833771F0833509F055C05B
:101E000020C0F801808189830E5F1F4F882483944E
:101E1000912C530112C02801F2E04F0E511CF80121
:101E2000A080B18036FE03C0692D70E002C06FEF64
:101E30007FEFC5014ED14C018201F32DFF773F2E7C
:101E400015C0280122E0420E511CF801A080B1808B
:101E500036FE03C0692D70E002C06FEF7FEFC50151
:101E60002DD14C01F32DF0683F2E820133FC19C0B7
:101E7000822D90E088169906A0F4B60180E290E0E9
:101E800033D12A94F5CFF50137FC859137FE819146
:101E90005F01B60190E028D121102A9421E0821A36
:101EA00091088114910479F7E1C0843611F08936E4
:101EB00039F5F80137FE07C0608171818281938115
:101EC0000C5F1F4F08C060817181072E000C880BCA
:101ED000990B0E5F1F4FF32DFF763F2E97FF09C022
:101EE00090958095709561957F4F8F4F9F4FF068CB
:101EF0003F2E2AE030E0A30133D1882E861844C05B
:101F0000853731F4232D2F7EB22E2AE030E025C014
:101F1000932D997FB92E8F36C1F018F4883579F05A
:101F2000AEC0803719F0883721F0A9C0E92FE061F1
:101F3000BE2EB4FE0DC0FB2DF460BF2E09C034FED2
:101F40000AC0292F2660B22E06C028E030E005C066
:101F500020E130E002C020E132E0F801B7FE07C026
:101F600060817181828193810C5F1F4F06C0608107
:101F7000718180E090E00E5F1F4FA301F1D0882EA9
:101F80008618FB2DFF773F2E36FE0DC0232D2E7FAA
:101F9000A22E891458F434FE0BC032FC09C0832DE4
:101FA0008E7EA82E05C0B82CA32C03C0B82C01C06F
:101FB000B92CA4FE0FC0FE01E80DF11D8081803315
:101FC00021F49A2D997EA92E09C0A2FE06C0B394D1
:101FD000B39404C08A2D867809F0B394A3FC10C092
:101FE000A0FE06C0B21480F4280C922C9B180DC0E1
:101FF000B21458F4B60180E290E076D0B394F8CFF2
:10200000B21418F42B1802C0982C212CA4FE0FC077
:10201000B60180E390E068D0A2FE16C0A1FC03C028
:1020200088E790E002C088E590E0B6010CC08A2DF8
:10203000867851F0A1FE02C08BE201C080E2A7FCCD
:102040008DE2B60190E050D0891430F4B60180E3FF
:1020500090E04AD09A94F8CF8A94F301E80DF11DEC
:102060008081B60190E040D08110F6CF222009F4A3
:102070004ECEB60180E290E037D02A94F7CFF60139
:102080008681978102C08FEF9FEF2B960FB6F89451
:10209000DEBF0FBECDBFDF91CF911F910F91FF909B
:1020A000EF90DF90CF90BF90AF909F908F907F90F8
:1020B0006F905F904F903F902F900895FC01059096
:1020C000615070400110D8F7809590958E0F9F1F3A
:1020D0000895FC016150704001900110D8F780957F
:1020E00090958E0F9F1F08950F931F93CF93DF93AB
:1020F000FB01238121FD03C08FEF9FEF2CC022FF46
:1021000016C046815781248135814217530744F414
:10211000A081B1819D012F5F3F4F318320838C933C
:10212000268137812F5F3F4F3783268314C08B0171
:10213000EC01FB010084F185E02D0995892BE1F686
:10214000D80116968D919C911797019617969C939E
:102150008E931697CE01DF91CF911F910F91089525
:10216000FA01AA27283051F1203181F1E8946F93C8
:102170006E7F6E5F7F4F8F4F9F4FAF4FB1E03ED06E
:10218000B4E03CD0670F781F891F9A1FA11D680F0C
:10219000791F8A1F911DA11D6A0F711D811D911D3F
:1021A000A11D20D009F468943F912AE0269F1124B4
:1021B0003019305D3193DEF6CF010895462F477018
:1021C000405D4193B3E00FD0C9F7F6CF462F4F7073
:1021D000405D4A3318F0495D31FD4052419302D0D1
:1021E000A9F7EACFB4E0A695979587957795679577
:1021F000BA95C9F700976105710508959B01AC0177
:102200000A2E06945795479537952795BA95C9F79D
:10221000620F731F841F951FA01D0895F894FFCFB0
:1022200040800600010000080000050100000000D9
:022230000000AC
:00000001FF
