:10000000E5C0000000C10000FEC00000FCC0000010
:10001000FAC00000F8C00000F6C00000F4C0000004
:10002000F2C00000F0C00000F0C20000ECC0000010
:10003000EAC00000E8C00000E6C00000E4C0000024
:10004000E2C00000E0C00000DEC00000DCC0000034
:10005000DAC00000D8C00000D6C00000D4C0000044
:10006000D2C00000D0C00000CEC00000CCC0000054
:10007000CAC00000C8C00000C6C00000C4C0000064
:10008000C2C00000C0C00000BEC00000BCC0000074
:10009000BAC00000B8C000002E0550053D0650054E
:1000A0003D069505B8053D060A061C063A034C00B8
:1000B00055004600410020004D006F0075007300A0
:1000C0006500200061006E00640020004B006500A8
:1000D000790062006F00610072006400200044003B
:1000E00065006D006F0000001803440065006100AA
:1000F0006E002000430061006D0065007200610029
:1001000000000403090409023B00020100C0320997
:100110000400000103010100092111010001223F37
:100120000007058103080001090401000103010221
:1001300000092111010001223A000705830308008C
:10014000011201100100000008EB034D2001000125
:1001500002000105010906A101050719E029E715BB
:100160000025017501950881029501750881010539
:1001700008190129059505750191029501750391ED
:100180000115002565050719002965950675088183
:1001900000C005010902A1010901A1000509190119
:1001A0002903150025019503750181029501750547
:1001B000810105010930093116FFFF26010036FFD4
:1001C000FF460100950275088106C0C011241FBEBC
:1001D000CFEFD0E2DEBFCDBF11E0A0E0B1E0E2E1C1
:1001E000F1E100E00BBF02C007900D92AA31B10708
:1001F000D9F721E0AAE1B1E001C01D92A233B20714
:10020000E1F731D084C7FCCE9BB19F70892B8BB9AD
:10021000089584B7877F84BF0FB6F894A89580911E
:100220006000886180936000109260000FBE90E0D3
:1002300080E80FB6F89480936100909361000FBE40
:1002400084B18F7184B98DB18F7C8DB985B1806E89
:1002500085B98EB180638EB98AB1806F8AB98BB14E
:100260008F708BB9BCC1D5DF80E1CEDF78948DE093
:1002700091E081D680E091E07ED619D5F8CF80EA72
:10028000C3CF80E1C1CFCF938DE091E049D6C82F95
:1002900080E091E045D69091E20094609093E20076
:1002A000CC2311F0811102C080E901C080E6CF911A
:1002B000ABCF8DE091E00DD580E091E00AC5809153
:1002C000180190911901009729F001979093190155
:1002D0008093180180910B0190910C01009729F0F7
:1002E000019790930C0180930B0108950F931F9336
:1002F000F901D80133B12CB12095207326953095A2
:10030000307E322B2CB1209524708D509140E9F431
:100310002223C1F182E0808337FF02C084E003C062
:1003200034FF02C085E0828336FF02C086E003C04E
:1003300033FF02C087E0828335FF02C088E08283FA
:1003400088E090E08D939C931DC021111BC037FF66
:1003500002C08FEF03C034FF02C081E0828336FF0A
:1003600002C08FEF03C033FF02C081E0818335FFFD
:1003700003C080818160808383E090E08D939C93B3
:1003800081E001C080E01F910F9108958D50914050
:1003900061F4F901908190FF02C080E101C080E02A
:1003A00091FD806892FD80642FCF0895292F332717
:1003B00023303105C1F058F42130310579F0223075
:1003C000310591F58BE390E026E031E039C0213230
:1003D0003105E1F02232310501F126C082E190E0E1
:1003E00021E431E02DC099278130910549F028F0B2
:1003F0000297D1F4ECEAF0E005C0E2E0F1E002C0DF
:10040000E8EEF0E0849190E09F011AC089E090E06E
:10041000662379F021E331E013C0662369F08AE3B3
:1004200090E022E931E00CC080E090E020E030E094
:1004300007C028E131E004C08FE390E023E531E01C
:10044000FA01318320830895982F973068F59093AF
:10045000E900981739F07091EC002091ED0050916F
:10046000F00003C0242F762F50E021FD02C09F5FD3
:10047000ECCF3091EB003E7F3093EB003091ED00FC
:100480003D7F3093ED003091EB0031603093EB0015
:100490007093EC002093ED005093F0002091EE005B
:1004A00027FDE5CF80E008958093E90081E008957D
:1004B00080912A0187FF11C08091E80082FD05C06C
:1004C000809129018111F8CF11C08091E8008B77CC
:1004D0000BC080912901882349F08091E80080FFBA
:1004E000F8CF8091E8008E778093E80008952091FE
:1004F000E4003091E50095E64091EC00842F817096
:1005000040FF23C08091E80080FD1DC0809129013B
:10051000882399F0853099F08091EB0085FD11C01A
:100520004091E4005091E5002417350729F39150DC
:1005300011F09A01E1CF84E0089582E0089583E00C
:10054000089581E0089580E008954091E80042FF19
:10055000DDCF08950F931F93CF93DF9349D050D0F1
:10056000C8EDD0E088818F77888388818068888310
:1005700088818F7D8883E7EDF0E0808180688083CB
:1005800019BC109229011092250110922701109296
:10059000260100EE10E0F80180818B7F8083888146
:1005A0008160888342E060E080E04EDFE1EEF0E0D1
:1005B00080818E7F8083E2EEF0E0808181608083A5
:1005C000808188608083F80180818E7F808388812C
:1005D00080618883DF91CF911F910F910895E7ED9E
:1005E000F0E080818160808381E080932801B2CF38
:1005F000E8EDF0E080818C7F80831092E200089526
:100600001092DA001092E10008951F920F920FB637
:100610000F9211240BB60F922F933F934F935F933A
:100620006F937F938F939F93AF93BF93EF93FF93BA
:100630008091E10082FF0AC08091E20082FF06C043
:100640008091E1008B7F8093E10039DE8091DA00B8
:1006500080FF1DC08091D80080FF19C08091DA0012
:100660008E7F8093DA008091D90080FF0CC08CE0EF
:1006700089BD8EE089BD09B400FEFDCF81E0809385
:100680002901FDDD04C019BC10922901FADD809119
:10069000E10080FF18C08091E20080FF14C08091CB
:1006A000E2008E7F8093E2008091E200806180937F
:1006B000E2008091D80080628093D80019BC85E068
:1006C00080932901F3D28091E10084FF2DC08091B5
:1006D000E20084FF29C08CE089BD8EE089BD09B4A9
:1006E00000FEFDCF8091D8008F7D8093D80080914F
:1006F000E1008F7E8093E1008091E2008F7E809305
:10070000E2008091E20081608093E2008091250107
:10071000811106C08091E30087FD02C081E001C025
:1007200084E080932901C2D28091E10083FF22C03E
:100730008091E20083FF1EC08091E100877F80935B
:10074000E10082E080932901109225018091E1006F
:100750008E7F8093E1008091E2008E7F8093E200A3
:100760008091E20080618093E20042E060E080E0FE
:100770006BDE9CD2FF91EF91BF91AF919F918F91D2
:100780007F916F915F914F913F912F910F900BBE91
:100790000F900FBE0F901F901895CF92DF92EF929F
:1007A000FF920F931F93CF93DF93EC018B017A019C
:1007B0009EDE811133C0E114F10439F0F70180812C
:1007C0009181081B190BC80FD91FC12CD12C011501
:1007D000110519F18091E80085FD16C08091E800AF
:1007E0008E778093E80063D2E114F10449F0F701B9
:1007F00080819181C80ED91ED182C08285E00EC051
:1008000076DE882321F30AC089918093F10001509C
:100810001109FFEFCF1ADF0ADACF80E0DF91CF9125
:100820001F910F91FF90EF90DF90CF90089520914E
:100830003001309131012617370748F061157105F5
:1008400039F42091E8002E772093E80001C0B90127
:10085000FC0120E06115710569F18091290188236F
:10086000D1F18530D1F18091E80083FD32C08091D3
:10087000E80082FD28C08091E80080FFEBCF8091E6
:10088000F2009091F3006115710551F088309105E7
:1008900038F421912093F100615071090196F3CF52
:1008A00021E0089709F020E08091E8008E7780939E
:1008B000E800D0CF2111D1CF06C080912901882333
:1008C00051F0853051F08091E80082FFF6CF80E052
:1008D000089581E0089582E0089583E00895611508
:1008E000710529F42091E8002B772093E800FC01A2
:1008F0006115710531F180912901882351F185300D
:1009000051F18091E80083FD22C08091E80082FFD0
:10091000EFCF8091F2009091F300892B31F080911C
:10092000F100819361507109A1F78091E8008B7704
:100930008093E800DDCF80912901882351F0853034
:1009400051F08091E80080FFF6CF80E0089581E0CB
:10095000089582E0089583E0089520913001309158
:1009600031012617370748F06115710539F42091D8
:10097000E8002E772093E80001C0B901FC0120E0D7
:100980006115710571F1809129018823D9F18530B4
:10099000D9F18091E80083FD33C08091E80082FDA9
:1009A00029C08091E80080FFEBCF8091F200909108
:1009B000F3006115710559F08830910540F42491D8
:1009C0002093F1003196615071090196F2CF21E038
:1009D000089709F020E08091E8008E778093E80086
:1009E000CFCF2111D0CF06C080912901882351F0AB
:1009F000853051F08091E80082FFF6CF80E00895C5
:100A000081E0089582E0089583E008950F931F9395
:100A1000CF93DF93CDB7DEB7AA970FB6F894DEBFBA
:100A20000FBECDBFEAE2F1E08091F100819321E0B9
:100A3000E233F207C9F73DDC8091E80083FF1DC176
:100A400080912A0190912B01492F50E04A305105A5
:100A500008F013C1FA01E45BFF4F33C3803881F023
:100A6000823809F00AC180912E0187708093E900D5
:100A70008091EB0085FB882780F91092E90006C081
:100A80008091260190912701911182609091E80058
:100A9000977F9093E8008093F1001092F100C5C019
:100AA000282F2D7F09F0E9C0882319F0823061F0EA
:100AB000E4C080912C01813009F0DFC0933009F04F
:100AC00080E0809327012BC080912C01811127C0E9
:100AD00080912E01877009F4D0C08093E9002091A5
:100AE000EB0020FF1CC0933021F48091EB0080626A
:100AF00014C09091EB0090619093EB0021E030E006
:100B0000A90102C0440F551F8A95E2F74093EA00FD
:100B10001092EA008091EB0088608093EB001092C5
:100B2000E9008091E800877F83C08111A6C0109101
:100B30002C011F770FB7F8948091E800877F80938E
:100B4000E800B6DC8091E80080FFFCCF8091E300F4
:100B50008078812B8093E30080688093E3001111FB
:100B600002C082E001C083E0809329010FBF85C0ED
:100B70008058823008F081C080912C0190912D0125
:100B80008C3D53E0950771F583E08A838AE289837F
:100B90004FB7F894DE01139620E03EE051E2E32FD8
:100BA000F0E050935700E49120FF03C0E295EF700E
:100BB0003F5FEF708E2F90E0EA3010F0C79601C0D3
:100BC000C0968D939D932F5F243149F74FBF80913D
:100BD000E800877F8093E8006AE270E0CE0101962A
:100BE00026DE12C0AE014F5F5F4F60912E01DEDB4B
:100BF000BC01892B09F441C09091E800977F909344
:100C0000E80089819A81A9DE8091E8008B77809342
:100C1000E80033C0803889F58091E800877F8093B1
:100C2000E800809125018093F1008091E8008E77A3
:100C30008093E8003DDC21C081111FC080912C0110
:100C400090912D0199270297C4F48091E800877F45
:100C50008093E80080912C018093250129DC80910C
:100C60002501811106C08091E30087FD02C081E06B
:100C700001C084E08093290106DB8091E80083FFB6
:100C80000AC08091EB0080628093EB008091E800C5
:100C9000877F8093E800AA960FB6F894DEBF0FBE58
:100CA000CDBFDF91CF911F910F9108950895CF93FC
:100CB00080912901882359F0C091E900C7701092F2
:100CC000E9008091E80083FDA1DEC093E900CF91A7
:100CD00008956F927F928F929F92AF92BF92CF9220
:100CE000DF92EF92FF920F931F93CF93DF9300D089
:100CF0001F92CDB7DEB77C01ADB6BEB68091E800DD
:100D000083FFF7C0F701808190E020912E013091A0
:100D10002F012817390709F0ECC080912B0183308F
:100D200009F496C030F4813071F0823009F4C9C002
:100D3000E0C08A3009F4ADC08B3009F496C0893028
:100D400009F0D7C048C080912A01813A09F0D1C08A
:100D50008DB69EB61A82198280912C0110912D01B8
:100D60008B83F7018781482F50E08DB79EB7841B96
:100D7000950B0FB6F8949EBF0FBE8DBFEDB7FEB7B3
:100D800031966F0160E070E0CF01BAD14FEF410FB3
:100D90008E010F5F1F4F9601BE016D5F7F4FC70130
:100DA000A5DAF70185819681009721F0478150E00F
:100DB000B6019DD11092E9008091E800877F809371
:100DC000E80069817A81C60132DD8091E8008B7785
:100DD0008093E80037C080912A01813209F089C0F0
:100DE0008DB69EB6009130011091310170902C01AA
:100DF00060902D018DB79EB7801B910B0FB6F894B4
:100E00009EBF0FBE8DBFEDB7FEB731966F018091CB
:100E1000E800877F8093E800B801CF0160DD809112
:100E2000E8008E778093E80021E0711001C020E097
:100E300030E0021B130B2C0D3D1D4FEF460D672DAF
:100E4000C701A4DA0FB6F8949EBE0FBE8DBE51C086
:100E500080912A01813A09F04CC08091E800877F97
:100E60008093E800F70180853CC080912A0181329F
:100E700009F03FC08091E800877F8093E80018DB8D
:100E800090912C0181E0911101C080E0F7018087F1
:100E900030C080912A01813261F58091E800877F1E
:100EA0008093E80005DB80912C0190912D0188272B
:100EB00036E0969587953A95E1F7F7019287818715
:100EC00018C080912A01813AA1F48091E800877FBF
:100ED0008093E800F7018185928596958795969590
:100EE00087958093F1008091E8008E778093E800E9
:100EF000DFDA0FB6F894BEBE0FBEADBE0F900F90F6
:100F00000F90DF91CF911F910F91FF90EF90DF90A5
:100F1000CF90BF90AF909F908F907F906F900895EB
:100F2000CF93DF93FC01DC01189685E0ED01199267
:100F30008A95E9F781E0808784EF91E09287818745
:100F40008481811102C040E001C044E0628173816C
:100F5000818128E030E090E02617370720F49F5F7A
:100F6000220F331FF9CF42609295907F492B61EC9D
:100F7000DF91CF9169CA5F926F927F928F929F9219
:100F8000AF92BF92CF92DF92EF92FF920F931F9397
:100F9000CF93DF9300D01F92CDB7DEB77C01ADB603
:100FA000BEB680912901843009F073C0F7018181B8
:100FB0008093E9008091E80085FF6BC08DB69EB6F6
:100FC000478150E08DB79EB7841B950B0FB6F89400
:100FD0009EBF0FBE8DBFEDB7FEB731966F011B826E
:100FE0001A82198260E070E0CF018AD08E010F5F13
:100FF0001F4F960140E0BE016D5F7F4FC70176D95C
:10100000582EF70181859285892B29F011E083857F
:101010009485892B09F010E0F701658076806114D2
:10102000710481F049815A81B301C60153D001E0B6
:10103000892B09F400E0F701478150E0B601C301B4
:1010400056D001C000E089819A81892BE9F05110C6
:1010500004C0011102C010FF17C0F70181859285FD
:101060009487838781818093E9008B8181118093AC
:10107000F10069817A8140E050E0C6018EDB809109
:10108000E8008E778093E8000FB6F8949EBE0FBEFE
:101090008DBE0FB6F894BEBE0FBEADBE0F900F90C2
:1010A0000F90DF91CF911F910F91FF90EF90DF9004
:1010B000CF90BF90AF909F908F907F906F905F90F8
:1010C0000895EE0FFF1F0024001C0BBE0790F69141
:1010D000E02D0994FB01DC0104C08D910190801981
:1010E00021F441505040C8F7881B990B0895FB012B
:1010F000DC0102C001900D9241505040D8F7089594
:10110000DC0101C06D9341505040E0F70895F89420
:02111000FFCF0F
:1011120001030800001A010300000000000001089A
:0A11220000001D010800000000009D
:00000001FF
