:10000000C3C00000DEC00000DCC00000DAC0000099
:10001000D8C00000D6C00000D4C00000D2C000008C
:10002000D0C00000CEC0000052C30000CAC0000013
:10003000C8C00000C6C00000C4C00000C2C00000AC
:10004000C0C00000BEC00000BCC00000BAC00000BC
:10005000B8C00000B6C00000B4C00000B2C00000CC
:10006000B0C00000AEC00000ACC00000AAC00000DC
:10007000A8C00000A6C00000A4C00000A2C00000EC
:10008000A0C000009EC000009CC000009AC00000FC
:1000900098C0000096C00000DA05FC05E906FC05E2
:1000A000E90641066406E906B606C8061C034C00CC
:1000B00055004600410020004400750061006C00BE
:1000C00020004300440043002000440065006D0010
:1000D0006F00000018034400650061006E002000FE
:1000E000430061006D0065007200610000000403C0
:1000F000090409028300040100C032080B00020257
:1001000002010009040000010202010005240010A0
:1001100001042402060524060001070583030800E4
:10012000FF09040100020A00000007050202100096
:100130000107058102100001080B02020202010002
:100140000904020001020201000524001001042438
:1001500002060524060203070586030800FF0904BA
:100160000300020A00000007050502100001070550
:10017000840210000112011001EF020108EB034E8E
:100180002001000102DC010011241FBECFEFD0E2EC
:10019000DEBFCDBF11E0A0E0B1E0E0E4FEE000E0B2
:1001A0000BBF02C007900D92A036B107D9F721E02E
:1001B000A0E6B1E001C01D92AE36B207E1F76ED104
:1001C0003DC61ECF9BB19F70892B8BB9089584B714
:1001D000877F84BF0FB6F894A895809160008861EE
:1001E00080936000109260000FBE90E080E80FB630
:1001F000F89480936100909361000FBE84B18F7179
:1002000084B98DB18F7C8DB985B1806E85B98EB181
:1002100080638EB98AB1806F8AB98BB18F708BB9C8
:1002200040C280EACFCF80E1CDCFCF93DF9342E1D0
:1002300061E881E06BD1C82F42E160E882E066D1DD
:10024000D82F42E061EC83E061D1CD23C82342E1A5
:1002500061E884E05BD1C82342E160E885E056D1E3
:10026000C82342E061EC86E051D110920701109260
:1002700008011092090110920A01109200011092D7
:1002800001011092020110920301CC2311F081119F
:1002900002C080E901C080E6DF91CF9193CF8091C9
:1002A0006A0190916B01892B19F080E091E002C006
:1002B00087E091E020916701213229F0223229F173
:1002C000203269F510C020916601213A41F5209154
:1002D000E800277F2093E80067E070E054D3809126
:1002E000E8008B770FC0209166012132C1F4209184
:1002F000E800277F2093E80067E070E09CD38091BE
:10030000E8008E778093E80008958091660181323D
:1003100031F48091E800877F8093E8002BC1089535
:1003200083B19CB120916501243009F059C09095AA
:10033000907396958095807E892B87FD0BC084FDF8
:1003400043C086FD44C083FD45C085FD46C0109274
:1003500060012DC082E591E020916001211127C04C
:1003600040910701509108016091090170910A01C3
:10037000452B462B472BD9F021E020936001209399
:10038000E900FC0101900020E9F73197BF01681BEB
:10039000790B40E050E063D28091E8008E77809343
:1003A000E80007D18091E8008E778093E80082E032
:1003B0008093E9008091E80082FF12C08091E800FC
:1003C0008B778093E800089582E491E0C5CF82E3C3
:1003D00091E0C2CF81E291E0BFCF8EE091E0BCCF4F
:1003E0000895BF92CF92DF92EF92FF920F931F93E7
:1003F000CF93DF93CDB7DEB70DB71EB7B0906501D1
:1004000024E0B2123CC085E08093E9008091E800CE
:1004100082FF35C08091F2009091F3002DB73EB776
:10042000281B390B0FB6F8943EBF0FBE2DBF8DB7FA
:100430009EB701967C01C090F200D090F30040E09E
:1004400050E0B60156D28091E8008B778093E800A7
:10045000B092E90040E050E0B601C70100D28091BF
:10046000E8008E778093E800A4D08091E8008E7732
:100470008093E8000FB6F8941EBF0FBE0DBF0FB6F5
:10048000F8941EBF0FBE0DBFDF91CF911F910F914A
:10049000FF90EF90DF90CF90BF90089598DE80E1BD
:1004A00091DE78943DDF9DDFAED4FCCF292F33273A
:1004B0002230310559F02330310569F02130310502
:1004C000E9F482E190E025E731E01CC083E890E0A8
:1004D00022EF30E017C099278130910549F028F0CC
:1004E000029761F4ECEAF0E005C0EEEEF0E002C045
:1004F000E4EDF0E0849190E09F0104C080E090E0A2
:1005000020E030E0FA01318320830895982F97305E
:1005100068F59093E900981739F07091EC002091FC
:10052000ED005091F00003C0242F762F50E021FD04
:1005300002C09F5FECCF3091EB003E7F3093EB0029
:100540003091ED003D7F3093ED003091EB00316054
:100550003093EB007093EC002093ED005093F0008B
:100560002091EE0027FDE5CF80E008958093E9001B
:1005700081E008958091660187FF11C08091E800B5
:1005800082FD05C0809165018111F8CF11C0809175
:10059000E8008B770BC080916501882349F080913A
:1005A000E80080FFF8CF8091E8008E778093E80024
:1005B00008952091E4003091E50095E64091EC002B
:1005C000842F817040FF23C08091E80080FD1DC012
:1005D00080916501882399F0853099F08091EB0036
:1005E00085FD11C04091E4005091E50024173507C6
:1005F00029F3915011F09A01E1CF84E0089582E04F
:10060000089583E0089581E0089580E00895409181
:10061000E80042FFDDCF08950F931F93CF93DF9340
:1006200049D050D0C8EDD0E088818F778883888109
:100630008068888388818F7D8883E7EDF0E0808102
:100640008068808319BC109265011092610110923C
:1006500063011092620100EE10E0F80180818B7F4F
:10066000808388818160888342E060E080E04EDFA3
:10067000E1EEF0E080818E7F8083E2EEF0E0808129
:1006800081608083808188608083F80180818E7F93
:100690008083888180618883DF91CF911F910F9142
:1006A0000895E7EDF0E080818160808381E08093B0
:1006B0006401B2CFE8EDF0E080818C7F80831092FE
:1006C000E20008951092DA001092E10008951F925E
:1006D0000F920FB60F9211240BB60F922F933F93E8
:1006E0004F935F936F937F938F939F93AF93BF933A
:1006F000EF93FF938091E10082FF0AC08091E200B6
:1007000082FF06C08091E1008B7F8093E1007AD365
:100710008091DA0080FF1DC08091D80080FF19C051
:100720008091DA008E7F8093DA008091D90080FF7B
:100730000CC08CE089BD8EE089BD09B400FEFDCF00
:1007400081E0809365016DDD04C019BC10926501E4
:100750006ADD8091E10080FF18C08091E20080FF97
:1007600014C08091E2008E7F8093E2008091E200CD
:1007700080618093E2008091D80080628093D800ED
:1007800019BC85E0809365013DD38091E10084FF31
:100790002DC08091E20084FF29C08CE089BD8EE0ED
:1007A00089BD09B400FEFDCF8091D8008F7D809374
:1007B000D8008091E1008F7E8093E1008091E2007B
:1007C0008F7E8093E2008091E20081608093E2005E
:1007D00080916101811106C08091E30087FD02C014
:1007E00081E001C084E0809365010CD38091E10039
:1007F00083FF22C08091E20083FF1EC08091E10050
:10080000877F8093E10082E080936501109261010F
:100810008091E1008E7F8093E1008091E2008E7FE5
:100820008093E2008091E20080618093E20042E0E8
:1008300060E080E06BDEE6D2FF91EF91BF91AF9177
:100840009F918F917F916F915F914F913F912F91E8
:100850000F900BBE0F900FBE0F901F901895CF9268
:10086000DF92EF92FF920F931F93CF93DF93EC01F0
:100870008B017A019EDE811133C0E114F10439F05D
:10088000F70180819181081B190BC80FD91FC12C5A
:10089000D12C0115110519F18091E80085FD16C0D4
:1008A0008091E8008E778093E800ADD2E114F104E6
:1008B00049F0F70180819181C80ED91ED182C08292
:1008C00085E00EC076DE882321F30AC089918093EB
:1008D000F10001501109FFEFCF1ADF0ADACF80E0F3
:1008E000DF91CF911F910F91FF90EF90DF90CF900C
:1008F0000895CF92DF92EF92FF920F931F93CF93C1
:10090000DF93EC018B017A0154DE811133C0E114D5
:10091000F10439F0F70180819181081B190BC80F90
:10092000D91FC12CD12C0115110519F18091E800B6
:1009300085FD16C08091E8008B778093E80063D234
:10094000E114F10449F0F70180819181C80ED91EAC
:10095000D182C08285E00EC02CDE882321F30AC03C
:100960008091F100899301501109FFEFCF1ADF0A3E
:10097000DACF80E0DF91CF911F910F91FF90EF9040
:10098000DF90CF90089520916C0130916D01261772
:10099000370748F06115710539F42091E8002E778A
:1009A0002093E80001C0B901FC0120E06115710548
:1009B00069F1809165018823D1F18530D1F1809171
:1009C000E80083FD32C08091E80082FD28C080915C
:1009D000E80080FFEBCF8091F2009091F300611569
:1009E000710551F08830910538F421912093F10080
:1009F000615071090196F3CF21E0089709F020E0DA
:100A00008091E8008E778093E800D0CF2111D1CF7C
:100A100006C080916501882351F0853051F08091A6
:100A2000E80082FFF6CF80E0089581E0089582E03B
:100A3000089583E008956115710529F42091E80077
:100A40002B772093E800FC016115710531F180914D
:100A50006501882351F1853051F18091E80083FDD3
:100A600022C08091E80082FFEFCF8091F200909148
:100A7000F300892B31F08091F1008193615071096D
:100A8000A1F78091E8008B778093E800DDCF80911B
:100A90006501882351F0853051F08091E80080FF96
:100AA000F6CF80E0089581E0089582E0089583E024
:100AB000089520916C0130916D012617370748F099
:100AC0006115710539F42091E8002E772093E80034
:100AD00001C0B901FC0120E06115710571F180913F
:100AE00065018823D9F18530D9F18091E80083FD33
:100AF00033C08091E80082FD29C08091E80080FF2A
:100B0000EBCF8091F2009091F3006115710559F0DF
:100B10008830910540F424912093F1003196615082
:100B200071090196F2CF21E0089709F020E0809149
:100B3000E8008E778093E800CFCF2111D0CF06C098
:100B400080916501882351F0853051F08091E80053
:100B500082FFF6CF80E0089581E0089582E0089555
:100B600083E008950F931F93CF93DF93CDB7DEB744
:100B7000AA970FB6F894DEBF0FBECDBFE6E6F1E050
:100B80008091F100819321E0EE36F207C9F787DB0F
:100B90008091E80083FF1DC18091660190916701FB
:100BA000492F50E04A30510508F013C1FA01E45BC7
:100BB000FF4F3BC1803881F0823809F00AC1809133
:100BC0006A0187708093E9008091EB0085FB88279C
:100BD00080F91092E90006C0809162019091630152
:100BE000911182609091E800977F9093E800809344
:100BF000F1001092F100C5C0282F2D7F09F0E9C047
:100C0000882319F0823061F0E4C08091680181305E
:100C100009F0DFC0933009F080E0809363012BC0BE
:100C200080916801811127C080916A01877009F461
:100C3000D0C08093E9002091EB0020FF1CC09330CE
:100C400021F48091EB00806214C09091EB009061E0
:100C50009093EB0021E030E0A90102C0440F551F42
:100C60008A95E2F74093EA001092EA008091EB0047
:100C700088608093EB001092E9008091E800877F04
:100C800083C08111A6C0109168011F770FB7F89437
:100C90008091E800877F8093E8006CDC8091E80019
:100CA00080FFFCCF8091E3008078812B8093E3006C
:100CB00080688093E300111102C082E001C083E0EC
:100CC000809365010FBF85C08058823008F081C0D5
:100CD00080916801909169018C3D53E0950771F511
:100CE00083E08A838AE289834FB7F894DE01139602
:100CF00020E03EE051E2E32FF0E050935700E49112
:100D000020FF03C0E295EF703F5FEF708E2F90E001
:100D1000EA3010F0C79601C0C0968D939D932F5F67
:100D2000243149F74FBF8091E800877F8093E80026
:100D30006AE270E0CE01019626DE12C0AE014F5F7E
:100D40005F4F60916A01B2DBBC01892B09F441C09D
:100D50009091E800977F9093E80089819A81A9DEBD
:100D60008091E8008B778093E80033C0803889F564
:100D70008091E800877F8093E800809161018093F3
:100D8000F1008091E8008E778093E800F3DB21C0CA
:100D900081111FC080916801909169019927029784
:100DA000C4F48091E800877F8093E8008091680117
:100DB00080936101DFDB80916101811106C0809128
:100DC000E30087FD02C081E001C084E080936501FB
:100DD0002CDA8091E80083FF0AC08091EB008062EA
:100DE0008093EB008091E800877F8093E800AA96CB
:100DF0000FB6F894DEBF0FBECDBFDF91CF911F912C
:100E00000F9108950895CF9380916501882359F03B
:100E1000C091E900C7701092E9008091E80083FD5D
:100E2000A1DEC093E900CF910895EE0FFF1F0024CB
:100E3000001C0BBE0790F691E02D0994F894FFCFAB
:100E400000000000000008000000000000084A6FD9
:100E500079737469636B20507265737365640D0AEE
:100E6000004A6F79737469636B2052696768740D07
:100E70000A004A6F79737469636B204C6566740D60
:100E80000A004A6F79737469636B20446F776E0D43
:100E90000A004A6F79737469636B2055700D0A00FC
:00000001FF
