:10000000BAC00000D5C00000D3C00000D1C00000BD
:10001000CFC00000CDC00000CBC00000C9C00000B0
:10002000C7C00000C5C0000011C30000C1C000006F
:10003000BFC00000BDC00000BBC00000B9C00000D0
:10004000B7C00000B5C00000B3C00000B1C00000E0
:10005000AFC00000ABC10000ABC00000A9C00000F1
:10006000A7C00000A5C00000A3C00000A1C0000000
:100070009FC000009DC000009BC0000099C0000010
:1000800097C0000095C0000093C0000091C0000020
:100090008FC000008DC00000050527051406270548
:1000A00014066C058F051406E105F30528034C00C2
:1000B00055004600410020004100750064006900C1
:1000C0006F0020004F0075007400200044006500A0
:1000D0006D006F00000018034400650061006E00B1
:1000E0002000430061006D006500720061000000A7
:1000F0000403090409027000020100C0320904006F
:1001000000000101000009240100011E0001010C92
:10011000240201010100020300000009240302017E
:1001200003000100090401000001020000090401AC
:10013000010101020000072401010101001724024E
:100140000102021005401F00112B0022560044AC92
:100150000080BB000905010D000101000007250119
:10016000010000001201100100000008EB0346200E
:1001700002000102000111241FBECFEFD0E2DEBF5A
:10018000CDBF11E0A0E0B1E0EAEDFCE000E00BBF84
:1001900002C007900D92A430B107D9F721E0A4E086
:1001A000B1E001C01D92A231B207E1F725D093C59D
:1001B00027CF9BB19F70892B8BB9089584B7877F18
:1001C00084BF0FB6F894A8958091600088618093F1
:1001D0006000109260000FBE90E080E80FB6F894C7
:1001E00080936100909361000FBE8AB1806F8AB9DD
:1001F0008BB18F708BB914C2E1DF80E1DADF7894C4
:100200002DD5FECFCF9380EAD4DFC2E0C0936E003D
:1002100020910001309101014091020150910301B0
:1002200060E472E48FE090E02BD5215027BDC4BD7F
:10023000C5BD87B1806687B981EF8093900089E062
:1002400080939100CF91089515BC1092910087B1D1
:100250008F7987B91092040180E1ABCF46E560E465
:1002600081E046D1811102C080E901C080E6A1CFC2
:10027000CF93DF9300D01F92CDB7DEB780910B01F3
:100280008B3051F018F4813051F18AC0813809F473
:1002900063C08F3FB9F084C080910A01813009F0BA
:1002A0007FC08091E800877F8093E80055D181E08E
:1002B00020910C0130910D01232B09F480E08093F3
:1002C00004016EC080910A018152823008F068C03A
:1002D0008091E800877F8093E8003ED161C08091E3
:1002E0000A01823209F05CC080910E01813009F070
:1002F00057C080910D01813009F052C08091E80013
:10030000877F8093E80063E070E0CE010196BED263
:100310008091E8008B778093E8008B812A81422FBF
:1003200050E060E070E0762F652F542F4427682B53
:1003300089819A01AB01282B2093000130930101A0
:10034000409302015093030160E472E48FE090E077
:1003500097D4215027BD24C080910A01823201F533
:1003600080910E018130E1F480910D018130C1F462
:100370008091000190910101209102012B839A83C9
:1003800089838091E800877F8093E80063E070E0D4
:10039000CE01019623D28091E8008B778093E8000C
:1003A0000F900F900F90DF91CF9108951F920F92B1
:1003B0000FB60F9211240BB60F922F933F934F93CA
:1003C0005F936F937F938F939F93AF93BF93CF93DD
:1003D000EF93FF93C091E900C77081E08093E9003B
:1003E0008091E80082FF3EC0809104018823D1F112
:1003F0008091F1008091F100482F582F550F550B37
:100400008091F1008091F100282F382F330F330BAA
:10041000CA01820F931F959587959091E80095FDED
:1004200005C09091E8009B779093E8004058509366
:10043000990040939800205830939B0020939A0095
:10044000813144F4893044F4853044F4833044F0FD
:1004500080E107C080EF05C080EB03C080E301C0EE
:1004600080E0A7DEC093E900FF91EF91CF91BF91AB
:10047000AF919F918F917F916F915F914F913F913C
:100480002F910F900BBE0F900FBE0F901F901895DD
:10049000292F33272230310559F02330310569F0F7
:1004A00021303105E9F482E190E024E631E01CC01E
:1004B00080E790E024EF30E017C099278130910564
:1004C00049F028F0029761F4ECEAF0E005C0E0EFB3
:1004D000F0E002C0E6EDF0E0849190E09F0104C0FE
:1004E00080E090E020E030E0FA013183208308953D
:1004F000982F973068F59093E900981739F070912C
:10050000EC002091ED005091F00003C0242F762FD5
:1005100050E021FD02C09F5FECCF3091EB003E7FA9
:100520003093EB003091ED003D7F3093ED00309142
:10053000EB0031603093EB007093EC002093ED0002
:100540005093F0002091EE0027FDE5CF80E0089564
:100550008093E90081E0089580910A0187FF11C02E
:100560008091E80082FD05C0809109018111F8CFDA
:1005700011C08091E8008B770BC08091090188231E
:1005800049F08091E80080FFF8CF8091E8008E77F5
:100590008093E80008950F931F93CF93DF9349D082
:1005A00050D0C8EDD0E088818F77888388818068BB
:1005B000888388818F7D8883E7EDF0E08081806883
:1005C000808319BC10920901109205011092070155
:1005D0001092060100EE10E0F80180818B7F80838D
:1005E00088818160888342E060E080E081DFE1EE25
:1005F000F0E080818E7F8083E2EEF0E08081816098
:100600008083808188608083F80180818E7F8083F1
:10061000888180618883DF91CF911F910F91089528
:10062000E7EDF0E080818160808381E080930801C4
:10063000B2CFE8EDF0E080818C7F80831092E20001
:1006400008951092DA001092E10008951F920F921F
:100650000FB60F9211240BB60F922F933F934F9327
:100660005F936F937F938F939F93AF93BF93EF931A
:10067000FF938091E10082FF0AC08091E20082FF37
:1006800006C08091E1008B7F8093E100E6D28091EB
:10069000DA0080FF1DC08091D80080FF19C08091D2
:1006A000DA008E7F8093DA008091D90080FF0CC041
:1006B0008CE089BD8EE089BD09B400FEFDCF81E0EC
:1006C000809309019FDD04C019BC10920901BCDDB3
:1006D0008091E10080FF18C08091E20080FF14C08B
:1006E0008091E2008E7F8093E2008091E200806141
:1006F0008093E2008091D80080628093D80019BC7A
:1007000085E080930901A9D28091E10084FF2DC08A
:100710008091E20084FF29C08CE089BD8EE089BD14
:1007200009B400FEFDCF8091D8008F7D8093D80062
:100730008091E1008F7E8093E1008091E2008F7EC6
:100740008093E2008091E20081608093E2008091DA
:100750000501811106C08091E30087FD02C081E0A0
:1007600001C084E08093090178D28091E10083FF89
:1007700022C08091E20083FF1EC08091E100877F4C
:100780008093E10082E0809309011092050180913D
:10079000E1008E7F8093E1008091E2008E7F809364
:1007A000E2008091E20080618093E20042E060E03C
:1007B00080E09EDE52D2FF91EF91BF91AF919F9169
:1007C0008F917F916F915F914F913F912F910F90FA
:1007D0000BBE0F900FBE0F901F9018952091100127
:1007E000309111012617370748F06115710539F46A
:1007F0002091E8002E772093E80001C0B901FC01A8
:1008000020E06115710569F1809109018823D1F11A
:100810008530D1F18091E80083FD32C08091E800FD
:1008200082FD28C08091E80080FFEBCF8091F2002C
:100830009091F3006115710551F08830910538F4FD
:1008400021912093F100615071090196F3CF21E0CD
:10085000089709F020E08091E8008E778093E80007
:10086000D0CF2111D1CF06C080910901882351F04A
:10087000853051F08091E80082FFF6CF80E0089546
:1008800081E0089582E0089583E00895611571057F
:1008900029F42091E8002B772093E800FC016115F2
:1008A000710531F180910901882351F1853051F1B1
:1008B0008091E80083FD22C08091E80082FFEFCFA5
:1008C0008091F2009091F300892B31F08091F1003A
:1008D000819361507109A1F78091E8008B77809333
:1008E000E800DDCF80910901882351F0853051F077
:1008F0008091E80080FFF6CF80E0089581E00895C0
:1009000082E0089583E00895209110013091110153
:100910002617370748F06115710539F42091E80072
:100920002E772093E80001C0B901FC0120E0611599
:10093000710571F1809109018823D9F18530D9F1D0
:100940008091E80083FD33C08091E80082FD29C0DA
:100950008091E80080FFEBCF8091F2009091F3004E
:100960006115710559F08830910540F42491209368
:10097000F1003196615071090196F2CF21E008979C
:1009800009F020E08091E8008E778093E800CFCFD7
:100990002111D0CF06C080910901882351F0853004
:1009A00051F08091E80082FFF6CF80E0089581E069
:1009B000089582E0089583E008950F931F93CF93E5
:1009C000DF93CDB7DEB7AA970FB6F894DEBF0FBEA0
:1009D000CDBFEAE0F1E08091F100819321E0E231C6
:1009E000F207C9F745DC8091E80083FF1DC18091C3
:1009F0000A0190910B01492F50E04A30510508F04F
:100A000013C1FA01E45BFF4F5DC1803881F0823889
:100A100009F00AC180910E0187708093E9008091EE
:100A2000EB0085FB882780F91092E90006C08091D1
:100A3000060190910701911182609091E800977FE3
:100A40009093E8008093F1001092F100C5C0282F28
:100A50002D7F09F0E9C0882319F0823061F0E4C0ED
:100A600080910C01813009F0DFC0933009F080E003
:100A7000809307012BC080910C01811127C08091C8
:100A80000E01877009F4D0C08093E9002091EB003B
:100A900020FF1CC0933021F48091EB00806214C0D1
:100AA0009091EB0090619093EB0021E030E0A90180
:100AB00002C0440F551F8A95E2F74093EA00109256
:100AC000EA008091EB0088608093EB001092E900CF
:100AD0008091E800877F83C08111A6C010910C012E
:100AE0001F770FB7F8948091E800877F8093E80024
:100AF00033DD8091E80080FFFCCF8091E3008078B7
:100B0000812B8093E30080688093E300111102C081
:100B100082E001C083E0809309010FBF85C0805847
:100B2000823008F081C080910C0190910D018C3DC4
:100B300053E0950771F583E08A838AE289834FB792
:100B4000F894DE01139620E03EE051E2E32FF0E05E
:100B500050935700E49120FF03C0E295EF703F5F90
:100B6000EF708E2F90E0EA3010F0C79601C0C0966B
:100B70008D939D932F5F243149F74FBF8091E800FB
:100B8000877F8093E8006AE270E0CE01019626DE5E
:100B900012C0AE014F5F5F4F60910E0179DCBC0166
:100BA000892B09F441C09091E800977F9093E80069
:100BB00089819A81A9DE8091E8008B778093E80093
:100BC00033C0803889F58091E800877F8093E80002
:100BD000809105018093F1008091E8008E778093E9
:100BE000E800BADC21C081111FC080910C019091F6
:100BF0000D0199270297C4F48091E800877F8093C4
:100C0000E80080910C0180930501A6DC809105012C
:100C1000811106C08091E30087FD02C081E001C020
:100C200084E0809309011ADB8091E80083FF0AC009
:100C30008091EB0080628093EB008091E800877FD9
:100C40008093E800AA960FB6F894DEBF0FBECDBF22
:100C5000DF91CF911F910F9108950895CF938091C7
:100C60000901882359F0C091E900C7701092E9008A
:100C70008091E80083FDA1DEC093E900CF91089543
:100C8000A1E21A2EAA1BBB1BFD010DC0AA1FBB1F90
:100C9000EE1FFF1FA217B307E407F50720F0A21B02
:100CA000B30BE40BF50B661F771F881F991F1A946F
:100CB00069F760957095809590959B01AC01BD0199
:100CC000CF010895EE0FFF1F0024001C0BBE0790FC
:0A0CD000F691E02D0994F894FFCF8F
:040CDA0080BB0000DB
:00000001FF
