:1000000010C200002CC200002AC2000028C200005A
:1000100026C2000024C2000022C2000020C200004C
:100020001EC200001CC200006BC7000018C2000006
:1000300016C2000014C2000012C2000010C200006C
:100040000EC200000CC200000AC2000008C200007C
:1000500006C2000004C2000002C2000000C200008C
:10006000FEC10000FCC10000FAC10000F8C10000A0
:10007000F6C10000F4C10000F2C10000F0C10000B0
:10008000EEC10000ECC10000EAC10000E8C10000C0
:10009000E6C10000E4C100004405350662056C05B8
:1000A0009705BF05CA05DB05F7051E061B5B333147
:1000B0006D44657620456E756D204572726F720DC8
:1000C0000A202D2D204572726F7220436F646520C7
:1000D00025640D0A202D2D20537562204572726F04
:1000E0007220436F64652025640D0A202D2D204960
:1000F0006E2053746174652025640D0A1B5B3337D1
:100100006D001B5B33316D486F7374204D6F6465F8
:10011000204572726F720D0A202D2D204572726F6C
:100120007220436F64652025640D0A1B5B33376DB5
:10013000004D6173732053746F726167652044656D
:100140007669636520456E756D6572617465642EB0
:100150000D0A0056656E646F722022252E387322B8
:100160002C2050726F647563742022252E313673F3
:10017000220D0A004572726F722072657472696591
:1001800076696E672064657669636520496E71756E
:1001900069727920646174612E0D0A004572726F74
:1001A000722073657474696E672050726576656E2F
:1001B00074204465766963652052656D6F76616C65
:1001C000206269742E0D0A004572726F722072658A
:1001D0007472696576696E67206465766963652007
:1001E00073656E73652E0D0A004572726F72207210
:1001F0006573657474696E67204D61737320537401
:100200006F7261676520696E746572666163652EE1
:100210000D0A00546F74616C204C554E733A2025C2
:1002200064202D205573696E67206669727374208F
:100230004C554E20696E206465766963652E0D0A03
:10024000004572726F722072657472696576696EAC
:1002500067206D6178204C554E20696E6465782E5C
:100260000D0A004572726F722053657474696E676F
:100270002044657669636520436F6E6669677572B1
:100280006174696F6E2E0D0A004174746163686554
:100290006420446576696365204E6F742061205642
:1002A000616C6964204D6173732053746F72616770
:1002B00065204465766963652E0D0A004572726F8C
:1002C000722052657472696576696E6720436F6E3D
:1002D00066696775726174696F6E204465736372D5
:1002E0006970746F722E0D0A000D0A446576696399
:1002F0006520556E61747461636865642E0D0A0033
:100300004465766963652041747461636865642E31
:100310000D0A000D0A002020202000252E32582032
:10032000000D0A436F6E74656E7473206F662066ED
:100330006972737420626C6F636B3A0D0A004572C8
:10034000726F722072656164696E67206465766998
:10035000636520626C6F636B2E0D0A00256C75203F
:10036000626C6F636B73206F6620256C75206279F9
:100370007465732E0D0A004572726F722072657477
:1003800072696576696E6720646576696365206366
:10039000617061636974792E0D0A00526574726927
:1003A0006576696E672043617061636974792E2E8A
:1003B0002E0D0A004572726F722077616974696E42
:1003C0006720666F722064657669636520746F20AC
:1003D00062652072656164792E0D0A005761697447
:1003E000696E6720756E74696C2072656164792E20
:1003F0002E2E0D0A001B5B33366D4D617373205337
:10040000746F7261676520486F73742044656D6F07
:100410002072756E6E696E672E0D0A1B5B33376D29
:10042000000011241FBECFEFD0E2DEBFCDBF11E030
:10043000A0E0B1E0E8EBF4E200E00BBF02C00790FF
:100440000D92A032B107D9F721E0A0E2B1E001C0DE
:100450001D92A234B207E1F769D10C945A12D0CDA3
:100460009BB19F70892B8BB9089584B7877F84BF18
:100470000FB6F894A8958091600088618093600021
:10048000109260000FBE90E080E80FB6F894809361
:100490006100909361000FBE83E390E09093CD00E4
:1004A0008093CC0086E08093CA001092C80088E157
:1004B0008093C900539A5A9A8AB1806F8AB98BB1D6
:1004C0008F708BB907D5ACE3B1E0EEE2F1E01196A5
:1004D000FC93EE931396FC93EE9312978EE0DF015C
:1004E0001D928A95E9F783E0838380E19FE09187FD
:1004F000808789E19FE09387828708952F923F92BA
:100500004F925F926F927F928F929F92AF92BF9223
:10051000CF92DF92EF92FF920F931F93CF93DF93CF
:10052000CDB7DEB728970FB6F894DEBF0FBECDBFAC
:100530004DB65EB680912D018B3009F0D9C080E2B6
:100540008FDF8CED93E00E94B50F60E080E091E0DA
:100550000E948A0D882329F08038B9F384EB93E058
:1005600010C08BE993E00E94B50FAE014F5F5F4F63
:1005700060E080E091E00E94C50D882349F087E7A4
:1005800093E00E94B50F80E96BDF80E0B0D7B0C088
:1005900088858F938F818F938E818F938D818F9399
:1005A0008C818F938B818F938A818F9389818F9395
:1005B0008CE593E09F938F930E948E0FED80FE80D9
:1005C0000F8118858DB79EB70A960FB6F8949EBF17
:1005D0000FBE8DBFADB6BEB6EDB7FEB7EE19FF09C3
:1005E0000FB6F894FEBF0FBEEDBF8DB79EB7019654
:1005F0001C016C0101E020E030E0A90160E080E036
:1006000091E00E94B40E882331F08EE393E00E94C3
:10061000B50F80E965C081E293E00E94B50FC12C5F
:10062000D12CA60160E070E08D819E81AF81B885FC
:1006300024E0B695A795979587952A95D1F7481701
:1006400059076A077B0708F04AC0860144E0000F9B
:10065000111F4A95E1F7020D131D480190E1890E23
:10066000911C7801F70181917F011F928F938BE19B
:1006700093E09F938F930E948E0F0F900F900F9097
:100680000F90E814F90471F786E193E09F938F933C
:100690000E948E0F0F900F90F801E1908F016090F3
:1006A0003E0170903F01F12CC7010E944C0F892B35
:1006B00019F43EE2E32EF12CB301C7010E94520F60
:1006C0008016910649F783E193E09F938F930E94F0
:1006D0008E0FFFEFCF1ADF0A0F900F90A2CF80E6A8
:1006E000BFDE80E004D70FB6F894BEBE0FBEADBE2D
:1006F0000FB6F8945EBE0FBE4DBE28960FB6F894A6
:10070000DEBF0FBECDBFDF91CF911F910F91FF9044
:10071000EF90DF90CF90BF90AF909F908F907F90A1
:100720006F905F904F903F902F9008959EDE85EFE1
:1007300093E00E94B50F80E193DE7894DFDE10D75E
:10074000FDCF80E093E00E94B50F80EA89CE89EE6C
:1007500092E00E94B50F80E183CECF93DF93CDB7B7
:10076000DEB7C953D2400FB6F894DEBF0FBECDBF7F
:1007700080EA76DE20E032E0AE014F5F5F4FBE01DF
:10078000695C7D4F81E00BD5882319F08CEB92E0FA
:1007900011C0C95CDD4F68817981C753D240AE0179
:1007A0004F5F5F4F80E091E00E94290C882339F071
:1007B00089E892E00E94B50F80E952DE7AC081E0BC
:1007C00096D6882319F083E692E0F4CFBE01675CE9
:1007D0007D4F80E091E00E94170D882319F081E49D
:1007E00092E040C0C75CDD4F8881C953D24090E0A1
:1007F00001969F938F9383E192E09F938F930E9442
:100800008E0F80E091E00E94D20C0F900F900F901D
:100810000F90882319F089EE91E024C0AE014B5D62
:100820005D4F60E080E091E00E942A0E882319F07D
:1008300088EC91E017C041E060E080E091E00E9428
:10084000780E882319F08CE991E00CC0AE014F5F5F
:100850005D4F60E080E091E00E943C0D882349F00C
:1008600084E791E00E94B50F80E9FADD80E03FD691
:1008700020C081E092E08C0F9D1F40969F938F9344
:1008800081E092E08C0F9D1F08969F938F9383E5E4
:1008900091E09F938F930E948E0F81E391E00E94DD
:1008A000B50F80E6DDDD0F900F900F900F900F9049
:1008B0000F90C75CDD4F0FB6F894DEBF0FBECDBF03
:1008C000DF91CF910895C82F9DD21F92CF9382E0E0
:1008D00091E09F938F930E948E0F80E9C1DD0F906E
:1008E0000F900F900F90FFCF90912D011F929F932B
:1008F0001F926F931F928F938CEA90E09F938F9338
:100900000E948E0F8DB79EB708960FB6F8949EBFC3
:100910000FBE8DBF80E9A4CD80919E008170909123
:10092000A0009D7F9093A00090919E009260909374
:100930009E0090919E0091FDFCCF90919E00916051
:1009400090939E00109223019091A00090722091AC
:10095000A0002F7D2093A00020919F002F7D209349
:100960009F002AE030919F0035FF0BC020919F002F
:100970002F7D20939F0020919F002D7F20939F002B
:1009800008C0EFECF7E03197F1F700C0000021500C
:1009900049F7992329F09091A00090629093A000CC
:1009A000811105C080919E008E7F80939E00809172
:1009B000A00082608093A000089520919E00217085
:1009C0009091A00090723091A0003F7D3093A000E4
:1009D00030919F003F7D30939F0030919E003160A9
:1009E00030939E00882339F130919F0035FF06C077
:1009F00030919F003F7D30939F00815030912D01B9
:100A00003130C1F03091A60034FF09C01092F500DA
:100A10008091A6008F7E8093A60082E00CC030916A
:100A2000A60031FFDFCF8091A6008D7F8093A600C6
:100A300083E001C081E0211105C020919E002E7F3E
:100A400020939E00992329F09091A00090629093AA
:100A5000A0000895EF920F931F93CF93DF93CDB72C
:100A6000DEB728970FB6F894DEBF0FBECDBFE0917A
:100A70002D018E2F90E08A30910508F0F6C0FC0120
:100A8000E45BFF4F0C942B0F009121011091220188
:100A90000115110509F4E9C081E08FDF882331F0E9
:100AA0009091200190932D0191E0D1C00150110946
:100AB0001093220100932101012B09F0D6C08091EF
:100AC000200107C088EE93E09093220180932101DA
:100AD00083E080932D01C9C0809121019091220172
:100AE0009C01215031093093220120932101892B4F
:100AF00039F08FEC97E00197F1F700C00000B5C026
:100B000077988091D80080618093D8008091DD0033
:100B10008B7F8093DD008091D70080618093D70028
:100B20008091DD0082608093DD0084E0D2CF8091EF
:100B30009F0080FF9AC080919F008E7F80939F00CE
:100B400080919F008D7F80939F008091DF008D7F3B
:100B50008093DF008091DE0082608093DE008091D0
:100B60009E00816080939E00E8D010922D0184E663
:100B700090E0909322018093210185E05CC0CCDE5F
:100B800010922D0188EC90E0909322018093210136
:100B900086E051C0E12C00E410E020E040E060E09D
:100BA00080E06FD08091AC0087FD03C080E094E0CE
:100BB0004EC087E08ECF88E0EFE0F1E0A5E2B1E043
:100BC00001900D928A95E1F7CE0101969AD3811199
:100BD0003DC0888580930E019FDE10922D0188EC28
:100BE00090E0909322018093210188E024C000913D
:100BF0000E0110E0E12C20E040E060E080E041D018
:100C00008091AC0087FFD2CF88E0E7E1F1E0A5E278
:100C1000B1E001900D928A95E1F780E090E071D308
:100C2000811114C010922D0184E690E0909322016E
:100C30008093210189E08093200117C081E0809397
:100C4000A1008AE080932D0188DD0FC093E0209100
:100C50002D01213051F0682F892F46DE8091DD0073
:100C600081608093DD0073DDE5D028960FB6F8949F
:100C7000DEBF0FBECDBFDF91CF911F910F91EF90DF
:100C80000895EF920F931F932F70422B90E4699F6A
:100C9000B0011124642B382F2E2D2260373008F03C
:100CA00045C03093A700381313C048E050E090E0EF
:100CB0004017510738F09295907F922BE62F50E025
:100CC00070E00EC09530B9F39F5F440F551FF0CF11
:100CD000E091AA009091AB007091AD005091AE00F0
:100CE00091FD02C03F5FDACF4091A9004E7F409353
:100CF000A9004091AB004D7F4093AB004091A9000B
:100D000041604093A900E093AA009093AB007093D8
:100D1000AD005093AE009091A90090629093A9000D
:100D20009091AC0097FDDECF80E003C08093A700D8
:100D300081E01F910F91EF9008951092F80080E0EC
:100D40008093A7001092AE001092A6001092AB0004
:100D50009091A9009E7F9093A9008F5F873081F7C3
:100D600008953091A700377090E09093A7002091EC
:100D7000AC0027FF0FC02091AA00422F4F70209196
:100D8000AA002073203111F020E001C020E8242BBC
:100D9000821739F09F5F973041F73093A70080E0CA
:100DA000089581E008954091A2005091A30089E840
:100DB00093E12091AA002073203129F42091A6000C
:100DC00020FF05C019C02091A60022FD15C020916A
:100DD000A60021FD13C020912D01213089F0209122
:100DE000A2003091A3004217530719F3019711F0A5
:100DF000A901DFCF83E0089580E0089581E00895A0
:100E000082E0089570D077D0E0EEF0E080818160DC
:100E10008083E8EDF0E080818F77808319BCA7EDB7
:100E2000B0E08C918E7F8C9380818F7E8083109236
:100E30002401089558D05FD08091D8008F77809397
:100E4000D8008091D80080688093D8008091D80025
:100E50008F7D8093D8008091D7008F778093D700C3
:100E60008CE089BD8EE089BD09B400FEFDCF81E034
:100E700080932D011092230180E480930E018091D4
:100E8000D80080648093D8008091DD0081608093D9
:100E9000DD008091DD0084608093DD008091D700CB
:100EA0008F7E8093D7006F9A779A8091DE00816061
:100EB0008093DE008091DE0084608093DE0080916C
:100EC000E0008E7F8093E0008091D8008061809365
:100ED000D8000895E7EDF0E080818160808381E0B3
:100EE00080932401A7CFE8EDF0E080818C7F8083A0
:100EF0001092A00008951092DA0010929F000895B9
:100F00001F920F920FB60F9211240BB60F922F93D0
:100F10003F934F935F936F937F938F939F93AF9381
:100F2000BF93EF93FF9380919F0085FF0AC080914C
:100F3000A00085FF06C080919F008F7D80939F0059
:100F4000B9D180919F0081FF15C08091A00081FFE1
:100F500011C080919F008D7F80939F0080919F00A2
:100F60008E7F80939F008091A0008D7F8093A00052
:100F7000EEDB60DF8091DF0081FF15C08091DE0035
:100F800081FF11C08091DF008D7F8093DF00779813
:100F90008091DD0081608093DD0080E094DCD7DB10
:100FA00081E080932D018091DF0080FF17C0809148
:100FB000DE0080FF13C08091DF008E7F8093DF0012
:100FC0008091DE008E7F8093DE00BBDB8091A000ED
:100FD00082608093A00082E080932D018091DF00E9
:100FE00082FF0EC08091DE0082FF0AC08091DF0088
:100FF0008B7F8093DF0060E082E076DCA8DB1ADF85
:10100000FF91EF91BF91AF919F918F917F916F91E0
:101010005F914F913F912F910F900BBE0F900FBE9C
:101020000F901F901895CF92DF92EF92FF920F933F
:101030001F93CF93DF93EC018B017A018091AA007B
:101040008F7C80628093AA00AEDE811132C0E114F1
:10105000F10439F0F70180819181081B190BC80F49
:10106000D91FC12CD12C0115110511F18091A600B9
:1010700085FD15C08091A6008B778093A600E114B2
:10108000F10449F0F70180819181C80ED91ED18207
:10109000C08284E00EC087DE882329F30AC08991CC
:1010A0008093AF0001501109FFEFCF1ADF0ADBCFA9
:1010B00080E0DF91CF911F910F91FF90EF90DF9033
:1010C000CF900895CF92DF92EF92FF920F931F93EC
:1010D000CF93DF93EC018B017A018091AA008F7C82
:1010E00080618093AA005FDE811132C0E114F104B7
:1010F00039F0F70180819181081B190BC80FD91FA6
:10110000C12CD12C0115110511F18091A60085FD8E
:1011100015C08091A6008E778093A600E114F1049B
:1011200049F0F70180819181C80ED91ED182C08219
:1011300084E00EC038DE882329F30AC08091AF0016
:10114000899301501109FFEFCF1ADF0ADBCF80E04E
:10115000DF91CF911F910F91FF90EF90DF90CF9093
:101160000895CF93DF93DC01EB01E881F9812081C1
:101170008D919C91119730E08217930708F49C01A0
:10118000E20FF31FEB01F983E8838D919C91119796
:10119000821B930B8D939C93DF91CF910895CF92F7
:1011A000DF92EF92FF920F931F93CF93DF93CDB710
:1011B000DEB729970FB6F894DEBF0FBECDBF6B0127
:1011C0008A01790190E89093250196E09093260199
:1011D00090E00197926090932801809327011092EC
:1011E0002A011092290189E090E090932C018093CC
:1011F0002B011092A700CE01019683D0811119C056
:101200008B819C81F60191838083E816F90670F04A
:1012100090932C0180932B01C80173D0811109C0D8
:10122000F8018181823021F480E003C085E001C0B3
:1012300086E029960FB6F894DEBF0FBECDBFDF91D2
:10124000CF911F910F91FF90EF90DF90CF90089575
:10125000AF92BF92CF92DF92EF92FF920F931F93C4
:10126000CF93DF938C01EB016A01F801E080F180FC
:10127000E114F10499F0A880B980BE01C80171DFC2
:1012800088819981F6010995823079F3813039F4AA
:10129000B982A882F801F182E08201C082E0DF9188
:1012A000CF911F910F91FF90EF90DF90CF90BF9063
:1012B000AF90089508951F93CF93DF93182FC9EE31
:1012C000D3E011110CC08091A60083FD15C081E010
:1012D00074DB811112C02197A1F784E00EC0113098
:1012E00029F48091A60080FFF2CF06C0123079F772
:1012F0008091A60082FFEBCF80E0DF91CF911F911C
:101300000895FF920F931F93CF93DF938C018091E9
:101310009E008170F82EC0912B01D0912C018091FC
:101320009E00816080939E0081E047DB8111C8C0F0
:101330008091AA008F7C8093AA001092F500809182
:10134000A6008F7E8093A6008091A9008F7B80935A
:10135000A900E5E2F1E08DE291E021912093AF0058
:101360008E179F07D1F78091A60087778093A600FC
:1013700080E0A1DF8111A4C08091A90080648093E6
:10138000A90081E01ADB81119BC08091250187FFB4
:101390004EC08091AA008F7C80618093AA000115C5
:1013A000110509F03AC08091AA008F7C8062809379
:1013B000AA008091A9008F7B8093A90082E07BDF47
:1013C00081117EC08091A6008B778093A60082E079
:1013D00072DF76C08091A9008F7B8093A90081E0A5
:1013E0006ADF81116DC08091F6009091F700892B22
:1013F00011F4C0E0D0E0F8018F018091F6009091E7
:10140000F700892B69F48091A90080648093A9007A
:101410008091A6008E778093A6002097D9F6C3CF3F
:10142000209789F38091AF0081932197E5CF011533
:10143000110591F18091AA008F7C80628093AA00AF
:101440008091A9008F7B8093A90082E02097E1F032
:1014500032DF811135C02091F6003091F700809184
:101460000E0190E02817390748F40F5F1F4FF8016D
:10147000319780818093AF00219769F78091A60012
:101480008B778093A600E1CF16DF811119C0809180
:10149000A90080648093A9008091AA008F7C80615C
:1014A0008093AA008091A9008F7B8093A90081E09E
:1014B00002DF811105C09091A6009E779093A6004F
:1014C0009091A90090649093A900F11005C09091AB
:1014D0009E009E7F90939E0091E09093A8001092B2
:1014E000A800DF91CF911F910F91FF900895CF93A6
:1014F000C82F1092250189E0809326018C2F90E05F
:10150000909328018093270110922A0110922901BB
:1015100010922C0110922B011092A70080E090E015
:10152000F0DE811109C0C0932301C11102C09AE00D
:1015300001C09BE090932D01CF910895E5E2F1E089
:1015400092E0908391E091831382128290E09583E0
:101550008483178216821092A70080E090E0D1CE9B
:101560001F93CF93DF93C7EAD0E0188117701882DA
:1015700071DA1883DF91CF911F910895FC01818169
:10158000843059F48581883041F48681863029F48D
:101590008781803511F480E0089582E00895FC0190
:1015A0002181253051F423812370223021F482815E
:1015B000D8DB882331F082E008952430E1F781E020
:1015C000089580E00895FC012091A2003091A300CD
:1015D00080818093A7008091A9008F7B8093A900D0
:1015E00080E197E24091A60040FD45C04091A200F5
:1015F0005091A3002417350739F09C01215031097F
:10160000892B09F44AC0C9012091A90020642093C4
:10161000A90022812093A7002091A9002F7B20936D
:10162000A9002091A60021FD11C02091A9002064ED
:101630002093A90020812093A7002091A9002F7B4F
:101640002093A9002091A60021FF0FC08091AA003D
:101650008F709091AA009073903111F090E001C0CA
:1016600090E8892B6BDF81E0089520912D012130D6
:10167000B1F09A01B7CF80818093A7008091A90033
:1016800080648093A90082818093A7008091A90043
:1016900080648093A90080E0089583E0089582E04B
:1016A0000895AF92BF92DF92EF92FF920F931F9334
:1016B000CF93DF93EC018B017A018A859B85AC8502
:1016C000BD850196A11DB11D8F3F2FEF9207A20787
:1016D000B20721F481E090E0A0E0B0E08A879B8728
:1016E000AC87BD8785E593E5A2E4B3E4F801808388
:1016F0009183A283B3838A859B85AC85BD858483D2
:101700009583A683B7838A818093A7008091A900DF
:101710008F7B8093A90040E050E06FE170E0C8014A
:1017200082DCD82E81115EC08091A6008B778093D9
:10173000A60039DB8091A90080648093A900E114A0
:10174000F10409F44FC0F801A084B184848587FFB7
:101750001FC0CE0138DF882331F09091A90090643A
:101760009093A90039C088818093A7008091A90037
:101770008F7B8093A90040E050E0B501C701A2DC57
:1017800081112AC08091A6008E778093A6001EC08A
:101790008A818093A7008091A9008F7B8093A90004
:1017A00040E050E0B501C7013EDC811115C08091D9
:1017B000A6008B778093A6008091A60082FD06C0CC
:1017C00080912D018130C1F782E006C08091A9008F
:1017D00080648093A90006C09091A90090649093C2
:1017E000A900D82E8D2DDF91CF911F910F91FF90E1
:1017F000EF90DF90BF90AF9008950F931F93CF931A
:10180000DF938C01EB01DFDE81111EC0F8018081C6
:101810008093A7008091A9008F7B8093A90040E06E
:1018200050E06DE070E0CE014DDC81110DC0809183
:10183000A6008E778093A6008091A9008064809393
:10184000A9008C85811180E8DF91CF911F910F91C4
:1018500008956F927F928F929F92AF92BF92CF9294
:10186000DF92EF92FF920F931F93CF93DF9300D0FD
:1018700000D0CDB7DEB77A8369835C834B83FC01EC
:1018800034962AE0DF011D922A95E9F7EB81FC816D
:101890001181123009F071C06C014EEB5AE0BE01AB
:1018A0006D5F7F4FCE010196D3DC811167C06B80E5
:1018B0007C80F12C00E0812C912C6114710469F37F
:1018C0004FEC5AE0BE016D5F7F4FCE010196C0DC48
:1018D0008111E3CFAB80BC80F501828187FD03C01D
:1018E0004501AF2CB02EA114B10419F4FA2C0B2D24
:1018F000E4CF81149104D1F3FF24F394D6018C91A9
:101900008F110DC0F50104811581228111968C91F2
:10191000119717961C930E93169740E121C0D6019C
:1019200012968C918F1579F0F394B7E0FB12E6CF05
:10193000F3018281D60115968C93159781E0149658
:101940008C9310E01BC0F401048115812281D60123
:1019500013968C91139719961C930E93189740E247
:10196000811102C0E12C02C084E0E82E62E08F2DDC
:1019700088D98111D9CF13E001C011E0812F0F90D8
:101980000F900F900F90DF91CF911F910F91FF90CB
:10199000EF90DF90CF90BF90AF909F908F907F900F
:1019A0006F900895CF93DF93EC018D8190E021E259
:1019B000209325012FEF20932601109228011092E9
:1019C000270190932A018093290110922C011092F3
:1019D0002B011092A70080E090E093DC811124C0DD
:1019E00088818093A7008091AA008F709091AA00AF
:1019F0009073903111F090E001C090E8892B9EDD4A
:101A0000811112C08A818093A7008091AA008F70F3
:101A10009091AA009073903111F090E001C090E88D
:101A2000892BDF91CF918ACDDF91CF910895CF930C
:101A3000DF93EB01FC01858190E021EA20932501F1
:101A40002EEF2093260110922801109227019093E7
:101A50002A018093290181E090E090932C018093EA
:101A60002B011092A700CB014CDC833011F41882BB
:101A700080E0DF91CF910895CF92DF92EF92FF92B5
:101A80000F931F93CF93DF93CDB7DEB7AC970FB60D
:101A9000F894DEBF0FBECDBFFC0180912D018B30CD
:101AA00049F58481882331F1962F8F01BE016F5F44
:101AB0007F4F8FE1FB0111928A95E9F784E2C82EEE
:101AC000D12CE12CF12CC986DA86EB86FC8680E8E5
:101AD0008D879E8786E08F8782E1888B84E28C8B5E
:101AE000C801DFDD811107C0BE01605E7F4FC80104
:101AF00084DE01C081E0AC960FB6F894DEBF0FBE65
:101B0000CDBFDF91CF911F910F91FF90EF90DF90AC
:101B1000CF9008950F931F93CF93DF93CDB7DEB788
:101B2000AC970FB6F894DEBF0FBECDBF20912D014C
:101B30002B30F9F4FC0124812223D9F0262F8C01CB
:101B4000BE016F5F7F4F8FE1FB0111928A95E9F72C
:101B500080E88D872E8786E08F8740E050E0C801BF
:101B6000A0DD811107C0BE01605E7F4FC80145DE68
:101B700001C081E0AC960FB6F894DEBF0FBECDBFBA
:101B8000DF91CF911F910F9108958F929F92AF9205
:101B9000BF92EF92FF920F931F93CF93DF93CDB736
:101BA000DEB7AC970FB6F894DEBF0FBECDBFFC0119
:101BB00080912D018B3009F03BC084818823C1F1D5
:101BC0008A01962F7F01BE016F5F7F4F8FE1FB017E
:101BD00011928A95E9F788E0882E912CA12CB12CDE
:101BE00089869A86AB86BC8680E88D879E878AE048
:101BF0008F8785E2888BC70154DD81111AC0F801F7
:101C000060817181828193812FD16083718382830E
:101C10009383648175818681978126D164837583DE
:101C200086839783BE01605E7F4FC701E6DD01C0FA
:101C300081E0AC960FB6F894DEBF0FBECDBFDF914A
:101C4000CF911F910F91FF90EF90BF90AF909F9019
:101C50008F900895CF92DF92EF92FF920F931F9390
:101C6000CF93DF93CDB7DEB7AC970FB6F894DEBF56
:101C70000FBECDBFFC0180912D018B3049F58481D1
:101C8000882331F1962F8F01BE016F5F7F4F8FE167
:101C9000FB0111928A95E9F782E1C82ED12CE12C43
:101CA000F12CC986DA86EB86FC8680E88D879E87D4
:101CB00086E08F8783E0888B82E18C8BC801F1DC22
:101CC000811107C0BE01605E7F4FC80196DD01C073
:101CD00081E0AC960FB6F894DEBF0FBECDBFDF91AA
:101CE000CF911F910F91FF90EF90DF90CF900895CB
:101CF0000F931F93CF93DF93CDB7DEB7AC970FB69B
:101D0000F894DEBF0FBECDBFFC0180912D018B305A
:101D1000F9F484818823E1F0962F8F01BE016F5F73
:101D20007F4F8FE1FB0111928A95E9F79E8786E04C
:101D30008F878EE1888B4B8B40E050E0C801B1DC8F
:101D4000811107C0BE01605E7F4FC80156DD01C032
:101D500081E0AC960FB6F894DEBF0FBECDBFDF9129
:101D6000CF911F910F9108958F929F92AF92BF9242
:101D7000CF92DF92EF92FF920F931F93CF93DF9357
:101D8000CDB7DEB7AC970FB6F894DEBF0FBECDBFB0
:101D900070912D017B3081F5FC017481772361F115
:101DA000D701E32EF22E162F5C01CE0101964C01D5
:101DB0008FE1F40111928A95E9F7202F30E05BD092
:101DC00069877A878B879C8780E88D871E878AE062
:101DD0008F8788E2888B5A8B4B8BEC8AFD8A088F21
:101DE000A601B401C5015DDC811107C0BE01605EC2
:101DF0007F4FC50102DD01C081E0AC960FB6F894BB
:101E0000DEBF0FBECDBFDF91CF911F910F91FF902D
:101E1000EF90DF90CF90BF90AF909F908F900895FC
:101E20009091C80095FFFCCF8093CE0080E090E0B9
:101E300008958091C80087FF08C08091C80087FF7F
:101E400007C08091CE0090E008958EEF9FEF089537
:101E50008FEF9FEF0895EE0FFF1F0024001C0BBEB5
:101E60000790F691E02D099469279627692778272E
:101E7000872778270895A29FB001B39FC001A39F31
:101E8000700D811D1124911DB29F700D811D1124B3
:101E9000911D0895803209F0911195C280528F559D
:101EA000E0F708950F931F93CF93DF93FB012381F6
:101EB00021FD03C08FEF9FEF2CC022FF16C046818B
:101EC0005781248135814217530744F4A081B181A1
:101ED0009D012F5F3F4F318320838C932681378173
:101EE0002F5F3F4F3783268314C08B01EC01FB012A
:101EF0000084F185E02D0995892BE1F6D80116962D
:101F00008D919C911797019617969C938E93169797
:101F1000CE01DF91CF911F910F9108950F931F93E1
:101F2000CF93DF93CDB7DEB7AE01495F5F4FDA01E4
:101F30006D917D91AD010CE311E0F80182819381F7
:101F4000DC0113962C911397286013962C933ED0A6
:101F5000D8011296ED91FC9113972381277F23835B
:101F6000DF91CF911F910F9108950F931F93CF93FE
:101F7000DF938C01E0913E01F0913F01838181FF6D
:101F80001BC0D0E0C0E0F801849160913E017091E7
:101F90003F01DB011896ED91FC911997882341F0E0
:101FA0000995892B11F0DFEFCFEF0F5F1F4FEBCFBC
:101FB0008AE00995892B19F08FEF9FEF02C08D2FD2
:101FC0009C2FDF91CF911F910F9108952F923F92F7
:101FD0004F925F926F927F928F929F92AF92BF9239
:101FE000CF92DF92EF92FF920F931F93CF93DF93E5
:101FF000CDB7DEB72B970FB6F894DEBF0FBECDBFBF
:102000006C017B018A01FC0117821682838181FFAA
:10201000BFC1CE0101963C01F6019381F70193FD0A
:10202000859193FF81917F01882309F4ADC18532A9
:1020300039F493FD859193FF81917F01853221F4DD
:10204000B60190E02FDFE8CF912C212C312CFFE15D
:10205000F315D8F08B3279F038F4803279F083328E
:10206000A1F4232D20611DC08D3261F0803369F40D
:10207000232D216016C0832D8260382EE32DE4606D
:102080003E2E2AC0F32DF8601DC037FC2DC020ED78
:10209000280F2A3040F08E32B9F436FC75C1232D5A
:1020A0002064322E19C036FE06C08AE0989E200DAC
:1020B0001124922E11C0EAE02E9E200D1124222E12
:1020C000F32DF0623F2E08C08C3621F4832D8068FA
:1020D000382E02C0883641F4F70193FD859193FFB5
:1020E00081917F018111B3CF982F9F7D95549330BB
:1020F00028F40C5F1F4F9FE399830DC0833631F0A6
:10210000833771F0833509F055C020C0F801808114
:1021100089830E5F1F4F88248394912C530112C032
:102120002801F2E04F0E511CF801A080B18036FE6C
:1021300003C0692D70E002C06FEF7FEFC50151D180
:102140004C018201F32DFF773F2E15C0280122E0BC
:10215000420E511CF801A080B18036FE03C0692DEB
:1021600070E002C06FEF7FEFC50130D14C01F32D5D
:10217000F0683F2E820133FC19C0822D90E0881652
:102180009906A0F4B60180E290E08CDE2A94F5CFA7
:10219000F50137FC859137FE81915F01B60190E032
:1021A00081DE21102A9421E0821A91088114910481
:1021B00079F7E1C0843611F0893639F5F80137FE38
:1021C00007C060817181828193810C5F1F4F08C0BD
:1021D00060817181072E000C880B990B0E5F1F4FD9
:1021E000F32DFF763F2E97FF09C09095809570954F
:1021F00061957F4F8F4F9F4FF0683F2E2AE030E070
:10220000A301FAD0882E861844C0853731F4232DD7
:102210002F7EB22E2AE030E025C0932D997FB92E73
:102220008F36C1F018F4883579F0AEC0803719F0D8
:10223000883721F0A9C0E92FE061BE2EB4FE0DC0A1
:10224000FB2DF460BF2E09C034FE0AC0292F266082
:10225000B22E06C028E030E005C020E130E002C028
:1022600020E132E0F801B7FE07C060817181828110
:1022700093810C5F1F4F06C06081718180E090E008
:102280000E5F1F4FA301B8D0882E8618FB2DFF7755
:102290003F2E36FE0DC0232D2E7FA22E891458F41A
:1022A00034FE0BC032FC09C0832D8E7EA82E05C0E3
:1022B000B82CA32C03C0B82C01C0B92CA4FE0FC0AD
:1022C000FE01E80DF11D8081803321F49A2D997E65
:1022D000A92E09C0A2FE06C0B394B39404C08A2DEF
:1022E000867809F0B394A3FC10C0A0FE06C0B21417
:1022F00080F4280C922C9B180DC0B21458F4B6012F
:1023000080E290E0CFDDB394F8CFB21418F42B182C
:1023100002C0982C212CA4FE0FC0B60180E390E0EF
:10232000C1DDA2FE16C0A1FC03C088E790E002C098
:1023300088E590E0B6010CC08A2D867851F0A1FEA8
:1023400002C08BE201C080E2A7FC8DE2B60190E002
:10235000A9DD891430F4B60180E390E0A3DD9A94FE
:10236000F8CF8A94F301E80DF11D8081B60190E069
:1023700099DD8110F6CF222009F44ECEB60180E21D
:1023800090E090DD2A94F7CFF6018681978102C014
:102390008FEF9FEF2B960FB6F894DEBF0FBECDBF29
:1023A000DF91CF911F910F91FF90EF90DF90CF9031
:1023B000BF90AF909F908F907F906F905F904F9065
:1023C0003F902F900895992788270895FC01059044
:1023D000615070400110D8F7809590958E0F9F1F27
:1023E0000895FC016150704001900110D8F780956C
:1023F00090958E0F9F1F0895FA01AA27283051F15A
:10240000203181F1E8946F936E7F6E5F7F4F8F4F25
:102410009F4FAF4FB1E03ED0B4E03CD0670F781F84
:10242000891F9A1FA11D680F791F8A1F911DA11D69
:102430006A0F711D811D911DA11D20D009F46894A2
:102440003F912AE0269F11243019305D3193DEF64A
:10245000CF010895462F4770405D4193B3E00FD000
:10246000C9F7F6CF462F4F70405D4A3318F0495DEB
:1024700031FD4052419302D0A9F7EACFB4E0A695CE
:102480009795879577956795BA95C9F700976105F0
:10249000710508959B01AC010A2E06945795479546
:1024A00037952795BA95C9F7620F731F841F951F3B
:0824B000A01D0895F894FFCF70
:1024B8000100020000000000000000000000408051
:1024C80006000100000800000501000000000000EF
:00000001FF
