:10000000B5C00000D0C00000CEC00000CCC00000D1
:10001000CAC00000C8C00000C6C00000C4C00000C4
:10002000C2C00000C0C00000B0C30000BCC00000DF
:10003000BAC00000B8C00000B6C00000B4C00000E4
:10004000B2C00000B0C00000AEC00000ACC00000F4
:10005000AAC00000A8C00000A6C00000A4C0000004
:10006000A2C00000A0C000009EC000009CC0000014
:100070009AC0000098C0000096C0000094C0000024
:1000800092C0000090C000008EC000008CC0000034
:100090008AC0000088C00000B005D205BF06D205A6
:1000A000BF0617063A06BF068C069E0626034C00BE
:1000B00055004600410020004B00650079006200B9
:1000C0006F006100720064002000440065006D0054
:1000D0006F00000018034400650061006E002000FE
:1000E000430061006D0065007200610000000403C0
:1000F000090409022900010100C0320904000002BC
:1001000003010100092111010001223F00070581BF
:100110000308000107050203080001120110010095
:10012000000008EB03422001000102000105010963
:1001300006A101050719E029E715002501750195BC
:1001400008810295017508810105081901290595A5
:10015000057501910295017503910115002565054D
:100160000719002965950675088100C011241FBE76
:10017000CFEFD0E2DEBFCDBF11E0A0E0B1E0E6E01E
:10018000FEE000E00BBF02C007900D92A430B10763
:10019000D9F721E0A4E0B1E001C01D92AB31B20774
:1001A000E1F7CAD12EC62CCF9BB19F70892B8BB99A
:1001B000089584B7877F84BF0FB6F894A89580917F
:1001C0006000886180936000109260000FBE90E034
:1001D00080E80FB6F89480936100909361000FBEA1
:1001E00084B18F7184B98DB18F7C8DB985B1806EEA
:1001F00085B98EB180638EB98AB1806F8AB98BB1AF
:100200008F708BB9ACD26A98729A089580EACCDF6D
:1002100081E080930201089580E1C6CFCF9342E050
:1002200061EC81E0D1D1C82F42E060EC82E0CCD11A
:100230009091E20094609093E200882311F0C11144
:1002400002C080E901C080E6CF91AECF80910C0161
:1002500090910D01009729F0019790930D018093E3
:100260000C010895FC0193B12CB1209520732695C3
:100270009095907E292B8CB1809598E0DF011D929E
:100280009A95E9F792E0908327FF02C094E003C0BB
:1002900024FF04C095E0928391E001C090E026FF26
:1002A00005C0DF01A90FB11D36E006C023FF07C05E
:1002B000DF01A90FB11D37E012963C939F5F25FF28
:1002C00007C0DF01A90FB11D28E012962C939F5F94
:1002D00082FF04C0E90FF11D89E082830895982F01
:1002E00080FF02C080E301C080E291FD806892FD42
:1002F00080645ACF1F93CF93DF93CDB7DEB7289793
:100300000FB6F894DEBF0FBECDBF809114018330CD
:1003100009F447C030F4813071F0823009F47DC0B7
:1003200095C08A3009F460C08B3009F447C0893029
:1003300009F08CC018C080911301813A09F086C081
:10034000CE0101968FDF8091E800877F8093E800DF
:1003500068E070E0CE0101962AD38091E8008B77A7
:100360008093E80073C080911301813209F06EC060
:100370008091E800877F8093E8008091E80082FD0B
:1003800005C0809112018111F8CF60C01091F10079
:100390008091E8008B778093E8004AD1812F9FDF1E
:1003A00055C080911301813A09F050C08091E80056
:1003B000877F8093E8008091020140C08091130103
:1003C000813209F043C08091E800877F8093E80084
:1003D0002FD181E02091150130911601232B09F4D2
:1003E00080E08093020132C080911301813271F567
:1003F0008091E800877F8093E8001AD180911501F1
:1004000090911601882736E0969587953A95E1F701
:10041000909301018093000119C080911301813AEA
:10042000A9F48091E800877F8093E8008091000123
:100430009091010196958795969587958093F10007
:100440008091E8008E778093E800F2D028960FB66E
:10045000F894DEBF0FBECDBFDF91CF911F910895FD
:10046000CF93DF93CDB7DEB728970FB6F894DEBFF2
:100470000FBECDBFCE010196F5DE48E050E0BE01D3
:100480006F5F7F4F84E091E0AFD421E0892B09F4C6
:1004900020E08091000190910101009759F0409176
:1004A0000C0150910D01452B29F490930D0180937F
:1004B0000C0121E081E08093E9008091E80085FF54
:1004C00017C02223A9F088E0FE013196A4E0B1E034
:1004D00001900D928A95E1F740E050E068E070E00D
:1004E000CE0101961AD28091E8008E778093E800C1
:1004F00028960FB6F894DEBF0FBECDBFDF91CF9127
:10050000089582E08093E9008091E80082FF0CC0AA
:100510008091E80085FF03C08091F100E0DE8091CA
:10052000E8008B778093E800089580911201843071
:1005300011F496DFE6CF08953CDE80E135DE789455
:10054000F4DF37D4FDCF292F332723303105E1F0F5
:1005500058F42130310599F02230310569F589E2EE
:1005600090E022EF30E02CC02132310501F122323F
:10057000310511F58FE390E02DE231E021C082E1F9
:1005800090E02BE131E01CC099278130910549F0C2
:1005900028F0029789F4ECEAF0E005C0EEEEF0E016
:1005A00002C0E4EDF0E0849190E09F0109C089E091
:1005B00090E024E031E004C080E090E020E030E012
:1005C000FA01318320830895982F973068F590932E
:1005D000E900981739F07091EC002091ED005091EE
:1005E000F00003C0242F762F50E021FD02C09F5F52
:1005F000ECCF3091EB003E7F3093EB003091ED007B
:100600003D7F3093ED003091EB0031603093EB0093
:100610007093EC002093ED005093F0002091EE00D9
:1006200027FDE5CF80E008958093E90081E00895FB
:100630008091130187FF11C08091E80082FD05C001
:10064000809112018111F8CF11C08091E8008B7761
:100650000BC080911201882349F08091E80080FF4F
:10066000F8CF8091E8008E778093E800089520917C
:10067000E4003091E50095E64091EC00842F817014
:1006800040FF23C08091E80080FD1DC080911201D1
:10069000882399F0853099F08091EB0085FD11C099
:1006A0004091E4005091E5002417350729F391505B
:1006B00011F09A01E1CF84E0089582E0089583E08B
:1006C000089581E0089580E008954091E80042FF98
:1006D000DDCF08950F931F93CF93DF9349D050D070
:1006E000C8EDD0E088818F7788838881806888838F
:1006F00088818F7D8883E7EDF0E08081806880834A
:1007000019BC1092120110920E0110921001109259
:100710000F0100EE10E0F80180818B7F80838881DB
:100720008160888342E060E080E04EDFE1EEF0E04F
:1007300080818E7F8083E2EEF0E080818160808323
:10074000808188608083F80180818E7F80838881AA
:1007500080618883DF91CF911F910F910895E7ED1C
:10076000F0E080818160808381E080931101B2CFCD
:10077000E8EDF0E080818C7F80831092E2000895A4
:100780001092DA001092E10008951F920F920FB6B6
:100790000F9211240BB60F922F933F934F935F93B9
:1007A0006F937F938F939F93AF93BF93EF93FF9339
:1007B0008091E10082FF0AC08091E20082FF06C0C2
:1007C0008091E1008B7F8093E10040DD8091DA0031
:1007D00080FF1DC08091D80080FF19C08091DA0091
:1007E0008E7F8093DA008091D90080FF0CC08CE06E
:1007F00089BD8EE089BD09B400FEFDCF81E0809304
:10080000120104DD04C019BC1092120105DD8091B3
:10081000E10080FF18C08091E20080FF14C0809149
:10082000E2008E7F8093E2008091E20080618093FD
:10083000E2008091D80080628093D80019BC85E0E6
:1008400080931201B5D28091E10084FF2DC0809188
:10085000E20084FF29C08CE089BD8EE089BD09B427
:1008600000FEFDCF8091D8008F7D8093D8008091CD
:10087000E1008F7E8093E1008091E2008F7E809383
:10088000E2008091E20081608093E20080910E019D
:10089000811106C08091E30087FD02C081E001C0A4
:1008A00084E08093120184D28091E10083FF22C012
:1008B0008091E20083FF1EC08091E100877F8093DA
:1008C000E10082E08093120110920E018091E1001C
:1008D0008E7F8093E1008091E2008E7F8093E20022
:1008E0008091E20080618093E20042E060E080E07D
:1008F0006BDE5ED2FF91EF91BF91AF919F918F918F
:100900007F916F915F914F913F912F910F900BBE0F
:100910000F900FBE0F901F901895CF92DF92EF921D
:10092000FF920F931F93CF93DF93EC018B017A011A
:100930009EDE811133C0E114F10439F0F7018081AA
:100940009181081B190BC80FD91FC12CD12C01157F
:10095000110519F18091E80085FD16C08091E8002D
:100960008E778093E80025D2E114F10449F0F70175
:1009700080819181C80ED91ED182C08285E00EC0CF
:1009800076DE882321F30AC089918093F10001501B
:100990001109FFEFCF1ADF0ADACF80E0DF91CF91A4
:1009A0001F910F91FF90EF90DF90CF9008952091CD
:1009B000190130911A012617370748F061157105A2
:1009C00039F42091E8002E772093E80001C0B901A6
:1009D000FC0120E06115710569F180911201882305
:1009E000D1F18530D1F18091E80083FD32C0809152
:1009F000E80082FD28C08091E80080FFEBCF809165
:100A0000F2009091F3006115710551F08830910565
:100A100038F421912093F100615071090196F3CFD0
:100A200021E0089709F020E08091E8008E7780931C
:100A3000E800D0CF2111D1CF06C0809112018823C8
:100A400051F0853051F08091E80082FFF6CF80E0D0
:100A5000089581E0089582E0089583E0089520914B
:100A6000190130911A012617370748F061157105F1
:100A700039F42091E8002E772093E80001C0B901F5
:100A8000FC0120E06115710571F18091120188234C
:100A9000D9F18530D9F18091E80083FD33C0809190
:100AA000E80082FD29C08091E80080FFEBCF8091B3
:100AB000F2009091F3006115710559F088309105AD
:100AC00040F424912093F100319661507109019610
:100AD000F2CF21E0089709F020E08091E8008E77BE
:100AE0008093E800CFCF2111D0CF06C080911201B2
:100AF000882351F0853051F08091E80082FFF6CFD5
:100B000080E0089581E0089582E0089583E00895EB
:100B10000F931F93CF93DF93CDB7DEB7AA970FB68E
:100B2000F894DEBF0FBECDBFE3E1F1E08091F100AC
:100B3000819321E0EB31F207C9F7DCDB8091E8001B
:100B400083FF1DC18091130190911401492F50E042
:100B50004A30510508F013C1FA01E45BFF4F3BC175
:100B6000803881F0823809F00AC1809117018770BE
:100B70008093E9008091EB0085FB882780F9109233
:100B8000E90006C080910F019091100191118260DF
:100B90009091E800977F9093E8008093F100109285
:100BA000F100C5C0282F2D7F09F0E9C0882319F076
:100BB000823061F0E4C080911501813009F0DFC01E
:100BC000933009F080E0809310012BC080911501D3
:100BD000811127C080911701877009F4D0C08093DC
:100BE000E9002091EB0020FF1CC0933021F480919C
:100BF000EB00806214C09091EB0090619093EB0049
:100C000021E030E0A90102C0440F551F8A95E2F7A8
:100C10004093EA001092EA008091EB008860809394
:100C2000EB001092E9008091E800877F83C081117A
:100C3000A6C0109115011F770FB7F8948091E800B6
:100C4000877F8093E800F4DC8091E80080FFFCCF90
:100C50008091E3008078812B8093E300806880930B
:100C6000E300111102C082E001C083E08093120111
:100C70000FBF85C08058823008F081C08091150177
:100C8000909116018C3D53E0950771F583E08A83BE
:100C90008AE289834FB7F894DE01139620E03EE0A4
:100CA00051E2E32FF0E050935700E49120FF03C09E
:100CB000E295EF703F5FEF708E2F90E0EA3010F01A
:100CC000C79601C0C0968D939D932F5F243149F73D
:100CD0004FBF8091E800877F8093E8006AE270E070
:100CE000CE01019664DE12C0AE014F5F5F4F60918E
:100CF000170129DCBC01892B09F441C09091E8005F
:100D0000977F9093E80089819A81A9DE8091E8001D
:100D10008B778093E80033C0803889F58091E800B4
:100D2000877F8093E80080910E018093F10080918D
:100D3000E8008E778093E8007BDC21C081111FC022
:100D4000809115019091160199270297C4F4809122
:100D5000E800877F8093E8008091150180930E0161
:100D600067DC80910E01811106C08091E30087FD50
:100D700002C081E001C084E0809312014FDA8091CB
:100D8000E80083FF0AC08091EB0080628093EB0053
:100D90008091E800877F8093E800AA960FB6F894C8
:100DA000DEBF0FBECDBFDF91CF911F910F91089590
:100DB0000895CF9380911201882359F0C091E900E2
:100DC000C7701092E9008091E80083FDA1DEC09316
:100DD000E900CF910895EE0FFF1F0024001C0BBE09
:100DE0000790F691E02D0994FB01DC0104C08D9180
:100DF0000190801921F441505040C8F7881B990B8D
:060E00000895F894FFCFF5
:040E0600F4010100F2
:00000001FF
