:1000000024C1000040C100003EC100003CC100000E
:100010003AC1000038C1000036C1000034C1000000
:1000200032C1000030C1000050C500002CC10000EA
:100030002AC1000028C1000026C1000024C1000020
:1000400022C1000020C100001EC100001CC1000030
:100050001AC1000018C1000016C1000014C1000040
:1000600012C1000010C100000EC100000CC1000050
:100070000AC1000008C1000006C1000004C1000060
:1000800002C1000000C10000FEC00000FCC0000072
:10009000FAC00000F8C000002A031B044803520302
:1000A0007D03A503B003C103DD0304041B5B3331EF
:1000B0006D44657620456E756D204572726F720DC8
:1000C0000A202D2D204572726F7220436F646520C7
:1000D00025640D0A202D2D20537562204572726F04
:1000E0007220436F64652025640D0A202D2D204960
:1000F0006E2053746174652025640D0A1B5B3337D1
:100100006D001B5B33316D486F7374204D6F6465F8
:10011000204572726F720D0A202D2D204572726F6C
:100120007220436F64652025640D0A1B5B33376DB5
:10013000004D6F75736520456E756D6572617465F0
:10014000642E0D0A00436F756C64206E6F7420532B
:10015000657420426F6F742050726F746F636F6CA0
:10016000204D6F64652E0D0A004572726F72205328
:10017000657474696E672044657669636520436FB2
:100180006E66696775726174696F6E2E0D0A004143
:100190007474616368656420446576696365204EA4
:1001A0006F7420612056616C6964204D6F757365B2
:1001B0002E0D0A004572726F722052657472696565
:1001C00076696E6720436F6E6669677572617469E0
:1001D0006F6E2044657363726970746F722E0D0ABE
:1001E000000D0A44657669636520556E617474611B
:1001F000636865642E0D0A00446576696365204175
:10020000747461636865642E0D0A0064583A25327F
:10021000642064593A25326420427574746F6E3AD2
:1002200025640D0A001B5B33366D4D6F75736520B9
:10023000486F73742044656D6F2072756E6E696EC1
:10024000672E0D0A1B5B33376D0011241FBECFEFE5
:10025000D0E2DEBFCDBF11E0A0E0B1E0E2E8FAE11C
:1002600000E00BBF02C007900D92A432B107D9F78E
:1002700021E0A4E2B1E001C01D92A634B207E1F78B
:100280009FD00C943F0DBCCE9BB19F70892B8BB936
:10029000089584B7877F84BF0FB6F894A89580919E
:1002A0006000886180936000109260000FBE90E053
:1002B00080E80FB6F89480936100909361000FBEC0
:1002C00083E390E09093CD008093CC0086E0809310
:1002D000CA001092C80088E18093C900539A5A9AC4
:1002E0008AB1806F8AB98BB18F708BB9D8D3A0E4F3
:1002F000B1E0E2E3F1E01196FC93EE931396FC93E8
:10030000EE9312978EE0DF011D928A95E9F783E064
:10031000838386E19AE0918780878FE19AE09387D3
:1003200082870895CF93DF9300D01F92CDB7DEB7B9
:10033000809131018B3009F03DC080E091E00E9456
:10034000CF098823B9F1BE016F5F7F4F80E091E054
:10035000E3D789811F928F938B81282F082E000C61
:10036000330B3F938F938A81282F082E000C330B79
:100370003F938F938BE092E09F938F930E943A0A72
:100380008A810FB6F894DEBF0FBECDBF181624F0D9
:10039000882321F080E203C080E101C080E09B81DE
:1003A000191614F4806802C091118064998191112A
:1003B00080EF6ADF0F900F900F90DF91CF9108953B
:1003C00068DF85E292E00E94610A80E15DDF789457
:1003D000A9DF4AD6FDCF88EF91E00E94610A80EA4A
:1003E00053CF81EE91E00E94610A80E14DCFCF931F
:1003F000DF93CDB7DEB7C250D2400FB6F894DEBF60
:100400000FBECDBF80EA40DF20E032E0AE014F5F9B
:100410005F4FBE016F5F7D4F81E057D4882319F095
:1004200084EB91E017C0CF5FDD4F68817981C150C7
:10043000D240AE014F5F5F4F80E091E075D68823D8
:1004400019F08FE891E006C081E0E7D5882331F00C
:1004500089E691E00E94610A80E913C080E091E0A2
:10046000B9D7882349F085E491E00E94610A80E9C8
:100470000BDF80E0D2D506C081E391E00E94610AE3
:1004800080E602DFCE5FDD4F0FB6F894DEBF0FBE11
:10049000CDBFDF91CF910895C82F99D21F92CF93EE
:1004A00082E091E09F938F93E5D780E9EDDE0F9096
:1004B0000F900F900F90FFCF909131011F929F935B
:1004C0001F926F931F928F938CEA90E09F938F936C
:1004D000D1D78DB79EB708960FB6F8949EBF0FBEC2
:1004E0008DBF80E9D1CE80919E0081709091A00057
:1004F0009D7F9093A00090919E00926090939E00AB
:1005000090919E0091FDFCCF90919E009160909300
:100510009E00109227019091A00090722091A0005F
:100520002F7D2093A00020919F002F7D20939F007E
:100530002AE030919F0035FF0BC020919F002F7D56
:1005400020939F0020919F002D7F20939F0008C043
:10055000EFECF7E03197F1F700C00000215049F7C8
:10056000992329F09091A00090629093A0008111AE
:1005700005C080919E008E7F80939E008091A00098
:1005800082608093A000089520919E002170909138
:10059000A00090723091A0003F7D3093A000309178
:1005A0009F003F7D30939F0030919E0031603093DB
:1005B0009E00882339F130919F0035FF06C03091AD
:1005C0009F003F7D30939F00815030913101313049
:1005D000C1F03091A60034FF09C01092F50080915F
:1005E000A6008F7E8093A60082E00CC03091A6000A
:1005F00031FFDFCF8091A6008D7F8093A60083E03E
:1006000001C081E0211105C020919E002E7F209322
:100610009E00992329F09091A00090629093A000F1
:100620000895EF920F931F93CF93DF93CDB7DEB76B
:1006300028970FB6F894DEBF0FBECDBFE091310111
:100640008E2F90E08A30910508F0F5C0FC01E45B44
:10065000FF4F07C7009125011091260101151105D3
:1006600009F4E9C081E090DF882331F09091240102
:100670009093310191E0D1C00150110910932601EE
:1006800000932501012B09F0D6C08091240107C0F9
:1006900088EE93E0909326018093250183E0809378
:1006A0003101C9C080912501909126019C01215002
:1006B00031093093260120932501892B39F08FECE5
:1006C00097E00197F1F700C00000B5C077988091DE
:1006D000D80080618093D8008091DD008B7F80936B
:1006E000DD008091D70080618093D7008091DD008C
:1006F00082608093DD0084E0D2CF80919F0080FFF4
:100700009AC080919F008E7F80939F0080919F0070
:100710008D7F80939F008091DF008D7F8093DF002D
:100720008091DE0082608093DE0080919E00816077
:1007300080939E00E8D01092310184E690E090937F
:1007400026018093250185E05CC0CDDE1092310149
:1007500088EC90E0909326018093250186E051C0BB
:10076000E12C00E410E020E040E060E080E06FD0A9
:100770008091AC0087FD03C080E094E04EC087E02C
:100780008ECF88E0E4E1F1E0A9E2B1E001900D92C2
:100790008A95E1F7CE0101964AD381113DC0888543
:1007A00080931301A0DE1092310188EC90E09093C9
:1007B00026018093250188E024C00091130110E0F8
:1007C000E12C20E040E060E080E041D08091AC008E
:1007D00087FFD2CF88E0ECE1F1E0A9E2B1E001903F
:1007E0000D928A95E1F780E090E021D3811114C049
:1007F0001092310184E690E09093260180932501C8
:1008000089E08093240117C081E08093A1008AE0F1
:1008100080933101ECDD0FC093E020913101213054
:1008200051F0682F892F48DE8091DD008160809330
:10083000DD00D7DDE4D028960FB6F894DEBF0FBEFA
:10084000CDBFDF91CF911F910F91EF900895EF925F
:100850000F931F932F70422B90E4699FB0011124D6
:10086000642B382F2E2D2260373008F045C030938E
:10087000A700381313C048E050E090E0401751073C
:1008800038F09295907F922BE62F50E070E00EC0EA
:100890009530B9F39F5F440F551FF0CFE091AA0048
:1008A0009091AB007091AD005091AE0091FD02C0EF
:1008B0003F5FDACF4091A9004E7F4093A90040915D
:1008C000AB004D7F4093AB004091A9004160409345
:1008D000A900E093AA009093AB007093AD005093F1
:1008E000AE009091A90090629093A9009091AC0005
:1008F00097FDDECF80E003C08093A70081E01F91C9
:100900000F91EF9008951092F80080E08093A70077
:100910001092AE001092A6001092AB009091A90028
:100920009E7F9093A9008F5F873081F70895309163
:10093000A700377090E09093A7002091AC0027FFAC
:100940000FC02091AA00422F4F702091AA0020735F
:10095000203111F020E001C020E8242B821739F06B
:100960009F5F973041F73093A70080E0089581E0C2
:1009700008954091A2005091A30085E69091AA00AD
:100980009073903129F49091A60090FF05C019C092
:100990009091A60092FD15C09091A60091FD13C004
:1009A00090913101913089F02091A2003091A30003
:1009B0004217530719F3815011F0A901DFCF83E0EB
:1009C000089580E0089581E0089582E0089570D050
:1009D00077D0E0EEF0E0808181608083E8EDF0E0A8
:1009E00080818F77808319BCA7EDB0E08C918E7FDA
:1009F0008C9380818F7E808310922801089558D037
:100A00005FD08091D8008F778093D8008091D800F4
:100A100080688093D8008091D8008F7D8093D80023
:100A20008091D7008F778093D7008CE089BD8EE0CE
:100A300089BD09B400FEFDCF81E0809331011092A1
:100A4000270180E4809313018091D8008064809313
:100A5000D8008091DD0081608093DD008091DD0011
:100A600084608093DD008091D7008F7E8093D700D3
:100A70006F9A779A8091DE0081608093DE0080918A
:100A8000DE0084608093DE008091E0008E7F8093A2
:100A9000E0008091D80080618093D8000895E7ED50
:100AA000F0E080818160808381E080932801A7CF7E
:100AB000E8EDF0E080818C7F80831092A0000895A3
:100AC0001092DA0010929F0008951F920F920FB6B5
:100AD0000F9211240BB60F922F933F934F935F9376
:100AE0006F937F938F939F93AF93BF93EF93FF93F6
:100AF00080919F0085FF0AC08091A00085FF06C0FD
:100B000080919F008F7D80939F006AD180919F008C
:100B100081FF15C08091A00081FF11C080919F00CE
:100B20008D7F80939F0080919F008E7F80939F0098
:100B30008091A0008D7F8093A00053DC60DF8091C6
:100B4000DF0081FF15C08091DE0081FF11C0809120
:100B5000DF008D7F8093DF0077988091DD008160DA
:100B60008093DD0080E098DC3CDC81E08093310103
:100B70008091DF0080FF17C08091DE0080FF13C0EE
:100B80008091DF008E7F8093DF008091DE008E7F7A
:100B90008093DE0020DC8091A00082608093A00022
:100BA00082E0809331018091DF0082FF0EC080914E
:100BB000DE0082FF0AC08091DF008B7F8093DF0020
:100BC00060E082E079DC0DDC1ADFFF91EF91BF91EC
:100BD000AF919F918F917F916F915F914F913F91D5
:100BE0002F910F900BBE0F900FBE0F901F90189576
:100BF000CF92DF92EF92FF920F931F93CF93DF93E9
:100C0000EC018B017A018091AA008F7C8061809336
:100C1000AA00AFDE811132C0E114F10439F0F7010E
:100C200080819181081B190BC80FD91FC12CD12CB1
:100C30000115110511F18091A60085FD15C0809167
:100C4000A6008E778093A600E114F10449F0F70125
:100C500080819181C80ED91ED182C08284E00EC0ED
:100C600088DE882329F30AC08091AF008993015060
:100C70001109FFEFCF1ADF0ADBCF80E0DF91CF91C0
:100C80001F910F91FF90EF90DF90CF900895CF9339
:100C9000DF93DC01EB01E881F98120818D919C914A
:100CA000119730E08217930708F49C01E20FF31FBD
:100CB000EB01F983E8838D919C911197821B930B33
:100CC0008D939C93DF91CF910895CF92DF92EF9215
:100CD000FF920F931F93CF93DF93CDB7DEB7299782
:100CE0000FB6F894DEBF0FBECDBF6B018A0179014C
:100CF00090E89093290196E090932A0190E0019763
:100D0000926090932C0180932B0110922E011092EF
:100D10002D0189E090E09093300180932F01109293
:100D2000A700CE01019683D0811119C08B819C81CF
:100D3000F60191838083E816F90670F090933001F4
:100D400080932F01C80173D0811109C0F8018181FE
:100D5000823021F480E003C085E001C086E029965E
:100D60000FB6F894DEBF0FBECDBFDF91CF911F91BC
:100D70000F91FF90EF90DF90CF900895AF92BF92C8
:100D8000CF92DF92EF92FF920F931F93CF93DF9357
:100D90008C01EB016A01F801E080F180E114F104BB
:100DA00099F0A880B980BE01C80171DF888199815E
:100DB000F6010995823079F3813039F4B982A8823D
:100DC000F801F182E08201C082E0DF91CF911F91B2
:100DD0000F91FF90EF90DF90CF90BF90AF9008956C
:100DE00008951F93CF93DF93182FC9EED3E011110D
:100DF0000CC08091A60083FD15C081E0C5DB811188
:100E000012C02197A1F784E00EC0113029F480911F
:100E1000A60080FFF2CF06C0123079F78091A600BD
:100E200082FFEBCF80E0DF91CF911F910895FF9279
:100E30000F931F93CF93DF938C0180919E0081705D
:100E4000F82EC0912F01D091300180919E008160D9
:100E500080939E0081E098DB8111C8C08091AA0038
:100E60008F7C8093AA001092F5008091A6008F7E5F
:100E70008093A6008091A9008F7B8093A900E9E26E
:100E8000F1E081E391E021912093AF008E179F075D
:100E9000D1F78091A60087778093A60080E0A1DF3C
:100EA0008111A4C08091A90080648093A90081E091
:100EB0006BDB81119BC08091290187FF4EC080911F
:100EC000AA008F7C80618093AA000115110509F0AA
:100ED0003AC08091AA008F7C80628093AA008091A2
:100EE000A9008F7B8093A90082E07BDF81117EC007
:100EF0008091A6008B778093A60082E072DF76C097
:100F00008091A9008F7B8093A90081E06ADF811125
:100F10006DC08091F6009091F700892B11F4C0E02C
:100F2000D0E0F8018F018091F6009091F700892BB5
:100F300069F48091A90080648093A9008091A60043
:100F40008E778093A6002097D9F6C3CF209789F398
:100F50008091AF0081932197E5CF0115110591F1A3
:100F60008091AA008F7C80628093AA008091A90062
:100F70008F7B8093A90082E02097E1F032DF81111E
:100F800035C02091F6003091F7008091130190E078
:100F90002817390748F40F5F1F4FF80131978081F8
:100FA0008093AF00219769F78091A6008B7780939B
:100FB000A600E1CF16DF811119C08091A9008064DD
:100FC0008093A9008091AA008F7C80618093AA0001
:100FD0008091A9008F7B8093A90081E002DF8111BD
:100FE00005C09091A6009E779093A6009091A900CD
:100FF00090649093A900F11005C090919E009E7F8F
:1010000090939E0091E09093A8001092A800DF9129
:10101000CF911F910F91FF900895CF93C82F1092F9
:10102000290189E080932A018C2F90E090932C0174
:1010300080932B0110922E0110922D0110923001FD
:1010400010922F011092A70080E090E0F0DE811155
:1010500009C0C0932701C11102C09AE001C09BE002
:1010600090933101CF9108951F93CF93DF93C7EAF7
:10107000D0E0188117701882D4DA1883DF91CF91ED
:101080001F910895FC01EA5BFF4F50E0440F551F8C
:101090004F565C4FDC01A40FB51F2D913C91DC0134
:1010A000A057BC4F7C91761311C081E090E0A9015C
:1010B00047705527452B11F480E090E043E03695CA
:1010C00027954A95E1F7820F931F089507968E178B
:1010D0009F0701F780E090E00895FC012181243012
:1010E00029F48581833011F480E0089582E0089529
:1010F000FC018181813221F0843021F082E0089569
:1011000080E0089581E00895FC012181253031F4CB
:1011100082810DDC882331F082E008952430E1F7EC
:1011200081E0089580E008952F923F924F925F9260
:101130006F927F928F929F92AF92BF92CF92DF92E7
:10114000EF92FF920F931F93CF93DF9300D000D0C5
:10115000CDB7DEB77A8369835C834B83FC01379616
:101160002CE0DF011D922A95E9F7EB81FC811181CA
:10117000123009F07DC06C01412C512C612C712C76
:10118000812C912CA12CB12CA114B10409F474C0B0
:101190008114910491F46114710479F044E858E0E9
:1011A000BE016D5F7F4FCE010196E8DD882309F413
:1011B0008FC0A114B10409F463C0FF24F394222466
:1011C0002394F60180818F110FC0D50114960D91E3
:1011D0001C91159712962C911297818116963C902E
:1011E0001287018740E116C0F60182818F1120C06D
:1011F00081149104E9F0D40114960D911C91159776
:1012000012962C911297838116963C90148703872F
:10121000268640E2811102C0E12C02C084E0E82E63
:1012200063E08F2D14DB882329F131103092AD005B
:10123000F394B7E0FB12C5CFF3018281D601189673
:101240008C931897F2018781908551969C938E9389
:10125000509781E0D30116969C91911101C080E0D6
:10126000F601858788E0828B81E0878310E03CC0AF
:1012700011E03AC013E038C06114710409F08ECF58
:101280008114910471F54DE658E0BE016D5F7F4F0A
:10129000CE01019673DD811127C06B807C80F60141
:1012A000848181110FC048E758E0BE016D5F7F4F18
:1012B000CE01019663DD811117C04B805C80E0E0B8
:1012C000F0E00DC0D30117969C918913DCCFEBCFD2
:1012D000EB81FC81828187FD02C04F01F5015F0136
:1012E00053CFA12CB12C69CF812F0F900F900F906D
:1012F0000F90DF91CF911F910F91FF90EF90DF90B2
:10130000CF90BF90AF909F908F907F906F905F90A5
:101310004F903F902F900895CF93DF93FC01EB0106
:10132000809131018B30B9F587818823A1F18081CB
:101330008093A7008091A9008F7B8093A900878567
:10134000811112C0A581B681A852BC4F8C9188230F
:1013500029F06091AF006883219601C060E040E011
:10136000858196818FDE04C08091F6009091F70010
:1013700040E050E0BC01CE013BDC81110DC080910A
:10138000A6008E778093A6008091A9008064809348
:10139000A90080E001C082E0DF91CF910895FC01B7
:1013A000809131018B30A1F48781882391F0808175
:1013B0008093A7008091A9008F7B8093A9008091E2
:1013C000A60081709091A90090649093A90008955F
:1013D00080E00895CF93DF93FC012585222311F14E
:1013E000EC01808590E021E2209329012BE02093FD
:1013F0002A0110922C0110922B0190932E018093C0
:101400002D011092300110922F011092A70080E060
:1014100090E00DDD811107C088E08A8B81E08F8725
:1014200080E001C080E8DF91CF9108959091C800DD
:1014300095FFFCCF8093CE0080E090E008958091EE
:10144000C80087FF08C08091C80087FF07C080914F
:10145000CE0090E008958EEF9FEF08958FEF9FEFFD
:101460000895EE0FFF1F0024001C0BBE0790F6919D
:10147000E02D09940F931F93CF93DF93CDB7DEB781
:10148000AE01495F5F4FDA016D917D91AD0100E4DE
:1014900011E0F80182819381DC0113962C9113975E
:1014A000286013962C933ED0D8011296ED91FC91B2
:1014B00013972381277F2383DF91CF911F910F9172
:1014C00008950F931F93CF93DF938C01E091420116
:1014D000F0914301838181FF1BC0D0E0C0E0F8019F
:1014E00084916091420170914301DB011896ED9166
:1014F000FC911997882341F00995892B11F0DFEFB2
:10150000CFEF0F5F1F4FEBCF8AE00995892B19F0C2
:101510008FEF9FEF02C08D2F9C2FDF91CF911F91F6
:101520000F9108952F923F924F925F926F927F9208
:101530008F929F92AF92BF92CF92DF92EF92FF92E3
:101540000F931F93CF93DF93CDB7DEB72B970FB6D3
:10155000F894DEBF0FBECDBF6C017B018A01FC0198
:1015600017821682838181FFBFC1CE0101963C01A3
:10157000F6019381F70193FD859193FF81917F019E
:10158000882309F4ADC1853239F493FD859193FF29
:1015900081917F01853221F4B60190E0D6D1E8CF68
:1015A000912C212C312CFFE1F315D8F08B3279F0FE
:1015B00038F4803279F08332A1F4232D20611DC0EC
:1015C0008D3261F0803369F4232D216016C0832DA4
:1015D0008260382EE32DE4603E2E2AC0F32DF860A1
:1015E0001DC037FC2DC020ED280F2A3040F08E3270
:1015F000B9F436FC75C1232D2064322E19C036FE95
:1016000006C08AE0989E200D1124922E11C0EAE0B7
:101610002E9E200D1124222EF32DF0623F2E08C0A5
:101620008C3621F4832D8068382E02C0883641F430
:10163000F70193FD859193FF81917F018111B3CFD4
:10164000982F9F7D9554933028F40C5F1F4F9FE394
:1016500099830DC0833631F0833771F0833509F0FB
:1016600055C020C0F801808189830E5F1F4F8824F8
:101670008394912C530112C02801F2E04F0E511CAB
:10168000F801A080B18036FE03C0692D70E002C071
:101690006FEF7FEFC5014ED14C018201F32DFF7733
:1016A0003F2E15C0280122E0420E511CF801A080F7
:1016B000B18036FE03C0692D70E002C06FEF7FEF8E
:1016C000C5012DD14C01F32DF0683F2E820133FC72
:1016D00019C0822D90E088169906A0F4B60180E228
:1016E00090E033D12A94F5CFF50137FC859137FE90
:1016F00081915F01B60190E028D121102A9421E068
:10170000821A91088114910479F7E1C0843611F0AE
:10171000893639F5F80137FE07C060817181828111
:1017200093810C5F1F4F08C060817181072E000CF0
:10173000880B990B0E5F1F4FF32DFF763F2E97FFFF
:1017400009C090958095709561957F4F8F4F9F4F01
:10175000F0683F2E2AE030E0A30133D1882E8618AE
:1017600044C0853731F4232D2F7EB22E2AE030E09D
:1017700025C0932D997FB92E8F36C1F018F4883586
:1017800079F0AEC0803719F0883721F0A9C0E92F71
:10179000E061BE2EB4FE0DC0FB2DF460BF2E09C06B
:1017A00034FE0AC0292F2660B22E06C028E030E0A1
:1017B00005C020E130E002C020E132E0F801B7FED0
:1017C00007C060817181828193810C5F1F4F06C0C9
:1017D0006081718180E090E00E5F1F4FA301F1D026
:1017E000882E8618FB2DFF773F2E36FE0DC0232D49
:1017F0002E7FA22E891458F434FE0BC032FC09C08F
:10180000832D8E7EA82E05C0B82CA32C03C0B82C27
:1018100001C0B92CA4FE0FC0FE01E80DF11D8081AE
:10182000803321F49A2D997EA92E09C0A2FE06C00C
:10183000B394B39404C08A2D867809F0B394A3FCC2
:1018400010C0A0FE06C0B21480F4280C922C9B1885
:101850000DC0B21458F4B60180E290E076D0B39493
:10186000F8CFB21418F42B1802C0982C212CA4FE27
:101870000FC0B60180E390E068D0A2FE16C0A1FCC4
:1018800003C088E790E002C088E590E0B6010CC094
:101890008A2D867851F0A1FE02C08BE201C080E261
:1018A000A7FC8DE2B60190E050D0891430F4B60167
:1018B00080E390E04AD09A94F8CF8A94F301E80D3F
:1018C000F11D8081B60190E040D08110F6CF22203A
:1018D00009F44ECEB60180E290E037D02A94F7CFDB
:1018E000F6018681978102C08FEF9FEF2B960FB68E
:1018F000F894DEBF0FBECDBFDF91CF911F910F9146
:10190000FF90EF90DF90CF90BF90AF909F908F901F
:101910007F906F905F904F903F902F900895FC01C3
:101920000590615070400110D8F7809590958E0F0A
:101930009F1F0895FC016150704001900110D8F77D
:10194000809590958E0F9F1F08950F931F93CF93AF
:10195000DF93FB01238121FD03C08FEF9FEF2CC09C
:1019600022FF16C0468157812481358142175307D3
:1019700044F4A081B1819D012F5F3F4F31832083CB
:101980008C93268137812F5F3F4F3783268314C086
:101990008B01EC01FB010084F185E02D0995892B79
:1019A000E1F6D80116968D919C911797019617969E
:1019B0009C938E931697CE01DF91CF911F910F913B
:1019C0000895FA01AA27283051F1203181F1E894D5
:1019D0006F936E7F6E5F7F4F8F4F9F4FAF4FB1E022
:1019E0003ED0B4E03CD0670F781F891F9A1FA11D1D
:1019F000680F791F8A1F911DA11D6A0F711D811D1E
:101A0000911DA11D20D009F468943F912AE0269FE2
:101A100011243019305D3193DEF6CF010895462F41
:101A20004770405D4193B3E00FD0C9F7F6CF462F22
:101A30004F70405D4A3318F0495D31FD405241938B
:101A400002D0A9F7EACFB4E0A69597958795779548
:101A50006795BA95C9F700976105710508959B01CF
:101A6000AC010A2E06945795479537952795BA9558
:101A7000C9F7620F731F841F951FA01D0895F89466
:021A8000FFCF96
:101A8200010002000200000000000000000000004F
:101A9200000000408006000100000800000501006F
:041AA2000000000040
:00000001FF
