:10000000B0C00000CBC00000C9C00000C7C00000E5
:10001000C5C00000C3C00000C1C00000BFC00000D8
:10002000BDC00000BBC0000094C20000B7C000000B
:10003000B5C00000B3C00000B1C00000AFC00000F8
:10004000ADC00000ABC00000A9C00000A7C0000008
:10005000A5C00000A3C00000A1C000009FC0000018
:100060009DC000009BC0000099C0000097C0000028
:1000700095C0000093C0000091C000008FC0000038
:100080008DC000008BC0000089C0000087C0000048
:1000900085C0000083C00000DE040005ED050005FA
:1000A000ED0545056805ED05BA05CC051E034C00B8
:1000B00055004600410020004D0049004400490021
:1000C0002000440065006D006F000000180344002C
:1000D000650061006E002000430061006D00650056
:1000E00072006100000004030904090265000201B6
:1000F00000C03209040000000101000009240100D1
:1001000001090001010904010002010300000724A4
:10011000010001410006240201010006240202023E
:100120000009240301030102010009240302040160
:10013000010100090501024000010000052501013F
:10014000010905820240000100000525010103129A
:1001500001100100000008EB03482001000102002B
:10016000010011241FBECFEFD0E2DEBFCDBF11E0F2
:10017000A0E0B1E0E6E7FDE000E00BBF02C00790C1
:100180000D92AA30B107D9F721E0AAE0B1E001C091
:100190001D92A831B207E1F794D0EBC531CF9BB1E6
:1001A0009F70892B8BB9089584B7877F84BF0FB662
:1001B000F894A89580916000886180936000109207
:1001C00060000FBE90E080E80FB6F8948093610065
:1001D000909361000FBE84B18F7184B98DB18F7C13
:1001E0008DB985B1806E85B98EB180638EB98AB1C3
:1001F000806F8AB98BB18F708BB96A98729A93C1EC
:100200001F93CF93DF9300D000D0CDB7DEB783B17B
:100210001CB11095107316958095807E182B209137
:100220000A012127629B02C030E001C039E026FFAD
:1002300004C016FD04C080E803C080E001C080E96E
:1002400027FF05C09DE317FD04C080E803C09CE3C1
:1002500001C080E923FF06C09EE313FD02C080E8D1
:1002600001C080E924FF06C09FE314FD02C080E8BE
:1002700001C080E925FF04C015FD20C080E81FC033
:10028000882391F0282F22952F702983832B8A832E
:100290009B8380E48C83BE016F5F7F4F80E091E0A1
:1002A00001D580E091E01FD510930A010F900F90C7
:1002B0000F900F90DF91CF911F91089580E99BE3FC
:1002C000E1CFCF93DF9300D000D0CDB7DEB76CDFA6
:1002D00080E165DF789494DFBE016F5F7F4F80E03F
:1002E00091E01FD5882389F089818F70893051F47E
:1002F0008C81882339F08B81813410F480E203C033
:1003000080E101C080E04BDFE7CF80E091E003D5E2
:100310007ED4E1CF80EA43CF80E141CF80E091E01D
:1003200088D4811102C080E901C080E638CF0895E9
:10033000292F33272230310559F02330310569F058
:1003400021303105E9F482E190E02FE431E01CC076
:1003500085E690E02AEE30E017C0992781309105BC
:1003600049F028F0029761F4ECEAF0E005C0E6EE0F
:10037000F0E002C0ECECF0E0849190E09F0104C05A
:1003800080E090E020E030E0FA013183208308959E
:10039000982F973068F59093E900981739F070918D
:1003A000EC002091ED005091F00003C0242F762F37
:1003B00050E021FD02C09F5FECCF3091EB003E7F0B
:1003C0003093EB003091ED003D7F3093ED003091A4
:1003D000EB0031603093EB007093EC002093ED0064
:1003E0005093F0002091EE0027FDE5CF80E00895C6
:1003F0008093E90081E008958091100187FF11C08A
:100400008091E80082FD05C080910F018111F8CF35
:1004100011C08091E8008B770BC080910F01882379
:1004200049F08091E80080FFF8CF8091E8008E7756
:100430008093E80008952091E4003091E50095E66E
:100440004091EC00842F817040FF23C08091E80030
:1004500080FD1DC080910F01882399F0853099F0AF
:100460008091EB0085FD11C04091E4005091E500C2
:100470002417350729F3915011F09A01E1CF84E058
:10048000089582E0089583E0089581E0089580E072
:1004900008954091E80042FFDDCF08950F931F9328
:1004A000CF93DF9349D050D0C8EDD0E088818F77CB
:1004B000888388818068888388818F7D8883E7ED41
:1004C000F0E080818068808319BC10920F01109247
:1004D0000B0110920D0110920C0100EE10E0F801DA
:1004E00080818B7F808388818160888342E060E0A7
:1004F00080E04EDFE1EEF0E080818E7F8083E2EEEF
:10050000F0E0808181608083808188608083F80151
:1005100080818E7F8083888180618883DF91CF9105
:100520001F910F910895E7EDF0E080818160808355
:1005300081E080930E01B2CFE8EDF0E080818C7F06
:1005400080831092E20008951092DA001092E10088
:1005500008951F920F920FB60F9211240BB60F92AF
:100560002F933F934F935F936F937F938F939F93BB
:10057000AF93BF93EF93FF938091E10082FF0AC096
:100580008091E20082FF06C08091E1008B7F809322
:10059000E1003CD38091DA0080FF1DC08091D8003B
:1005A00080FF19C08091DA008E7F8093DA008091FD
:1005B000D90080FF0CC08CE089BD8EE089BD09B4F4
:1005C00000FEFDCF81E080930F01A4DE04C019BCC2
:1005D00010920F01A1DE8091E10080FF18C0809190
:1005E000E20080FF14C08091E2008E7F8093E200E1
:1005F0008091E20080618093E2008091D800806267
:100600008093D80019BC85E080930F01FFD28091C0
:10061000E10084FF2DC08091E20084FF29C08CE0BE
:1006200089BD8EE089BD09B400FEFDCF8091D80060
:100630008F7D8093D8008091E1008F7E8093E100D0
:100640008091E2008F7E8093E2008091E2008160E1
:100650008093E20080910B01811106C08091E3003C
:1006600087FD02C081E001C084E080930F01CED2FB
:100670008091E10083FF22C08091E20083FF1EC0D1
:100680008091E100877F8093E10082E080930F01F9
:1006900010920B018091E1008E7F8093E1008091A8
:1006A000E2008E7F8093E2008091E200806180937F
:1006B000E20042E060E080E06BDEA8D2FF91EF91C3
:1006C000BF91AF919F918F917F916F915F914F916A
:1006D0003F912F910F900BBE0F900FBE0F901F9068
:1006E0001895CF92DF92EF92FF920F931F93CF93C3
:1006F000DF93EC018B017A019EDE811133C0E1149E
:10070000F10439F0F70180819181081B190BC80FA2
:10071000D91FC12CD12C0115110519F18091E800C8
:1007200085FD16C08091E8008E778093E8006FD237
:10073000E114F10449F0F70180819181C80ED91EBE
:10074000D182C08285E00EC076DE882321F30AC004
:1007500089918093F10001501109FFEFCF1ADF0A50
:10076000DACF80E0DF91CF911F910F91FF90EF9052
:10077000DF90CF900895CF92DF92EF92FF920F9388
:100780001F93CF93DF93EC018B017A0154DE81112B
:1007900033C0E114F10439F0F70180819181081B25
:1007A000190BC80FD91FC12CD12C0115110519F136
:1007B0008091E80085FD16C08091E8008B778093DA
:1007C000E80025D2E114F10449F0F701808191811C
:1007D000C80ED91ED182C08285E00EC02CDE8823CF
:1007E00021F30AC08091F100899301501109FFEFB4
:1007F000CF1ADF0ADACF80E0DF91CF911F910F91FE
:10080000FF90EF90DF90CF900895209116013091E6
:1008100017012617370748F06115710539F4209143
:10082000E8002E772093E80001C0B901FC0120E028
:100830006115710569F180910F018823D1F185302F
:10084000D1F18091E80083FD32C08091E80082FD03
:1008500028C08091E80080FFEBCF8091F20090915A
:10086000F3006115710551F08830910538F421913C
:100870002093F100615071090196F3CF21E00897B0
:1008800009F020E08091E8008E778093E800D0CFD7
:100890002111D1CF06C080910F01882351F08530FE
:1008A00051F08091E80082FFF6CF80E0089581E06A
:1008B000089582E0089583E0089520911601309113
:1008C00017012617370748F06115710539F4209193
:1008D000E8002E772093E80001C0B901FC0120E078
:1008E0006115710571F180910F018823D9F185306F
:1008F000D9F18091E80083FD33C08091E80082FD4A
:1009000029C08091E80080FFEBCF8091F2009091A8
:10091000F3006115710559F08830910540F4249178
:100920002093F1003196615071090196F2CF21E0D8
:10093000089709F020E08091E8008E778093E80026
:10094000CFCF2111D0CF06C080910F01882351F065
:10095000853051F08091E80082FFF6CF80E0089565
:1009600081E0089582E0089583E008950F931F9336
:10097000CF93DF93CDB7DEB7AA970FB6F894DEBF5B
:100980000FBECDBFE0E1F1E08091F100819321E065
:10099000E831F207C9F7CBDC8091E80083FF1DC185
:1009A0008091100190911101492F50E04A3051057A
:1009B00008F013C1FA01E45BFF4FD2C1803881F027
:1009C000823809F00AC18091140187708093E90090
:1009D0008091EB0085FB882780F91092E90006C022
:1009E00080910C0190910D01911182609091E8002D
:1009F000977F9093E8008093F1001092F100C5C0BA
:100A0000282F2D7F09F0E9C0882319F0823061F08A
:100A1000E4C080911201813009F0DFC0933009F009
:100A200080E080930D012BC080911201811127C0BD
:100A300080911401877009F4D0C08093E90020915F
:100A4000EB0020FF1CC0933021F48091EB0080620A
:100A500014C09091EB0090619093EB0021E030E0A6
:100A6000A90102C0440F551F8A95E2F74093EA009E
:100A70001092EA008091EB0088608093EB00109266
:100A8000E9008091E800877F83C08111A6C01091A2
:100A900012011F770FB7F8948091E800877F809349
:100AA000E800AADC8091E80080FFFCCF8091E300A1
:100AB0008078812B8093E30080688093E30011119C
:100AC00002C082E001C083E080930F010FBF85C0A8
:100AD0008058823008F081C08091120190911301FA
:100AE0008C3D53E0950771F583E08A838AE2898320
:100AF0004FB7F894DE01139620E03EE051E2E32F79
:100B0000F0E050935700E49120FF03C0E295EF70AE
:100B10003F5FEF708E2F90E0EA3010F0C79601C073
:100B2000C0968D939D932F5F243149F74FBF8091DD
:100B3000E800877F8093E8006AE270E0CE010196CA
:100B400064DE12C0AE014F5F5F4F60911401F0DBB5
:100B5000BC01892B09F441C09091E800977F9093E4
:100B6000E80089819A81A9DE8091E8008B778093E3
:100B7000E80033C0803889F58091E800877F809352
:100B8000E80080910B018093F1008091E8008E775E
:100B90008093E80031DC21C081111FC080911201D7
:100BA0009091130199270297C4F48091E800877F00
:100BB0008093E8008091120180930B011DDC8091ED
:100BC0000B01811106C08091E30087FD02C081E026
:100BD00001C084E080930F01A1DB8091E80083FFD6
:100BE0000AC08091EB0080628093EB008091E80066
:100BF000877F8093E800AA960FB6F894DEBF0FBEF9
:100C0000CDBFDF91CF911F910F9108950895CF939C
:100C100080910F01882359F0C091E900C7701092AC
:100C2000E9008091E80083FDA1DEC093E900CF9147
:100C300008950F931F93CF938C01C1E0F801818138
:100C40008C1305C062817381848190E80EC0F80125
:100C500085818C1729F0CF5FC73081F781E01EC0F6
:100C6000F80166817781808590E0811184E028E039
:100C700030E040E02617370720F44F5F220F331F84
:100C8000F9CF4295407F8260482B61E0911101C00D
:100C900060E060688C2F7CDB8111DDCFCF911F91EC
:100CA0000F91089520910F012430C9F49B01FC019C
:100CB00081818093E90040E050E064E070E0C90188
:100CC00010DD81110FC09091E800892F807295FD91
:100CD00008C09091E8009E779093E800089582E024
:100CE000089580E0089520910F01243081F4FC01E3
:100CF00081818093E9008091F2009091F300892B2B
:100D000041F08091E8008E778093E80094CB82E0F8
:100D1000089580E0089520910F01243009F4E3CF75
:100D2000089520910F01243011F080E00895FC0116
:100D300085818093E9008091E80085FFF6CFCB01A3
:100D400040E050E064E070E016DD8091E80085FD51
:100D500005C08091E8008B778093E80081E00895DA
:100D6000EE0FFF1F0024001C0BBE0790F691E02D34
:060D70000994F894FFCF86
:0A0D760001024000000140000000EF
:00000001FF
