:10000000A5C00000C0C00000BEC00000BCC0000011
:10001000BAC00000B8C00000B6C00000B4C0000004
:10002000B2C00000B0C000004DC20000ACC0000073
:10003000AAC00000A8C00000A6C00000A4C0000024
:10004000A2C00000A0C000009EC000009CC0000034
:100050009AC0000098C0000096C0000094C0000044
:1000600092C0000090C000008EC000008CC0000054
:100070008AC0000088C0000086C0000084C0000064
:1000800082C0000080C000007EC000007CC0000074
:100090007AC0000078C000008B04AD049A05AD045E
:1000A0009A05F20415059A05670579052C034C009D
:1000B0005500460041002000470065006E006500C5
:1000C00072006900630020004800490044002000DD
:1000D000440065006D006F000000180344006500D7
:1000E00061006E002000430061006D006500720039
:1000F000610000000403090409022200010100C09C
:10010000320904000001030000000921110100016F
:1001100022200007058103080001120110010000E0
:100120000008EB034F200100010200010600FF0957
:1001300001A1010902150025FF7508950881020932
:1001400003150025FF750895089102C011241FBEF4
:10015000CFEFD0E2DEBFCDBF11E0A0E0B1E0ECEC2C
:10016000FFE000E00BBF02C007900D92AE30B10778
:10017000D9F721E0AEE0B1E001C01D92A332B20791
:10018000E1F725D021C73CCF9BB19F70892B8BB95C
:10019000089584B7877F84BF0FB6F894A89580919F
:1001A0006000886180936000109260000FBE90E054
:1001B00080E80FB6F89480936100909361000FBEC1
:1001C0008AB1806F8AB98BB18F708BB965C1E1DF5D
:1001D00080E1DADF789480E091E02AD6C5D4FBCFC5
:1001E00080EAD2CF80E1D0CF80E091E0F6D5909147
:1001F000E20094609093E200811102C080E901C0A6
:1002000080E6C2CF80E091E0C1C480910B01909163
:100210000C01009729F0019790930C0180930B013A
:1002200008950F931F93F9018BB184FB992790F9DF
:10023000908385FB992790F99183982F991F99278F
:10024000991F928386FB882780F9838388E090E05A
:10025000F8019183808380E01F910F910895F90147
:100260008081882311F080E101C080E091819111AB
:1002700080E19281911180E19381911180E184CF9D
:10028000292F332723303105E1F058F4213031058F
:1002900099F02230310569F582E290E028EF30E0F4
:1002A0002CC02132310501F12232310511F580E2F5
:1002B00090E02CE231E021C082E190E02AE131E0DF
:1002C0001CC099278130910549F028F0029789F4E4
:1002D000ECEAF0E005C0E4EFF0E002C0EAEDF0E0A7
:1002E000849190E09F0109C089E090E02AE031E02C
:1002F00004C080E090E020E030E0FA013183208308
:100300000895982F973068F59093E900981739F081
:100310007091EC002091ED005091F00003C0242F6B
:10032000762F50E021FD02C09F5FECCF3091EB00B3
:100330003E7F3093EB003091ED003D7F3093ED0038
:100340003091EB0031603093EB007093EC00209320
:10035000ED005093F0002091EE0027FDE5CF80E006
:1003600008958093E90081E0089580911B0187FF43
:1003700011C08091E80082FD05C080911A018111B1
:10038000F8CF11C08091E8008B770BC080911A01E3
:10039000882349F08091E80080FFF8CF8091E80041
:1003A0008E778093E80008952091E4003091E50075
:1003B00095E64091EC00842F817040FF23C080912E
:1003C000E80080FD1DC080911A01882399F08530D6
:1003D00099F08091EB0085FD11C04091E4005091AF
:1003E000E5002417350729F3915011F09A01E1CF68
:1003F00084E0089582E0089583E0089581E00895FF
:1004000080E008954091E80042FFDDCF08950F930A
:100410001F93CF93DF9349D050D0C8EDD0E08881AF
:100420008F77888388818068888388818F7D88839F
:10043000E7EDF0E080818068808319BC10921A019A
:1004400010921601109218011092170100EE10E0A0
:10045000F80180818B7F808388818160888342E07E
:1004600060E080E04EDFE1EEF0E080818E7F80830F
:10047000E2EEF0E08081816080838081886080830B
:10048000F80180818E7F8083888180618883DF91FD
:10049000CF911F910F910895E7EDF0E08081816089
:1004A000808381E080931901B2CFE8EDF0E0808194
:1004B0008C7F80831092E20008951092DA001092EF
:1004C000E10008951F920F920FB60F9211240BB600
:1004D0000F922F933F934F935F936F937F938F93DD
:1004E0009F93AF93BF93EF93FF938091E10082FFBF
:1004F0000AC08091E20082FF06C08091E1008B7FFC
:100500008093E10082DE8091DA0080FF1DC080913F
:10051000D80080FF19C08091DA008E7F8093DA00C6
:100520008091D90080FF0CC08CE089BD8EE089BD30
:1005300009B400FEFDCF81E080931A0151DE04C0B2
:1005400019BC10921A014EDE8091E10080FF18C0A4
:100550008091E20080FF14C08091E2008E7F809342
:10056000E2008091E20080618093E2008091D800F7
:1005700080628093D80019BC85E080931A01F3D281
:100580008091E10084FF2DC08091E20084FF29C0AA
:100590008CE089BD8EE089BD09B400FEFDCF80915D
:1005A000D8008F7D8093D8008091E1008F7E80936A
:1005B000E1008091E2008F7E8093E2008091E20072
:1005C00081608093E20080911601811106C08091C4
:1005D000E30087FD02C081E001C084E080931A013E
:1005E000C2D28091E10083FF22C08091E20083FFAC
:1005F0001EC08091E100877F8093E10082E08093BC
:100600001A01109216018091E1008E7F8093E10023
:100610008091E2008E7F8093E2008091E200806111
:100620008093E20042E060E080E06BDE9CD2FF91CC
:10063000EF91BF91AF919F918F917F916F915F915A
:100640004F913F912F910F900BBE0F900FBE0F90C7
:100650001F901895CF92DF92EF92FF920F931F9306
:10066000CF93DF93EC018B017A019EDE811133C0C1
:10067000E114F10439F0F70180819181081B190B15
:10068000C80FD91FC12CD12C0115110519F180916A
:10069000E80085FD16C08091E8008E778093E80021
:1006A00063D2E114F10449F0F70180819181C80E11
:1006B000D91ED182C08285E00EC076DE882321F368
:1006C0000AC089918093F10001501109FFEFCF1A00
:1006D000DF0ADACF80E0DF91CF911F910F91FF9079
:1006E000EF90DF90CF900895209121013091220169
:1006F0002617370748F06115710539F42091E80095
:100700002E772093E80001C0B901FC0120E06115BB
:10071000710569F180911A018823D1F18530D1F1F9
:100720008091E80083FD32C08091E80082FD28C0FE
:100730008091E80080FFEBCF8091F2009091F30070
:100740006115710551F08830910538F4219120939D
:10075000F100615071090196F3CF21E0089709F08B
:1007600020E08091E8008E778093E800D0CF2111BF
:10077000D1CF06C080911A01882351F0853051F005
:100780008091E80082FFF6CF80E0089581E008952F
:1007900082E0089583E008956115710529F42091A0
:1007A000E8002B772093E800FC016115710531F119
:1007B00080911A01882351F1853051F18091E80030
:1007C00083FD22C08091E80082FFEFCF8091F2008C
:1007D0009091F300892B31F08091F1008193615069
:1007E0007109A1F78091E8008B778093E800DDCF55
:1007F00080911A01882351F0853051F08091E800F2
:1008000080FFF6CF80E0089581E0089582E00895AA
:1008100083E00895209121013091220126173707A6
:1008200048F06115710539F42091E8002E77209386
:10083000E80001C0B901FC0120E06115710571F10A
:1008400080911A018823D9F18530D9F18091E8008F
:1008500083FD33C08091E80082FD29C08091E800CB
:1008600080FFEBCF8091F2009091F300611571054C
:1008700059F08830910540F424912093F10031968D
:10088000615071090196F2CF21E0089709F020E04C
:100890008091E8008E778093E800CFCF2111D0CFF0
:1008A00006C080911A01882351F0853051F0809163
:1008B000E80082FFF6CF80E0089581E0089582E0AD
:1008C000089583E008950F931F93CF93DF93CDB7DF
:1008D000DEB7AA970FB6F894DEBF0FBECDBFEBE12F
:1008E000F1E08091F100819321E0E332F207C9F752
:1008F00089DC8091E80083FF1DC180911B019091EC
:100900001C01492F50E04A30510508F013C1FA018B
:10091000E45BFF4F33C3803881F0823809F00AC1AD
:1009200080911F0187708093E9008091EB0085FB27
:10093000882780F91092E90006C0809117019091F4
:100940001801911182609091E800977F9093E800E0
:100950008093F1001092F100C5C0282F2D7F09F07F
:10096000E9C0882319F0823061F0E4C080911D0154
:10097000813009F0DFC0933009F080E080931801E6
:100980002BC080911D01811127C080911F018770AC
:1009900009F4D0C08093E9002091EB0020FF1CC037
:1009A000933021F48091EB00806214C09091EB00B1
:1009B00090619093EB0021E030E0A90102C0440F68
:1009C000551F8A95E2F74093EA001092EA00809161
:1009D000EB0088608093EB001092E9008091E800C2
:1009E000877F83C08111A6C010911D011F770FB7AB
:1009F000F8948091E800877F8093E800B6DC8091CE
:100A0000E80080FFFCCF8091E3008078812B809309
:100A1000E30080688093E300111102C082E001C00E
:100A200083E080931A010FBF85C08058823008F0A0
:100A300081C080911D0190911E018C3D53E095076E
:100A400071F583E08A838AE289834FB7F894DE01E7
:100A5000139620E03EE051E2E32FF0E05093570080
:100A6000E49120FF03C0E295EF703F5FEF708E2F9F
:100A700090E0EA3010F0C79601C0C0968D939D9328
:100A80002F5F243149F74FBF8091E800877F809323
:100A9000E8006AE270E0CE01019626DE12C0AE01E7
:100AA0004F5F5F4F60911F01EBDBBC01892B09F4A5
:100AB00041C09091E800977F9093E80089819A81E6
:100AC000A9DE8091E8008B778093E80033C08038FE
:100AD00089F58091E800877F8093E8008091160176
:100AE0008093F1008091E8008E778093E8003DDCF0
:100AF00021C081111FC080911D0190911E01992775
:100B00000297C4F48091E800877F8093E800809189
:100B10001D018093160129DC80911601811106C008
:100B20008091E30087FD02C081E001C084E08093F2
:100B30001A015ADB8091E80083FF0AC08091EB0024
:100B400080628093EB008091E800877F8093E800CB
:100B5000AA960FB6F894DEBF0FBECDBFDF91CF913E
:100B60001F910F9108950895CF9380911A018823C2
:100B700059F0C091E900C7701092E9008091E80037
:100B800083FDA1DEC093E900CF9108956F927F921B
:100B90008F929F92AF92BF92CF92DF92EF92FF928D
:100BA0000F931F93CF93DF9300D01F92CDB7DEB783
:100BB0007C01ADB6BEB68091E80083FFF7C0F701B7
:100BC000808190E020911F01309120012817390782
:100BD00009F0ECC080911C01833009F496C030F418
:100BE000813071F0823009F4C9C0E0C08A3009F464
:100BF000ADC08B3009F496C0893009F0D7C048C029
:100C000080911B01813A09F0D1C08DB69EB61A823F
:100C1000198280911D0110911E018B83F70187813C
:100C2000482F50E08DB79EB7841B950B0FB6F894F4
:100C30009EBF0FBE8DBFEDB7FEB731966F0160E06E
:100C400070E0CF01BAD14FEF410F8E010F5F1F4F00
:100C50009601BE016D5F7F4FC701E3DAF701858121
:100C60009681009721F0478150E0B6019DD1109206
:100C7000E9008091E800877F8093E80069817A81AC
:100C8000C60132DD8091E8008B778093E80037C0A1
:100C900080911B01813209F089C08DB69EB600910A
:100CA00021011091220170901D0160901E018DB7ED
:100CB0009EB7801B910B0FB6F8949EBF0FBE8DBFE1
:100CC000EDB7FEB731966F018091E800877F809382
:100CD000E800B801CF0160DD8091E8008E77809355
:100CE000E80021E0711001C020E030E0021B130B8E
:100CF0002C0D3D1D4FEF460D672DC701B0DA0FB625
:100D0000F8949EBE0FBE8DBE51C080911B01813AEA
:100D100009F04CC08091E800877F8093E800F701DC
:100D200080853CC080911B01813209F03FC08091D9
:100D3000E800877F8093E80018DB90911D0181E037
:100D4000911101C080E0F701808730C080911B01C4
:100D5000813261F58091E800877F8093E80005DBB0
:100D600080911D0190911E01882736E09695879508
:100D70003A95E1F7F7019287818718C080911B01AE
:100D8000813AA1F48091E800877F8093E800F70121
:100D90008185928596958795969587958093F100A4
:100DA0008091E8008E778093E800DFDA0FB6F89440
:100DB000BEBE0FBEADBE0F900F900F90DF91CF91D2
:100DC0001F910F91FF90EF90DF90CF90BF90AF9069
:100DD0009F908F907F906F900895CF93DF93FC0149
:100DE000DC01189685E0ED0119928A95E9F781E01A
:100DF000808784EF91E0928781878481811102C08E
:100E000040E001C044E062817381818128E030E0EC
:100E100090E02617370720F49F5F220F331FF9CF8A
:100E200042609295907F492B61ECDF91CF9169CA26
:100E30005F926F927F928F929F92AF92BF92CF926A
:100E4000DF92EF92FF920F931F93CF93DF9300D027
:100E50001F92CDB7DEB77C01ADB6BEB680911A0148
:100E6000843009F073C0F70181818093E90080919B
:100E7000E80085FF6BC08DB69EB6478150E08DB708
:100E80009EB7841B950B0FB6F8949EBF0FBE8DBF07
:100E9000EDB7FEB731966F011B821A82198260E0AE
:100EA00070E0CF018AD08E010F5F1F4F960140E0A6
:100EB000BE016D5F7F4FC701B4D9582EF701818500
:100EC0009285892B29F011E083859485892B09F07F
:100ED00010E0F701658076806114710481F049812A
:100EE0005A81B301C60153D001E0892B09F400E017
:100EF000F701478150E0B601C30156D001C000E0C0
:100F000089819A81892BE9F0511004C0011102C036
:100F100010FF17C0F70181859285948783878181AF
:100F20008093E9008B8181118093F10069817A813E
:100F300040E050E0C6018EDB8091E8008E77809320
:100F4000E8000FB6F8949EBE0FBE8DBE0FB6F894A3
:100F5000BEBE0FBEADBE0F900F900F90DF91CF9130
:100F60001F910F91FF90EF90DF90CF90BF90AF90C7
:100F70009F908F907F906F905F900895EE0FFF1F6E
:100F80000024001C0BBE0790F691E02D0994FB0194
:100F9000DC0104C08D910190801921F44150504032
:100FA000C8F7881B990B0895FB01DC0102C0019072
:100FB0000D9241505040D8F70895DC0101C06D9367
:0C0FC00041505040E0F70895F894FFCF36
:0E0FCC0000010800000E0108000000000000F7
:00000001FF
