:100000002AC1000046C1000044C1000042C10000F6
:1000100040C100003EC100003CC100003AC10000E8
:1000200038C1000036C100000C94E6190C94B01AD7
:1000300030C100002EC100002CC100002AC1000008
:1000400028C100002CC1000024C1000022C1000012
:1000500020C100001EC100001CC100001AC1000028
:1000600018C1000016C1000014C1000012C1000038
:1000700010C100000EC100000CC100000AC1000048
:1000800008C1000006C1000004C1000002C1000058
:1000900000C10000FEC00000251D471D341E471D85
:1000A000341E8C1DAE1D341E011E131E2E03540063
:1000B00065006D00700065007200610074007500DD
:1000C00072006500200044006100740061006C0053
:1000D0006F006700670065007200000018034400AD
:1000E000650061006E002000430061006D00650046
:1000F00072006100000004030904090239000201D2
:1001000000C03209040000020806500007058302FF
:100110004000010705040240000109040100010339
:1001200000000009211101000122200007058103C0
:100130001000011201100100000008EB0363200110
:10014000000102DC010600FF0901A10109021500FE
:1001500025FF7508950781020903150025FF75081D
:1001600095079102C0B403B003AB03A603A0039AA2
:100170000394038E03880381037A0373036B036381
:10018000035B0353034A03410338032F0325031B77
:100190000311030703FC02F102E602DB02D002C4F2
:1001A00002B802AC02A002940288027C026F0263D1
:1001B0000256024A023D023102250218020C0200D8
:1001C00002F301E701DB01CF01C401B801AC01A1D9
:1001D0000196018B01800176016B01610157014D90
:1001E0000144013A01310128011F0117010F0106E5
:1001F00001FE00F700EF00E800E100DA00D300CDD7
:1002000000C700C000BA00B500AF00AA00A4009F5C
:10021000009A00960091008C008800840080007C89
:10022000007800740071006D006A0067006400616E
:10023000005E005B0058005500530050004E004C1B
:1002400000490047004500430041003F003D003C9D
:10025000003A0038000011241FBECFEFD0E2DEBF0D
:10026000CDBF11E0A0E0B1E0E0E0FDE400E00BBFB5
:1002700002C007900D92AA3CB107D9F724E0AAEC7E
:10028000B1E001C01D92A233B207E1F753D10C9443
:100290007E26B6CE9BB19F70892B8BB908951F9295
:1002A0000F920FB60F9211240BB60F92FF920F937D
:1002B0001F932F933F934F935F936F937F938F93EE
:1002C0009F93AF93BF93EF93FF93CF93DF93CDB7FC
:1002D000DEB7CC56D109DEBFCDBFFBB0809118048C
:1002E0009091190401969093190480931804209119
:1002F0001A0430E08217930708F458C010921904CA
:100300001092180480E2C6DF8EB381114CC0CE017A
:100310008B599F4F0E9499090E94E021282F082E97
:10032000000C330B3F938F93A8968FADA8971F9225
:100330008F93A7968FADA7971F928F93A6968FAD99
:10034000A6971F928F93AB968FADAB971F928F930B
:10035000AA968FADAA971F928F93A9968FADA99752
:100360001F928F938AE791E09F938F938E010F5F87
:100370001F4F1F930F930E948923AD969FAF8EAF9F
:10038000AD979E0125593F4FAC01B8018AEC91E031
:100390000E9402158AEC91E00E949D160FB6F89417
:1003A000DEBF0FBECDBF8F2D807F74DFC459DF4FFE
:1003B0000FB6F894DEBF0FBECDBFDF91CF91FF9196
:1003C000EF91BF91AF919F918F917F916F915F91CD
:1003D0004F913F912F911F910F91FF900F900BBE66
:1003E0000F900FBE0F901F9018950F931F93CF93F0
:1003F000DF93CDB7DEB762970FB6F894DEBF0FBEBE
:10040000CDBFCE010D9695D78A891F928F9389898A
:100410001F928F9388891F928F9389EA91E09F930F
:100420008F938E010F5F1F4F1F930F930E9489239D
:100430006AEE71E080E00E94C20F42E1B8018AECEE
:1004400091E00E94D80F4091D4015091D501609164
:10045000D6017091D7018AEC91E00E9451170FB636
:10046000F894DEBF0FBECDBF62960FB6F894DEBF24
:100470000FBECDBFDF91CF911F910F9108958AECF0
:1004800091E00E949D168AEC91E00C94461784B787
:10049000877F84BF0FB6F894A8958091600088612B
:1004A00080936000109260000FBE90E080E80FB66D
:1004B000F89480936100909361000FBE8AB1806FC1
:1004C0008AB98BB18F708BB9209A289A84B18660D3
:1004D00084B923982B9A8DB581608DBD20988CE5C9
:1004E0008CBD87EA80937A008098EEE7F0E0808107
:1004F000816080838DB183608DB98EB183608EB948
:100500000E94D019ECEBF0E080818460808381E070
:100510008093B9008CE08093B80081E49FE09093D1
:100520008900809388008DE08093810082E0809331
:100530006F00ACC4ACDF80E090E00E946426809342
:100540001A048F3F19F48AE080931A044EDF80E189
:10055000A1DE78948DE091E00E94D32080E091E0CC
:100560000E94B31F0E944E1EF5CF80EA93DE87CF14
:1005700080E190DE3ACFCF9380E091E00E94881F27
:10058000C82F8DE091E00E949620CC2311F08111BC
:1005900002C080E901C080E6CF917CCE8DE091E081
:1005A0000E94592080E091E00C945F1ECF93DF936E
:1005B000EC0180E26FDECE0128D5C82F80E66ADE2E
:1005C0008C2FDF91CF9108950F931F93CF93DF93DB
:1005D000E901C901AED680911A048E8387E090E0CC
:1005E000F8019183808381E0DF91CF911F910F917A
:1005F0000895CF93DF93E901C90129D66E818091D7
:100600001A04681741F060931A0480E090E0DF91CB
:10061000CF910C946C26DF91CF910895292F332729
:1006200023303105E1F058F42130310599F02230C2
:10063000310569F589E390E02AEF30E02CC02132E2
:10064000310501F12232310511F580E290E025E417
:1006500031E021C082E190E023E331E01CC0992722
:100660008130910549F028F0029789F4ECEAF0E036
:1006700005C0E6EFF0E002C0ECEDF0E0849190E020
:100680009F0109C089E090E023E231E004C080E0EE
:1006900090E020E030E0FA013183208308958EB1AC
:1006A0009EB193609EB99EB19C7F8370892B8EB959
:1006B0000895F5DF87ED8EBD0DB407FEFDCF1EBC9E
:1006C0000DB407FEFDCF0EB407FEF9CFE8CF9C01B5
:1006D0003695279556E0969587955A95E1F78EBD04
:1006E0000DB407FEFDCF220F220F220F722B7EBD0D
:1006F0000DB407FEFDCF6EBD0DB407FEFDCF08950E
:100700009C019EB193609EB9211580E4380740F4A6
:100710008EB18C7F20FF02C0816001C082608EB9E3
:1007200008954F925F926F927F928F929F92AF92B5
:10073000BF92CF92DF92EF92FF920F931F93CF93CE
:10074000DF934C0189012A013B0139E0440C551C1F
:10075000661C771C3A95D1F76AE0769467945794B3
:1007600047946A95D1F7E201542F4427550F7A0137
:10077000EE2482E0F822C201C3DF83E58EBD0DB412
:1007800007FEFDCF60E070E0C201A1DF92DF84E8E8
:100790008EBD0DB407FEFDCFB70180E090E097DF7E
:1007A0000E945A198111EBC094E0F694E7949A954F
:1007B000E1F77E2C580125E0AA0CBB1C2A95E1F735
:1007C000E12CF12C612C0115110509F4BDC0650166
:1007D000CE0CDF1C80E2582E8091E80085FF04C01B
:1007E000E0E47E1243C00AC08091E8008B778093DA
:1007F000E8000E945A19882399F3C1C05ADF61109A
:1008000002C083E801C086E88EBD0DB407FEFDCFAF
:1008100060E070E0CE015BDF21968EB183708130A5
:1008200009F46826CE016CDFF0E4CF16D10478F429
:1008300040DF611002C083E501C085E58EBD0DB4C7
:1008400007FEFDCF60E070E0CE0141DF32DF6110D6
:1008500002C084E801C087E88EBD0DB407FEFDCF5D
:1008600060E070E080E090E032DF712C8091F10078
:100870008EBD0DB407FEFDCF8091F1008EBD0DB48D
:1008800007FEFDCF8091F1008EBD0DB407FEFDCFB8
:100890008091F1008EBD0DB407FEFDCF8091F10077
:1008A0008EBD0DB407FEFDCF8091F1008EBD0DB45D
:1008B00007FEFDCF8091F1008EBD0DB407FEFDCF88
:1008C0008091F1008EBD0DB407FEFDCF8091F10047
:1008D0008EBD0DB407FEFDCF8091F1008EBD0DB42D
:1008E00007FEFDCF8091F1008EBD0DB407FEFDCF58
:1008F0008091F1008EBD0DB407FEFDCF8091F10017
:100900008EBD0DB407FEFDCF8091F1008EBD0DB4FC
:1009100007FEFDCF8091F1008EBD0DB407FEFDCF27
:100920008091F1008EBD0DB407FEFDCF7394F401EC
:1009300086A9811124C05A9451104ECF015011093B
:10094000F0E2EF1AF1083FCFB4DE611002C083E895
:1009500001C086E88EBD0DB407FEFDCF60E070E0FB
:10096000CE01B5DEA6DE8091E80085FD05C0809150
:10097000E8008B778093E8008EB183608EB9DF91B9
:10098000CF911F910F91FF90EF90DF90CF90BF908C
:10099000AF909F908F907F906F905F904F90089551
:1009A0008F929F92AF92BF92CF92DF92EF92FF927F
:1009B0000F931F93CF93DF936C0179014A015B0181
:1009C00029E0880C991CAA1CBB1C2A95D1F73AE097
:1009D000B694A794979487943A95D1F78401EA0145
:1009E000DC2FCC27DD0FCC27D270C40189DE82ED4D
:1009F0008EBD0DB407FEFDCFBE01C40168DE1EBC76
:100A00000DB407FEFDCF1EBC0DB407FEFDCF1EBC0E
:100A10000DB407FEFDCF1EBC0DB407FEFDCF0E9436
:100A20005A198111C2C084E0D695C7958A95E1F71D
:100A300092EDB92EE114F10409F4ABC0D0E280913B
:100A4000E80085FF08C0C03441F50F5F1F4FC801A3
:100A500057DEBEBC0AC08091E8008E778093E80024
:100A60000E945A19882379F3A0C00DB407FEFDCF68
:100A700060E070E0C8012BDE1EBC0DB407FEFDCFA8
:100A80001EBC0DB407FEFDCF1EBC0DB407FEFDCF8E
:100A90001EBC0DB407FEFDCFC0E01EBC0DB407FEAA
:100AA000FDCF8EB58093F1001EBC0DB407FEFDCFC7
:100AB0008EB58093F1001EBC0DB407FEFDCF8EB540
:100AC0008093F1001EBC0DB407FEFDCF8EB5809360
:100AD000F1001EBC0DB407FEFDCF8EB58093F10072
:100AE0001EBC0DB407FEFDCF8EB58093F1001EBC79
:100AF0000DB407FEFDCF8EB58093F1001EBC0DB482
:100B000007FEFDCF8EB58093F1001EBC0DB407FE2D
:100B1000FDCF8EB58093F1001EBC0DB407FEFDCF56
:100B20008EB58093F1001EBC0DB407FEFDCF8EB5CF
:100B30008093F1001EBC0DB407FEFDCF8EB58093EF
:100B4000F1001EBC0DB407FEFDCF8EB58093F10001
:100B50001EBC0DB407FEFDCF8EB58093F1001EBC08
:100B60000DB407FEFDCF8EB58093F1001EBC0DB411
:100B700007FEFDCF8EB58093F100CF5FF60186A909
:100B8000811113C0D15009F05ACFF1E0EF1AF108EA
:100B900051CF8091E80085FD05C08091E8008E77F7
:100BA0008093E8008EB183608EB9DF91CF911F9161
:100BB0000F91FF90EF90DF90CF90BF90AF909F90FC
:100BC0008F9008954F925F926F927F928F929F9233
:100BD000AF92BF92CF92DF92EF92FF920F931F934B
:100BE000CF93DF934A0189016B017C0199E0CC0C22
:100BF000DD1CEE1CFF1C9A95D1F7560167012AE017
:100C0000D694C794B794A7942A95D1F7E501762F87
:100C10006627770F7B01EE2482E0F822270144E06B
:100C2000569447944A95E1F7C5016ADD83E58EBD88
:100C30000DB407FEFDCF60E070E0C50148DD39DD91
:100C400084E88EBD0DB407FEFDCFB70180E090E0D3
:100C50003EDD640185E0CC0CDD1C8A95E1F7E12CDA
:100C6000F12C512C8114910409F459C058018EEFD4
:100C7000B81A37016C0C7D1C80E4481239C019DDAC
:100C8000511002C083E801C086E88EBD0DB407FE96
:100C9000FDCF60E070E0CE011ADD21968EB1837049
:100CA000813009F45826CE012BDD80E468167104EA
:100CB00078F4FFDC511002C083E501C085E58EBDEC
:100CC0000DB407FEFDCF60E070E0CE0100DDF1DC89
:100CD000E6DC511002C084E801C087E88EBD0DB487
:100CE00007FEFDCF60E070E080E090E0F0DC412C9A
:100CF000F801005F1F4F81918EBD0DB407FEFDCF3F
:100D00000E171F07C1F74394A016B10609F0B4CF20
:100D100081E0881A910880E2E81AF108A3CFC9DCC3
:100D2000511002C083E801C086E88EBD0DB407FEF5
:100D3000FDCF60E070E0CE01CADCBBDC8EB1836029
:100D40008EB9DF91CF911F910F91FF90EF90DF90BF
:100D5000CF90BF90AF909F908F907F906F905F905B
:100D60004F9008954F925F926F927F92AF92BF9291
:100D7000CF92DF92FF920F931F93CF93DF935A018D
:100D800089012B013C0199E0440C551C661C771C21
:100D90009A95D1F72AE076946794579447942A95C8
:100DA000D1F76201EB01DC2FCC27DD0FCC27D2700D
:100DB000CE0144E0969587954A95E1F7F82EC20159
:100DC0009FDC82ED8EBD0DB407FEFDCFBE01C201DA
:100DD0007EDC1EBC0DB407FEFDCF1EBC0DB407FEAD
:100DE000FDCF1EBC0DB407FEFDCF1EBC0DB407FE2B
:100DF000FDCF82ED782EA114B104B9F1E801DE5FD8
:100E000080E4F8121EC08FEFC81AD80AC60178DC39
:100E10007EBC0DB407FEFDCF60E070E0C60157DC7C
:100E20001EBC0DB407FEFDCF1EBC0DB407FEFDCFEA
:100E30001EBC0DB407FEFDCF1EBC0DB407FEFDCFDA
:100E4000F12CF801005F1F4F1EBC0DB407FEFDCF53
:100E50008EB58193E017F107B9F7F394C017D10766
:100E600079F681E0A81AB108C6CF8EB183608EB939
:100E7000DF91CF911F910F91FF90DF90CF90BF90A6
:100E8000AF907F906F905F904F9008958EB18C7F60
:100E900082608EB987ED8EBD0DB407FEFDCF1EBCFE
:100EA0000DB407FEFDCF0EB401FC07C08EB18C7FE0
:100EB00081608EB987ED8EBD16C0F1DB8DE38EBDEE
:100EC0000DB407FEFDCF8AE28EBD0DB407FEFDCF47
:100ED0008FE78EBD0DB407FEFDCF8AE98EBD0DB440
:100EE00007FEFDCFE3CF0DB407FEFDCF1EBC0DB452
:100EF00007FEFDCF0EB401FC04C08EB183608EB935
:100F00000895CDDB8DE38EBD0DB407FEFDCF8AE2E3
:100F10008EBD0DB407FEFDCF8FE78EBD0DB407FE6D
:100F2000FDCF8AE98EBD0DB407FEFDCFE6CF8EB1B1
:100F30008C7F82608EB98FE98EBD0DB407FEFDCF28
:100F40001EBC0DB407FEFDCF9EB58EB183608EB979
:100F50009F31A1F48EB18C7F81608EB98FE98EBDF7
:100F60000DB407FEFDCF1EBC0DB407FEFDCF9EB530
:100F70008EB183608EB981E09F3109F080E00895E1
:100F80000F931F93CF93DF93EC01862F4E8D5D8DD2
:100F90006C8D7B8D09A118A1411520E852076105D0
:100FA000710568F080914601807F856080934601DD
:100FB00081E2809350011092510180E021C098019C
:100FC000882319F0CE01ECDC02C0CE01AADBC801F7
:100FD000A0E0B0E029E0880F991FAA1FBB1F2A9547
:100FE000D1F74A895B896C897D898A019B01081B3D
:100FF000190B2A0B3B0B0A8B1B8B2C8B3D8B81E037
:10100000DF91CF911F910F910895CF92DF92EF92D0
:10101000FF920F931F93CF93DF93CDB7DEB728973F
:101020000FB6F894DEBF0FBECDBF8C01FC01818DE1
:101030008D3109F4C2C020F5833009F496C020F444
:10104000882309F4D9C0DEC0823109F458C08A313E
:1010500009F0D8C01092F1001092F1001092F10046
:101060001092F1008091E8008E778093E800F801FB
:1010700082899389A489B5890497A109B109B7C068
:10108000883209F4AEC0A0F58E3109F4B5C08532BE
:1010900009F0B8C08FEF9FE7A0E0B0E08D839E839A
:1010A000AF83B88780E092E0A0E0B0E089839A83C4
:1010B000AB83BC8340E050E064E070E0CE01059675
:1010C0000E947C1B40E050E064E070E0CE0101969D
:1010D0000E947C1B8091E8008E778093E800F801E5
:1010E00082899389A489B5890897A109B1097FC02C
:1010F0008A3209F474C08F3209F47EC083C0F801CB
:10110000E58CF48C828D837019F4838D882341F0F3
:1011100080914601807F85608093460184E279C09A
:101120006701F5E2EF16F10418F094E2C92ED12C14
:1011300040E050E0B60186E591E00E94331B60E09C
:1011400070E0C7018C199D090E94F41A8091E80093
:101150008E778093E800F80182899389A489B58904
:101160008C199D09A109B10942C0F801F58CEF2C39
:10117000F2E1FF1510F482E1E82ECE2CD12C40E0F4
:1011800050E0B60184E491E00E94331B8F2D90E083
:1011900060E070E08C199D090E94F41A8091E800CB
:1011A0008E778093E800F80182899389A489B589B4
:1011B0008E199109A109B1091AC0F801828D82FF27
:1011C000A7CFB5DE811118C080914601807F846071
:1011D00080934601109250011092510128C060E0A6
:1011E00001C061E0C801CCDE811116C020C0828B35
:1011F000938BA48BB58B10C0F801128A138A148AC2
:10120000158A0AC080914601807F856080934601DF
:1012100080E280935001E0CF80914601807F8093EF
:101220004601109250011092510181E001C080E00E
:1012300028960FB6F894DEBF0FBECDBFDF91CF91D9
:101240001F910F91FF90EF90DF90CF900895EF9254
:101250000F931F93CF93DF93CDB7DEB728970FB6C9
:10126000F894DEBF0FBECDBFFC01188682813AE044
:10127000632F0E941C238770282F2295207F89814D
:101280008078822B892B8F77898381810E941C2310
:101290008770282F2295207F8A818078822B892B46
:1012A0008A8380810E941C238370282F2295207FAF
:1012B0008B81807C822B892B8F7B8B838C81887F99
:1012C0008C8383810E941C238370282F2295207F8A
:1012D0008D81807C822B892B8D8384810E941C23AD
:1012E0002E8180FB24F9207F292B2E8385810E946B
:1012F0001C238295807F982B9F8387E0E82E8E01A8
:101300000F5F1F4F21E0AE01485F5F4F80ED0E94ED
:10131000E62291E0811190E0892F28960FB6F8948B
:10132000DEBF0FBECDBFDF91CF911F910F91EF9028
:101330000895CF92DF92EF920F931F93CF93DF9395
:10134000CDB7DEB728970FB6F894DEBF0FBECDBF7E
:101350006C01188687E0E82E8E010F5F1F4F21E099
:10136000AE01485F5F4F6AE080ED0E949C228111D0
:101370004EC08981982F9695969596959E70292FA7
:10138000220F220F920F8F70890FF60182838A81BC
:10139000982F9695969596959E70292F220F220F3D
:1013A000920F8F70890F81838B81982F96959695D8
:1013B00096959670292F220F220F920F8F70890F0A
:1013C00080838D81982F9695969596959670292F66
:1013D000220F220F920F8F70890F83838E8184FBDF
:1013E000992790F9990F292F220F220F920F8F70B2
:1013F000890F84838F81982F92959F708F70FAE068
:101400009F9F800D1124F601858381E001C080E05B
:1014100028960FB6F894DEBF0FBECDBFDF91CF91F7
:101420001F910F91EF90DF90CF90089580E0089585
:1014300080E008950F93FB01CA01B901402F50E0ED
:101440009F0190DC80E00F9108950F93FB01CA018A
:10145000B901402F50E09F01B5DB80E00F91089566
:10146000662311F084E0089580E008950F931F93A0
:10147000CF93DF9300D000D000D0CDB7DEB7CE0140
:10148000019657DF4D8150E060E070E085E1440F48
:10149000551F661F771F8A95D1F78C81682B89812C
:1014A00090E0A0E0B0E02BE0880F991FAA1FBB1FBF
:1014B0002A95D1F7482B592B6A2B7B2B8A8190E0F8
:1014C000A0E0B0E035E0880F991FAA1FBB1F3A9536
:1014D000D1F7842B952BA62BB72B2B812695AC010E
:1014E000BD01422B8E8190E04496092E000CAA0B80
:1014F000BB0BE9E1880F991FAA1FBB1FEA95D1F723
:101500008A019B01082B192B2A2B3B2BC901B801FF
:1015100026960FB6F894DEBF0FBECDBFDF91CF91F8
:101520001F910F910895CF93DF93DB01FC019A0186
:101530002230310538F0CD91DD91C193D193225005
:101540003109F6CF9A012E7FFC01E20FF31FDB0178
:10155000A20FB31F4217530711F02C912083DF9184
:10156000CF9108954F925F926F927F92AF92BF9208
:10157000CF92DF92EF92FF920F931F93CF93DF935F
:10158000FC0142A453A464A475A44416550666063F
:10159000770611F480E04DC06A017B01EC01848183
:1015A000811106C0C114D104E104F10499F333C0E0
:1015B0005F01FEE2AF0EB11C01E0A3019201B50193
:1015C000898143DF882311F081E033C01C824E8D76
:1015D0005F8D68A179A18A8D9B8DAC8DBD8D840FA7
:1015E000951FA61FB71F481659066A067B06D0F638
:1015F0001B811230B8F28A8D9B8DAC8DBD8D480E4B
:10160000591E6A1E7B1E01E0A3019201B50189816A
:101610001CDF1150EECF01E0A7019601BE01625D13
:101620007F4F898107DF8111CFCFCAA6DBA6ECA649
:10163000FDA6DF91CF911F910F91FF90EF90DF906A
:10164000CF90BF90AF907F906F905F904F90089534
:101650000F93CF93DF93EC019A01AB01BC01625D64
:101660007F4F01E08981E6DE811122C0FE01E45D49
:10167000FD4F8081918185359A4AE1F4E85CF14023
:1016800080819181A281B381BB2786349144A44596
:10169000B10591F0C058DF4F488159816A817B8143
:1016A000772781E0463451446445710531F404C024
:1016B00083E003C082E001C080E0DF91CF910F9111
:1016C0000895009779F0FC012081222359F02681AA
:1016D00037812617370731F48181AADE80FD04C0E7
:1016E00080E0089589E0089583E008950F931F93A3
:1016F000FC019A01AB012250310941095109868947
:101700009789A08DB18D0297A109B10928173907D2
:101710004A075B0768F4A281B0E00E94532306A148
:1017200017A120A531A5600F711F821F931F03C051
:1017300060E070E0CB011F910F910895AF92BF92CE
:10174000CF92DF92EF92FF920F931F93CF93DF938D
:10175000423051056105710508F4A5C0FC010689F8
:101760001789208D318D401751076207730708F0E4
:101770009AC06A017B01EC018081823009F448C083
:10178000833009F465C0813009F092C05A01B694E3
:10179000A794AC0CBD1CC501892F992786954E8D49
:1017A0005F8D68A179A1480F591F611D711DCE0180
:1017B000D9DE81117DC0F501F170EC0FFD1F16A57A
:1017C000FFEFAF1ABF0AC501892F992786954E8D65
:1017D0005F8D68A179A1480F591F611D711DCE0150
:1017E000C1DE811165C0C5019170FE01E80FF91FCE
:1017F00086A5612F70E0782BC0FE06C054E0769578
:1018000067955A95E1F701C07F7080E090E053C082
:1018100077276F2D5E2D4D2D868D978DA0A1B1A1BF
:10182000480F591F6A1F7B1FCF019CDE811140C0EA
:10183000CC0CDD1CEE1CFF1CE894C0F881E0D82223
:10184000EE24FF24FE01EC0DFD1D66A577A5DDCF7E
:10185000868D978DA0A1B1A127E0769567955795C4
:1018600047952A95D1F7480F591F6A1F7B1FCF0153
:1018700079DE81111DC082E0CC0CDD1CEE1CFF1C4A
:101880008A95D1F7ECEFCE22E1E0DE22EE24FF24B0
:10189000FE01EC0DFD1D86A597A5A0A9B1A9BC016F
:1018A000CD019F7008C061E070E080E090E003C06F
:1018B0006FEF7FEFCB01DF91CF911F910F91FF90E1
:1018C000EF90DF90CF90BF90AF9008950F931F934C
:1018D000CF93DF93EC011D821C824E815F8168856E
:1018E0007985413051056105710511F482E061C0CF
:1018F00008811981F80186899789A08DB18D4817D3
:1019000059076A077B0790F7411551056105710575
:10191000F1F48081833049F442A153A164A175A1FF
:10192000411551056105710591F41A861B861C86C7
:101930001D86F80180859185892BC1F282A193A132
:10194000A4A1B5A18E879F87A88BB98B2BC0F80166
:10195000828181111DC088819981F0DEAB01BC01BB
:101960004F3FFFEF5F076F077F0711F142305105CF
:101970006105710508F4BACFE881F98186899789F4
:10198000A08DB18D481759076A077B0720F3AECFAA
:101990004A875B876C877D87C801A8DE6E877F8753
:1019A000888B998BC8018E969B8B8A8B80E001C0B7
:1019B00081E0DF91CF911F910F9108954F925F9237
:1019C0006F927F92AF92BF92CF92DF92EF92FF928F
:1019D0000F931F93CF93DF9300D000D000D0CDB7EB
:1019E000DEB7423051056105710508F4ECC0DC0139
:1019F0005696CD90DD90ED90FC9059974C155D0575
:101A00006E057F0508F0DFC0280139016A017B01FE
:101A10009E838D83FC018081823009F46DC0833008
:101A200009F490C0813009F0C7C05A01B694A79458
:101A3000AC0CBD1CC501892F99278695468D578D05
:101A400060A171A1480F591F611D711DCF018ADD71
:101A50008111B3C0F501F1702D813E81E20FF31FBA
:101A6000D701C60181709927AA27BB2789839A834A
:101A7000AB83BC83C0FE09C086A5282F2F70A0E1D0
:101A80004A9EC0011124822B01C0842D86A7BFEF7E
:101A9000AB1ABB0A81E0ED81FE818483C501892FE9
:101AA00099278695468D578D60A171A1480F591FC2
:101AB000611D711DCF0156DD81117FC0F1E0BF2294
:101AC000ED81FE81EA0DFB1D29813A814B815C810C
:101AD000232B242B252B41F054E0769467945794C4
:101AE00047945A95D1F706C006A5007F952D9F70A3
:101AF000402E492A46A661C077276F2D5E2D4D2DB9
:101B0000ED81FE81868D978DA0A1B1A1480F591F4F
:101B10006A1F7B1FCF0126DD81114FC0CC0CDD1C5D
:101B2000EE1CFF1CE894C0F8F1E0DF22EE24FF2455
:101B30002EE2C20ED11CED81FE81EC0DFD1D518205
:101B400040823BC0ED81FE81868D978DA0A1B1A121
:101B500027E076956795579547952A95D1F7480FD1
:101B6000591F6A1F7B1FCF01FDDC811126C092E047
:101B7000CC0CDD1CEE1CFF1C9A95D1F7FCEFCF229C
:101B8000F1E0DF22EE24FF242EE2C20ED11CED8113
:101B9000FE81EC0DFD1D0081118122813381002722
:101BA00011272227307F402A512A622A732A408235
:101BB00051826282738201C082E091E0AD81BE8178
:101BC00014969C9301C082E026960FB6F894DEBF6F
:101BD0000FBECDBFDF91CF911F910F91FF90EF907E
:101BE000DF90CF90BF90AF907F906F905F904F90BD
:101BF00008954F925F926F927F928F929F92AF92D1
:101C0000BF92CF92DF92EF92FF920F931F93CF93E9
:101C1000DF93EC012A013B01411551056105710576
:101C200099F48A849B84AC84BD8481149104A104BA
:101C3000B10401F18E899F89A88DB98D8816990606
:101C4000AA06BB06D8F016C079DD6B017C016230B4
:101C500071058105910508F47FC08E899F89A88D43
:101C6000B98DC816D906EA06FB0608F47AC05301F6
:101C7000420104C0812C912C5401839475016401AC
:101C80008FEFC81AD80AE80AF80A8E899F89A88DAA
:101C9000B98DC816D906EA06FB0668F022E082165E
:101CA0009104A104B10410F460E057C082E0C82E92
:101CB000D12CE12CF12CB701A601CE013FDD61153D
:101CC000710581059105B1F06F3F2FEF7207820713
:101CD000920729F46FEF7FEF8FEF9FEF44C06130E1
:101CE000710581059105C1F1C814D904EA04FB040A
:101CF00039F6DACF0FEF1FEF2FEF3FE0B701A60164
:101D0000CE015CDE811125C04114510461047104CF
:101D1000C1F4CA86DB86EC86FD868E859F85A88900
:101D2000B9898F3F2FEF9207A207B207D1F0019731
:101D3000A109B1098E879F87A88BB98B81E08D831C
:101D400010C097018601B301A201CE0137DE8823BE
:101D500001F3813009F4BECF61E070E080E090E0F3
:101D600002C0B601C701DF91CF911F910F91FF9083
:101D7000EF90DF90CF90BF90AF909F908F907F902B
:101D80006F905F904F9008958F929F92AF92BF9205
:101D9000CF92DF92EF92FF920F931F93CF93DF9337
:101DA000EC016B010C811D810F5F1F4F11F484E06A
:101DB000DCC04E855F8568897989411551056105CB
:101DC0007105A9F378018FE0E822FF24E114F10402
:101DD00009F0BAC04F5F5F4F6F4F7F4F4E875F87ED
:101DE000688B798B4A855B856C857D858881998137
:101DF000FC01411551056105710531F4808591851E
:101E000008171907A0F6A0C0228130E0215031093F
:101E1000F801A4E0F695E795AA95E1F72E233F2374
:101E2000232B09F091C08ADC4B015C016230710503
:101E30008105910510F482E098C08FEF881698060E
:101E4000A806B80611F481E090C088819981FC0150
:101E500046895789608D718D84169506A606B7064A
:101E600008F465C0CD2809F4A2CF4A855B856C854E
:101E70007D85BFDE4B015C01611571058105910512
:101E800009F472C06130710581059105A1F28FEFEF
:101E900088169806A806B806B1F240E050E0BA01EC
:101EA000888199815FDB8111CECF88819981FC0186
:101EB000BE96825D9D4F8E179F0711F01192FBCF4A
:101EC000C880D980B501A401C60110DCF60162A763
:101ED00073A784A795A7D12CCC24C394E881F9815A
:101EE0008281D816C0F4C48240E050E0BA018881F3
:101EF000998138DB8111A7CFE881F98182A593A56B
:101F0000A4A5B5A50196A11DB11D82A793A7A4A75D
:101F1000B5A7D394E3CF82A593A5A4A5B5A58D19A4
:101F20009109A109B10982A793A7A4A7B5A78A8699
:101F30009B86AC86BD86B501A40188819981D6DBDC
:101F40006E877F87888B998B1D830C83888199810D
:101F50008E9625E0EE0CFF1C2A95E1F7E80EF91E9F
:101F6000FB8AEA8A80E001C087E0DF91CF911F9170
:101F70000F91FF90EF90DF90CF90BF90AF909F9028
:101F80008F900895811112C0E0912404F0912504EE
:101F9000309709F010826115710511F0FB01108274
:101FA000709325046093240480E008958BE00895E5
:101FB0002F923F924F925F926F927F928F929F9259
:101FC000AF92BF92CF92DF92EF92FF920F931F9347
:101FD000CF93DF93CDB7DEB7EA970FB6F894DEBFA5
:101FE0000FBECDBF98A78FA36B014EA7DC011D923A
:101FF0001C924F7149A7FB01808190E0C0978A3005
:10200000910548F421812A3331F4F2E0CF0ED11C3E
:10201000892B09F0F8C1E0902404F0902504FA829D
:10202000E982E114F10409F4F0C11EA51E71D70183
:102030008C91882359F011968C91FAD980FD06C0B5
:10204000112309F4E4C182FDE6C1E1C1F701108268
:10205000118280E0EBD980FDDCC1112311F082FDFB
:10206000DAC140E050E0BA01C701F2DA8130A9F4E8
:10207000F701E051FE4F8081882309F4D0C13496E6
:1020800040805180628073804AA65BA66CA67DA6C4
:10209000B301A201C701DCDA04C01AA61BA61CA664
:1020A0001DA6833009F4B9C18111B9C1D701D996F0
:1020B0008D919C91DA978115924009F0B0C1F7019A
:1020C000EC5BFF4F408051803201812C912C6FAA34
:1020D00078AE89AE9AAE67286828692849F43E969A
:1020E00080809180A280B3808FAA98AEA9AEBAAE4C
:1020F0004FA858AC69AC7AACD7015A964D925D9214
:102100006D927C925D97DE96AC91F701A3838FEF81
:102110008A0F823008F083C1B0E0A30192010E94CF
:1021200053236FA778AB89AB9AAB23AD22832223CD
:1021300009F475C1822F90E0AC014150510984230C
:102140009523892B09F06BC1FF9620803180D70140
:1021500019963C922E921897C1018F709927892B5E
:1021600009F05DC1329660817181CB01A0E0B0E0E1
:102170000097A105B10529F43D9680819181A28146
:10218000B381F70144AD55AD4115510509F447C17F
:102190002A01612C712C4BAA5CAA6DAA7EAAA1010E
:1021A00064E0569547956A95E1F753014201840E24
:1021B000951EA11CB11C4FA458A869A87AA8480C68
:1021C000591C6A1C7B1C4BA25CA26DA27EA28415CA
:1021D0009505A605B70508F422C1BC01CD01641917
:1021E00075098609970930E040E050E00E942823F5
:1021F000211531054105510509F411C149015A0163
:1022000062E0860E911CA11CB11C8AA59BA5ACA501
:10221000BDA5480E591E6A1E7B1E4BA25CA26DA274
:102220007EA28BA99CA9ADA9BEA94AA45BA46CA45B
:102230007DA4840D951DA61DB71D263F6FE03607B2
:102240004105510570F1263F3F4F4105510508F406
:10225000A6C3F701868A978AA08EB18E4BA05CA098
:102260006DA07EA046A257A260A671A6868F978F0A
:10227000A0A3B1A3232809F0D2C0E65AFF4F808162
:102280009181A281B381F70182A393A3A4A3B5A3F3
:1022900042E0880C991CAA1CBB1C4A95D1F713E09C
:1022A00029C011E0F701868A978AA08EB18E4BA0D3
:1022B0005CA06DA07EA046A257A260A671A6868FE4
:1022C000978FA0A3B1A3232809F4A9C04FA458A8AD
:1022D00069A87AA8840D951DA61DB71DF70182A3D4
:1022E00093A3A4A3B5A3123009F05BC3880C991C77
:1022F000AA1CBB1C2FEF820E21E0921EA11CB11C58
:1023000009E0B694A794979487940A95D1F74FA8BB
:1023100058AC69AC7AAC481459046A047B0408F4DC
:102320007EC08FEF9FEFDC01F70186879787A08B38
:10233000B18B1286138614861586133009F04DC0B2
:102340001582E25AFF4F808191812AA53BA54CA5B9
:102350005DA5280F391F411D511DF701228B338BBD
:10236000448B558B01E0B701625D7F4F818162D85C
:10237000811133C0F701E45DFD4F80819181853586
:102380009A4A59F5F70186A597A5A0A9B1A9823562
:102390009245A146B14409F5F701EE5EFD4F8081FB
:1023A0009181A281B38182379247A144B146A9F4B9
:1023B000389680819181A281B381F70182879387CA
:1023C000A487B587EA5EFD4F80819181A281B381A8
:1023D000F70186879787A08BB18BD7011C938091DB
:1023E0002204909123040196909323048093220465
:1023F00017969C938E931697F70112A613A614A610
:1024000015A6148204C01BE00BC01CE009C010E03C
:1024100007C013E005C01AE003C011E001C01DE0D1
:10242000CE0147969E8B8D8B11111CC1D6018C91CC
:102430008F3211F08C3519F4BFEFCB1ADB0A1F82F3
:10244000188619861A86F6018081803228F0B0E25B
:10245000EB2E15E0F12E5DC0CE01019637DA182F74
:102460001C8A1B8AFFC080E090E060E070E048E0DA
:1024700050E000E09B012F5F3F4F6401C60ED71E66
:10248000D6011C91113208F05CC06401C20ED31E4B
:10249000113208F4B5C020E0892B09F4E0C0808136
:1024A000853E09F4F0824830510511F4000F000F09
:1024B000802F8370813009F42061802F8C708430EC
:1024C00009F428602387CE01019600DA182F8823AB
:1024D00009F498C0ED89FE8983851111BBC082FD86
:1024E000C1C0EB89FC89838584FFBBC08489958941
:1024F000A0E0B0E0DC0199278827428D538D60E091
:1025000070E0842B952BA62BB72B8F839887A987F8
:10251000BA8796014901D9018C912F5F3F4F8F32C5
:10252000C9F38C35B9F3ED89FE89CF019F01255F91
:102530003F4F8217930709F496CFDC01ED92CD014E
:10254000F8CF1F3209F4A1CF1C3509F49ECF1E32FB
:1025500019F08417950778F04830510509F07FC0CD
:102560001E3209F07CC0000F000F88E090E04BE0C5
:1025700050E0B9017FCF17FD0360AFE7DA2ED10E2F
:10258000BEE1BD1538F4A0E2DA2ED10EBCE14B2E2F
:102590004D1428F16E5F7F4F280D391DD901DC9055
:1025A00020EC2D0D2F3328F020E82D0D2D3708F0CD
:1025B00056C09A01215031098217930708F04FC085
:1025C0009F01280F391FD9011C939C012F5F3F4F9A
:1025D0002E0F3F1F0296D901DC929B01CACFA12E7C
:1025E000B12C6AEBC62E61E0D62ED6016D916D013D
:1025F000662309F488C170E0A616B706B1F72FC0AC
:1026000024E04ACF4F85588969897A8989819A81DE
:102610000E94B20A182F81115DCFEB89FC8980815D
:102620008823B1F0838583FD0DC0AD89BE899F01EC
:10263000255F3F4F2E173F0709F44CCF91918D91A5
:102640009817C1F360E070E0CE0101969DDB3ECFAC
:1026500014E040CF143031F482FF03C003C016E011
:1026600001C015E02B883C88111104C021143104ED
:1026700009F416E08EA58C7109F4DBC01123A1F1D9
:10268000143051F5CE01019621D9182F8111A0C126
:102690004F85588969897A8989819A810E94B20A0D
:1026A000182F811195C1EB89FC898081853E09F441
:1026B0003DC1882309F43AC161E070E0CE01019682
:1026C00063DBE3CF6D897E894BE050E00E94930A83
:1026D000E981FA8181E08483B9A5B860B9A71111B5
:1026E00077C12B883C8808C0F1018385817109F08E
:1026F00054C14EA442FC31C159A453FEACC00E9447
:10270000360AD1011E966D937D938D939C935197BC
:102710001B961C92F101148E158E168E178E8489CD
:102720009589A0E0B0E0DC0199278827428D538D80
:1027300060E070E02C013D01442A552A662A772A80
:10274000138E128E158A148A89809A809CA28BA27D
:1027500081E0D40114968C934114510461047104F6
:1027600009F476C0B1E04B1651046104710409F418
:102770000EC1F40186899789A08DB18D481659063E
:102780006A067B0608F003C182A493A4A4A4B5A49E
:102790008AA69BA6ACA6BDA673016201EBA1FCA113
:1027A00086899789A08DB18DC816D906EA06FB06E1
:1027B00008F0D5C0B701A6018BA19CA10E949E0B79
:1027C0004B015C01611571058105910509F4C7C0D4
:1027D000613071058105910509F4D9C06F3F7F4FC4
:1027E0008F4F9F4F09F4D5C000E010E09801B7016A
:1027F000A6018BA19CA1E2D8182F8111E9C0EBA101
:10280000FCA186859785A089B1898F3FFFEF9F073F
:10281000AF07BF0759F00196A11DB11DEBA1FCA1A7
:1028200086879787A08BB18B21E025837501640192
:10283000B5CF1111CDC0D1011B968C9184FDABC0D9
:102840004EA441FE02C080FDA8C059A453FE03C09F
:1028500029A5206229A7E981FA8142A553A564A58B
:1028600075A5AFA1B8A55A964D935D936D937C93D2
:102870005D975F963C922E925E9749A414964C9277
:10288000D10154968D919C915597A0E0B0E09C01A8
:1028900011270027D1015A964D915C915B9760E01A
:1028A00070E0402B512B622B732BAFA1B8A51E9665
:1028B0004D935D936D937C935197D1015C964D91AF
:1028C0005D916D917C915F97AFA1B8A51A964D93DC
:1028D0005D936D937C931D9716961D921D921D928C
:1028E0001C92199756961D921D921D921C925997F3
:1028F0001196FC93EE938681978113969C938E9309
:10290000129710E065C06FEB610F6A3110F402603E
:1029100006C06FE9610F6A3110F401601052BF0107
:10292000680F791FDB011C93019623CE4F855889D0
:1029300069897A8989819A810E94B20A182F811146
:10294000CBCE8B899C89FC019C01205E3F4F2E17CA
:102950003F0709F4B7CE1192FACF18E039C0898148
:102960009A81B301A2014150510961097109FC0129
:1029700042875387648775874AA55BA56CA57DA5AB
:102980000E94B20A182F882309F45FCF21C012E0F9
:102990001FC011E01DC014E01BC017E019C012E0F9
:1029A00081CCA3E0B0E0A50194010E945323DC0197
:1029B000CB01B695A79597958795F1E08F2299243D
:1029C000AA24BB24880E991EAA1EBB1E11E092CC1D
:1029D000812FEA960FB6F894DEBF0FBECDBFDF9110
:1029E000CF911F910F91FF90EF90DF90CF90BF900C
:1029F000AF909F908F907F906F905F904F903F909F
:102A00002F9008952F923F924F925F926F927F92F4
:102A10008F929F92AF92BF92CF92DF92EF92FF92EE
:102A20000F931F93CF93DF93EC015B016A011901B0
:102A3000F901118210826A817B81888199810E94CB
:102A4000610B811167C18C8187FD61C181FF61C10B
:102A50008A859B85AC85BD85AC01BD014C0D5D1D96
:102A6000611D711D481759076A077B0708F0B3C03D
:102A70008E819F81A885B9854A855B856C857D851A
:102A8000481759076A077B0708F03CC18A879B876C
:102A9000AC87BD8737C14E815F8168857985DB0151
:102AA000CA019170AA27BB27892B8A2B8B2B09F08F
:102AB000F9C0E881F981228121502A013B01A9E076
:102AC0007694679457944794AA95D1F7122F1421BE
:102AD00009F486C088819981FC0142A453A464A4AE
:102AE00075A44E895F89688D798D441655066606F2
:102AF000770609F4ABC0888099804A895B896C8924
:102B00007D89C4010E94760B6115710581059105CF
:102B100009F4A5C02B013C01410E511C611C711C24
:102B20007601EF2CFF24E694E114F10409F49BC034
:102B3000F4018281212F30E0A9014E0D5F1D90E04C
:102B40008417950718F47C01E21AF30A0E2DA301ED
:102B50009201B501F40181810E94250A8111B8C05A
:102B600088819981FC0142A553A564A575A54419E6
:102B70005509660977092701612C712C4415550503
:102B80006605770570F4542F4427550FB501640F7F
:102B9000751F40E052E08E960E94930AE881F98109
:102BA0001482FE2CEE24FF0CAE0CBF1C8E819F8184
:102BB000A885B9858E0D9F1DA11DB11D8E839F8394
:102BC000A887B987F101808191818E0D9F1D918326
:102BD0008083CE18DF08C114D10409F05CCF48CF40
:102BE000452B462B472BA1F46E857F8588899989D3
:102BF0006115710581059105C1F440E050E0BA010D
:102C0000CF010E94F90D6E877F87888B998B07C053
:102C10004A895B896C897D89CF010E94F90D611514
:102C200071058105910509F423CF61307105810596
:102C30009105A9F06F3FFFEF7F078F079F0709F40A
:102C400047C06A8B7B8B8C8B9D8B44CF40E050E0E0
:102C5000BA010E94B20A882309F44DCF39C08C8191
:102C600080688C8354C04E815F81688579858A85B0
:102C70009B85AC85BD85481759076A077B0770F0AF
:102C800040E050E0BA01C4010E94B20A811120C0A4
:102C9000E881F98142A653A664A675A64E8A5F8A8A
:102CA000688E798E8E819F81917020E032E0281BA2
:102CB000390B76012C153D0508F479014E895F89A1
:102CC000688D798D888199810E94B20A882329F0C4
:102CD0008C8180688C8381E01DC08E819F81A88556
:102CE000B9859170AA27BB278E9628813981A701C3
:102CF000B501820F931F0E94930AE881F98131E0A8
:102D0000348352CF8C8180628C8380E003C082E068
:102D100001C087E0DF91CF911F910F91FF90EF905D
:102D2000DF90CF90BF90AF909F908F907F906F90EB
:102D30005F904F903F902F9008950F931F93CF93E4
:102D4000DF93EC016A817B81888199810E94610B0C
:102D5000982F811195C08C8185FF92C04A8D5B8D23
:102D60006C8D7D8D888199810E94B20A982F811186
:102D700087C00E8D1F8DF8018385806283878A85C9
:102D80009B85AC85BD85848F958FA68FB78F8E85EB
:102D90009F85938F828F8E859F85A889B989B58BF2
:102DA000A48B0E94360AF801668B778B808F918FF7
:102DB0008C818F7D8C83E881F98181E08483099007
:102DC000D881C02D40E050E0BA01CE010E94B20A85
:102DD000982F811155C08881833009F047C08D81BB
:102DE000882309F443C01AA61BA61CA61DA6BE0173
:102DF000625D7F4FFB01CE01825D9D4FE817F907B1
:102E000011F01192FBCF85E59AEAFE01E45DFD4FDA
:102E10009183808382E592E5A1E6B1E48EA79FA726
:102E2000A8ABB9AB82E792E7A1E4B1E67A978083D9
:102E30009183A283B3838E859F85A889B9893496AF
:102E400080839183A283B3838A859B85AC85BD856E
:102E5000349680839183A283B3832A893B894C89EA
:102E60005D8901E089810E94250A1D8240E050E0D1
:102E700060E089810E94300A91E0811101C090E0F8
:102E8000892FDF91CF911F910F910895CF93DF93F9
:102E9000EC0153DF811102C019821882DF91CF91BA
:102EA00008954F925F926F927F928F929F92AF920E
:102EB000BF92CF92DF92EF92FF920F931F93CF9327
:102EC000DF9300D000D000D0CDB7DEB79E838D83D6
:102ED0006A017B01DC0112966D917C9113978D91B3
:102EE0009C910E94610B81117DC1ED81FE81248145
:102EF00027FD70C182859385A485B5858C159D05B8
:102F0000AE05BF0520F421FD02C06C017D01AD813D
:102F1000BE8116964D905D906D907C901997FD0145
:102F20001682178210861186C114D104E104F104BF
:102F300009F454C1AD81BE810D911C91F8018280CC
:102F4000912CA12CB12C39E0880C991CAA1CBB1C1B
:102F50003A95D1F7411451046104710409F440C059
:102F6000F1E04F1A510861087108C701B6016150BC
:102F7000710981099109A50194010E9428232983DF
:102F80003A834B835C83C301B201A50194010E9483
:102F9000282389819A81AB81BC8182179307A4077A
:102FA000B507F0F088279927DC0188199909AA0943
:102FB000BB09482259226A227B22AD81BE81169626
:102FC0004D925D926D927C921997C418D508E608CF
:102FD000F70852964D915D916D917C9155972EC059
:102FE000ED81FE81468557856089718941155105BE
:102FF00061057105E9F440E050E0BA01C8010E94A2
:10300000F90DAB01BC01413051056105710509F4B1
:103010009EC04F3FBFEF5B076B077B0709F462C0A1
:10302000AD81BE811E964D935D936D937C935197B8
:10303000ED81FE81428B538B648B758B411551055D
:103040006105710589F5C12CD12C760194C04230FF
:1030500051056105710508F451C0AD81BE81ED9146
:10306000FC9186899789A08DB18D481759076A0709
:103070007B0708F043C0AD81BE8152964D935D93AE
:103080006D937C935597FD0186819781A085B185CD
:10309000880D991DAA1DBB1D86839783A087B187C4
:1030A000C818D908EA08FB088C149D04AE04BF04B4
:1030B00068F5AD81BE8114962C9114978D919C91E9
:1030C00021FF17C00E94F90DAB01BC01411551054C
:1030D00061057105C9F04F3FBFEF5B076B077B07C9
:1030E00009F0B5CFED81FE8184818068848381E021
:1030F00079C00E949E0BAB01BC01EDCFED81FE813A
:1031000084818068848366C075016401ED81FE81DD
:1031100086819781A085B1858C0D9D1DAE1DBF1D3B
:1031200086839783A087B187D701C6019170AA27AC
:10313000BB27892B8A2B8B2B09F485CF808191812A
:103140000E94760B611571058105910549F4AD81E9
:10315000BE8114968C911497806814968C933AC013
:1031600029E0F694E794D794C7942A95D1F7C60E30
:10317000D71EE81EF91EED81FE8186819781A0850C
:10318000B185AC01BD01517066277727452B462BD1
:10319000472B69F046895789608D718DC416D50615
:1031A000E606F70621F0C68AD78AE08EF18EED8119
:1031B000FE814285538564857585481759076A07DE
:1031C0007B0750F482879387A487B58784818062C8
:1031D000848302C082E006C080E004C080E090E00A
:1031E000DC01E5CF26960FB6F894DEBF0FBECDBF4B
:1031F000DF91CF911F910F91FF90EF90DF90CF90D3
:10320000BF90AF909F908F907F906F905F904F9006
:103210000895982F973068F59093E900981739F042
:103220007091EC002091ED005091F00003C0242F2C
:10323000762F50E021FD02C09F5FECCF3091EB0074
:103240003E7F3093EB003091ED003D7F3093ED00F9
:103250003091EB0031603093EB007093EC002093E1
:10326000ED005093F0002091EE0027FDE5CF80E0C7
:1032700008958093E90081E0089580912A0487FFF2
:103280000FC08091E80082FD04C08EB38111F9CF98
:1032900010C08091E8008B770AC08EB3882349F074
:1032A0008091E80080FFF9CF8091E8008E778093CD
:1032B000E80008952091E4003091E50095E6409102
:1032C000EC00842F817040FF22C08091E80080FDD7
:1032D0001CC08EB3882399F0853099F08091EB0063
:1032E00085FD11C04091E4005091E5002417350799
:1032F00031F3915011F09A01E2CF84E0089582E019
:10330000089583E0089581E0089580E00895409154
:10331000E80042FFDECF08950F931F93CF93DF9312
:1033200048D04FD0C8EDD0E088818F7788838881DE
:103330008068888388818F7D8883E7EDF0E08081D5
:103340008068808319BC1EBA10922604109228044B
:103350001092270400EE10E0F80180818B7F8083BB
:1033600088818160888342E060E080E052DFE1EEA6
:10337000F0E080818E7F8083E2EEF0E080818160EA
:103380008083808188608083F80180818E7F808344
:10339000888180618883DF91CF911F910F9108957B
:1033A000E7EDF0E080818160808381E080932904F3
:1033B000B3CFE8EDF0E080818C7F80831092E20053
:1033C00008951092DA001092E10008951F920F9272
:1033D0000FB60F9211240BB60F922F933F934F937A
:1033E0005F936F937F938F939F93AF93BF93EF936D
:1033F000FF938091E10082FF0AC08091E20082FF8A
:1034000006C08091E1008B7F8093E10046D48091DB
:10341000DA0080FF1DC08091D80080FF19C0809124
:10342000DA008E7F8093DA008091D90080FF0CC093
:103430008CE089BD8EE089BD09B400FEFDCF81E03E
:103440008EBB0E94B50204C019BC1EBA0E94B8020D
:103450008091E10080FF17C08091E20080FF13C0DF
:103460008091E2008E7F8093E2008091E200806193
:103470008093E2008091D80080628093D80019BCCC
:1034800085E08EBB0AD48091E10084FF2CC080913E
:10349000E20084FF28C08CE089BD8EE089BD09B4BC
:1034A00000FEFDCF8091D8008F7D8093D800809161
:1034B000E1008F7E8093E1008091E2008F7E809317
:1034C000E2008091E20081608093E2008091260416
:1034D000811106C08091E30087FD02C081E001C038
:1034E00084E08EBBDAD38091E10083FF26C0809117
:1034F000E20083FF22C08091E100877F8093E1009A
:1035000082E08EBB109226048091E1008E7F809332
:10351000E1008091E2008E7F8093E2008091E200E2
:1035200080618093E20042E060E080E072DE8091A2
:10353000F00088608093F000B0D3FF91EF91BF91CD
:10354000AF919F918F917F916F915F914F913F913B
:103550002F910F900BBE0F900FBE0F901F901895DC
:103560001F920F920FB60F9211240BB60F92FF927B
:103570000F931F932F933F934F935F936F937F937B
:103580008F939F93AF93BF93CF93DF93EF93FF936B
:10359000C9EED0E088818770F82E188200EF10E025
:1035A000F8018081877F8083789426D21882F80181
:1035B000808188608083F882FF91EF91DF91CF91C5
:1035C000BF91AF919F918F917F916F915F914F913B
:1035D0003F912F911F910F91FF900F900BBE0F9075
:1035E0000FBE0F901F901895EF92FF920F931F93AD
:1035F000CF93DF93EC018B015DDE81112DC00115AE
:10360000110529F0F80180819181C81BD90BE12CAB
:10361000F12C209701F18091E80085FD15C0809183
:10362000E8008E778093E8000115110549F0F80154
:1036300080819181E80EF91EF182E08285E00CC064
:1036400039DE882331F308C01092F1002197FFEF93
:10365000EF1AFF0ADECF80E0DF91CF911F910F912B
:10366000FF90EF900895CF92DF92EF92FF920F9329
:103670001F93CF93DF93EC018B017A011BDE811145
:1036800032C0E114F10439F0F70180819181081B07
:10369000190BC80FD91FC12CD12C0115110511F11F
:1036A0008091E80085FD15C08091E8008E778093B9
:1036B000E800E114F10449F0F70180819181C80E1E
:1036C000D91ED182C08285E00EC0F4DD882329F3A3
:1036D0000AC089918093F10001501109FFEFCF1AC0
:1036E000DF0ADBCF80E0DF91CF911F910F91FF9038
:1036F000EF90DF90CF900895CF92DF92EF92FF92FC
:103700000F931F93CF93DF93EC018B017A01D2DDEE
:10371000811137C0C8010197C80FD91FE114F10406
:1037200039F0F70180819181081B190BC81BD90B57
:10373000C12CD12C0115110519F18091E80085FDEE
:1037400015C08091E8008E778093E800E114F104C1
:1037500049F0F70180819181C80ED91ED182C082C3
:1037600085E00FC0A7DD882329F30BC088818093F3
:10377000F100219701501109FFEFCF1ADF0ADACFCC
:1037800080E0DF91CF911F910F91FF90EF90DF903C
:10379000CF900895CF92DF92EF92FF920F931F93F5
:1037A000CF93DF93EC018B017A0184DD811132C06C
:1037B000E114F10439F0F70180819181081B190BA4
:1037C000C80FD91FC12CD12C0115110511F1809101
:1037D000E80085FD15C08091E8008B778093E800B4
:1037E000E114F10449F0F70180819181C80ED91EDE
:1037F000D182C08285E00EC05DDD882329F30AC036
:103800008091F100899301501109FFEFCF1ADF0A6F
:10381000DBCF80E0DF91CF911F910F91FF90EF9070
:10382000DF90CF9008952091300430913104261715
:10383000370748F06115710539F42091E8002E77BB
:103840002093E80001C0B901FC0120E06115710579
:1038500061F18EB38823C9F18530C9F18091E80008
:1038600083FD31C08091E80082FD27C08091E8008F
:1038700080FFECCF8091F2009091F300611571050B
:1038800051F08830910538F421912093F100615076
:1038900071090196F3CF21E0089709F020E08091AB
:1038A000E8008E778093E800D1CF2111D2CF05C0F8
:1038B0008EB3882351F0853051F08091E80082FF6B
:1038C000F7CF80E0089581E0089582E0089583E0D5
:1038D00008956115710529F42091E8002B77209354
:1038E000E800FC016115710521F18EB3882349F1CF
:1038F000853049F18091E80083FD21C08091E80086
:1039000082FFF0CF8091F2009091F300892B31F08B
:103910008091F100819361507109A1F78091E800D5
:103920008B778093E800DECF8EB3882351F085300B
:1039300051F08091E80080FFF7CF80E0089581E0AA
:10394000089582E0089583E0089520913004309135
:1039500031042617370748F06115710539F42091B5
:10396000E8002E772093E80001C0B901FC0120E0B7
:103970006115710569F18EB38823D1F18530D1F1DC
:103980008091E80083FD32C08091E80082FD28C06C
:103990008091E80080FFECCF8091F2009091F300DD
:1039A0006115710559F08830910540F424912093F8
:1039B000F1003196615071090196F2CF21E008972C
:1039C00009F020E08091E8008E778093E800D0CF66
:1039D0002111D1CF05C08EB3882351F0853051F02D
:1039E0008091E80082FFF7CF80E0089581E008959C
:1039F00082E0089583E008950F931F93CF93DF93A0
:103A0000CDB7DEB7AA970FB6F894DEBF0FBECDBF15
:103A1000EAE2F4E08091F100819324E0E233F207DE
:103A2000C9F70E94CE028091E80083FF1DC18091FA
:103A30002A0490912B04492F50E04A30510508F098
:103A400013C1FA01E45BFF4F25C6803881F082384C
:103A500009F00AC180912E0487708093E90080915B
:103A6000EB0085FB882780F91092E90006C0809161
:103A7000270490912804911182609091E800977F2B
:103A80009093E8008093F1001092F100C5C0282FB8
:103A90002D7F09F0E9C0882319F0823061F0E4C07D
:103AA00080912C04813009F0DFC0933009F080E070
:103AB000809328042BC080912C04811127C0809111
:103AC0002E04877009F4D0C08093E9002091EB00A8
:103AD00020FF1CC0933021F48091EB00806214C061
:103AE0009091EB0090619093EB0021E030E0A90110
:103AF00002C0440F551F8A95E2F74093EA001092E6
:103B0000EA008091EB0088608093EB001092E9005E
:103B10008091E800877F83C08111A6C010912C049A
:103B20001F770FB7F8948091E800877F8093E800B3
:103B3000A4DB8091E80080FFFCCF8091E3008078D7
:103B4000812B8093E30080688093E300111102C011
:103B500082E001C083E08EBB0FBF86C080588230F8
:103B600008F082C080912C0490912D048C3D53E08C
:103B7000950771F583E08A838AE289834FB7F894C9
:103B8000DE01139620E03EE051E2E32FF0E0509397
:103B90005700E49120FF03C0E295EF703F5FEF70A4
:103BA0008E2F90E0EA3010F0C79601C0C0968D933A
:103BB0009D932F5F243149F74FBF8091E800877FA5
:103BC0008093E8006AE270E0CE0101962CDE13C01B
:103BD000AE014F5F5F4F60912E040E940E03BC0147
:103BE000892B09F441C09091E800977F9093E800F9
:103BF00089819A81AADE8091E8008B778093E80022
:103C000033C0803889F58091E800877F8093E80091
:103C1000809126048093F1008091E8008E77809354
:103C2000E8002BDB21C081111FC080912C049091F2
:103C30002D0499270297C4F48091E800877F809330
:103C4000E80080912C048093260417DB80912604E1
:103C5000811106C08091E30087FD02C081E001C0B0
:103C600084E08EBB0E94BB028091E80083FF0AC003
:103C70008091EB0080628093EB008091E800877F69
:103C80008093E800AA960FB6F894DEBF0FBECDBFB2
:103C9000DF91CF911F910F9108950895CF938EB327
:103CA000882359F0C091E900C7701092E900809113
:103CB000E80083FDA1DEC093E900CF9108956F92E3
:103CC0007F928F929F92AF92BF92CF92DF92EF92AC
:103CD000FF920F931F93CF93DF9300D01F92CDB726
:103CE000DEB77C01ADB6BEB68091E80083FFF9C0B7
:103CF000F701808190E020912E0430912F04281745
:103D0000390709F0EEC080912B04833009F498C084
:103D100030F4813071F0823009F4CBC0E2C08A30D7
:103D200009F4AFC08B3009F498C0893009F0D9C0CC
:103D300049C080912A04813A09F0D3C08DB69EB65D
:103D40001A82198280912C0410912D048B83F70123
:103D50008781482F50E08DB79EB7841B950B0FB617
:103D6000F8949EBF0FBE8DBFEDB7FEB731966F01C1
:103D700060E070E0CF01C6D44FEF410F8E010F5FBE
:103D80001F4F9601BE016D5F7F4FC7010E94E40285
:103D9000F70185819681009721F0478150E0B601B7
:103DA000A8D41092E9008091E800877F8093E80012
:103DB00069817A81C60137DD8091E8008B77809335
:103DC000E80038C080912A04813209F08AC08DB69B
:103DD0009EB6009130041091310470902C046090D4
:103DE0002D048DB79EB7801B910B0FB6F8949EBF24
:103DF0000FBE8DBFEDB7FEB731966F018091E80021
:103E0000877F8093E800B801CF0163DD8091E800EF
:103E10008E778093E80021E0711001C020E030E04F
:103E2000021B130B2C0D3D1D4FEF460D672DC701D7
:103E30000E94F9020FB6F8949EBE0FBE8DBE51C00F
:103E400080912A04813A09F04CC08091E800877F74
:103E50008093E800F70180853CC080912A0481327C
:103E600009F03FC08091E800877F8093E80005DA81
:103E700090912C0481E0911101C080E0F7018087CE
:103E800030C080912A04813261F58091E800877FFB
:103E90008093E800F2D980912C0490912D0488271A
:103EA00036E0969587953A95E1F7F70192878187F5
:103EB00018C080912A04813AA1F48091E800877F9C
:103EC0008093E800F7018185928596958795969570
:103ED00087958093F1008091E8008E778093E800C9
:103EE000CCD90FB6F894BEBE0FBEADBE0F900F90EA
:103EF0000F90DF91CF911F910F91FF90EF90DF9086
:103F0000CF90BF90AF909F908F907F906F900895CB
:103F1000CF93DF93FC01DC01189685E0ED01199247
:103F20008A95E9F781E0808784EF91E09287818725
:103F30008481811102C040E001C044E0628173814C
:103F4000818128E030E090E02617370720F49F5F5A
:103F5000220F331FF9CF42609295907F492B61EC7D
:103F6000DF91CF9156C95F926F927F928F929F920D
:103F7000AF92BF92CF92DF92EF92FF920F931F9377
:103F8000CF93DF9300D01F92CDB7DEB77C01ADB6E3
:103F9000BEB68EB3843009F074C0F701818180937E
:103FA000E9008091E80085FF6CC08DB69EB6478120
:103FB00050E08DB79EB7841B950B0FB6F8949EBF4B
:103FC0000FBE8DBFEDB7FEB731966F011B821A820F
:103FD000198260E070E0CF0195D38E010F5F1F4F13
:103FE000960140E0BE016D5F7F4FC7010E94E40271
:103FF000582EF70181859285892B29F011E0838560
:104000009485892B09F010E0F701658076806114B2
:10401000710481F049815A81B301C6015DD301E089
:10402000892B09F400E0F701478150E0B601C30194
:1040300060D301C000E089819A81892BE9F0511099
:1040400004C0011102C010FF17C0F70181859285DD
:104050009487838781818093E9008B81811180938C
:10406000F10069817A8140E050E0C601FCDA80917C
:10407000E8008E778093E8000FB6F8949EBE0FBEDE
:104080008DBE0FB6F894BEBE0FBEADBE0F900F90A2
:104090000F90DF91CF911F910F91FF90EF90DF90E4
:1040A000CF90BF90AF909F908F907F906F905F90D8
:1040B0000895CF93DF932091E80023FF34C0FC01E3
:1040C000208130E040912E0450912F044217530775
:1040D00051F520912B042E3F81F02F3F21F52091A7
:1040E0002A04213201F5EC018091E800877F80935A
:1040F000E800C3D881E08EAB16C020912A04213A93
:1041000091F42091E800277F2093E800FC0181854D
:1041100081508093F1008091E8008E778093E800D1
:10412000DF91CF91AAC8DF91CF9108951F93CF93CC
:10413000DF93EC01FC013A968DE2DF011D928A9536
:10414000E9F711E08981811305C06A817B818C8147
:1041500090E80CC08D81811729F01F5F173091F70F
:1041600081E01DC06E817F81888590E0811184E0AF
:1041700028E030E040E02617370720F44F5F220F99
:10418000331FF9CF4295407F8260482B61E0911147
:1041900001C060E06068812F3CD88111DECFDF91E3
:1041A000CF911F910895EF92FF920F931F93CF939A
:1041B000DF9300D0CDB7DEB72EB3243009F0F7C0BF
:1041C0008C01FC0185818093E9008091E80085FFE6
:1041D000B8C085818093E9001A8219827801FAE0DB
:1041E000EF0EF11CAE014F5F5F4F6FE070E0C70153
:1041F000D1DAF801853021F486A9882399F3A1C08A
:1042000082859385A485B58585359345A244B344BD
:1042100061F4F80197898185981738F486898F7140
:1042200021F4808D8150803178F08091EB008062A4
:104230008093EB00F80181818093E9008091EB008D
:1042400080628093EB007DC01A8219827801F9E1C7
:10425000EF0EF11CF801608D70E0AE014F5F5F4F13
:10426000C70198DA853029F4F80186A9882391F3EB
:1042700068C08091E8008B778093E800F801868918
:1042800087FF03C081818093E900C8010E94D602A4
:1042900091E09827F80195AB45E553E562E473E5B5
:1042A00041A752A763A774A746855785608971897E
:1042B00045A756A767A770AB42895389648975895A
:1042C00041AB52AB63AB74AB811109C0452B462B9C
:1042D000472B29F08091EB0080628093EB00F8017E
:1042E00085818093E9008091EB00F80185FF04C08F
:1042F00086A98823C1F325C081818093E90080913C
:10430000EB0085FF05C0F80186A98823C1F319C019
:104310001A8219827801F9E2EF0EF11CAE014F5FAB
:104320005F4F6DE070E0C7019ED9853029F4F80138
:1043300086A9882399F305C08091E8008E77809341
:10434000E800F80186A9882391F181E090E09C01C2
:10435000058002C0220F331F0A94E2F72093EA007F
:104360001092EA00018002C0880F991F0A94E2F7B8
:104370008093EA001092EA0085818093E9008091A1
:10438000EB0080618093EB008091EB00886080936C
:10439000EB0081818093E9008091EB008061809344
:1043A000EB008091EB0088608093EB0016AA0F90E1
:1043B0000F90DF91CF911F910F91FF90EF90089593
:1043C00080E480937C0080917A00806480937A00FE
:1043D00080917A0084FFFCCF80917A008061809385
:1043E0007A004091780050917900E5E6F1E08591FE
:1043F000949184179507A0F025E631E080E090E0E5
:10440000F901659174916417750710F48551089549
:1044100001962E5F3F4F8837910591F782E6089508
:104420008BEE089594EA9093BC0024E6629FB0015D
:104430001124615071099B0140E054EA2F3F9FEF26
:10444000390731F141111DC09091BC0097FF12C096
:104450009091B900987F903161F0983339F098309D
:1044600041F084E08093BC0081E008955093BC004B
:1044700005C041E09AE19A95F1F700C02150310959
:10448000DDCF232B29F484E08093BC0082E00895E3
:104490008093BB0084E88093BC006F3F8FEF780768
:1044A00071F02091BC00CB01019727FD06C02AE1E5
:1044B0002A95F1F700C0BC01F0CF672B61F0809125
:1044C000B900887F883149F0803439F084E98093DD
:1044D000BC0084E0089583E0089580E0089580930F
:1044E000BB0084E88093BC008091BC0087FFFCCFB8
:1044F0009091B900987F81E0983209F080E00895AA
:10450000FC01611102C094EC01C094E89093BC00DE
:104510008091BC0087FFFCCF8091BB00808390918D
:10452000B900987F81E0662319F0983519F403C02B
:10453000903509F080E008959F92AF92BF92CF929C
:10454000DF92EF92FF920F931F93CF93DF93F82E9A
:10455000B62E942EA52EC22F8E7F64DFD82F811108
:1045600028C0C92CDA2CCC2339F0F60181916F01D7
:10457000B6DFC1508111F7CF6B2D8F2D816052DFD7
:10458000D82F811116C0CFEFCE0DCF3F79F0780133
:10459000FFEFEF1AFF0A61E0C11160E0C801B0DF70
:1045A000C150882311F08701F0CFD5E084E98093D2
:1045B000BC008D2FDF91CF911F910F91FF90EF9055
:1045C000DF90CF90BF90AF909F900895BF92CF9211
:1045D000DF92EF92FF920F931F93CF93DF93B42E4E
:1045E000F52EC22F8E7F1EDFD82F81111AC0CB2C43
:1045F000DF2CCC2341F0F60181916F0170DFC150B7
:104600008111F7CFD5E06801EE2041F0F6018191EC
:104610006F0165DFEA948111F7CFD5E084E98093DB
:10462000BC008D2FDF91CF911F910F91FF90EF90E4
:10463000DF90CF90BF900895991B79E004C0991F37
:10464000961708F0961B881F7A95C9F780950895EC
:10465000A1E21A2EAA1BBB1BFD010DC0AA1FBB1F86
:10466000EE1FFF1FA217B307E407F50720F0A21BF8
:10467000B30BE40BF50B661F771F881F991F1A9465
:1046800069F760957095809590959B01AC01BD018F
:10469000CF010895EE0FFF1F0024001C0BBE0790F2
:1046A000F691E02D099409D0A59F900DB49F900D2F
:1046B000A49F800D911D11240895A29FB001B39F66
:1046C000C001A39F700D811D1124911DB29F700D1B
:1046D000811D1124911D0895FB01DC0104C08D9101
:1046E0000190801921F441505040C8F7881B990B64
:1046F0000895FB01DC0102C001900D924150504031
:10470000D8F70895DC0101C06D9341505040E0F7A7
:1047100008950F931F93CF93DF93CDB7DEB72E97F6
:104720000FB6F894DEBF0FBECDBF0D891E8986E09F
:104730008C831A8309838FEF9FE79E838D83AE015D
:10474000475E5F4F6F89788DCE01019610D0EF8163
:10475000F885E00FF11F10822E960FB6F894DEBF99
:104760000FBECDBFDF91CF911F910F9108952F9272
:104770003F924F925F926F927F928F929F92AF92F1
:10478000BF92CF92DF92EF92FF920F931F93CF933E
:10479000DF93CDB7DEB72B970FB6F894DEBF0FBE11
:1047A000CDBF6C017B018A01FC01178216828381D7
:1047B00081FFBFC1CE0101963C01F6019381F70153
:1047C00093FD859193FF81917F01882309F4ADC109
:1047D000853239F493FD859193FF81917F01853274
:1047E00021F4B60190E0D6D1E8CF912C212C312CC8
:1047F000FFE1F315D8F08B3279F038F4803279F09C
:104800008332A1F4232D20611DC08D3261F08033ED
:1048100069F4232D216016C0832D8260382EE32D8C
:10482000E4603E2E2AC0F32DF8601DC037FC2DC079
:1048300020ED280F2A3040F08E32B9F436FC75C1D5
:10484000232D2064322E19C036FE06C08AE0989EC1
:10485000200D1124922E11C0EAE02E9E200D11246D
:10486000222EF32DF0623F2E08C08C3621F4832DCA
:104870008068382E02C0883641F4F70193FD859197
:1048800093FF81917F018111B3CF982F9F7D955424
:10489000933028F40C5F1F4F9FE399830DC083363C
:1048A00031F0833771F0833509F055C020C0F8012D
:1048B000808189830E5F1F4F88248394912C53013C
:1048C00012C02801F2E04F0E511CF801A080B18007
:1048D00036FE03C0692D70E002C06FEF7FEFC501A7
:1048E0004ED14C018201F32DFF773F2E15C02801D8
:1048F00022E0420E511CF801A080B18036FE03C0B8
:10490000692D70E002C06FEF7FEFC5012DD14C0122
:10491000F32DF0683F2E820133FC19C0822D90E008
:1049200088169906A0F4B60180E290E033D12A946B
:10493000F5CFF50137FC859137FE81915F01B60116
:1049400090E028D121102A9421E0821A9108811444
:10495000910479F7E1C0843611F0893639F5F80110
:1049600037FE07C060817181828193810C5F1F4F88
:1049700008C060817181072E000C880B990B0E5FB7
:104980001F4FF32DFF763F2E97FF09C0909580951E
:10499000709561957F4F8F4F9F4FF0683F2E2AE0B3
:1049A00030E0A30133D1882E861844C0853731F416
:1049B000232D2F7EB22E2AE030E025C0932D997F43
:1049C000B92E8F36C1F018F4883579F0AEC0803733
:1049D00019F0883721F0A9C0E92FE061BE2EB4FE9E
:1049E0000DC0FB2DF460BF2E09C034FE0AC0292F74
:1049F0002660B22E06C028E030E005C020E130E09D
:104A000002C020E132E0F801B7FE07C06081718189
:104A1000828193810C5F1F4F06C06081718180E0AD
:104A200090E00E5F1F4FA301F1D0882E8618FB2D5A
:104A3000FF773F2E36FE0DC0232D2E7FA22E891428
:104A400058F434FE0BC032FC09C0832D8E7EA82E94
:104A500005C0B82CA32C03C0B82C01C0B92CA4FEEF
:104A60000FC0FE01E80DF11D8081803321F49A2DE5
:104A7000997EA92E09C0A2FE06C0B394B39404C0C7
:104A80008A2D867809F0B394A3FC10C0A0FE06C05E
:104A9000B21480F4280C922C9B180DC0B21458F458
:104AA000B60180E290E076D0B394F8CFB21418F457
:104AB0002B1802C0982C212CA4FE0FC0B60180E355
:104AC00090E068D0A2FE16C0A1FC03C088E790E089
:104AD00002C088E590E0B6010CC08A2D867851F0BE
:104AE000A1FE02C08BE201C080E2A7FC8DE2B6010C
:104AF00090E050D0891430F4B60180E390E04AD0C1
:104B00009A94F8CF8A94F301E80DF11D8081B601E3
:104B100090E040D08110F6CF222009F44ECEB601AD
:104B200080E290E037D02A94F7CFF6018681978112
:104B300002C08FEF9FEF2B960FB6F894DEBF0FBE2B
:104B4000CDBFDF91CF911F910F91FF90EF90DF903C
:104B5000CF90BF90AF909F908F907F906F905F901D
:104B60004F903F902F900895FC0105906150704048
:104B70000110D8F7809590958E0F9F1F0895FC0126
:104B80006150704001900110D8F7809590958E0F7C
:104B90009F1F08950F931F93CF93DF93FB012381F2
:104BA00021FD03C08FEF9FEF2CC022FF16C046816E
:104BB0005781248135814217530744F4A081B18184
:104BC0009D012F5F3F4F318320838C932681378156
:104BD0002F5F3F4F3783268314C08B01EC01FB010D
:104BE0000084F185E02D0995892BE1F6D801169610
:104BF0008D919C911797019617969C938E9316977B
:104C0000CE01DF91CF911F910F910895FA01AA274C
:104C1000283051F1203181F1E8946F936E7F6E5FFF
:104C20007F4F8F4F9F4FAF4FB1E03ED0B4E03CD0AD
:104C3000670F781F891F9A1FA11D680F791F8A1F90
:104C4000911DA11D6A0F711D811D911DA11D20D0F7
:104C500009F468943F912AE0269F11243019305DB1
:104C60003193DEF6CF010895462F4770405D4193A2
:104C7000B3E00FD0C9F7F6CF462F4F70405D4A33EF
:104C800018F0495D31FD4052419302D0A9F7EACFB7
:104C9000B4E0A6959795879577956795BA95C9F7E6
:104CA00000976105710508959B01AC010A2E0694D9
:104CB0005795479537952795BA95C9F7620F731F92
:104CC000841F951FA01D0895F999FECF92BD81BD47
:104CD000F89A992780B50895262FF999FECF92BDAD
:104CE00081BDF89A019700B4021639F01FBA20BDB1
:104CF0000FB6F894FA9AF99A0FBE0895F894FFCF78
:104D000001011000001B0407000000000000034028
:104D1000000004400000010000000000000000004E
:104D20000000000000000000000000000000000083
:104D30000000000000000000000000000000000073
:104D400000000000700000000000000A00000000E9
:104D5000000000000000008000021F0000004C5511
:104D600046410000000044617461666C6173682014
:104D70004469736B0000302E3030253032642F25AB
:104D80003032642F3230253032642C2025303264AA
:104D90003A253032643A253032642C202564204490
:104DA0006567726565730D0A0025303264253032FF
:104DB00064253032642E63737600222A2B2C3A3B12
:0A4DC0003C3D3E3F5B5D7C7F000040
:00000001FF
