:1000000029C1000045C1000043C1000041C10000FA
:100010003FC100003DC100003BC1000039C10000EC
:1000200037C1000035C10000D9C5000031C1000052
:100030002FC100002DC100002BC1000029C100000C
:1000400027C1000025C1000023C1000021C100001C
:100050001FC100001DC100001BC1000019C100002C
:1000600017C1000015C1000013C1000011C100003C
:100070000FC100000DC100000BC1000009C100004C
:1000800007C1000005C1000003C1000001C100005C
:10009000FFC00000FDC00000B303A404D103DB03D4
:1000A00006042E0439044A0466048D041B5B3331B4
:1000B0006D44657620456E756D204572726F720DC8
:1000C0000A202D2D204572726F7220436F646520C7
:1000D00025640D0A202D2D20537562204572726F04
:1000E0007220436F64652025640D0A202D2D204960
:1000F0006E2053746174652025640D0A1B5B3337D1
:100100006D001B5B33316D486F7374204D6F6465F8
:10011000204572726F720D0A202D2D204572726F6C
:100120007220436F64652025640D0A1B5B33376DB5
:10013000004A6F79737469636B20456E756D6572E3
:10014000617465642E0D0A004572726F72205365EA
:100150007474696E67205265706F72742050726F8C
:10016000746F636F6C204D6F6465206F72204E6FEB
:100170007420612056616C6964204A6F79737469D8
:10018000636B2E0D0A004572726F72205365747492
:10019000696E672044657669636520436F6E6669A2
:1001A0006775726174696F6E2E0D0A004174746117
:1001B0006368656420446576696365204E6F7420CA
:1001C000612056616C6964204A6F79737469636B4E
:1001D0002E0D0A004572726F722052657472696545
:1001E00076696E6720436F6E6669677572617469C0
:1001F0006F6E2044657363726970746F722E0D0A9E
:10020000000D0A44657669636520556E61747461FA
:10021000636865642E0D0A00446576696365204154
:10022000747461636865642E0D0A001B5B33366D60
:100230004A6F79737469636B20486F7374204465E7
:100240006D6F2072756E6E696E672E0D0A1B5B33C3
:10025000376D000011241FBECFEFD0E2DEBFCDBF4F
:1002600011E0A0E0B1E0E2EFF3E200E00BBF02C07A
:1002700007900D92A432B107D9F725E0A4E2B1E0CE
:1002800001C01D92AF31B207E1F7FFD00C94F71116
:10029000B7CE9BB19F70892B8BB9089584B7877FA8
:1002A00084BF0FB6F894A895809160008861809310
:1002B0006000109260000FBE90E080E80FB6F894E6
:1002C00080936100909361000FBE83E390E0909370
:1002D000CD008093CC0086E08093CA001092C800C5
:1002E00088E18093C900539A5A9A8AB1806F8AB97B
:1002F0008BB18F708BB95CD4A9E1B5E0EBE0F5E090
:100300001196FC93EE931396FC93EE9312978EE066
:10031000DF011D928A95E9F783E083838EEC9EE0EE
:100320009187808787ED9EE09387828708955F920B
:100330006F927F928F929F92AF92BF92CF92DF92F5
:10034000EF92FF920F931F93CF93DF93CDB7DEB75A
:10035000CDB6DEB680910A058B3009F081C080E011
:1003600091E00E94180E882309F47AC0ADB6BEB69B
:10037000809112012DB73EB7281B31090FB6F894B2
:100380003EBF0FBE2DBF8DB79EB701967C01BC014D
:1003900080E091E00E94D50D612C712C9AE2592EDB
:1003A00020E1822E912C80912401681608F051C022
:1003B000569C80011124B8016B5D7E4FC7010E94DD
:1003C0002C0C882309F443C0F801EC5DFE4F8285B4
:1003D00093858930910571F48381811138C083A19F
:1003E00094A1A5A1B6A1892B8A2B8B2B81F180EF3B
:1003F000782E2DC0019759F524853585C901C09700
:10040000029728F58381811122C08185A401481BB0
:10041000510983A194A1A5A1B6A104C0880F991F79
:10042000AA1FBB1F4A95D2F7009789F020333105E8
:1004300039F41816190614F080E208C080E106C0ED
:100440001816190614F080E401C080E8782A639435
:10045000AACF872D1EDF0FB6F894BEBE0FBEADBE6D
:100460000FB6F894DEBE0FBECDBEDF91CF911F91C7
:100470000F91FF90EF90DF90CF90BF90AF909F9043
:100480008F907F906F905F90089508DF8BE292E0ED
:100490000E94190F80E1FDDE789449DF6ED6FDCF12
:1004A00088E192E00E94190F80EAF3CE81E092E0A9
:1004B0000E94190F80E1EDCECF93DF93CDB7DEB769
:1004C000C250D2400FB6F894DEBF0FBECDBF80EA57
:1004D000E0DE20E032E0AE014F5F5F4FBE016F5FB4
:1004E0007D4F81E07BD4882319F084ED91E018C022
:1004F000CF5FDD4F68817981C150D240AE014F5F3F
:100500005F4F80E091E00E94DC0C882319F08CEAB8
:1005100091E006C081E00AD6882331F086E891E0B8
:100520000E94190F80E914C080E091E00E94330E10
:10053000882349F088E491E00E94190F80E9A9DE40
:1005400080E0F4D506C081E391E00E94190F80E6B7
:10055000A0DECE5FDD4F0FB6F894DEBF0FBECDBF7D
:10056000DF91CF910895C82FBBD21F92CF9382E025
:1005700091E09F938F930E94F20E80E98ADE0F90A4
:100580000F900F900F90FFCF90910A051F929F93AD
:100590001F926F931F928F938CEA90E09F938F939B
:1005A0000E94F20E8DB79EB708960FB6F8949EBFC4
:1005B0000FBE8DBF80E96DCEDC011696ED91FC91EA
:1005C00017973097B1F0218132812130310529F41C
:1005D000238134812430310521F00580F681E02D1E
:1005E000F0CFFC0121853285277F81E02130310564
:1005F00009F080E0089580919E0081709091A000A4
:100600009D7F9093A00090919E00926090939E0099
:1006100090919E0091FDFCCF90919E0091609093EF
:100620009E00109200059091A00090722091A00071
:100630002F7D2093A00020919F002F7D20939F006D
:100640002AE030919F0035FF0BC020919F002F7D45
:1006500020939F0020919F002D7F20939F0008C032
:10066000EFECF7E03197F1F700C00000215049F7B7
:10067000992329F09091A00090629093A00081119D
:1006800005C080919E008E7F80939E008091A00087
:1006900082608093A000089520919E002170909127
:1006A000A00090723091A0003F7D3093A000309167
:1006B0009F003F7D30939F0030919E0031603093CA
:1006C0009E00882339F130919F0035FF06C030919C
:1006D0009F003F7D30939F00815030910A0531305B
:1006E000C1F03091A60034FF09C01092F50080914E
:1006F000A6008F7E8093A60082E00CC03091A600F9
:1007000031FFDFCF8091A6008D7F8093A60083E02C
:1007100001C081E0211105C020919E002E7F209311
:100720009E00992329F09091A00090629093A000E0
:100730000895EF920F931F93CF93DF93CDB7DEB75A
:1007400028970FB6F894DEBF0FBECDBFE0910A0523
:100750008E2F90E08A30910508F0F6C0FC01E45B32
:10076000FF4F0C94E90E0091FE041091FF04011557
:10077000110509F4E9C081E08FDF882331F0909101
:10078000FD0490930A0591E0D1C001501109109326
:10079000FF040093FE04012B09F0D6C08091FD04F4
:1007A00007C088EE93E09093FF048093FE0483E0FB
:1007B00080930A05C9C08091FE049091FF049C01BA
:1007C000215031093093FF042093FE04892B39F026
:1007D0008FEC97E00197F1F700C00000B5C0779863
:1007E0008091D80080618093D8008091DD008B7F5C
:1007F0008093DD008091D70080618093D700809145
:10080000DD0082608093DD0084E0D2CF80919F0084
:1008100080FF9AC080919F008E7F80939F0080917F
:100820009F008D7F80939F008091DF008D7F80935C
:10083000DF008091DE0082608093DE0080919E0068
:10084000816080939E00E8D010920A0584E690E0D3
:100850009093FF048093FE0485E05CC0CCDE109290
:100860000A0588EC90E09093FF048093FE0486E0F4
:1008700051C0E12C00E410E020E040E060E080E0C6
:100880006FD08091AC0087FD03C080E094E04EC043
:1008900087E08ECF88E0E4E1F1E0A2E0B5E00190EE
:1008A0000D928A95E1F7CE0101964AD381113DC0A0
:1008B0008885809313019FDE10920A0588EC90E0F2
:1008C0009093FF048093FE0488E024C000911301FC
:1008D00010E0E12C20E040E060E080E041D0809139
:1008E000AC0087FFD2CF88E0ECE1F1E0A2E0B5E018
:1008F00001900D928A95E1F780E090E021D381117B
:1009000014C010920A0584E690E09093FF0480934F
:10091000FE0489E08093FD0417C081E08093A1006C
:100920008AE080930A05C8DD0FC093E020910A0594
:10093000213051F0682F892F27DE8091DD00816002
:100940008093DD00B3DDE4D028960FB6F894DEBFC7
:100950000FBECDBFDF91CF911F910F91EF90089502
:10096000EF920F931F932F70422B90E4699FB00179
:100970001124642B382F2E2D2260373008F045C00B
:100980003093A700381313C048E050E090E04017C0
:10099000510738F09295907F922BE62F50E070E04F
:1009A0000EC09530B9F39F5F440F551FF0CFE09113
:1009B000AA009091AB007091AD005091AE0091FDF6
:1009C00002C03F5FDACF4091A9004E7F4093A9005B
:1009D0004091AB004D7F4093AB004091A900416036
:1009E0004093A900E093AA009093AB007093AD00F0
:1009F0005093AE009091A90090629093A9009091BD
:100A0000AC0097FDDECF80E003C08093A70081E0BB
:100A10001F910F91EF9008951092F80080E080935D
:100A2000A7001092AE001092A6001092AB00909119
:100A3000A9009E7F9093A9008F5F873081F708956A
:100A40003091A700377090E09093A7002091AC0000
:100A500027FF0FC02091AA00422F4F702091AA00BB
:100A60002073203111F020E001C020E8242B8217F0
:100A700039F09F5F973041F73093A70080E00895E9
:100A800081E008954091A2005091A30085E69091E5
:100A9000AA009073903129F49091A60090FF05C0B0
:100AA00019C09091A60092FD15C09091A60091FDED
:100AB00013C090910A05913089F02091A2003091E5
:100AC000A3004217530719F3815011F0A901DFCF9A
:100AD00083E0089580E0089581E0089582E008951C
:100AE00070D077D0E0EEF0E0808181608083E8ED27
:100AF000F0E080818F77808319BCA7EDB0E08C9106
:100B00008E7F8C9380818F7E808310920105089563
:100B100058D05FD08091D8008F778093D800809193
:100B2000D80080688093D8008091D8008F7D809312
:100B3000D8008091D7008F778093D7008CE089BD53
:100B40008EE089BD09B400FEFDCF81E080930A05E7
:100B50001092000580E4809313018091D800806496
:100B60008093D8008091DD0081608093DD008091CA
:100B7000DD0084608093DD008091D7008F7E8093BC
:100B8000D7006F9A779A8091DE0081608093DE00B3
:100B90008091DE0084608093DE008091E0008E7F93
:100BA0008093E0008091D80080618093D800089500
:100BB000E7EDF0E080818160808381E08093010532
:100BC000A7CFE8EDF0E080818C7F80831092A000B9
:100BD00008951092DA0010929F0008951F920F92CC
:100BE0000FB60F9211240BB60F922F933F934F9392
:100BF0005F936F937F938F939F93AF93BF93EF9385
:100C0000FF9380919F0085FF0AC08091A00085FF1F
:100C100006C080919F008F7D80939F006AD1809154
:100C20009F0081FF15C08091A00081FF11C08091BD
:100C30009F008D7F80939F0080919F008E7F809387
:100C40009F008091A0008D7F8093A0002FDC60DF4B
:100C50008091DF0081FF15C08091DE0081FF11C00F
:100C60008091DF008D7F8093DF0077988091DD0099
:100C700081608093DD0080E076DC18DC81E0809389
:100C80000A058091DF0080FF17C08091DE0080FFA1
:100C900013C08091DF008E7F8093DF008091DE00A3
:100CA0008E7F8093DE00FCDB8091A00082608093C9
:100CB000A00082E080930A058091DF0082FF0EC0D1
:100CC0008091DE0082FF0AC08091DF008B7F8093DD
:100CD000DF0060E082E058DCE9DB1ADFFF91EF9192
:100CE000BF91AF919F918F917F916F915F914F9144
:100CF0003F912F910F900BBE0F900FBE0F901F9042
:100D00001895CF92DF92EF92FF920F931F93CF939C
:100D1000DF93EC018B017A018091AA008F7C8061C6
:100D20008093AA00AFDE811132C0E114F10439F0E2
:100D3000F70180819181081B190BC80FD91FC12CA5
:100D4000D12C0115110511F18091A60085FD15C06A
:100D50008091A6008E778093A600E114F10449F0FB
:100D6000F70180819181C80ED91ED182C08284E0B2
:100D70000EC088DE882329F30AC08091AF008993D2
:100D800001501109FFEFCF1ADF0ADBCF80E0DF91BE
:100D9000CF911F910F91FF90EF90DF90CF9008952A
:100DA000CF93DF93DC01EB01E881F98120818D9104
:100DB0009C91119730E08217930708F49C01E20F91
:100DC000F31FEB01F983E8838D919C911197821BAE
:100DD000930B8D939C93DF91CF910895CF92DF92E7
:100DE000EF92FF920F931F93CF93DF93CDB7DEB7B0
:100DF00029970FB6F894DEBF0FBECDBF6B018A01F5
:100E0000790190E89093020596E09093030590E0B5
:100E10000197926090930505809304051092070551
:100E20001092060589E090E09093090580930805EB
:100E30001092A700CE01019683D0811119C08B8139
:100E40009C81F60191838083E816F90670F09093F7
:100E5000090580930805C80173D0811109C0F80104
:100E60008181823021F480E003C085E001C086E00A
:100E700029960FB6F894DEBF0FBECDBFDF91CF919C
:100E80001F910F91FF90EF90DF90CF900895AF9258
:100E9000BF92CF92DF92EF92FF920F931F93CF9367
:100EA000DF938C01EB016A01F801E080F180E1142D
:100EB000F10499F0A880B980BE01C80171DF888172
:100EC0009981F6010995823079F3813039F4B9823C
:100ED000A882F801F182E08201C082E0DF91CF9127
:100EE0001F910F91FF90EF90DF90CF90BF90AF9048
:100EF000089508951F93CF93DF93182FC9EED3E081
:100F000011110CC08091A60083FD15C081E0C4DBE7
:100F1000811112C02197A1F784E00EC0113029F48D
:100F20008091A60080FFF2CF06C0123079F7809141
:100F3000A60082FFEBCF80E0DF91CF911F91089553
:100F4000FF920F931F93CF93DF938C0180919E00AC
:100F50008170F82EC0910805D091090580919E00FE
:100F6000816080939E0081E097DB8111C8C08091F1
:100F7000AA008F7C8093AA001092F5008091A600B1
:100F80008F7E8093A6008091A9008F7B8093A9001B
:100F9000E2E0F5E08AE095E021912093AF008E1722
:100FA0009F07D1F78091A60087778093A60080E005
:100FB000A1DF8111A4C08091A90080648093A90061
:100FC00081E06ADB81119BC08091020587FF4EC0E2
:100FD0008091AA008F7C80618093AA000115110581
:100FE00009F03AC08091AA008F7C80628093AA00A9
:100FF0008091A9008F7B8093A90082E07BDF811123
:101000007EC08091A6008B778093A60082E072DF7D
:1010100076C08091A9008F7B8093A90081E06ADF70
:1010200081116DC08091F6009091F700892B11F429
:10103000C0E0D0E0F8018F018091F6009091F700B8
:10104000892B69F48091A90080648093A900809124
:10105000A6008E778093A6002097D9F6C3CF20975D
:1010600089F38091AF0081932197E5CF0115110598
:1010700091F18091AA008F7C80628093AA00809178
:10108000A9008F7B8093A90082E02097E1F032DFF6
:10109000811135C02091F6003091F7008091130145
:1010A00090E02817390748F40F5F1F4FF801319778
:1010B00080818093AF00219769F78091A6008B779C
:1010C0008093A600E1CF16DF811119C08091A9009D
:1010D00080648093A9008091AA008F7C80618093B6
:1010E000AA008091A9008F7B8093A90081E002DF94
:1010F000811105C09091A6009E779093A6009091D3
:10110000A90090649093A900F11005C090919E00F1
:101110009E7F90939E0091E09093A8001092A8006B
:10112000DF91CF911F910F91FF900895CF93C82F1A
:101130001092020589E0809303058C2F90E0909334
:10114000050580930405109207051092060510927C
:101150000905109208051092A70080E090E0F0DEEB
:10116000811109C0C0930005C11102C09AE001C0FD
:101170009BE090930A05CF9108951F93CF93DF933F
:10118000C7EAD0E0188117701882D3DA1883DF918C
:10119000CF911F9108952F923F924F925F926F923D
:1011A0007F928F929F92AF92BF92CF92DF92EF92F7
:1011B000FF920F931F93CF93DF93CDB7DEB7CC5839
:1011C000D1090FB6F894DEBF0FBECDBF6C01E79614
:1011D0007FAF6EAFE7971A019A0120573C4FE9960F
:1011E0003FAF2EAFE99789ED93E0DA01FC011D9244
:1011F0003197E9F7FE0131968CE1DF011D928A9566
:10120000E9F787E0D9011D928A95E9F72150310964
:10121000C158DF4F39832883CF57D04081E0D901AF
:101220008C93ED961CAE1DAE1EAE1FAEED97412CFD
:10123000512C320100E0E5961FAE1EAEE5977F010E
:10124000FA01EA52FC4FCF57DF4FF983E883C158C8
:10125000D04027503109C757DF4F39832883C958F9
:10126000D04048525C4FCD57DF4F59834883C35815
:10127000D040C557DF4FB983A883CB58D040E796FD
:101280002EAD3FADE797232B09F4B9C2D601BC912F
:10129000EF96BFAFEF978B2F8370823049F1833089
:1012A00099F08130C9F1EFEFCE1ADE0AE7962EAD44
:1012B0003FADE79721503109E7963FAF2EAFE79753
:1012C000812C912C54013AC0D60111968D909D909D
:1012D000AD90BC901497E796EEADFFADE7973597CC
:1012E000E796FFAFEEAFE797F5E0CF0ED11C26C033
:1012F000D60111968D909C901297A12CB12CE79657
:10130000EEADFFADE7973397E796FFAFEEAFE79708
:10131000F3E0CF0ED11C12C0D60111968C90912C07
:10132000A12CB12CE796EEADFFADE7973297E7968B
:10133000FFAFEEAFE797F2E0CF0ED11CEF961FADF7
:10134000EF971C7F143609F49DC088F5143209F418
:1013500083C0B0F4183009F4FFC048F4143009F029
:101360003DC2D70112969C928E92119737C21431CA
:1013700009F46CC0183109F031C2240135012EC2C4
:10138000143309F471C050F4183209F027C2ED96F5
:101390008CAE9DAEAEAEBFAEED9720C2143409F454
:1013A00069C0143509F01AC2F701818617C21439D1
:1013B00009F470C078F41038E1F030F4143709F013
:1013C0000DC2F70180820AC2143809F467C01039CF
:1013D00081F004C2103B69F030F4103A09F4CAC03D
:1013E000143AC9F0FBC1143B39F1103C09F42AC18D
:1013F000F5C1EE961FAEEE97A5019401217033273B
:1014000044275527CB57DF4F288339834A835B8393
:10141000C558D04047C1CE014D96E816F90609F4EB
:10142000F4C1C7014C962AE2F701DC0101900D924C
:101430002A95E1F77C01D2C1CE0101968E159F0558
:1014400009F4E5C13CE1E31AF108C8C1F70182865D
:101450009386A486B586C2C1D7011E968D929D92B1
:10146000AD92BC925197BAC1F701828A938AA48A3D
:10147000B58AB4C1D70156968D929D92AD92BC9219
:101480005997ACC1D70115968D929D92AD92BC92A1
:101490001897A4C1D7015A968C92A0C1982DF70134
:1014A000838ECD57DF4FA881B981C358D0408C912E
:1014B000882309F441C0C557DF4FE881F981CB5833
:1014C000D0408081F101E057FC4F20E030E0281748
:1014D000B8F4A90160812F5F3F4F37969613F7CF7D
:1014E00027E0249FC001259F900D112480579C4F19
:1014F0009101280F391FE9963FAF2EAFE9971CC025
:101500008A3009F48EC191E0980FC158DF4FA8814D
:10151000B981CF57D0409C9397E09101989F200DBF
:10152000311D1124F901E057FC4FE996FFAFEEAFF2
:10153000E99711929A95E9F781E0CD57DF4FA8819D
:10154000B981C358D0408C93F701838DE996AEAD35
:10155000BFADE9978C9342C1083009F45AC1FE012E
:10156000ED59FF4FE00FF11DE00FF11D91828082D8
:101570000F5F34C1E596EEADFFADE597EF2B41F47B
:101580009101275B3C4FE5963FAF2EAFE5971DC01D
:10159000F101E05BFC4F85819681892B61F0C75793
:1015A000DF4F48815981C958D040E417F50709F445
:1015B00032C13796F0CFE5968EAD9FADE597968315
:1015C0008583E596FFAFEEAFE597E596AEADBFAD8F
:1015D000E5978C92F7018181928112969C938E936C
:1015E00011970023A9F0A5968EAD9FADA5971496EF
:1015F0009C938E931397FE01ED59FF4F80E022815B
:101600003381219331938F5F0813F9CF0150E6C0E6
:10161000ED962CAD3DAD4EAD5FADED972415350586
:101620004605570508F4DAC0E596AEADBFADE597BF
:1016300014965C924E921397BFEF4B1A5B0A6B0A9B
:101640007B0ACCC0E596EEADFFADE597309709F487
:10165000E4C025813681E5963FAF2EAFE597BEC049
:10166000D101EAE2E89FA00DB11D11241196FE01FF
:10167000F9968AE201900D928A95E1F7CB57DF4FF8
:10168000288139814A815B81C558D040232B242B86
:10169000252B09F497C0EE96BFADEE97BF5FEE968F
:1016A000BFAFEE97F701828DEE96FFADEE97F8177C
:1016B00008F094C08AE1F701DE01AF5BBF4F0190F3
:1016C0000D928A95E1F79DAE8CAEE5964EAD5FAD7D
:1016D000E59721965FAF4EAF2197D7015B968C912E
:1016E0008EAF0023A9F0A5968EAD9FADA597269647
:1016F0009FAF8EAF2697FE01ED59FF4F80E022810C
:101700003381219331938F5F0813F9CF015014C0B7
:10171000ED962CAD3DAD4EAD5FADED972415350585
:101720004605570548F026965FAE4EAE26973FEF2A
:10173000431A530A630A730A103811F41BAE07C028
:10174000103919F441E04BAF02C052E05BAF8BADF2
:10175000E996EEADFFADE997E80FF11DE80FF11D39
:10176000818192819AAF89AFD7012C918181928139
:10177000820F911D928381838BADE996EEADFFAD13
:10178000E997E80FF11DE80FF11DCF57DF4FA88152
:10179000B981C158D0402D913C91818192818217AD
:1017A000930708F4C901CF57DF4FE881F981C15889
:1017B000D04091838083D1018C91843109F050CF46
:1017C00083E030C0CE01C9960E94DC02882309F470
:1017D00062CFD1018C918F5F8C935DCFEF968FADEF
:1017E000EF978C7009F04BCDED961CAE1DAE1EAE82
:1017F0001FAEED97412C512C320100E040CDD101BC
:101800008C91882361F080E00DC081E00BC082E004
:1018100009C086E007C085E005C084E003C088E019
:1018200001C087E0C457DF4F0FB6F894DEBF0FBE8C
:10183000CDBFDF91CF911F910F91FF90EF90DF907F
:10184000CF90BF90AF909F908F907F906F905F9060
:101850004F903F902F9008958F929F92AF92BF929A
:10186000CF92DF92EF92FF92FB01309709F448C0CC
:101870002581222329F0DC013C91231341C00196EC
:10188000208530E060817181C2A0D3A0E4A0F5A0E2
:10189000C6A2D7A2E0A6F1A612A213A214A215A274
:1018A000C12CD12C7601C3942150310938F1DB01D0
:1018B00053E0B695A7955A95E1F7A80FB91F4C913B
:1018C00050E0DB01A770BB2702C055954795AA954C
:1018D000E2F740FF0CC082A093A0A4A0B5A08C2882
:1018E0009D28AE28BF2882A293A2A4A2B5A26F5FB2
:1018F0007F4FCC0CDD1CEE1CFF1CD6CF81E001C05D
:1019000080E0FF90EF90DF90CF90BF90AF909F90DE
:101910008F900895FC01EA5BFF4F50E0440F551F84
:101920004F565C4FDC01A40FB51F2D913C91DC019B
:10193000A057BC4F7C91761311C081E090E0A901C3
:1019400047705527452B11F480E090E043E0369531
:1019500027954A95E1F7820F931F089507968E17F2
:101960009F0701F780E090E00895FC012181243079
:1019700029F48581833011F480E0089582E0089590
:10198000FC018181813221F0843021F082E00895D0
:1019900080E0089581E00895FC012181253031F433
:1019A00082814ED8882331F082E008952430E1F717
:1019B00081E0089580E008952F923F924F925F92C8
:1019C0006F927F928F929F92AF92BF92CF92DF924F
:1019D000EF92FF920F931F93CF93DF9300D000D02D
:1019E000CDB7DEB77A8369835C834B83FC0137967E
:1019F0002CE0DF011D922A95E9F7EB81FC81118132
:101A0000123009F07EC06C01412C512C612C712CDC
:101A1000812C912CA12CB12CA114B10409F475C016
:101A20008114910491F46114710479F04CEC5CE040
:101A3000BE016D5F7F4FCE01019629DA882309F43C
:101A400090C0A114B10409F464C0FF24F3942224CB
:101A50002394F60180818F110FC0D50114960D914A
:101A60001C91159712962C911297818116963C9095
:101A70001287018740E116C0F60182818F1121C0D3
:101A800081149104F1F0D40114960D911C911597D5
:101A900012962C911297838116963C901487038797
:101AA000268640E2811102C0E12C02C084E0E82ECB
:101AB00063E08F2D0E94B004882329F13110309209
:101AC000AD00F394B7E0FB12C4CFF3018281D601DD
:101AD00018968C931897F2018781908551969C9364
:101AE0008E93509781E0D30116969C91911101C07D
:101AF00080E0F601858788E0828B81E0878310E0B3
:101B00003CC011E03AC013E038C06114710409F020
:101B10008DCF8114910471F545EB5CE0BE016D5FE2
:101B20007F4FCE010196B3D9811127C06B807C8095
:101B3000F601848181110FC040EC5CE0BE016D5F55
:101B40007F4FCE010196A3D9811117C04B805C80D5
:101B5000E0E0F0E00DC0D30117969C918913DCCF33
:101B6000EBCFEB81FC81828187FD02C04F01F50143
:101B70005F0152CFA12CB12C68CF812F0F900F9015
:101B80000F900F90DF91CF911F910F91FF90EF90E9
:101B9000DF90CF90BF90AF909F908F907F906F908D
:101BA0005F904F903F902F900895CF93DF93FC016B
:101BB000EB0180910A058B30B9F587818823A1F16B
:101BC00080818093A7008091A9008F7B8093A900DA
:101BD0008785811112C0A581B681A852BC4F8C9116
:101BE000882329F06091AF006883219601C060E0EE
:101BF00040E0858196818EDE04C08091F600909150
:101C0000F70040E050E0BC01CE017BD881110DC04F
:101C10008091A6008E778093A6008091A9008064B1
:101C20008093A90080E001C082E0DF91CF91089508
:101C3000FC0180910A058B30A1F48781882391F003
:101C400080818093A7008091A9008F7B8093A90059
:101C50008091A60081709091A90090649093A90052
:101C6000089580E00895CF92DF92EF92FF920F9354
:101C70001F93CF93DF93CDB7DEB78C01EDB6FEB6E1
:101C8000DC0150962D913C915197EDB7FEB7E21BC8
:101C9000F30B0FB6F894FEBF0FBEEDBF8DB79EB726
:101CA00001966C0118968C9190E041E840930205F2
:101CB00046E04093030540E052E25093050540930F
:101CC000040590930705809306053093090520933A
:101CD00008051092A700C60133D9811151C0D8015F
:101CE0001F968C911F978823F1F018968C9190E0A5
:101CF00021E2209302052BE02093030521E030E050
:101D000030930505209304059093070580930605FD
:101D1000109209051092080580E090E011D9811118
:101D20002FC0F8011786D80115964D915C91169732
:101D30004115510521F150966D917C915197C60145
:101D40002ADA882311F080681BC0D8011596ED911E
:101D5000FC911697EA52FC4F80819181AC0147704B
:101D6000552721E0452B09F420E033E0969587952F
:101D70003A95E1F7820FF801828B80E001C080E89C
:101D80000FB6F894FEBE0FBEEDBEDF91CF911F914E
:101D90000F91FF90EF90DF90CF9008959091C80041
:101DA00095FFFCCF8093CE0080E090E00895809175
:101DB000C80087FF08C08091C80087FF07C08091D6
:101DC000CE0090E008958EEF9FEF08958FEF9FEF84
:101DD0000895EE0FFF1F0024001C0BBE0790F69124
:101DE000E02D09940F931F93CF93DF93CDB7DEB708
:101DF000AE01495F5F4FDA016D917D91AD0109E15F
:101E000015E0F80182819381DC0113962C911397E0
:101E1000286013962C933ED0D8011296ED91FC9138
:101E200013972381277F2383DF91CF911F910F91F8
:101E300008950F931F93CF93DF938C01E0911B05BF
:101E4000F0911C05838181FF1BC0D0E0C0E0F80148
:101E5000849160911B0570911C05DB011896ED9132
:101E6000FC911997882341F00995892B11F0DFEF38
:101E7000CFEF0F5F1F4FEBCF8AE00995892B19F049
:101E80008FEF9FEF02C08D2F9C2FDF91CF911F917D
:101E90000F9108952F923F924F925F926F927F928F
:101EA0008F929F92AF92BF92CF92DF92EF92FF926A
:101EB0000F931F93CF93DF93CDB7DEB72B970FB65A
:101EC000F894DEBF0FBECDBF6C017B018A01FC011F
:101ED00017821682838181FFBFC1CE0101963C012A
:101EE000F6019381F70193FD859193FF81917F0125
:101EF000882309F4ADC1853239F493FD859193FFB0
:101F000081917F01853221F4B60190E0D6D1E8CFEE
:101F1000912C212C312CFFE1F315D8F08B3279F084
:101F200038F4803279F08332A1F4232D20611DC072
:101F30008D3261F0803369F4232D216016C0832D2A
:101F40008260382EE32DE4603E2E2AC0F32DF86027
:101F50001DC037FC2DC020ED280F2A3040F08E32F6
:101F6000B9F436FC75C1232D2064322E19C036FE1B
:101F700006C08AE0989E200D1124922E11C0EAE03E
:101F80002E9E200D1124222EF32DF0623F2E08C02C
:101F90008C3621F4832D8068382E02C0883641F4B7
:101FA000F70193FD859193FF81917F018111B3CF5B
:101FB000982F9F7D9554933028F40C5F1F4F9FE31B
:101FC00099830DC0833631F0833771F0833509F082
:101FD00055C020C0F801808189830E5F1F4F88247F
:101FE0008394912C530112C02801F2E04F0E511C32
:101FF000F801A080B18036FE03C0692D70E002C0F8
:102000006FEF7FEFC5014ED14C018201F32DFF77B9
:102010003F2E15C0280122E0420E511CF801A0807D
:10202000B18036FE03C0692D70E002C06FEF7FEF14
:10203000C5012DD14C01F32DF0683F2E820133FCF8
:1020400019C0822D90E088169906A0F4B60180E2AE
:1020500090E033D12A94F5CFF50137FC859137FE16
:1020600081915F01B60190E028D121102A9421E0EE
:10207000821A91088114910479F7E1C0843611F035
:10208000893639F5F80137FE07C060817181828198
:1020900093810C5F1F4F08C060817181072E000C77
:1020A000880B990B0E5F1F4FF32DFF763F2E97FF86
:1020B00009C090958095709561957F4F8F4F9F4F88
:1020C000F0683F2E2AE030E0A30133D1882E861835
:1020D00044C0853731F4232D2F7EB22E2AE030E024
:1020E00025C0932D997FB92E8F36C1F018F488350D
:1020F00079F0AEC0803719F0883721F0A9C0E92FF8
:10210000E061BE2EB4FE0DC0FB2DF460BF2E09C0F1
:1021100034FE0AC0292F2660B22E06C028E030E027
:1021200005C020E130E002C020E132E0F801B7FE56
:1021300007C060817181828193810C5F1F4F06C04F
:102140006081718180E090E00E5F1F4FA301F1D0AC
:10215000882E8618FB2DFF773F2E36FE0DC0232DCF
:102160002E7FA22E891458F434FE0BC032FC09C015
:10217000832D8E7EA82E05C0B82CA32C03C0B82CAE
:1021800001C0B92CA4FE0FC0FE01E80DF11D808135
:10219000803321F49A2D997EA92E09C0A2FE06C093
:1021A000B394B39404C08A2D867809F0B394A3FC49
:1021B00010C0A0FE06C0B21480F4280C922C9B180C
:1021C0000DC0B21458F4B60180E290E076D0B3941A
:1021D000F8CFB21418F42B1802C0982C212CA4FEAE
:1021E0000FC0B60180E390E068D0A2FE16C0A1FC4B
:1021F00003C088E790E002C088E590E0B6010CC01B
:102200008A2D867851F0A1FE02C08BE201C080E2E7
:10221000A7FC8DE2B60190E050D0891430F4B601ED
:1022200080E390E04AD09A94F8CF8A94F301E80DC5
:10223000F11D8081B60190E040D08110F6CF2220C0
:1022400009F44ECEB60180E290E037D02A94F7CF61
:10225000F6018681978102C08FEF9FEF2B960FB614
:10226000F894DEBF0FBECDBFDF91CF911F910F91CC
:10227000FF90EF90DF90CF90BF90AF909F908F90A6
:102280007F906F905F904F903F902F900895FC014A
:102290000590615070400110D8F7809590958E0F91
:1022A0009F1F0895FC016150704001900110D8F704
:1022B000809590958E0F9F1F08950F931F93CF9336
:1022C000DF93FB01238121FD03C08FEF9FEF2CC023
:1022D00022FF16C04681578124813581421753075A
:1022E00044F4A081B1819D012F5F3F4F3183208352
:1022F0008C93268137812F5F3F4F3783268314C00D
:102300008B01EC01FB010084F185E02D0995892BFF
:10231000E1F6D80116968D919C9117970196179624
:102320009C938E931697CE01DF91CF911F910F91C1
:102330000895FA01AA27283051F1203181F1E8945B
:102340006F936E7F6E5F7F4F8F4F9F4FAF4FB1E0A8
:102350003ED0B4E03CD0670F781F891F9A1FA11DA3
:10236000680F791F8A1F911DA11D6A0F711D811DA4
:10237000911DA11D20D009F468943F912AE0269F69
:1023800011243019305D3193DEF6CF010895462FC8
:102390004770405D4193B3E00FD0C9F7F6CF462FA9
:1023A0004F70405D4A3318F0495D31FD4052419312
:1023B00002D0A9F7EACFB4E0A695979587957795CF
:1023C0006795BA95C9F700976105710508959B0156
:1023D000AC010A2E06945795479537952795BA95DF
:1023E000C9F7620F731F841F951FA01D0895F894ED
:0223F000FFCF1D
:1023F20001000200002401000000000000000000B3
:1024020000000040800600010000080000050100F5
:0424120000000000C6
:00000001FF
