:10000000B0C00000CBC00000C9C00000C7C00000E5
:10001000C5C00000C3C00000C1C00000BFC00000D8
:10002000BDC00000BBC00000BBC20000B7C00000E4
:10003000B5C00000B3C00000B1C00000AFC00000F8
:10004000ADC00000ABC00000A9C00000A7C0000008
:10005000A5C00000A9C00000A1C000009FC0000012
:100060009DC000009BC0000099C0000097C0000028
:1000700095C0000093C0000091C000008FC0000038
:100080008DC000008BC0000089C0000087C0000048
:1000900085C0000083C00000B204D404BF05D404AE
:1000A000BF0519053B05BF058D059F051E034C00C7
:1000B00055004600410020004D0049004400490021
:1000C0002000440065006D006F000000180344002C
:1000D000650061006E002000430061006D00650056
:1000E00072006100000004030904090265000201B6
:1000F00000C03209040000000101000009240100D1
:1001000001090001010904010002010300000724A4
:10011000010001410006240201010006240202023E
:100120000009240301030102010009240302040160
:10013000010100090501024000010000052501013F
:10014000010905820240000100000525010103129A
:1001500001100100000008EB03482001000102002B
:10016000010011241FBECFEFD0E2DEBFCDBF12E0F1
:10017000A0E0B1E0EEE0FDE000E00BBF02C00790C0
:100180000D92AA30B107D9F722E0AAE0B2E001C08F
:100190001D92A433B207E1F78ED0B7C531CF9BB122
:1001A0009F70892B8BB908951F920F920FB60F92F3
:1001B00011240BB60F920F931F932F933F934F93DE
:1001C0005F936F937F938F939F93AF93BF93EF93BF
:1001D000FF93EAE0F2E080E090E021812223D1F079
:1001E0004681578160857185072F11272227332784
:1001F000D801A75FBE4F2C91820F911D0281138100
:1002000024813581400F511F621F731F468357831E
:10021000608771873A9622E0E832F207F1F68F3F65
:10022000910519F010F08FEF90E090939900809372
:100230009800FF91EF91BF91AF919F918F917F9126
:100240006F915F914F913F912F911F910F910F905F
:100250000BBE0F900FBE0F901F90189584B7877F2D
:1002600084BF0FB6F894A895809160008861809350
:100270006000109260000FBE90E080E80FB6F89426
:1002800080936100909361000FBE8AB1806F8AB93C
:100290008BB18F708BB96ED182E080936E0090E449
:1002A00097BD84BD85BD3E9A82EC8093900089E025
:1002B000809391000895CF93DF9300D000D0CDB705
:1002C000DEB7CCDF80E16BDF789408E212E08AE0F1
:1002D000F82EBE016F5F7F4F80E091E0D0D488237D
:1002E00009F456C089818F708930E1F58A818F7059
:1002F00009F04EC0AAE0B2E080E090E0FD01119666
:100300002C911197211108C0F89EF001F99EF00D73
:100310001124E65FFD4F0CC02C913081231708F0AB
:10032000FD012F5F2C9301961A968330910539F7C2
:10033000AB81A183B0E0559726EB36EF4CE251E05C
:10034000C5D4DC01CB0182569D4EA34EBE4F8283A5
:100350009383A483B5831682178210861186108238
:1003600080E115C08830A1F48A818F7089F42B81D7
:10037000EAE0F2E09181921302C0118202C0911171
:1003800081E03A960E171F07A9F7811101C007DF18
:1003900080E091E06FD40DD49CCF80EA00DF3E9ADC
:1003A000089580E1FCDEEAE0F2E011821386158A0E
:1003B0003E98089580E091E00DD4811102C080E95B
:1003C00001C080E6ECCE0895292F33272230310575
:1003D00059F02330310569F021303105E9F482E12B
:1003E00090E02FE431E01CC085E690E02AEE30E09A
:1003F00017C099278130910549F028F0029761F4E0
:10040000ECEAF0E005C0E6EEF0E002C0ECECF0E073
:10041000849190E09F0104C080E090E020E030E013
:10042000FA013183208308958093E900EBEEF0E038
:10043000808181608083EDEEF0E010826093EC00BB
:1004400040838091EE00881F8827881F089580913F
:100450002C0287FF0FC08091E80082FD04C08EB39C
:100460008111F9CF10C08091E8008B770AC08EB35C
:10047000882349F08091E80080FFF9CF8091E8005F
:100480008E778093E80008952091E4003091E50094
:1004900095E64091EC00842F817040FF22C080914E
:1004A000E80080FD1CC08EB3882399F0853099F058
:1004B0008091EB0085FD11C04091E4005091E50072
:1004C0002417350731F3915011F09A01E2CF84E0FF
:1004D000089582E0089583E0089581E0089580E022
:1004E00008954091E80042FFDECF08950F931F93D7
:1004F000CF93DF9348D04FD0C8EDD0E088818F777D
:10050000888388818068888388818F7D8883E7EDF0
:10051000F0E080818068808319BC1EBA10922802A6
:1005200010922A021092290200EE10E0F801808158
:100530008B7F808388818160888342E060E080E0F7
:1005400073DFE1EEF0E080818E7F8083E2EEF0E009
:10055000808181608083808188608083F8018081D0
:100560008E7F8083888180618883DF91CF911F9106
:100570000F910895E7EDF0E080818160808381E054
:1005800080932B02B3CFE8EDF0E080818C7F8083F5
:100590001092E20008951092DA001092E10008959E
:1005A0001F920F920FB60F9211240BB60F922F933A
:1005B0003F934F935F936F937F938F939F93AF93EB
:1005C000BF93EF93FF938091E10082FF0AC0809177
:1005D000E20082FF06C08091E1008B7F8093E10002
:1005E000E7D28091DA0080FF1BC08091D80080FFA5
:1005F00017C08091DA008E7F8093DA008091D90055
:1006000080FF0BC08CE089BD8EE089BD09B400FE7F
:10061000FDCF81E08EBBC1DE03C019BC1EBAC1DEB6
:100620008091E10080FF17C08091E20080FF13C03D
:100630008091E2008E7F8093E2008091E2008061F1
:100640008093E2008091D80080628093D80019BC2A
:1006500085E08EBBADD28091E10084FF2CC08091FB
:10066000E20084FF28C08CE089BD8EE089BD09B41A
:1006700000FEFDCF8091D8008F7D8093D8008091BF
:10068000E1008F7E8093E1008091E2008F7E809375
:10069000E2008091E20081608093E2008091280274
:1006A000811106C08091E30087FD02C081E001C096
:1006B00084E08EBB7DD28091E10083FF21C08091D8
:1006C000E20083FF1DC08091E100877F8093E100FD
:1006D00082E08EBB109228028091E1008E7F809391
:1006E000E1008091E2008E7F8093E2008091E20041
:1006F00080618093E20042E060E080E095DE58D2C5
:10070000FF91EF91BF91AF919F918F917F916F91E9
:100710005F914F913F912F910F900BBE0F900FBEA5
:100720000F901F901895CF92DF92EF92FF920F9348
:100730001F93CF93DF93EC018B017A01A5DE81112A
:1007400033C0E114F10439F0F70180819181081B75
:10075000190BC80FD91FC12CD12C0115110519F186
:100760008091E80085FD16C08091E8008B7780932A
:10077000E8001FD2E114F10449F0F7018081918172
:10078000C80ED91ED182C08285E00EC07DDE8823CE
:1007900021F30AC08091F100899301501109FFEF04
:1007A000CF1ADF0ADACF80E0DF91CF911F910F914E
:1007B000FF90EF90DF90CF9008952091320230911A
:1007C00033022617370748F06115710539F4209177
:1007D000E8002E772093E80001C0B901FC0120E079
:1007E0006115710561F18EB38823C9F18530C9F1B6
:1007F0008091E80083FD31C08091E80082FD27C030
:100800008091E80080FFECCF8091F2009091F3009E
:100810006115710551F08830910538F421912093CC
:10082000F100615071090196F3CF21E0089709F0BA
:1008300020E08091E8008E778093E800D1CF2111ED
:10084000D2CF05C08EB3882351F0853051F080910E
:10085000E80082FFF7CF80E0089581E0089582E00C
:10086000089583E0089520913202309133022617D3
:10087000370748F06115710539F42091E8002E77AB
:100880002093E80001C0B901FC0120E06115710569
:1008900069F18EB38823D1F18530D1F18091E800E0
:1008A00083FD32C08091E80082FD28C08091E8007D
:1008B00080FFECCF8091F2009091F30061157105FB
:1008C00059F08830910540F424912093F10031963D
:1008D000615071090196F2CF21E0089709F020E0FC
:1008E0008091E8008E778093E800D0CF2111D1CF9E
:1008F00005C08EB3882351F0853051F08091E80017
:1009000082FFF7CF80E0089581E0089582E00895A6
:1009100083E008950F931F93CF93DF93CDB7DEB796
:10092000AA970FB6F894DEBF0FBECDBFECE2F2E09F
:100930008091F100819322E0E433F207C9F743DDAF
:100940008091E80083FF1BC180912C0290912D02C1
:10095000492F50E04A30510508F011C1FA01E45B1B
:10096000FF4FABC1803881F0823809F008C1809117
:10097000300287708093E9008091EB0085FB882727
:1009800080F91092E90006C08091290290912A0214
:10099000911182609091E800977F9093E800809396
:1009A000F1001092F100C4C0282F2D7F09F0E7C09C
:1009B000882319F0823061F0E2C080912E028130EC
:1009C00009F0DDC0933009F080E080932A022BC04B
:1009D00080912E02811127C080913002877009F426
:1009E000CEC08093E9002091EB0020FF1CC0933023
:1009F00021F48091EB00806214C09091EB00906133
:100A00009093EB0021E030E0A90102C0440F551F94
:100A10008A95E2F74093EA001092EA008091EB0099
:100A200088608093EB001092E9008091E800877F56
:100A300082C08111A4C010912E021F770FB7F894C5
:100A40008091E800877F8093E80001DD8091E800D5
:100A500080FFFCCF8091E3008078812B8093E300BE
:100A600080688093E300111102C082E001C083E03E
:100A70008EBB0FBF84C08058823008F080C0809148
:100A80002E0290912F028C3D53E0950771F583E083
:100A90008A838AE289834FB7F894DE01139620E0B7
:100AA0003EE051E2E32FF0E050935700E49120FF45
:100AB00003C0E295EF703F5FEF708E2F90E0EA3059
:100AC00010F0C79601C0C0968D939D932F5F24317F
:100AD00049F74FBF8091E800877F8093E8006AE282
:100AE00070E0CE01019669DE12C0AE014F5F5F4F2C
:100AF0006091300269DCBC01892B09F440C09091FF
:100B0000E800977F9093E80089819A81ACDE80911C
:100B1000E8008B778093E80032C0803881F58091BF
:100B2000E800877F8093E800809128028093F1009D
:100B30008091E8008E778093E80089DC20C08111E5
:100B40001EC080912E0290912F0299270297BCF42B
:100B50008091E800877F8093E80080912E02809347
:100B6000280275DC80912802811106C08091E30083
:100B700087FD02C081E001C084E08EBB1BDC809158
:100B8000E80083FF0AC08091EB0080628093EB0055
:100B90008091E800877F8093E800AA960FB6F894CA
:100BA000DEBF0FBECDBFDF91CF911F910F91089592
:100BB0000895CF938EB3882359F0C091E900C77090
:100BC0001092E9008091E80083FDA4DEC093E90063
:100BD000CF9108950F931F93CF938C01C1E0F8013B
:100BE00081818C1305C062817381848190E80EC07D
:100BF000F80185818C1729F0CF5FC73081F781E03C
:100C00001EC0F80166817781808590E0811184E0C3
:100C100028E030E040E02617370720F44F5F220F2E
:100C2000331FF9CF4295407F8260482B61E09111DC
:100C300001C060E060688C2FF7DB8111DDCFCF91C0
:100C40001F910F9108952EB3243081F4FC0181810E
:100C50008093E9008091F2009091F300892B41F09C
:100C60008091E8008E778093E8000ECC82E00895B2
:100C700080E008952EB3243009F4E5CF08952EB313
:100C8000243011F080E00895FC0185818093E90013
:100C90008091E80085FFF6CFCB0140E050E064E0B2
:100CA00070E041DD8091E80085FD05C08091E8009D
:100CB0008B778093E80081E00895EE0FFF1F0024FA
:100CC000001C0BBE0790F691E02D0994B7FF04C0FD
:100CD00003D0821B930B089509D0A59F900DB49F5C
:100CE000900DA49F800D911D11240895A29FB00125
:100CF000B39FC001A39F700D811D1124911DB29F50
:0E0D0000700D811D1124911D0895F894FFCFF0
:100D0E00010240000001400000808386898C8F9292
:100D1E0095989C9FA2A5A8ABAEB0B3B6B9BCBFC107
:100D2E00C4C7C9CCCED1D3D5D8DADCDEE0E2E4E656
:100D3E00E8EAECEDEFF0F2F3F5F6F7F8F9FAFBFC72
:100D4E00FCFDFEFEFFFFFFFFFFFFFFFFFFFFFFFEAD
:100D5E00FEFDFCFCFBFAF9F8F7F6F5F3F2F0EFED19
:100D6E00ECEAE8E6E4E2E0DEDCDAD8D5D3D1CECCAC
:100D7E00C9C7C4C1BFBCB9B6B3B0AEABA8A5A29F1C
:100D8E009C9895928F8C898683807C797673706D12
:100D9E006A6763605D5A5754514F4C494643403E13
:100DAE003B383633312E2C2A272523211F1D1B19A4
:100DBE0017151312100F0D0C0A0908070605040368
:100DCE00030201010000000000000000000000010D
:100DDE00010203030405060708090A0C0D0F101281
:100DEE00131517191B1D1F212325272A2C2E3133CE
:100DFE0036383B3E404346494C4F5154575A5D603E
:0A0E0E0063676A6D707376797C00EB
:00000001FF
