:020000021000EC
:10F0000055C0000070C000006EC000006CC0000061
:10F010006AC0000068C0000066C0000064C0000054
:10F0200062C0000060C000003CC400005CC0000082
:10F030005AC0000058C0000056C0000054C0000074
:10F0400052C0000050C000004EC000004CC0000084
:10F05000A3C0000048C0000046C0000044C000003B
:10F0600042C0000040C000003EC000003CC00000A4
:10F070003AC0000038C0000036C0000034C00000B4
:10F0800032C0000030C000002EC000002CC00000C4
:10F090002AC0000028C00000BCFDD5FD81FED5FDC2
:10F0A00081FE0DFE2FFE81FE4FFE61FE11241FBE6C
:10F0B000CFEFD0E2DEBFCDBF11E0A0E0B1E0E2E9EA
:10F0C000FDEF01E00BBF02C007900D92AC38B10715
:10F0D000D9F721E0ACE8B1E001C01D92AA39B2072E
:10F0E000E1F713D354C68CCF84E08093E90080917C
:10F0F000E80085FD0DC08091E8008B778093E800E3
:10F100008091E80082FDF3CF8EB38111F9CF02C068
:10F110008091F100089593E09093E9009091E800C8
:10F1200095FF03C08093F10008959091E8009E77C9
:10F130009093E8009091E80090FDF4CF9EB3911178
:10F14000F9CF0895CF9384B7877F84BF0FB6F89423
:10F15000A8958091600088618093600010926000A3
:10F160000FBE90E080E80FB6F89480936100909312
:10F1700061000FBEC1E0C5BF82E085BF7CD38AB10C
:10F18000806F8AB98BB18F708BB9C0936F0083E0A9
:10F1900080938100CF9108951F920F920FB60F9226
:10F1A00011248F939F939BB180E389278BB99F9103
:10F1B0008F910F900FBE0F901F90189542E061EC59
:10F1C00082E0E9D242E161E883E0E5D242E160E831
:10F1D00084E0E1C2809192018F77813279F59BB111
:10F1E00080E389278BB9809193018032A1F081322D
:10F1F00029F580919201813A09F58091E800877F95
:10F200008093E80067E070E081E091E0FFD38091B7
:10F21000E8008B7711C080919201813279F480915E
:10F22000E800877F8093E80067E070E081E091E08C
:10F2300043D48091E8008E778093E80008954F9240
:10F240005F926F927F928F929F92AF92BF92CF9276
:10F25000DF92EF92FF920F931F93CF93DF9384E09F
:10F260008093E9008091E80082FF3EC23DDFC82F15
:10F27000853419F41092000103C0843521F434DF81
:10F280008DE049DF08C28C34D9F38035C9F3843767
:10F2900011F484E482C0813611F489E5F2CF81341F
:10F2A00091F422DFC82F20DF2C2F30E0322F2227CD
:10F2B000330F90E0880F991F822B932B092E000C9F
:10F2C000AA0BBB0BBCC1803711F483E5DACF8335C1
:10F2D00049F4C4E8D1E089911EDF41E0CB38D4077E
:10F2E000D1F7D9C1863521F481E315DF80E3C9CF99
:10F2F000833731F482E80FDF87E90DDF8EE1C1CF7C
:10F30000853611F580E090E0DC0123E035E0FC017A
:10F31000A0935B0020935700E89507B600FCFDCF53
:10F32000FC01A0935B0030935700E89507B600FC02
:10F33000FDCF9F5FAF4FBF4F811550EF950751E055
:10F34000A507B10521F79CCF8C3651F4CDDE809511
:10F3500099E0E1E0F0E0082E90935700E89590CF17
:10F36000823719F4E1E0F0E00EC0863419F4E0E0F1
:10F37000F0E009C08E3419F4E3E0F0E004C0813518
:10F3800039F4E2E0F0E089E080935700849179CF8E
:10F39000823631F489E5BFDE81E0BDDE80E071CFE9
:10F3A000823419F0873609F0CBC09EDE082F9CDE30
:10F3B000D82F9ADE182F8BEB810F823010F08FE35D
:10F3C00060CF8D2F90E0902BC73609F041C021E12E
:10F3D00020935700E895EC01B12C01E0209709F447
:10F3E0005AC1C0908C01D0908D01E0908E01F090B8
:10F3F0008F01D701C6011634B1F48B29ABBFFC01D4
:10F40000879189DEBB2069F082E0C80ED11CE11C27
:10F41000F11CC0928C01D0928D01E0928E01F0928D
:10F420008F01B02613C0B695A7959795879599D467
:10F4300072DE42E0C40ED11CE11CF11CC0928C01B2
:10F44000D0928D01E0928E01F0928F012197C6CF6C
:10F4500080908C0190908D01A0908E01B0908F01D2
:10F46000163451F423E0F401A0925B00209357007E
:10F47000E89507B600FCFDCFE12CF12CEC0101E092
:10F48000209709F44FC0163449F5FF2019F1409038
:10F490008C0150908D0160908E0170908F0124DE60
:10F4A0002E2D30E0A901582B0A01F20160925B0079
:10F4B00000935700E895112452E0450E511C611C41
:10F4C000711C40928C0150928D0160928E0170925D
:10F4D0008F0102C009DEE82EF02622C005DE682F6B
:10F4E00080918C0190918D01A0918E01B0918F013E
:10F4F000B695A795979587953CD480918C0190916E
:10F500008D01A0918E01B0918F010296A11DB11DB8
:10F5100080938C0190938D01A0938E01B0938F0105
:10F520002197AECF163409F0ABCE85E0F401A0925E
:10F530005B0080935700E89507B600FCFDCFA0CE96
:10F540008334A1F4C0908C01D0908D01E0908E01A5
:10F55000F0908F01C9DD90E021E00C01F601E0920E
:10F560005B0020935700E89511248ACE833621F55D
:10F57000C0908C01D0908D01E0908E01F0908F01B1
:10F58000B3DDB701A601416090E021E00C01FA0172
:10F5900060935B0020935700E895112482E0C80E29
:10F5A000D11CE11CF11CC0928C01D0928D01E09223
:10F5B0008E01F0928F0164CE8D3699F440918C01CA
:10F5C00050918D0160918E0170918F0185E0FA015B
:10F5D00060935B0080935700E89507B600FCFDCF71
:10F5E0004FCE823581F480918C0190918D01A09154
:10F5F0008E01B0918F01ABBFFC01C791D6918D2FC9
:10F600008ADD8C2F3ECE843419F56EDD682F809113
:10F610008C0190918D01A0918E01B0918F01B695D2
:10F62000A79597958795A5D380918C0190918D0191
:10F63000A0918E01B0918F010296A11DB11D809302
:10F640008C0190938D01A0938E01B0938F0118CE01
:10F650008436F1F4C0908C01D0908D01E0908E0141
:10F66000F0908F01D701C601B695A795979587951C
:10F6700078D351DD42E0C40ED11CE11CF11CC092D4
:10F680008C01D0928D01E0928E01F0928F0103C027
:10F690008B3109F094CE83E08093E9009091E800EB
:10F6A0008091E8008E778093E80095FD11C08091ED
:10F6B000E80080FD04C08EB38111F9CF15C08091A0
:10F6C000E8008E778093E80003C08EB3882361F052
:10F6D0008091E80080FFF9CF84E08093E900809179
:10F6E000E8008B778093E800DF91CF911F910F9115
:10F6F000FF90EF90DF90CF90BF90AF909F908F9052
:10F700007F906F905F904F9008951CDD8BB18F704C
:10F7100080618BB9789480910001882319F08FDD86
:10F7200006D3F9CF8091E00081608093E0009CE0F7
:10F7300088E10FB6F894A895809360000FBE90936F
:10F740006000FFCF292F30E02230310559F02330FF
:10F75000310569F02130310589F482E190E022E73A
:10F7600031E015C08EE390E024E331E010C088233F
:10F7700051F086E290E028E031E009C080E090E0BE
:10F7800020E030E004C084E090E020E331E0FA01C2
:10F790003183208308958093E900EBEEF0E08081CF
:10F7A00081608083EDEEF0E010826093EC00408396
:10F7B0008091EE00881F8827881F0895809192010C
:10F7C00087FF0FC08091E80082FD04C08EB38111D5
:10F7D000F9CF10C08091E8008B770AC08EB38823E0
:10F7E00049F08091E80080FFF9CF8091E8008E77A2
:10F7F0008093E80008950F931F93CF93DF9344D035
:10F800004BD0C8EDD0E088818F778883888180686D
:10F81000888388818F7D8883E7EDF0E08081806830
:10F82000808319BC1EBA1092900100EE10E0F8011E
:10F8300080818B7F808388818160888342E060E063
:10F8400080E0A9DFE1EEF0E080818E7F8083E2EE50
:10F85000F0E0808181608083808188608083F8010E
:10F8600080818E7F8083888180618883DF91CF91C2
:10F870001F910F910895E7EDF0E080818160808312
:10F8800081E080939101B7CFE8EDF0E080818C7F3B
:10F8900080831092E20008951092DA001092E10045
:10F8A00008951F920F920FB60F9211240BB60F926C
:10F8B0002F933F934F935F936F937F938F939F9378
:10F8C000AF93BF93EF93FF938091DA0080FF1BC04B
:10F8D0008091D80080FF17C08091DA008E7F8093DE
:10F8E000DA008091D90080FF0BC08CE089BD8EE0EA
:10F8F00089BD09B400FEFDCF81E08EBB17D203C0E5
:10F9000019BC1EBA13D28091E10080FF17C080910C
:10F91000E20080FF13C08091E2008E7F8093E200BE
:10F920008091E20080618093E2008091D800806243
:10F930008093D80019BC85E08EBBF8D18091E1009E
:10F9400084FF2CC08091E20084FF28C08CE089BD38
:10F950008EE089BD09B400FEFDCF8091D8008F7D77
:10F960008093D8008091E1008F7E8093E1008091A8
:10F97000E2008F7E8093E2008091E20081608093BC
:10F98000E20080919001811106C08091E30087FD23
:10F9900002C081E001C084E08EBBC8D18091E1004B
:10F9A00083FF21C08091E20083FF1DC08091E100B0
:10F9B000877F8093E10082E08EBB1092900180915E
:10F9C000E1008E7F8093E1008091E2008E7F809342
:10F9D000E2008091E20080618093E20042E060E01A
:10F9E00080E0D9DEA3D1FF91EF91BF91AF919F91BC
:10F9F0008F917F916F915F914F913F912F910F90D8
:10FA00000BBE0F900FBE0F901F901895209198017C
:10FA1000309199012617370748F06115710539F4BF
:10FA20002091E8002E772093E80001C0B901FC0185
:10FA300020E06115710561F18EB38823C9F185302D
:10FA4000C9F18091E80083FD31C08091E80082FD1A
:10FA500027C08091E80080FFECCF8091F200909168
:10FA6000F3006115710551F08830910538F421914A
:10FA70002093F100615071090196F3CF21E00897BE
:10FA800009F020E08091E8008E778093E800D1CFE4
:10FA90002111D2CF05C08EB3882351F0853051F0AB
:10FAA0008091E80082FFF7CF80E0089581E008951B
:10FAB00082E0089583E008956115710529F420918D
:10FAC000E8002B772093E800FC016115710521F116
:10FAD0008EB3882349F1853049F18091E80083FD98
:10FAE00021C08091E80082FFF0CF8091F2009091D8
:10FAF000F300892B31F08091F100819361507109FD
:10FB0000A1F78091E8008B778093E800DECF8EB379
:10FB1000882351F0853051F08091E80080FFF7CFC5
:10FB200080E0089581E0089582E0089583E00895DB
:10FB30000F931F93CF93DF9300D0CDB7DEB7E2E9E9
:10FB4000F1E08AE991E02091F10021938E179F075F
:10FB5000D1F740DB8091E80083FFD3C08091920110
:10FB600090919301492F50E04A30510508F0C9C0E7
:10FB7000FA01E45BF740ECC0823809F0C2C0809122
:10FB8000960187708093E9008091EB001092E90064
:10FB90009091E800977F9093E80085FB882780F993
:10FBA0008093F1001092F10085C0282F2D7F09F07D
:10FBB000A8C0823009F0A5C080919401811127C0AE
:10FBC00080919601877009F49CC08093E900209190
:10FBD000EB0020FF1CC0933021F48091EB00806289
:10FBE00014C09091EB0090619093EB0021E030E025
:10FBF000A90102C0440F551F8A95E2F74093EA001D
:10FC00001092EA008091EB0088608093EB001092E4
:10FC1000E9008091E800877F50C0811172C0109187
:10FC200094011F770FB7F8948091E800877F809345
:10FC3000E800C4DD8091E80080FFFCCF8091E30004
:10FC40008078812B8093E30080688093E30011111A
:10FC500002C082E001C083E08EBB0FBF52C080585B
:10FC6000823008F04EC0AE014F5F5F4F6091960149
:10FC7000809194019091950165DDBC01892B09F477
:10FC800040C09091E800977F9093E80089819A8125
:10FC9000BDDE8091E8008B778093E80032C0803829
:10FCA00081F58091E800877F8093E8008091900142
:10FCB0008093F1008091E8008E778093E8007EDDEC
:10FCC00020C081111EC080919401909195019927C7
:10FCD0000297BCF48091E800877F8093E8008091D0
:10FCE0009401809390016ADD80919001811106C09A
:10FCF0008091E30087FD02C081E001C084E08EBBFB
:10FD00005DDA8091E80083FF0AC08091EB00806299
:10FD10008093EB008091E800877F8093E8000F904C
:10FD20000F90DF91CF911F910F9108950895CF9378
:10FD30008EB3882359F0C091E900C7701092E90092
:10FD40008091E80083FDF4DEC093E900CF9108952F
:10FD5000EE0FFF1F0024001C0BBE0790F691E02D54
:10FD60000994F999FECF92BD81BDF89A992780B583
:10FD70000895262FF999FECF1FBA92BD81BD20BDEF
:10FD80000FB6F894FA9AF99A0FBE01960895F8946E
:02FD9000FFCFA3
:10FD92000100000000000008260341005600520046
:10FDA2002000430044004300200042006F006F0027
:10FDB20074006C006F006100640065007200000056
:10FDC2000403090409023E00020100803209040012
:10FDD20000010202010005240010010424020405AE
:10FDE20024060001070582030800FF09040100023E
:10FDF2000A00000007050402100001070583021033
:10FE020000011201100102000008EB034A20010068
:0CFE1200000100014C55464143444300F0
:040000031000F000F9
:00000001FF
