:10000000EAC00000F8C00000F6C00000F4C0000024
:10001000F2C00000F0C00000EEC00000ECC0000024
:10002000EAC00000E8C000005CC30000E4C00000BB
:10003000E2C00000E0C00000DEC00000DCC0000044
:10004000DAC00000D8C00000D6C00000D4C0000054
:10005000D2C00000D0C00000CEC00000CCC0000064
:10006000CAC00000C8C00000C6C00000C4C0000074
:10007000C2C00000C0C00000BEC00000BCC0000084
:10008000BAC00000B8C00000B6C00000B4C0000094
:10009000B2C00000B0C000005C057E056B067E05A6
:1000A0006B06C305E6056B0638064A063A034C00A4
:1000B00055004600410020004D006F0075007300A0
:1000C0006500200061006E00640020004B006500A8
:1000D000790062006F00610072006400200044003B
:1000E00065006D006F0000001803440065006100AA
:1000F0006E002000430061006D0065007200610029
:1001000000000403090409024900020100C0320989
:100110000400000203010100092111010001223F36
:100120000007058103080001070502030800010913
:10013000040100010301020009211101000122361E
:100140000007058303080001000000000000001202
:1001500001100100000008EB034D20010001020026
:100160000105010906A101050719E029E715002588
:10017000017501950881029501750881010508192D
:1001800001290595057501910295017503910115E8
:10019000002565050719002965950675088100C0C9
:1001A00005010902A1010901A1000509190129039D
:1001B00015002501950375018102950175058101E1
:1001C00005010930093115FF250135FF450195026B
:1001D00075088106C0C011241FBECFEFD0E2DEBF7C
:1001E000CDBF21E0A0E0B1E001C01D92A831B2076F
:1001F000E1F740D1ACC504CF83B19CB19095907329
:1002000096958095807E892B08959BB19F70892B50
:100210008BB9089584B7877F84BF0FB6F894A895EB
:1002200080916000886180936000109260000FBE32
:1002300090E080E80FB6F89480936100909361009D
:100240000FBE84B18F7184B98DB18F7C8DB985B1AA
:10025000806E85B98EB180638EB98AB1806F8AB99C
:100260008BB18F708BB927C280EACFCF80E1CDCF21
:10027000CF9342E061EC81E053D1C82F42E060ECC3
:1002800082E04ED1C82342E061EC83E049D1CC2327
:1002900011F0811102C080E901C080E6CF91B5CF95
:1002A000982F80FF02C080E301C080E291FD80684A
:1002B00092FD8064AACF0F931F93CF93DF93809119
:1002C0001101813019F0893051F149C0809110013C
:1002D000813A09F044C08091E800877F8093E8006C
:1002E0008091140190911501892B21F0C3E000E069
:1002F00011E003C0C8E003E011E0D0E0BE01C80196
:1003000002D38091E8008B778093E800AE0160E033
:1003100070E0C801DF91CF911F910F9111C58091BD
:1003200010018132E1F48091E800877F8093E8003A
:100330008091E80082FD05C080910F018111F8CF06
:100340000EC0C091F1008091E8008B778093E800A7
:100350001BD18C2FDF91CF911F910F91A1CFDF91F6
:10036000CF911F910F91089547DF90910F01943025
:1003700009F043C0629B18C022E02093030187FD6F
:1003800003C084FF03C095E09093050186FF02C07F
:1003900096E003C083FF03C097E09093050185FFBB
:1003A00003C088E08093050181E08093E90080919B
:1003B000E80085FF13C040E050E068E070E083E0B3
:1003C00091E057D28091E8008E778093E80088E032
:1003D000E3E0F1E0DF011D928A95E9F782E0809386
:1003E000E9008091E80085FF08C08091F10058DFA6
:1003F0008091E8008B778093E8000895CF93FCDE2E
:1004000090910F019430A1F5629919C087FF02C045
:1004100091E003C084FF03C09FEF9093020183FF2C
:1004200002C091E003C086FF03C09FEF90930101DB
:1004300085FF05C080910001816080930001C3E0C9
:10044000C093E9008091E80085FF12C040E050E0D1
:1004500063E070E080E091E00CD28091E8008E775C
:100460008093E800E0E0F1E0DF011D92CA95E9F732
:10047000CF910895CFDE80E1C8DE789475DFBEDFCE
:1004800044D4FCCF292F332723303105C1F058F451
:100490002130310579F02230310591F589E490E081
:1004A00026E031E039C021323105E1F02232310558
:1004B00001F126C082E190E02FE431E02DC09927C0
:1004C0008130910549F028F00297D1F4ECEAF0E090
:1004D00005C0E2E0F1E002C0E8EEF0E0849190E0D7
:1004E0009F011AC089E090E0662379F028E331E0AB
:1004F00013C0662369F086E390E020EA31E00CC087
:1005000080E090E020E030E007C028E131E004C066
:100510008FE390E021E631E0FA01318320830895F2
:10052000982F973068F59093E900981739F07091FB
:10053000EC002091ED005091F00003C0242F762FA5
:1005400050E021FD02C09F5FECCF3091EB003E7F79
:100550003093EB003091ED003D7F3093ED00309112
:10056000EB0031603093EB007093EC002093ED00D2
:100570005093F0002091EE0027FDE5CF80E0089534
:100580008093E90081E008958091100187FF11C0F8
:100590008091E80082FD05C080910F018111F8CFA4
:1005A00011C08091E8008B770BC080910F018823E8
:1005B00049F08091E80080FFF8CF8091E8008E77C5
:1005C0008093E80008952091E4003091E50095E6DD
:1005D0004091EC00842F817040FF23C08091E8009F
:1005E00080FD1DC080910F01882399F0853099F01E
:1005F0008091EB0085FD11C04091E4005091E50031
:100600002417350729F3915011F09A01E1CF84E0C6
:10061000089582E0089583E0089581E0089580E0E0
:1006200008954091E80042FFDDCF08950F931F9396
:10063000CF93DF9349D050D0C8EDD0E088818F7739
:10064000888388818068888388818F7D8883E7EDAF
:10065000F0E080818068808319BC10920F011092B5
:100660000B0110920D0110920C0100EE10E0F80148
:1006700080818B7F808388818160888342E060E015
:1006800080E04EDFE1EEF0E080818E7F8083E2EE5D
:10069000F0E0808181608083808188608083F801C0
:1006A00080818E7F8083888180618883DF91CF9174
:1006B0001F910F910895E7EDF0E0808181608083C4
:1006C00081E080930E01B2CFE8EDF0E080818C7F75
:1006D00080831092E20008951092DA001092E100F7
:1006E00008951F920F920FB60F9211240BB60F921E
:1006F0002F933F934F935F936F937F938F939F932A
:10070000AF93BF93EF93FF938091E10082FF0AC004
:100710008091E20082FF06C08091E1008B7F809390
:10072000E100F2D28091DA0080FF1DC08091D800F4
:1007300080FF19C08091DA008E7F8093DA0080916B
:10074000D90080FF0CC08CE089BD8EE089BD09B462
:1007500000FEFDCF81E080930F0186DD04C019BC4F
:1007600010920F0183DD8091E10080FF18C080911D
:10077000E20080FF14C08091E2008E7F8093E2004F
:100780008091E20080618093E2008091D8008062D5
:100790008093D80019BC85E080930F01B5D2809179
:1007A000E10084FF2DC08091E20084FF29C08CE02D
:1007B00089BD8EE089BD09B400FEFDCF8091D800CF
:1007C0008F7D8093D8008091E1008F7E8093E1003F
:1007D0008091E2008F7E8093E2008091E200816050
:1007E0008093E20080910B01811106C08091E300AB
:1007F00087FD02C081E001C084E080930F0184D2B4
:100800008091E10083FF22C08091E20083FF1EC03F
:100810008091E100877F8093E10082E080930F0167
:1008200010920B018091E1008E7F8093E100809116
:10083000E2008E7F8093E2008091E20080618093ED
:10084000E20042E060E080E06BDE5ED2FF91EF917B
:10085000BF91AF919F918F917F916F915F914F91D8
:100860003F912F910F900BBE0F900FBE0F901F90D6
:100870001895CF92DF92EF92FF920F931F93CF9331
:10088000DF93EC018B017A019EDE811133C0E1140C
:10089000F10439F0F70180819181081B190BC80F11
:1008A000D91FC12CD12C0115110519F18091E80037
:1008B00085FD16C08091E8008E778093E80025D2F0
:1008C000E114F10449F0F70180819181C80ED91E2D
:1008D000D182C08285E00EC076DE882321F30AC073
:1008E00089918093F10001501109FFEFCF1ADF0ABF
:1008F000DACF80E0DF91CF911F910F91FF90EF90C1
:10090000DF90CF900895209116013091170126179E
:10091000370748F06115710539F42091E8002E770A
:100920002093E80001C0B901FC0120E061157105C8
:1009300069F180910F018823D1F18530D1F1809147
:10094000E80083FD32C08091E80082FD28C08091DC
:10095000E80080FFEBCF8091F2009091F3006115E9
:10096000710551F08830910538F421912093F10000
:10097000615071090196F3CF21E0089709F020E05A
:100980008091E8008E778093E800D0CF2111D1CFFD
:1009900006C080910F01882351F0853051F080917D
:1009A000E80082FFF6CF80E0089581E0089582E0BC
:1009B000089583E0089520911601309117012617BC
:1009C000370748F06115710539F42091E8002E775A
:1009D0002093E80001C0B901FC0120E06115710518
:1009E00071F180910F018823D9F18530D9F180917F
:1009F000E80083FD33C08091E80082FD29C080912A
:100A0000E80080FFEBCF8091F2009091F300611538
:100A1000710559F08830910540F424912093F1003C
:100A20003196615071090196F2CF21E0089709F0E3
:100A300020E08091E8008E778093E800CFCF2111ED
:100A4000D0CF06C080910F01882351F0853051F03E
:100A50008091E80082FFF6CF80E0089581E008955C
:100A600082E0089583E008950F931F93CF93DF935F
:100A7000CDB7DEB7AA970FB6F894DEBF0FBECDBFD5
:100A8000E0E1F1E08091F100819321E0E831F207AB
:100A9000C9F711DC8091E80083FF1DC1809110012E
:100AA00090911101492F50E04A30510508F013C1CF
:100AB000FA01E45BFF4F3BC1803881F0823809F0D6
:100AC0000AC18091140187708093E9008091EB0046
:100AD00085FB882780F91092E90006C080910C01FF
:100AE00090910D01911182609091E800977F909311
:100AF000E8008093F1001092F100C5C0282F2D7FEF
:100B000009F0E9C0882319F0823061F0E4C08091D7
:100B10001201813009F0DFC0933009F080E080934A
:100B20000D012BC080911201811127C08091140109
:100B3000877009F4D0C08093E9002091EB0020FF7A
:100B40001CC0933021F48091EB00806214C090911E
:100B5000EB0090619093EB0021E030E0A90102C02E
:100B6000440F551F8A95E2F74093EA001092EA007D
:100B70008091EB0088608093EB001092E9008091F7
:100B8000E800877F83C08111A6C0109112011F77F2
:100B90000FB7F8948091E800877F8093E800F4DC39
:100BA0008091E80080FFFCCF8091E3008078812B6A
:100BB0008093E30080688093E300111102C082E01B
:100BC00001C083E080930F010FBF85C08058823041
:100BD00008F081C080911201909113018C3D53E087
:100BE000950771F583E08A838AE289834FB7F89489
:100BF000DE01139620E03EE051E2E32FF0E0509357
:100C00005700E49120FF03C0E295EF703F5FEF7063
:100C10008E2F90E0EA3010F0C79601C0C0968D93F9
:100C20009D932F5F243149F74FBF8091E800877F64
:100C30008093E8006AE270E0CE01019664DE12C0A3
:100C4000AE014F5F5F4F609114011CDCBC01892B2A
:100C500009F441C09091E800977F9093E800898162
:100C60009A81A9DE8091E8008B778093E80033C0F9
:100C7000803889F58091E800877F8093E800809133
:100C80000B018093F1008091E8008E778093E8005B
:100C90007BDC21C081111FC0809112019091130152
:100CA00099270297C4F48091E800877F8093E80039
:100CB0008091120180930B0167DC80910B018111FF
:100CC00006C08091E30087FD02C081E001C084E09E
:100CD00080930F01CDDA8091E80083FF0AC08091F4
:100CE000EB0080628093EB008091E800877F809327
:100CF000E800AA960FB6F894DEBF0FBECDBFDF9115
:100D0000CF911F910F9108950895CF9380910F0176
:100D1000882359F0C091E900C7701092E9008091D2
:100D2000E80083FDA1DEC093E900CF910895EE0FA6
:100D3000FF1F0024001C0BBE0790F691E02D0994C4
:100D4000DC0101C06D9341505040E0F70895F894E4
:020D5000FFCFD3
:00000001FF
