:100000004AC1000066C1000064C1000062C1000076
:1000100060C100005EC100005CC100005AC1000068
:1000200058C1000056C1000049C6000052C100007E
:1000300050C100004EC100004CC100004AC1000088
:1000400048C1000046C1000044C1000042C1000098
:1000500040C100003EC100003CC100003AC10000A8
:1000600038C1000036C1000034C1000032C10000B8
:1000700030C100002EC100002CC100002AC10000C8
:1000800028C1000026C1000024C1000022C10000D8
:1000900020C100001EC100004504360563046D0444
:1000A0009804C004CB04DC04F8041F054D494449FE
:1000B000204E6F7465202573202D204368616E6E7D
:1000C000656C2025642C2050697463682025642C9D
:1000D0002056656C6F636974792025640D0A001BD6
:1000E0005B33316D44657620456E756D20457272C7
:1000F0006F720D0A202D2D204572726F7220436F92
:1001000064652025640D0A202D2D2053756220453D
:1001100072726F7220436F64652025640D0A202D72
:100120002D20496E2053746174652025640D0A1BCF
:100130005B33376D001B5B33316D486F7374204D3B
:100140006F6465204572726F720D0A202D2D204557
:1001500072726F7220436F64652025640D0A1B5B09
:1001600033376D004D494449204465766963652005
:10017000456E756D6572617465642E0D0A001B5BBA
:1001800033316D436F6E74726F6C204572726F7293
:10019000202853657420436F6E66696775726174B9
:1001A000696F6E292E0D0A202D2D204572726F72F7
:1001B00020436F64653A2025640D0A1B5B33376D5D
:1001C00000202D2D204572726F7220436F64653AB6
:1001D0002025640D0A1B5B33376D001B5B33316DCB
:1001E000496E76616C6964204465766963652E0D9D
:1001F0000A001B5B33316D436F6E74726F6C204568
:1002000072726F72202847657420436F6E6669674B
:1002100075726174696F6E292E0D0A0047657474DA
:10022000696E6720436F6E66696720446174612E52
:100230000D0A001B5B33326D0D0A446576696365F8
:1002400020556E61747461636865642E0D0A1B5BD2
:1002500033376D001B5B33326D446576696365200F
:1002600041747461636865642E0D0A1B5B33376DDE
:10027000001B5B33366D4D49444920486F73742031
:1002800044656D6F2072756E6E696E672E0D0A1B68
:100290005B33376D000011241FBECFEFD0E2DEBF0D
:1002A000CDBF11E0A0E0B1E0EAE6F9E100E00BBF6C
:1002B00002C007900D92A831B107D9F721E0A8E15B
:1002C000B1E001C01D92AB33B207E1F76ED10C94DF
:1002D000B30C96CE9BB19F70892B8BB9089584B7D0
:1002E000877F84BF0FB6F894A895809160008861DD
:1002F00080936000109260000FBE90E080E80FB61F
:10030000F89480936100909361000FBE83E390E0C6
:100310009093CD008093CC0086E08093CA00109229
:10032000C80088E18093C900539A5A9A8AB1806FB5
:100330008AB98BB18F708BB96A98729A84B18F71B8
:1003400084B98DB18F7C8DB985B1806E85B98EB140
:1003500080638EB99DD4A5E3B1E0E7E2F1E01196A8
:10036000FC93EE931396FC93EE9312978EE0DF01CD
:100370001D928A95E9F783E083838AE899E0918763
:10038000808783E999E093878287089584E592E0E6
:100390000E94D50980EA9ECF83E392E00E94D509AE
:1003A00080E198CFCF938CE192E0FFD728D1C82F7E
:1003B0008823A9F0813019F482EF91E002C08BED1F
:1003C00091E0F3D71F92CF9381EC91E09F938F93AD
:1003D000C5D70F900F900F900F9080E90DC081E06E
:1003E00064D7882329F01F928F938EE791E0EECF98
:1003F00084E691E0DAD780E6CF916CCFC82FE0D3C6
:100400001F92CF9385E391E09F938F93A7D780E9C5
:1004100061DF0F900F900F900F90FFCF909126010A
:100420001F929F931F926F931F928F938FED90E077
:100430009F938F9393D78DB79EB708960FB6F89476
:100440009EBF0FBE8DBF80E945CF1F93CF93DF9333
:1004500000D000D0CDB7DEB7809126018B3009F0F7
:100460009CC081E08093A7008091A60080FF38C0E7
:1004700040E050E064E070E0CE01019601D580914B
:10048000F6009091F700892B29F48091A6008E77D1
:100490008093A60029812F7088E0820F8F708230B0
:1004A000F8F45C814B818A818F7090E0019629304D
:1004B00019F024E131E002C021E131E01F925F93A5
:1004C0001F924F939F938F933F932F938CEA90E0CB
:1004D0009F938F9343D70FB6F894DEBF0FBECDBF67
:1004E00082E08093A7008091A60082FF56C083B16E
:1004F0001CB11095107316958095807E182B209155
:1005000018012127629B02C030E001C039E026FFBC
:1005100004C016FD04C080E803C080E001C080E98B
:1005200027FF05C09DE317FD04C080E803C09CE3DE
:1005300001C080E923FF06C09EE313FD02C080E8EE
:1005400001C080E924FF06C09FE314FD02C080E8DB
:1005500001C080E925FF04C015FD1CC080E81BC058
:100560008823A9F0282F22952F702983832B8A8333
:100570009B8380E48C8340E050E064E070E0CE0137
:1005800001962FD48091A6008B778093A6001093BC
:10059000180103C080E99BE3E5CF0F900F900F9007
:1005A0000F90DF91CF911F91089599DE81E792E03E
:1005B000FCD680E18FDE789448DF9ED6FDCFFC012B
:1005C0008181843051F48581813039F48681833092
:1005D00021F48781811101C0089582E00895FC0112
:1005E0009181953031F483818370823031F480E0E1
:1005F0000895943011F481E0089582E00895AF9257
:10060000BF92CF92DF92EF92FF920F931F93CF93FF
:10061000DF93CDB7DEB7C450D2400FB6F894DEBF3B
:100620000FBECDBFAE014F5F5F4FCD5FDD4F598332
:100630004883C350D24020E032E0BE016F5F7D4F5F
:1006400081E08BD4853041F0863009F44FC0882397
:1006500019F1FF24F3944FC022E0F22E4CC04FEE6C
:1006600052E0BE016D5F7D4FCE018F5F9D4FCED4B6
:10067000F82E811111C0CD5FDD4FE881F981C350A3
:10068000D240828187FD02C06F01F8013097D1F41A
:100690008F01A114B10419F74FED52E0BE016D5F57
:1006A0007D4FCE018F5F9D4FB1D4811122C0CD5FB0
:1006B000DD4FA880B980C350D24000E010E0C12CCB
:1006C000D12CE7CFC114D10419F304811581E12C99
:1006D000228140E162E081E0D5D1F60104811581FB
:1006E000228140E262E082E0CDD105C093E0F92EA4
:1006F00002C084E0F82E8F2DCC5FDD4F0FB6F8944A
:10070000DEBF0FBECDBFDF91CF911F910F91FF9044
:10071000EF90DF90CF90BF90AF90089580919E00B2
:1007200081709091A0009D7F9093A00090919E0079
:10073000926090939E0090919E0091FDFCCF9091CD
:100740009E00916090939E0010921C019091A000D9
:1007500090722091A0002F7D2093A00020919F00F7
:100760002F7D20939F002AE030919F0035FF0BC022
:1007700020919F002F7D20939F0020919F002D7F2F
:1007800020939F0008C0EFECF7E03197F1F700C02D
:100790000000215049F7992329F09091A000906220
:1007A0009093A000811105C080919E008E7F809360
:1007B0009E008091A00082608093A0000895209107
:1007C0009E0021709091A00090723091A0003F7D1A
:1007D0003093A00030919F003F7D30939F00309177
:1007E0009E00316030939E00882339F130919F0044
:1007F00035FF06C030919F003F7D30939F008150B0
:10080000309126013130C1F03091A60034FF09C08B
:100810001092F5008091A6008F7E8093A60082E062
:100820000CC03091A60031FFDFCF8091A6008D7FF4
:100830008093A60083E001C081E0211105C02091D2
:100840009E002E7F20939E00992329F09091A00076
:1008500090629093A0000895EF920F931F93CF930F
:10086000DF93CDB7DEB728970FB6F894DEBF0FBE83
:10087000CDBFE09126018E2F90E08A30910508F0DF
:10088000F5C0FC01E45BFF4F60C500911A011091B7
:100890001B010115110509F4E9C081E090DF8823EF
:1008A00031F0909119019093260191E0D1C001504F
:1008B000110910931B0100931A01012B09F0D6C0F6
:1008C0008091190107C088EE93E090931B018093FB
:1008D0001A0183E080932601C9C080911A0190918A
:1008E0001B019C012150310930931B0120931A01F7
:1008F000892B39F08FEC97E00197F1F700C00000E9
:10090000B5C077988091D80080618093D80080919D
:10091000DD008B7F8093DD008091D7008061809324
:10092000D7008091DD0082608093DD0084E0D2CF2B
:1009300080919F0080FF9AC080919F008E7F80935E
:100940009F0080919F008D7F80939F008091DF00AA
:100950008D7F8093DF008091DE0082608093DE00D7
:1009600080919E00816080939E00E8D010922601C5
:1009700084E690E090931B0180931A0185E05CC0AF
:10098000CDDE1092260188EC90E090931B018093BD
:100990001A0186E051C0E12C00E410E020E040E0C4
:1009A00060E080E06FD08091AC0087FD03C080E004
:1009B00094E04EC087E08ECF88E0E1E0F1E0AEE168
:1009C000B1E001900D928A95E1F7CE01019677D3BF
:1009D00081113DC0888580930001A0DE1092260120
:1009E00088EC90E090931B0180931A0188E024C06A
:1009F0000091000110E0E12C20E040E060E080E0A8
:100A000041D08091AC0087FFD2CF88E0E9E0F1E0EF
:100A1000AEE1B1E001900D928A95E1F780E090E0BF
:100A20004ED3811114C01092260184E690E0909379
:100A30001B0180931A0189E08093190117C081E09E
:100A40008093A1008AE080932601ACDC0FC093E084
:100A500020912601213051F0682F892FDFDC809111
:100A6000DD0081608093DD0097DCC2D028960FB650
:100A7000F894DEBF0FBECDBFDF91CF911F910F91D4
:100A8000EF900895EF920F931F932F70422B90E4F5
:100A9000699FB0011124642B382F2E2D226037302E
:100AA00008F045C03093A700381313C048E050E069
:100AB00090E04017510738F09295907F922BE62FE7
:100AC00050E070E00EC09530B9F39F5F440F551FA2
:100AD000F0CFE091AA009091AB007091AD005091E1
:100AE000AE0091FD02C03F5FDACF4091A9004E7F7A
:100AF0004093A9004091AB004D7F4093AB004091E3
:100B0000A90041604093A900E093AA009093AB0034
:100B10007093AD005093AE009091A90090629093B5
:100B2000A9009091AC0097FDDECF80E003C08093D8
:100B3000A70081E01F910F91EF9008951092F800A7
:100B400080E08093A7001092AE001092A600109251
:100B5000AB009091A9009E7F9093A9008F5F873092
:100B600081F708954091A2005091A30085E69091ED
:100B7000AA009073903129F49091A60090FF05C0CF
:100B800019C09091A60092FD15C09091A60091FD0C
:100B900013C090912601913089F02091A2003091EC
:100BA000A3004217530719F3815011F0A901DFCFB9
:100BB00083E0089580E0089581E0089582E008953B
:100BC00070D077D0E0EEF0E0808181608083E8ED46
:100BD000F0E080818F77808319BCA7EDB0E08C9125
:100BE0008E7F8C9380818F7E808310921D0108956B
:100BF00058D05FD08091D8008F778093D8008091B3
:100C0000D80080688093D8008091D8008F7D809331
:100C1000D8008091D7008F778093D7008CE089BD72
:100C20008EE089BD09B400FEFDCF81E080932601EE
:100C300010921C0180E4809300018091D8008064B0
:100C40008093D8008091DD0081608093DD008091E9
:100C5000DD0084608093DD008091D7008F7E8093DB
:100C6000D7006F9A779A8091DE0081608093DE00D2
:100C70008091DE0084608093DE008091E0008E7FB2
:100C80008093E0008091D80080618093D80008951F
:100C9000E7EDF0E080818160808381E080931D0139
:100CA000A7CFE8EDF0E080818C7F80831092A000D8
:100CB00008951092DA0010929F0008951F920F92EB
:100CC0000FB60F9211240BB60F922F933F934F93B1
:100CD0005F936F937F938F939F93AF93BF93EF93A4
:100CE000FF9380919F0085FF0AC08091A00085FF3F
:100CF00006C080919F008F7D80939F00B9D1809125
:100D00009F0081FF15C08091A00081FF11C08091DC
:100D10009F008D7F80939F0080919F008E7F8093A6
:100D20009F008091A0008D7F8093A00035DB60DF65
:100D30008091DF0081FF15C08091DE0081FF11C02E
:100D40008091DF008D7F8093DF0077988091DD00B8
:100D500081608093DD0080E051DB1EDB81E08093C9
:100D600026018091DF0080FF17C08091DE0080FFA8
:100D700013C08091DF008E7F8093DF008091DE00C2
:100D80008E7F8093DE0002DB8091A00082608093E2
:100D9000A00082E0809326018091DF0082FF0EC0D8
:100DA0008091DE0082FF0AC08091DF008B7F8093FC
:100DB000DF0060E082E032DBEFDA1ADFFF91EF91D3
:100DC000BF91AF919F918F917F916F915F914F9163
:100DD0003F912F910F900BBE0F900FBE0F901F9061
:100DE0001895CF92DF92EF92FF920F931F93CF93BC
:100DF000DF93EC018B017A018091AA008F7C8062E5
:100E00008093AA00AFDE811132C0E114F10439F001
:100E1000F70180819181081B190BC80FD91FC12CC4
:100E2000D12C0115110511F18091A60085FD15C089
:100E30008091A6008B778093A600E114F10449F01D
:100E4000F70180819181C80ED91ED182C08284E0D1
:100E50000EC088DE882329F30AC089918093AF00F1
:100E600001501109FFEFCF1ADF0ADBCF80E0DF91DD
:100E7000CF911F910F91FF90EF90DF90CF90089549
:100E8000CF92DF92EF92FF920F931F93CF93DF9356
:100E9000EC018B017A018091AA008F7C80618093A4
:100EA000AA0060DE811132C0E114F10439F0F701CB
:100EB00080819181081B190BC80FD91FC12CD12C1F
:100EC0000115110511F18091A60085FD15C08091D5
:100ED000A6008E778093A600E114F10449F0F70193
:100EE00080819181C80ED91ED182C08284E00EC05B
:100EF00039DE882329F30AC08091AF00899301501D
:100F00001109FFEFCF1ADF0ADBCF80E0DF91CF912D
:100F10001F910F91FF90EF90DF90CF900895CF93A6
:100F2000DF93DC01EB01E881F98120818D919C91B7
:100F3000119730E08217930708F49C01E20FF31F2A
:100F4000EB01F983E8838D919C911197821B930BA0
:100F50008D939C93DF91CF910895CF92DF92EF9282
:100F6000FF920F931F93CF93DF93CDB7DEB72997EF
:100F70000FB6F894DEBF0FBECDBF6B018A017901B9
:100F800090E890931E0196E090931F0190E00197E6
:100F9000926090932101809320011092230110927E
:100FA000220189E090E09093250180932401109222
:100FB000A700CE01019683D0811119C08B819C813D
:100FC000F60191838083E816F90670F0909325016D
:100FD00080932401C80173D0811109C0F801818177
:100FE000823021F480E003C085E001C086E02996CC
:100FF0000FB6F894DEBF0FBECDBFDF91CF911F912A
:101000000F91FF90EF90DF90CF900895AF92BF9235
:10101000CF92DF92EF92FF920F931F93CF93DF93C4
:101020008C01EB016A01F801E080F180E114F10428
:1010300099F0A880B980BE01C80171DF88819981CB
:10104000F6010995823079F3813039F4B982A882AA
:10105000F801F182E08201C082E0DF91CF911F911F
:101060000F91FF90EF90DF90CF90BF90AF900895D9
:1010700008951F93CF93DF93182FC9EED3E011117A
:101080000CC08091A60083FD15C081E098DB811122
:1010900012C02197A1F784E00EC0113029F480918D
:1010A000A60080FFF2CF06C0123079F78091A6002B
:1010B00082FFEBCF80E0DF91CF911F910895FF92E7
:1010C0000F931F93CF93DF938C0180919E008170CB
:1010D000F82EC0912401D091250180919E0081605D
:1010E00080939E0081E06BDB8111C8C08091AA00D3
:1010F0008F7C8093AA001092F5008091A6008F7ECD
:101100008093A6008091A9008F7B8093A900EEE1D7
:10111000F1E086E291E021912093AF008E179F07C6
:10112000D1F78091A60087778093A60080E0A1DFA9
:101130008111A4C08091A90080648093A90081E0FE
:101140003EDB81119BC080911E0187FF4EC08091C4
:10115000AA008F7C80618093AA000115110509F017
:101160003AC08091AA008F7C80628093AA0080910F
:10117000A9008F7B8093A90082E07BDF81117EC074
:101180008091A6008B778093A60082E072DF76C004
:101190008091A9008F7B8093A90081E06ADF811193
:1011A0006DC08091F6009091F700892B11F4C0E09A
:1011B000D0E0F8018F018091F6009091F700892B23
:1011C00069F48091A90080648093A9008091A600B1
:1011D0008E778093A6002097D9F6C3CF209789F306
:1011E0008091AF0081932197E5CF0115110591F111
:1011F0008091AA008F7C80628093AA008091A900D0
:101200008F7B8093A90082E02097E1F032DF81118B
:1012100035C02091F6003091F7008091000190E0F8
:101220002817390748F40F5F1F4FF8013197808165
:101230008093AF00219769F78091A6008B77809308
:10124000A600E1CF16DF811119C08091A90080644A
:101250008093A9008091AA008F7C80618093AA006E
:101260008091A9008F7B8093A90081E002DF81112A
:1012700005C09091A6009E779093A6009091A9003A
:1012800090649093A900F11005C090919E009E7FFC
:1012900090939E0091E09093A8001092A800DF9197
:1012A000CF911F910F91FF900895CF93C82F109267
:1012B0001E0189E080931F018C2F90E09093210103
:1012C0008093200110922301109222011092250197
:1012D000109224011092A70080E090E0F0DE8111CE
:1012E00009C0C0931C01C11102C09AE001C09BE07B
:1012F00090932601CF9108951F93CF93DF93C7EA70
:10130000D0E0188117701882A7DA1883DF91CF9187
:101310001F9108959091C80095FFFCCF8093CE0057
:1013200080E090E008958091C80087FF08C0809118
:10133000C80087FF07C08091CE0090E008958EEF2F
:101340009FEF08958FEF9FEF0895EE0FFF1F00248A
:10135000001C0BBE0790F691E02D09940F931F938C
:10136000CF93DF93CDB7DEB7AE01495F5F4FDA01B0
:101370006D917D91AD0105E311E0F80182819381CA
:10138000DC0113962C911397286013962C933ED072
:10139000D8011296ED91FC9113972381277F238327
:1013A000DF91CF911F910F9108950F931F93CF93CA
:1013B000DF938C01E0913701F0913801838181FF47
:1013C0001BC0D0E0C0E0F8018491609137017091BA
:1013D0003801DB011896ED91FC911997882341F0B3
:1013E0000995892B11F0DFEFCFEF0F5F1F4FEBCF88
:1013F0008AE00995892B19F08FEF9FEF02C08D2F9E
:101400009C2FDF91CF911F910F9108952F923F92C2
:101410004F925F926F927F928F929F92AF92BF9204
:10142000CF92DF92EF92FF920F931F93CF93DF93B0
:10143000CDB7DEB72B970FB6F894DEBF0FBECDBF8A
:101440006C017B018A01FC0117821682838181FF76
:10145000BFC1CE0101963C01F6019381F70193FDD6
:10146000859193FF81917F01882309F4ADC1853275
:1014700039F493FD859193FF81917F01853221F4A9
:10148000B60190E0D6D1E8CF912C212C312CFFE190
:10149000F315D8F08B3279F038F4803279F083325A
:1014A000A1F4232D20611DC08D3261F0803369F4D9
:1014B000232D216016C0832D8260382EE32DE46039
:1014C0003E2E2AC0F32DF8601DC037FC2DC020ED44
:1014D000280F2A3040F08E32B9F436FC75C1232D26
:1014E0002064322E19C036FE06C08AE0989E200D78
:1014F0001124922E11C0EAE02E9E200D1124222EDE
:10150000F32DF0623F2E08C08C3621F4832D8068C5
:10151000382E02C0883641F4F70193FD859193FF80
:1015200081917F018111B3CF982F9F7D9554933086
:1015300028F40C5F1F4F9FE399830DC0833631F071
:10154000833771F0833509F055C020C0F8018081E0
:1015500089830E5F1F4F88248394912C530112C0FE
:101560002801F2E04F0E511CF801A080B18036FE38
:1015700003C0692D70E002C06FEF7FEFC5014ED14F
:101580004C018201F32DFF773F2E15C0280122E088
:10159000420E511CF801A080B18036FE03C0692DB7
:1015A00070E002C06FEF7FEFC5012DD14C01F32D2C
:1015B000F0683F2E820133FC19C0822D90E088161E
:1015C0009906A0F4B60180E290E033D12A94F5CFD9
:1015D000F50137FC859137FE81915F01B60190E0FE
:1015E00028D121102A9421E0821A910881149104B3
:1015F00079F7E1C0843611F0893639F5F80137FE04
:1016000007C060817181828193810C5F1F4F08C088
:1016100060817181072E000C880B990B0E5F1F4FA4
:10162000F32DFF763F2E97FF09C09095809570951A
:1016300061957F4F8F4F9F4FF0683F2E2AE030E03B
:10164000A30133D1882E861844C0853731F4232D69
:101650002F7EB22E2AE030E025C0932D997FB92E3F
:101660008F36C1F018F4883579F0AEC0803719F0A4
:10167000883721F0A9C0E92FE061BE2EB4FE0DC06D
:10168000FB2DF460BF2E09C034FE0AC0292F26604E
:10169000B22E06C028E030E005C020E130E002C0F4
:1016A00020E132E0F801B7FE07C0608171818281DC
:1016B00093810C5F1F4F06C06081718180E090E0D4
:1016C0000E5F1F4FA301F1D0882E8618FB2DFF77E8
:1016D0003F2E36FE0DC0232D2E7FA22E891458F4E6
:1016E00034FE0BC032FC09C0832D8E7EA82E05C0AF
:1016F000B82CA32C03C0B82C01C0B92CA4FE0FC079
:10170000FE01E80DF11D8081803321F49A2D997E30
:10171000A92E09C0A2FE06C0B394B39404C08A2DBA
:10172000867809F0B394A3FC10C0A0FE06C0B214E2
:1017300080F4280C922C9B180DC0B21458F4B601FA
:1017400080E290E076D0B394F8CFB21418F42B185E
:1017500002C0982C212CA4FE0FC0B60180E390E0BB
:1017600068D0A2FE16C0A1FC03C088E790E002C0CA
:1017700088E590E0B6010CC08A2D867851F0A1FE74
:1017800002C08BE201C080E2A7FC8DE2B60190E0CE
:1017900050D0891430F4B60180E390E04AD09A9496
:1017A000F8CF8A94F301E80DF11D8081B60190E035
:1017B00040D08110F6CF222009F44ECEB60180E24F
:1017C00090E037D02A94F7CFF6018681978102C046
:1017D0008FEF9FEF2B960FB6F894DEBF0FBECDBFF5
:1017E000DF91CF911F910F91FF90EF90DF90CF90FD
:1017F000BF90AF909F908F907F906F905F904F9031
:101800003F902F900895FC010590615070400110A9
:10181000D8F7809590958E0F9F1F0895FC01615019
:10182000704001900110D8F7809590958E0F9F1F02
:1018300008950F931F93CF93DF93FB01238121FD25
:1018400003C08FEF9FEF2CC022FF16C04681578147
:10185000248135814217530744F4A081B1819D0151
:101860002F5F3F4F318320838C93268137812F5FF9
:101870003F4F3783268314C08B01EC01FB010084AA
:10188000F185E02D0995892BE1F6D80116968D9109
:101890009C911797019617969C938E931697CE015D
:1018A000DF91CF911F910F910895FA01AA27283057
:1018B00051F1203181F1E8946F936E7F6E5F7F4F1D
:1018C0008F4F9F4FAF4FB1E03ED0B4E03CD0670F99
:1018D000781F891F9A1FA11D680F791F8A1F911DEC
:1018E000A11D6A0F711D811D911DA11D20D009F43C
:1018F00068943F912AE0269F11243019305D31937E
:10190000DEF6CF010895462F4770405D4193B3E066
:101910000FD0C9F7F6CF462F4F70405D4A3318F00D
:10192000495D31FD4052419302D0A9F7EACFB4E0BE
:10193000A6959795879577956795BA95C9F7009776
:101940006105710508959B01AC010A2E0694579517
:10195000479537952795BA95C9F7620F731F841F6E
:0A196000951FA01D0895F894FFCF15
:10196A004080060001000008000005010000000098
:08197A00004F6E004F6666008D
:00000001FF
